{
  "_format": "hh-sol-artifact-1",
  "contractName": "Pomp",
  "sourceName": "contracts/pomp.sol",
  "abi": [
    {
      "inputs": [
        {
          "internalType": "contract IVerifier",
          "name": "_verifier",
          "type": "address"
        },
        {
          "internalType": "uint256",
          "name": "poolDepth",
          "type": "uint256"
        },
        {
          "internalType": "contract ZkSbtInterface",
          "name": "_ZkSbt",
          "type": "address"
        }
      ],
      "stateMutability": "nonpayable",
      "type": "constructor"
    },
    {
      "inputs": [],
      "name": "Semaphore__GroupAlreadyExists",
      "type": "error"
    },
    {
      "inputs": [],
      "name": "Semaphore__GroupDoesNotExist",
      "type": "error"
    },
    {
      "anonymous": false,
      "inputs": [
        {
          "indexed": true,
          "internalType": "uint256",
          "name": "groupId",
          "type": "uint256"
        },
        {
          "indexed": false,
          "internalType": "uint256",
          "name": "merkleTreeDepth",
          "type": "uint256"
        },
        {
          "indexed": false,
          "internalType": "uint256",
          "name": "zeroValue",
          "type": "uint256"
        }
      ],
      "name": "GroupCreated",
      "type": "event"
    },
    {
      "anonymous": false,
      "inputs": [
        {
          "indexed": true,
          "internalType": "uint256",
          "name": "groupId",
          "type": "uint256"
        },
        {
          "indexed": false,
          "internalType": "uint256",
          "name": "index",
          "type": "uint256"
        },
        {
          "indexed": false,
          "internalType": "uint256",
          "name": "identityCommitment",
          "type": "uint256"
        },
        {
          "indexed": false,
          "internalType": "uint256",
          "name": "merkleTreeRoot",
          "type": "uint256"
        }
      ],
      "name": "MemberAdded",
      "type": "event"
    },
    {
      "anonymous": false,
      "inputs": [
        {
          "indexed": true,
          "internalType": "uint256",
          "name": "groupId",
          "type": "uint256"
        },
        {
          "indexed": false,
          "internalType": "uint256",
          "name": "index",
          "type": "uint256"
        },
        {
          "indexed": false,
          "internalType": "uint256",
          "name": "identityCommitment",
          "type": "uint256"
        },
        {
          "indexed": false,
          "internalType": "uint256",
          "name": "merkleTreeRoot",
          "type": "uint256"
        }
      ],
      "name": "MemberRemoved",
      "type": "event"
    },
    {
      "anonymous": false,
      "inputs": [
        {
          "indexed": true,
          "internalType": "uint256",
          "name": "groupId",
          "type": "uint256"
        },
        {
          "indexed": false,
          "internalType": "uint256",
          "name": "index",
          "type": "uint256"
        },
        {
          "indexed": false,
          "internalType": "uint256",
          "name": "identityCommitment",
          "type": "uint256"
        },
        {
          "indexed": false,
          "internalType": "uint256",
          "name": "newIdentityCommitment",
          "type": "uint256"
        },
        {
          "indexed": false,
          "internalType": "uint256",
          "name": "merkleTreeRoot",
          "type": "uint256"
        }
      ],
      "name": "MemberUpdated",
      "type": "event"
    },
    {
      "anonymous": false,
      "inputs": [
        {
          "indexed": true,
          "internalType": "address",
          "name": "previousOwner",
          "type": "address"
        },
        {
          "indexed": true,
          "internalType": "address",
          "name": "newOwner",
          "type": "address"
        }
      ],
      "name": "OwnershipTransferred",
      "type": "event"
    },
    {
      "anonymous": false,
      "inputs": [
        {
          "indexed": true,
          "internalType": "uint256",
          "name": "identity",
          "type": "uint256"
        },
        {
          "indexed": false,
          "internalType": "uint256",
          "name": "asset",
          "type": "uint256"
        },
        {
          "indexed": false,
          "internalType": "uint256",
          "name": "range",
          "type": "uint256"
        },
        {
          "indexed": false,
          "internalType": "uint256",
          "name": "sbtId",
          "type": "uint256"
        }
      ],
      "name": "SbtMinted",
      "type": "event"
    },
    {
      "anonymous": false,
      "inputs": [
        {
          "indexed": true,
          "internalType": "address",
          "name": "oldAddress",
          "type": "address"
        },
        {
          "indexed": true,
          "internalType": "address",
          "name": "newAddress",
          "type": "address"
        }
      ],
      "name": "ZkSbtAddressChange",
      "type": "event"
    },
    {
      "inputs": [],
      "name": "ZkSbt",
      "outputs": [
        {
          "internalType": "contract ZkSbtInterface",
          "name": "",
          "type": "address"
        }
      ],
      "stateMutability": "view",
      "type": "function"
    },
    {
      "inputs": [
        {
          "internalType": "address",
          "name": "token",
          "type": "address"
        }
      ],
      "name": "addAsset",
      "outputs": [],
      "stateMutability": "nonpayable",
      "type": "function"
    },
    {
      "inputs": [
        {
          "internalType": "uint256",
          "name": "groupId",
          "type": "uint256"
        }
      ],
      "name": "getMerkleTreeDepth",
      "outputs": [
        {
          "internalType": "uint256",
          "name": "",
          "type": "uint256"
        }
      ],
      "stateMutability": "view",
      "type": "function"
    },
    {
      "inputs": [
        {
          "internalType": "uint256",
          "name": "groupId",
          "type": "uint256"
        }
      ],
      "name": "getMerkleTreeRoot",
      "outputs": [
        {
          "internalType": "uint256",
          "name": "",
          "type": "uint256"
        }
      ],
      "stateMutability": "view",
      "type": "function"
    },
    {
      "inputs": [
        {
          "internalType": "uint256",
          "name": "groupId",
          "type": "uint256"
        }
      ],
      "name": "getNumberOfMerkleTreeLeaves",
      "outputs": [
        {
          "internalType": "uint256",
          "name": "",
          "type": "uint256"
        }
      ],
      "stateMutability": "view",
      "type": "function"
    },
    {
      "inputs": [],
      "name": "latestPoolId",
      "outputs": [
        {
          "internalType": "uint256",
          "name": "",
          "type": "uint256"
        }
      ],
      "stateMutability": "view",
      "type": "function"
    },
    {
      "inputs": [
        {
          "internalType": "uint256[]",
          "name": "identity",
          "type": "uint256[]"
        },
        {
          "internalType": "uint256",
          "name": "asset",
          "type": "uint256"
        },
        {
          "internalType": "uint256",
          "name": "range",
          "type": "uint256"
        },
        {
          "internalType": "uint256[]",
          "name": "sbtId",
          "type": "uint256[]"
        }
      ],
      "name": "mint",
      "outputs": [],
      "stateMutability": "nonpayable",
      "type": "function"
    },
    {
      "inputs": [
        {
          "internalType": "uint256",
          "name": "",
          "type": "uint256"
        }
      ],
      "name": "nullifierHashes",
      "outputs": [
        {
          "internalType": "bool",
          "name": "",
          "type": "bool"
        }
      ],
      "stateMutability": "view",
      "type": "function"
    },
    {
      "inputs": [],
      "name": "owner",
      "outputs": [
        {
          "internalType": "address",
          "name": "",
          "type": "address"
        }
      ],
      "stateMutability": "view",
      "type": "function"
    },
    {
      "inputs": [
        {
          "internalType": "uint256",
          "name": "",
          "type": "uint256"
        },
        {
          "internalType": "uint256",
          "name": "",
          "type": "uint256"
        }
      ],
      "name": "pools",
      "outputs": [
        {
          "internalType": "uint256",
          "name": "id",
          "type": "uint256"
        },
        {
          "internalType": "uint256",
          "name": "depth",
          "type": "uint256"
        }
      ],
      "stateMutability": "view",
      "type": "function"
    },
    {
      "inputs": [],
      "name": "renounceOwnership",
      "outputs": [],
      "stateMutability": "nonpayable",
      "type": "function"
    },
    {
      "inputs": [
        {
          "internalType": "uint256",
          "name": "",
          "type": "uint256"
        },
        {
          "internalType": "uint256",
          "name": "",
          "type": "uint256"
        }
      ],
      "name": "salts",
      "outputs": [
        {
          "internalType": "uint256",
          "name": "",
          "type": "uint256"
        }
      ],
      "stateMutability": "view",
      "type": "function"
    },
    {
      "inputs": [
        {
          "internalType": "uint256",
          "name": "",
          "type": "uint256"
        },
        {
          "internalType": "uint256",
          "name": "",
          "type": "uint256"
        },
        {
          "internalType": "uint256",
          "name": "",
          "type": "uint256"
        }
      ],
      "name": "sbt_minted",
      "outputs": [
        {
          "internalType": "bool",
          "name": "",
          "type": "bool"
        }
      ],
      "stateMutability": "view",
      "type": "function"
    },
    {
      "inputs": [
        {
          "internalType": "address",
          "name": "_newZkSbtAddress",
          "type": "address"
        }
      ],
      "name": "setZkSbtAddress",
      "outputs": [],
      "stateMutability": "nonpayable",
      "type": "function"
    },
    {
      "inputs": [
        {
          "internalType": "address",
          "name": "newOwner",
          "type": "address"
        }
      ],
      "name": "transferOwnership",
      "outputs": [],
      "stateMutability": "nonpayable",
      "type": "function"
    },
    {
      "inputs": [
        {
          "internalType": "uint256",
          "name": "",
          "type": "uint256"
        }
      ],
      "name": "verifiers",
      "outputs": [
        {
          "internalType": "contract IVerifier",
          "name": "",
          "type": "address"
        }
      ],
      "stateMutability": "view",
      "type": "function"
    },
    {
      "inputs": [
        {
          "internalType": "uint256",
          "name": "asset",
          "type": "uint256"
        },
        {
          "internalType": "uint256",
          "name": "range",
          "type": "uint256"
        },
        {
          "internalType": "uint256",
          "name": "nullifierHash",
          "type": "uint256"
        },
        {
          "internalType": "uint256[8]",
          "name": "proof",
          "type": "uint256[8]"
        }
      ],
      "name": "verify",
      "outputs": [],
      "stateMutability": "nonpayable",
      "type": "function"
    }
  ],
  "bytecode": "0x60806040523480156200001157600080fd5b5060405162002389380380620023898339818101604052810190620000379190620004fb565b620000576200004b6200020660201b60201c565b6200020e60201b60201c565b826007600084815260200190815260200160002060006101000a81548173ffffffffffffffffffffffffffffffffffffffff021916908373ffffffffffffffffffffffffffffffffffffffff16021790555060006002819055506200013760006001811115620000f0577f4e487b7100000000000000000000000000000000000000000000000000000000600052602160045260246000fd5b6003808111156200012a577f4e487b7100000000000000000000000000000000000000000000000000000000600052602160045260246000fd5b84620002d460201b60201c565b620001bc60018081111562000175577f4e487b7100000000000000000000000000000000000000000000000000000000600052602160045260246000fd5b600380811115620001af577f4e487b7100000000000000000000000000000000000000000000000000000000600052602160045260246000fd5b84620002d460201b60201c565b80600360006101000a81548173ffffffffffffffffffffffffffffffffffffffff021916908373ffffffffffffffffffffffffffffffffffffffff16021790555050505062000757565b600033905090565b6000600160009054906101000a900473ffffffffffffffffffffffffffffffffffffffff16905081600160006101000a81548173ffffffffffffffffffffffffffffffffffffffff021916908373ffffffffffffffffffffffffffffffffffffffff1602179055508173ffffffffffffffffffffffffffffffffffffffff168173ffffffffffffffffffffffffffffffffffffffff167f8be0079c531659141344cd1fd0a4f28419497f9722a3daafe3b4186f6b6457e060405160405180910390a35050565b620002e8600254826200035560201b60201c565b604051806040016040528060026000815480929190620003089062000682565b919050558152602001828152506004600085815260200190815260200160002060008481526020019081526020016000206000820151816000015560208201518160010155905050505050565b600062000368836200049760201b60201c565b14620003a0576040517f8121725b00000000000000000000000000000000000000000000000000000000815260040160405180910390fd5b6000600883604051602001620003b7919062000595565b6040516020818303038152906040528051906020012060001c901c905060008084815260200190815260200160002073__$0c6eb7207c37accf1552a1c47686411ac0$__631095fbb4909184846040518463ffffffff1660e01b81526004016200042493929190620005b2565b60006040518083038186803b1580156200043d57600080fd5b505af415801562000452573d6000803e3d6000fd5b50505050827f0d000126c26c1bbe400fd2332187f75d58b69306f9ec47b408686189d3a0083383836040516200048a929190620005ef565b60405180910390a2505050565b6000806000838152602001908152602001600020600001549050919050565b600081519050620004c78162000709565b92915050565b600081519050620004de8162000723565b92915050565b600081519050620004f5816200073d565b92915050565b6000806000606084860312156200051157600080fd5b60006200052186828701620004b6565b93505060206200053486828701620004e4565b92505060406200054786828701620004cd565b9150509250925092565b8082525050565b620005638162000678565b82525050565b620005748162000678565b82525050565b6200058f620005898262000678565b620006d0565b82525050565b6000620005a382846200057a565b60208201915081905092915050565b6000606082019050620005c9600083018662000551565b620005d8602083018562000569565b620005e7604083018462000569565b949350505050565b600060408201905062000606600083018562000558565b62000615602083018462000558565b9392505050565b6000620006298262000658565b9050919050565b60006200063d826200061c565b9050919050565b600062000651826200061c565b9050919050565b600073ffffffffffffffffffffffffffffffffffffffff82169050919050565b6000819050919050565b60006200068f8262000678565b91507fffffffffffffffffffffffffffffffffffffffffffffffffffffffffffffffff821415620006c557620006c4620006da565b5b600182019050919050565b6000819050919050565b7f4e487b7100000000000000000000000000000000000000000000000000000000600052601160045260246000fd5b620007148162000630565b81146200072057600080fd5b50565b6200072e8162000644565b81146200073a57600080fd5b50565b620007488162000678565b81146200075457600080fd5b50565b611c2280620007676000396000f3fe608060405234801561001057600080fd5b506004361061010b5760003560e01c8063638480be116100a25780638cc5be5c116100715780638cc5be5c146102b75780638da5cb5b146102e7578063ac1eff6814610305578063dabc4d5114610335578063f2fde38b146103655761010b565b8063638480be1461021c5780636389e1071461024c578063715018a61461027c5780637450e2de146102865761010b565b8063298410e5116100de578063298410e5146101a8578063417c4fa7146101c457806346541a24146101e057806356bf062e146101fe5761010b565b80630ffccced1461011057806313efaaaa1461012c5780631f79a1e914610148578063206dd17b14610178575b600080fd5b61012a60048036038101906101259190611264565b610381565b005b610146600480360381019061014191906113dc565b6106df565b005b610162600480360381019061015d9190611328565b610c18565b60405161016f9190611738565b60405180910390f35b610192600480360381019061018d919061138d565b610c38565b60405161019f9190611738565b60405180910390f35b6101c260048036038101906101bd919061123b565b610c74565b005b6101de60048036038101906101d9919061123b565b610c7f565b005b6101e8610d4d565b6040516101f59190611832565b60405180910390f35b610206610d53565b604051610213919061176e565b60405180910390f35b61023660048036038101906102319190611328565b610d79565b6040516102439190611832565b60405180910390f35b61026660048036038101906102619190611328565b610d98565b6040516102739190611832565b60405180910390f35b610284610db7565b005b6102a0600480360381019061029b9190611351565b610dcb565b6040516102ae92919061184d565b60405180910390f35b6102d160048036038101906102cc9190611351565b610dfc565b6040516102de9190611832565b60405180910390f35b6102ef610e21565b6040516102fc91906116cf565b60405180910390f35b61031f600480360381019061031a9190611328565b610e4b565b60405161032c9190611753565b60405180910390f35b61034f600480360381019061034a9190611328565b610e7e565b60405161035c9190611832565b60405180910390f35b61037f600480360381019061037a919061123b565b610e9d565b005b610389610f21565b60005b868690508110156106d657610407600460008781526020019081526020016000206000868152602001908152602001600020600001548888848181106103fb577f4e487b7100000000000000000000000000000000000000000000000000000000600052603260045260246000fd5b90506020020135610f9f565b60016008600087815260200190815260200160002060008681526020019081526020016000206000898985818110610468577f4e487b7100000000000000000000000000000000000000000000000000000000600052603260045260246000fd5b90506020020135815260200190815260200160002060006101000a81548160ff0219169083151502179055506000600360009054906101000a900473ffffffffffffffffffffffffffffffffffffffff1673ffffffffffffffffffffffffffffffffffffffff166245c88d89898581811061050c577f4e487b7100000000000000000000000000000000000000000000000000000000600052603260045260246000fd5b90506020020135888888888881811061054e577f4e487b7100000000000000000000000000000000000000000000000000000000600052603260045260246000fd5b905060200201356040518563ffffffff1660e01b815260040161057494939291906118ad565b602060405180830381600087803b15801561058e57600080fd5b505af11580156105a2573d6000803e3d6000fd5b505050506040513d601f19601f820116820180604052508101906105c691906112ff565b905080610608576040517f08c379a00000000000000000000000000000000000000000000000000000000081526004016105ff906117c9565b60405180910390fd5b878783818110610641577f4e487b7100000000000000000000000000000000000000000000000000000000600052603260045260246000fd5b905060200201357fe67a5e82598f7f53d4b460514b6cd2b3ff2694703b59b3997c9762fa6185390587878787878181106106a4577f4e487b7100000000000000000000000000000000000000000000000000000000600052603260045260246000fd5b905060200201356040516106ba93929190611876565b60405180910390a25080806106ce90611a65565b91505061038c565b50505050505050565b600061071160046000878152602001908152602001600020600086815260200190815260200160002060000154610d98565b9050600061074560046000888152602001908152602001600020600087815260200190815260200160002060000154610e7e565b90506000600367ffffffffffffffff81111561078a577f4e487b7100000000000000000000000000000000000000000000000000000000600052604160045260246000fd5b6040519080825280602002602001820160405280156107b85781602001602082028036833780820191505090505b50905081816000815181106107f6577f4e487b7100000000000000000000000000000000000000000000000000000000600052603260045260246000fd5b602002602001018181525050848160018151811061083d577f4e487b7100000000000000000000000000000000000000000000000000000000600052603260045260246000fd5b60200260200101818152505060056000888152602001908152602001600020600087815260200190815260200160002054816002815181106108a8577f4e487b7100000000000000000000000000000000000000000000000000000000600052603260045260246000fd5b60200260200101818152505060006007600085815260200190815260200160002060009054906101000a900473ffffffffffffffffffffffffffffffffffffffff1673ffffffffffffffffffffffffffffffffffffffff1663c32e370e60405180604001604052808860006008811061094a577f4e487b7100000000000000000000000000000000000000000000000000000000600052603260045260246000fd5b602002013581526020018860016008811061098e577f4e487b7100000000000000000000000000000000000000000000000000000000600052603260045260246000fd5b6020020135815250604051806040016040528060405180604001604052808b6002600881106109e6577f4e487b7100000000000000000000000000000000000000000000000000000000600052603260045260246000fd5b602002013581526020018b600360088110610a2a577f4e487b7100000000000000000000000000000000000000000000000000000000600052603260045260246000fd5b6020020135815250815260200160405180604001604052808b600460088110610a7c577f4e487b7100000000000000000000000000000000000000000000000000000000600052603260045260246000fd5b602002013581526020018b600560088110610ac0577f4e487b7100000000000000000000000000000000000000000000000000000000600052603260045260246000fd5b602002013581525081525060405180604001604052808a600660088110610b10577f4e487b7100000000000000000000000000000000000000000000000000000000600052603260045260246000fd5b602002013581526020018a600760088110610b54577f4e487b7100000000000000000000000000000000000000000000000000000000600052603260045260246000fd5b6020020135815250866040518563ffffffff1660e01b8152600401610b7c94939291906116ea565b60206040518083038186803b158015610b9457600080fd5b505afa158015610ba8573d6000803e3d6000fd5b505050506040513d601f19601f82011682018060405250810190610bcc91906112ff565b905080610c0e576040517f08c379a0000000000000000000000000000000000000000000000000000000008152600401610c05906117a9565b60405180910390fd5b5050505050505050565b60066020528060005260406000206000915054906101000a900460ff1681565b6008602052826000526040600020602052816000526040600020602052806000526040600020600092509250509054906101000a900460ff1681565b610c7c610f21565b50565b610c87610f21565b6000600360009054906101000a900473ffffffffffffffffffffffffffffffffffffffff16905081600360006101000a81548173ffffffffffffffffffffffffffffffffffffffff021916908373ffffffffffffffffffffffffffffffffffffffff1602179055508173ffffffffffffffffffffffffffffffffffffffff168173ffffffffffffffffffffffffffffffffffffffff167f11a7c3b8107d993bc669b5867b58e002c54e379b04105f91481b7860c57e6b9760405160405180910390a35050565b60025481565b600360009054906101000a900473ffffffffffffffffffffffffffffffffffffffff1681565b6000806000838152602001908152602001600020600201549050919050565b6000806000838152602001908152602001600020600001549050919050565b610dbf610f21565b610dc960006110c6565b565b6004602052816000526040600020602052806000526040600020600091509150508060000154908060010154905082565b6005602052816000526040600020602052806000526040600020600091509150505481565b6000600160009054906101000a900473ffffffffffffffffffffffffffffffffffffffff16905090565b60076020528060005260406000206000915054906101000a900473ffffffffffffffffffffffffffffffffffffffff1681565b6000806000838152602001908152602001600020600101549050919050565b610ea5610f21565b600073ffffffffffffffffffffffffffffffffffffffff168173ffffffffffffffffffffffffffffffffffffffff161415610f15576040517f08c379a0000000000000000000000000000000000000000000000000000000008152600401610f0c90611789565b60405180910390fd5b610f1e816110c6565b50565b610f2961118c565b73ffffffffffffffffffffffffffffffffffffffff16610f47610e21565b73ffffffffffffffffffffffffffffffffffffffff1614610f9d576040517f08c379a0000000000000000000000000000000000000000000000000000000008152600401610f94906117e9565b60405180910390fd5b565b6000610faa83610d98565b1415610fe2576040517f029f057900000000000000000000000000000000000000000000000000000000815260040160405180910390fd5b60008083815260200190815260200160002073__$0c6eb7207c37accf1552a1c47686411ac0$__63168703fa9091836040518363ffffffff1660e01b815260040161102e929190611809565b60006040518083038186803b15801561104657600080fd5b505af415801561105a573d6000803e3d6000fd5b50505050600061106983610e7e565b90506000600161107885610d79565b61108291906119a1565b9050837f19239b3f93cd10558aaf11423af70c77763bf54f52bcc75bfa74d4d13548cde98285856040516110b893929190611876565b60405180910390a250505050565b6000600160009054906101000a900473ffffffffffffffffffffffffffffffffffffffff16905081600160006101000a81548173ffffffffffffffffffffffffffffffffffffffff021916908373ffffffffffffffffffffffffffffffffffffffff1602179055508173ffffffffffffffffffffffffffffffffffffffff168173ffffffffffffffffffffffffffffffffffffffff167f8be0079c531659141344cd1fd0a4f28419497f9722a3daafe3b4186f6b6457e060405160405180910390a35050565b600033905090565b6000813590506111a381611ba7565b92915050565b6000819050826020600802820111156111c157600080fd5b92915050565b60008083601f8401126111d957600080fd5b8235905067ffffffffffffffff8111156111f257600080fd5b60208301915083602082028301111561120a57600080fd5b9250929050565b60008151905061122081611bbe565b92915050565b60008135905061123581611bd5565b92915050565b60006020828403121561124d57600080fd5b600061125b84828501611194565b91505092915050565b6000806000806000806080878903121561127d57600080fd5b600087013567ffffffffffffffff81111561129757600080fd5b6112a389828a016111c7565b965096505060206112b689828a01611226565b94505060406112c789828a01611226565b935050606087013567ffffffffffffffff8111156112e457600080fd5b6112f089828a016111c7565b92509250509295509295509295565b60006020828403121561131157600080fd5b600061131f84828501611211565b91505092915050565b60006020828403121561133a57600080fd5b600061134884828501611226565b91505092915050565b6000806040838503121561136457600080fd5b600061137285828601611226565b925050602061138385828601611226565b9150509250929050565b6000806000606084860312156113a257600080fd5b60006113b086828701611226565b93505060206113c186828701611226565b92505060406113d286828701611226565b9150509250925092565b60008060008061016085870312156113f357600080fd5b600061140187828801611226565b945050602061141287828801611226565b935050604061142387828801611226565b9250506060611434878288016111a9565b91505092959194509250565b600061144c83836114d6565b60408301905092915050565b600061146483836116a2565b60208301905092915050565b611479816119d5565b82525050565b61148881611916565b611492818461195e565b925061149d826118f2565b8060005b838110156114ce5781516114b58782611440565b96506114c083611937565b9250506001810190506114a1565b505050505050565b6114df81611921565b6114e98184611969565b92506114f4826118fc565b8060005b8381101561152557815161150c8782611458565b965061151783611944565b9250506001810190506114f8565b505050505050565b61153681611921565b6115408184611974565b925061154b826118fc565b8060005b8381101561157c5781516115638782611458565b965061156e83611944565b92505060018101905061154f565b505050505050565b600061158f8261192c565b611599818561197f565b93506115a483611906565b8060005b838110156115d55781516115bc8882611458565b97506115c783611951565b9250506001810190506115a8565b5085935050505092915050565b6115eb816119e7565b82525050565b6115fa81611a1d565b82525050565b61160981611a41565b82525050565b600061161c602683611990565b915061162782611add565b604082019050919050565b600061163f600e83611990565b915061164a82611b2c565b602082019050919050565b6000611662601483611990565b915061166d82611b55565b602082019050919050565b6000611685602083611990565b915061169082611b7e565b602082019050919050565b8082525050565b6116ab81611a13565b82525050565b6116ba81611a13565b82525050565b6116c981611a13565b82525050565b60006020820190506116e46000830184611470565b92915050565b600061012082019050611700600083018761152d565b61170d604083018661147f565b61171a60c083018561152d565b81810361010083015261172d8184611584565b905095945050505050565b600060208201905061174d60008301846115e2565b92915050565b600060208201905061176860008301846115f1565b92915050565b60006020820190506117836000830184611600565b92915050565b600060208201905081810360008301526117a28161160f565b9050919050565b600060208201905081810360008301526117c281611632565b9050919050565b600060208201905081810360008301526117e281611655565b9050919050565b6000602082019050818103600083015261180281611678565b9050919050565b600060408201905061181e600083018561169b565b61182b60208301846116c0565b9392505050565b600060208201905061184760008301846116b1565b92915050565b600060408201905061186260008301856116b1565b61186f60208301846116b1565b9392505050565b600060608201905061188b60008301866116b1565b61189860208301856116b1565b6118a560408301846116b1565b949350505050565b60006080820190506118c260008301876116b1565b6118cf60208301866116b1565b6118dc60408301856116b1565b6118e960608301846116b1565b95945050505050565b6000819050919050565b6000819050919050565b6000819050602082019050919050565b600060029050919050565b600060029050919050565b600081519050919050565b6000602082019050919050565b6000602082019050919050565b6000602082019050919050565b600081905092915050565b600081905092915050565b600081905092915050565b600082825260208201905092915050565b600082825260208201905092915050565b60006119ac82611a13565b91506119b783611a13565b9250828210156119ca576119c9611aae565b5b828203905092915050565b60006119e0826119f3565b9050919050565b60008115159050919050565b600073ffffffffffffffffffffffffffffffffffffffff82169050919050565b6000819050919050565b6000611a2882611a2f565b9050919050565b6000611a3a826119f3565b9050919050565b6000611a4c82611a53565b9050919050565b6000611a5e826119f3565b9050919050565b6000611a7082611a13565b91507fffffffffffffffffffffffffffffffffffffffffffffffffffffffffffffffff821415611aa357611aa2611aae565b5b600182019050919050565b7f4e487b7100000000000000000000000000000000000000000000000000000000600052601160045260246000fd5b7f4f776e61626c653a206e6577206f776e657220697320746865207a65726f206160008201527f6464726573730000000000000000000000000000000000000000000000000000602082015250565b7f70726f6f6620696e76616c696421000000000000000000000000000000000000600082015250565b7f6661696c656420746f206d696e74207a6b534254000000000000000000000000600082015250565b7f4f776e61626c653a2063616c6c6572206973206e6f7420746865206f776e6572600082015250565b611bb0816119d5565b8114611bbb57600080fd5b50565b611bc7816119e7565b8114611bd257600080fd5b50565b611bde81611a13565b8114611be957600080fd5b5056fea2646970667358221220cbd054676922270a7e73f6466f4f01e4bc62ffc1db5d96032962e62fbebd805664736f6c63430008040033",
  "linkReferences": {
    "@zk-kit/incremental-merkle-tree.sol/IncrementalBinaryTree.sol": {
      "IncrementalBinaryTree": [
        {
          "length": 20,
          "start": 1000
        },
        {
          "length": 20,
          "start": 5981
        }
      ]
    }
  },
  "deployedLinkReferences": {
    "@zk-kit/incremental-merkle-tree.sol/IncrementalBinaryTree.sol": {
      "IncrementalBinaryTree": [
        {
          "length": 20,
          "start": 4086
        }
      ]
    }
  }
}