{
  "_format": "hh-sol-artifact-1",
  "contractName": "Pomp",
  "sourceName": "contracts/pomp.sol",
  "abi": [
    {
      "inputs": [
        {
          "internalType": "contract IVerifier",
          "name": "_verifier",
          "type": "address"
        },
        {
          "internalType": "uint256",
          "name": "poolDepth",
          "type": "uint256"
        },
        {
          "internalType": "contract ZkSbtInterface",
          "name": "_ZkSbt",
          "type": "address"
        }
      ],
      "stateMutability": "nonpayable",
      "type": "constructor"
    },
    {
      "inputs": [],
      "name": "Semaphore__GroupAlreadyExists",
      "type": "error"
    },
    {
      "inputs": [],
      "name": "Semaphore__GroupDoesNotExist",
      "type": "error"
    },
    {
      "anonymous": false,
      "inputs": [
        {
          "indexed": true,
          "internalType": "uint256",
          "name": "groupId",
          "type": "uint256"
        },
        {
          "indexed": false,
          "internalType": "uint256",
          "name": "merkleTreeDepth",
          "type": "uint256"
        },
        {
          "indexed": false,
          "internalType": "uint256",
          "name": "zeroValue",
          "type": "uint256"
        }
      ],
      "name": "GroupCreated",
      "type": "event"
    },
    {
      "anonymous": false,
      "inputs": [
        {
          "indexed": true,
          "internalType": "uint256",
          "name": "groupId",
          "type": "uint256"
        },
        {
          "indexed": false,
          "internalType": "uint256",
          "name": "index",
          "type": "uint256"
        },
        {
          "indexed": false,
          "internalType": "uint256",
          "name": "identityCommitment",
          "type": "uint256"
        },
        {
          "indexed": false,
          "internalType": "uint256",
          "name": "merkleTreeRoot",
          "type": "uint256"
        }
      ],
      "name": "MemberAdded",
      "type": "event"
    },
    {
      "anonymous": false,
      "inputs": [
        {
          "indexed": true,
          "internalType": "uint256",
          "name": "groupId",
          "type": "uint256"
        },
        {
          "indexed": false,
          "internalType": "uint256",
          "name": "index",
          "type": "uint256"
        },
        {
          "indexed": false,
          "internalType": "uint256",
          "name": "identityCommitment",
          "type": "uint256"
        },
        {
          "indexed": false,
          "internalType": "uint256",
          "name": "merkleTreeRoot",
          "type": "uint256"
        }
      ],
      "name": "MemberRemoved",
      "type": "event"
    },
    {
      "anonymous": false,
      "inputs": [
        {
          "indexed": true,
          "internalType": "uint256",
          "name": "groupId",
          "type": "uint256"
        },
        {
          "indexed": false,
          "internalType": "uint256",
          "name": "index",
          "type": "uint256"
        },
        {
          "indexed": false,
          "internalType": "uint256",
          "name": "identityCommitment",
          "type": "uint256"
        },
        {
          "indexed": false,
          "internalType": "uint256",
          "name": "newIdentityCommitment",
          "type": "uint256"
        },
        {
          "indexed": false,
          "internalType": "uint256",
          "name": "merkleTreeRoot",
          "type": "uint256"
        }
      ],
      "name": "MemberUpdated",
      "type": "event"
    },
    {
      "anonymous": false,
      "inputs": [
        {
          "indexed": true,
          "internalType": "address",
          "name": "previousOwner",
          "type": "address"
        },
        {
          "indexed": true,
          "internalType": "address",
          "name": "newOwner",
          "type": "address"
        }
      ],
      "name": "OwnershipTransferred",
      "type": "event"
    },
    {
      "anonymous": false,
      "inputs": [
        {
          "indexed": true,
          "internalType": "uint256",
          "name": "identity",
          "type": "uint256"
        },
        {
          "indexed": false,
          "internalType": "uint256",
          "name": "asset",
          "type": "uint256"
        },
        {
          "indexed": false,
          "internalType": "uint256",
          "name": "range",
          "type": "uint256"
        },
        {
          "indexed": false,
          "internalType": "uint256",
          "name": "sbtId",
          "type": "uint256"
        }
      ],
      "name": "SbtMinted",
      "type": "event"
    },
    {
      "anonymous": false,
      "inputs": [
        {
          "indexed": true,
          "internalType": "address",
          "name": "oldAddress",
          "type": "address"
        },
        {
          "indexed": true,
          "internalType": "address",
          "name": "newAddress",
          "type": "address"
        }
      ],
      "name": "ZkSbtAddressChange",
      "type": "event"
    },
    {
      "inputs": [],
      "name": "ZkSbt",
      "outputs": [
        {
          "internalType": "contract ZkSbtInterface",
          "name": "",
          "type": "address"
        }
      ],
      "stateMutability": "view",
      "type": "function"
    },
    {
      "inputs": [
        {
          "internalType": "address",
          "name": "token",
          "type": "address"
        }
      ],
      "name": "addAsset",
      "outputs": [],
      "stateMutability": "nonpayable",
      "type": "function"
    },
    {
      "inputs": [
        {
          "internalType": "uint256",
          "name": "groupId",
          "type": "uint256"
        }
      ],
      "name": "getMerkleTreeDepth",
      "outputs": [
        {
          "internalType": "uint256",
          "name": "",
          "type": "uint256"
        }
      ],
      "stateMutability": "view",
      "type": "function"
    },
    {
      "inputs": [
        {
          "internalType": "uint256",
          "name": "groupId",
          "type": "uint256"
        }
      ],
      "name": "getMerkleTreeRoot",
      "outputs": [
        {
          "internalType": "uint256",
          "name": "",
          "type": "uint256"
        }
      ],
      "stateMutability": "view",
      "type": "function"
    },
    {
      "inputs": [
        {
          "internalType": "uint256",
          "name": "groupId",
          "type": "uint256"
        }
      ],
      "name": "getNumberOfMerkleTreeLeaves",
      "outputs": [
        {
          "internalType": "uint256",
          "name": "",
          "type": "uint256"
        }
      ],
      "stateMutability": "view",
      "type": "function"
    },
    {
      "inputs": [],
      "name": "latestPoolId",
      "outputs": [
        {
          "internalType": "uint256",
          "name": "",
          "type": "uint256"
        }
      ],
      "stateMutability": "view",
      "type": "function"
    },
    {
      "inputs": [
        {
          "internalType": "uint256[]",
          "name": "identity",
          "type": "uint256[]"
        },
        {
          "internalType": "uint256",
          "name": "asset",
          "type": "uint256"
        },
        {
          "internalType": "uint256",
          "name": "range",
          "type": "uint256"
        },
        {
          "internalType": "uint256",
          "name": "sbtId",
          "type": "uint256"
        }
      ],
      "name": "mint",
      "outputs": [],
      "stateMutability": "nonpayable",
      "type": "function"
    },
    {
      "inputs": [
        {
          "internalType": "uint256",
          "name": "",
          "type": "uint256"
        }
      ],
      "name": "nullifierHashes",
      "outputs": [
        {
          "internalType": "bool",
          "name": "",
          "type": "bool"
        }
      ],
      "stateMutability": "view",
      "type": "function"
    },
    {
      "inputs": [],
      "name": "owner",
      "outputs": [
        {
          "internalType": "address",
          "name": "",
          "type": "address"
        }
      ],
      "stateMutability": "view",
      "type": "function"
    },
    {
      "inputs": [
        {
          "internalType": "uint256",
          "name": "",
          "type": "uint256"
        },
        {
          "internalType": "uint256",
          "name": "",
          "type": "uint256"
        }
      ],
      "name": "pools",
      "outputs": [
        {
          "internalType": "uint256",
          "name": "id",
          "type": "uint256"
        },
        {
          "internalType": "uint256",
          "name": "depth",
          "type": "uint256"
        }
      ],
      "stateMutability": "view",
      "type": "function"
    },
    {
      "inputs": [],
      "name": "renounceOwnership",
      "outputs": [],
      "stateMutability": "nonpayable",
      "type": "function"
    },
    {
      "inputs": [
        {
          "internalType": "uint256",
          "name": "",
          "type": "uint256"
        },
        {
          "internalType": "uint256",
          "name": "",
          "type": "uint256"
        }
      ],
      "name": "salts",
      "outputs": [
        {
          "internalType": "uint256",
          "name": "",
          "type": "uint256"
        }
      ],
      "stateMutability": "view",
      "type": "function"
    },
    {
      "inputs": [
        {
          "internalType": "uint256",
          "name": "",
          "type": "uint256"
        },
        {
          "internalType": "uint256",
          "name": "",
          "type": "uint256"
        },
        {
          "internalType": "uint256",
          "name": "",
          "type": "uint256"
        }
      ],
      "name": "sbt_minted",
      "outputs": [
        {
          "internalType": "bool",
          "name": "",
          "type": "bool"
        }
      ],
      "stateMutability": "view",
      "type": "function"
    },
    {
      "inputs": [
        {
          "internalType": "address",
          "name": "_newZkSbtAddress",
          "type": "address"
        }
      ],
      "name": "setZkSbtAddress",
      "outputs": [],
      "stateMutability": "nonpayable",
      "type": "function"
    },
    {
      "inputs": [
        {
          "internalType": "address",
          "name": "newOwner",
          "type": "address"
        }
      ],
      "name": "transferOwnership",
      "outputs": [],
      "stateMutability": "nonpayable",
      "type": "function"
    },
    {
      "inputs": [
        {
          "internalType": "uint256",
          "name": "",
          "type": "uint256"
        }
      ],
      "name": "verifiers",
      "outputs": [
        {
          "internalType": "contract IVerifier",
          "name": "",
          "type": "address"
        }
      ],
      "stateMutability": "view",
      "type": "function"
    },
    {
      "inputs": [
        {
          "internalType": "uint256",
          "name": "asset",
          "type": "uint256"
        },
        {
          "internalType": "uint256",
          "name": "range",
          "type": "uint256"
        },
        {
          "internalType": "uint256",
          "name": "nullifierHash",
          "type": "uint256"
        },
        {
          "internalType": "uint256[8]",
          "name": "proof",
          "type": "uint256[8]"
        }
      ],
      "name": "verify",
      "outputs": [],
      "stateMutability": "nonpayable",
      "type": "function"
    }
  ],
  "bytecode": "0x60806040523480156200001157600080fd5b50604051620022ef380380620022ef8339818101604052810190620000379190620004fb565b620000576200004b6200020660201b60201c565b6200020e60201b60201c565b826007600084815260200190815260200160002060006101000a81548173ffffffffffffffffffffffffffffffffffffffff021916908373ffffffffffffffffffffffffffffffffffffffff16021790555060006002819055506200013760006001811115620000f0577f4e487b7100000000000000000000000000000000000000000000000000000000600052602160045260246000fd5b6003808111156200012a577f4e487b7100000000000000000000000000000000000000000000000000000000600052602160045260246000fd5b84620002d460201b60201c565b620001bc60018081111562000175577f4e487b7100000000000000000000000000000000000000000000000000000000600052602160045260246000fd5b600380811115620001af577f4e487b7100000000000000000000000000000000000000000000000000000000600052602160045260246000fd5b84620002d460201b60201c565b80600360006101000a81548173ffffffffffffffffffffffffffffffffffffffff021916908373ffffffffffffffffffffffffffffffffffffffff16021790555050505062000757565b600033905090565b6000600160009054906101000a900473ffffffffffffffffffffffffffffffffffffffff16905081600160006101000a81548173ffffffffffffffffffffffffffffffffffffffff021916908373ffffffffffffffffffffffffffffffffffffffff1602179055508173ffffffffffffffffffffffffffffffffffffffff168173ffffffffffffffffffffffffffffffffffffffff167f8be0079c531659141344cd1fd0a4f28419497f9722a3daafe3b4186f6b6457e060405160405180910390a35050565b620002e8600254826200035560201b60201c565b604051806040016040528060026000815480929190620003089062000682565b919050558152602001828152506004600085815260200190815260200160002060008481526020019081526020016000206000820151816000015560208201518160010155905050505050565b600062000368836200049760201b60201c565b14620003a0576040517f8121725b00000000000000000000000000000000000000000000000000000000815260040160405180910390fd5b6000600883604051602001620003b7919062000595565b6040516020818303038152906040528051906020012060001c901c905060008084815260200190815260200160002073__$0c6eb7207c37accf1552a1c47686411ac0$__631095fbb4909184846040518463ffffffff1660e01b81526004016200042493929190620005b2565b60006040518083038186803b1580156200043d57600080fd5b505af415801562000452573d6000803e3d6000fd5b50505050827f0d000126c26c1bbe400fd2332187f75d58b69306f9ec47b408686189d3a0083383836040516200048a929190620005ef565b60405180910390a2505050565b6000806000838152602001908152602001600020600001549050919050565b600081519050620004c78162000709565b92915050565b600081519050620004de8162000723565b92915050565b600081519050620004f5816200073d565b92915050565b6000806000606084860312156200051157600080fd5b60006200052186828701620004b6565b93505060206200053486828701620004e4565b92505060406200054786828701620004cd565b9150509250925092565b8082525050565b620005638162000678565b82525050565b620005748162000678565b82525050565b6200058f620005898262000678565b620006d0565b82525050565b6000620005a382846200057a565b60208201915081905092915050565b6000606082019050620005c9600083018662000551565b620005d8602083018562000569565b620005e7604083018462000569565b949350505050565b600060408201905062000606600083018562000558565b62000615602083018462000558565b9392505050565b6000620006298262000658565b9050919050565b60006200063d826200061c565b9050919050565b600062000651826200061c565b9050919050565b600073ffffffffffffffffffffffffffffffffffffffff82169050919050565b6000819050919050565b60006200068f8262000678565b91507fffffffffffffffffffffffffffffffffffffffffffffffffffffffffffffffff821415620006c557620006c4620006da565b5b600182019050919050565b6000819050919050565b7f4e487b7100000000000000000000000000000000000000000000000000000000600052601160045260246000fd5b620007148162000630565b81146200072057600080fd5b50565b6200072e8162000644565b81146200073a57600080fd5b50565b620007488162000678565b81146200075457600080fd5b50565b611b8880620007676000396000f3fe608060405234801561001057600080fd5b506004361061010b5760003560e01c8063638480be116100a25780638cc5be5c116100715780638cc5be5c146102b75780638da5cb5b146102e7578063ac1eff6814610305578063dabc4d5114610335578063f2fde38b146103655761010b565b8063638480be1461021c5780636389e1071461024c578063715018a61461027c5780637450e2de146102865761010b565b8063417c4fa7116100de578063417c4fa7146101a857806346541a24146101c457806356bf062e146101e25780635d4bb7c7146102005761010b565b806313efaaaa146101105780631f79a1e91461012c578063206dd17b1461015c578063298410e51461018c575b600080fd5b61012a60048036038101906101259190611342565b610381565b005b6101466004803603810190610141919061128e565b6108ba565b604051610153919061169e565b60405180910390f35b610176600480360381019061017191906112f3565b6108da565b604051610183919061169e565b60405180910390f35b6101a660048036038101906101a191906111bc565b610916565b005b6101c260048036038101906101bd91906111bc565b610921565b005b6101cc6109ef565b6040516101d99190611798565b60405180910390f35b6101ea6109f5565b6040516101f791906116d4565b60405180910390f35b61021a600480360381019061021591906111e5565b610a1b565b005b6102366004803603810190610231919061128e565b610cfa565b6040516102439190611798565b60405180910390f35b6102666004803603810190610261919061128e565b610d19565b6040516102739190611798565b60405180910390f35b610284610d38565b005b6102a0600480360381019061029b91906112b7565b610d4c565b6040516102ae9291906117b3565b60405180910390f35b6102d160048036038101906102cc91906112b7565b610d7d565b6040516102de9190611798565b60405180910390f35b6102ef610da2565b6040516102fc9190611635565b60405180910390f35b61031f600480360381019061031a919061128e565b610dcc565b60405161032c91906116b9565b60405180910390f35b61034f600480360381019061034a919061128e565b610dff565b60405161035c9190611798565b60405180910390f35b61037f600480360381019061037a91906111bc565b610e1e565b005b60006103b360046000878152602001908152602001600020600086815260200190815260200160002060000154610d19565b905060006103e760046000888152602001908152602001600020600087815260200190815260200160002060000154610dff565b90506000600367ffffffffffffffff81111561042c577f4e487b7100000000000000000000000000000000000000000000000000000000600052604160045260246000fd5b60405190808252806020026020018201604052801561045a5781602001602082028036833780820191505090505b5090508181600081518110610498577f4e487b7100000000000000000000000000000000000000000000000000000000600052603260045260246000fd5b60200260200101818152505084816001815181106104df577f4e487b7100000000000000000000000000000000000000000000000000000000600052603260045260246000fd5b602002602001018181525050600560008881526020019081526020016000206000878152602001908152602001600020548160028151811061054a577f4e487b7100000000000000000000000000000000000000000000000000000000600052603260045260246000fd5b60200260200101818152505060006007600085815260200190815260200160002060009054906101000a900473ffffffffffffffffffffffffffffffffffffffff1673ffffffffffffffffffffffffffffffffffffffff1663c32e370e6040518060400160405280886000600881106105ec577f4e487b7100000000000000000000000000000000000000000000000000000000600052603260045260246000fd5b6020020135815260200188600160088110610630577f4e487b7100000000000000000000000000000000000000000000000000000000600052603260045260246000fd5b6020020135815250604051806040016040528060405180604001604052808b600260088110610688577f4e487b7100000000000000000000000000000000000000000000000000000000600052603260045260246000fd5b602002013581526020018b6003600881106106cc577f4e487b7100000000000000000000000000000000000000000000000000000000600052603260045260246000fd5b6020020135815250815260200160405180604001604052808b60046008811061071e577f4e487b7100000000000000000000000000000000000000000000000000000000600052603260045260246000fd5b602002013581526020018b600560088110610762577f4e487b7100000000000000000000000000000000000000000000000000000000600052603260045260246000fd5b602002013581525081525060405180604001604052808a6006600881106107b2577f4e487b7100000000000000000000000000000000000000000000000000000000600052603260045260246000fd5b602002013581526020018a6007600881106107f6577f4e487b7100000000000000000000000000000000000000000000000000000000600052603260045260246000fd5b6020020135815250866040518563ffffffff1660e01b815260040161081e9493929190611650565b60206040518083038186803b15801561083657600080fd5b505afa15801561084a573d6000803e3d6000fd5b505050506040513d601f19601f8201168201806040525081019061086e9190611265565b9050806108b0576040517f08c379a00000000000000000000000000000000000000000000000000000000081526004016108a79061170f565b60405180910390fd5b5050505050505050565b60066020528060005260406000206000915054906101000a900460ff1681565b6008602052826000526040600020602052816000526040600020602052806000526040600020600092509250509054906101000a900460ff1681565b61091e610ea2565b50565b610929610ea2565b6000600360009054906101000a900473ffffffffffffffffffffffffffffffffffffffff16905081600360006101000a81548173ffffffffffffffffffffffffffffffffffffffff021916908373ffffffffffffffffffffffffffffffffffffffff1602179055508173ffffffffffffffffffffffffffffffffffffffff168173ffffffffffffffffffffffffffffffffffffffff167f11a7c3b8107d993bc669b5867b58e002c54e379b04105f91481b7860c57e6b9760405160405180910390a35050565b60025481565b600360009054906101000a900473ffffffffffffffffffffffffffffffffffffffff1681565b610a23610ea2565b60005b85859050811015610cf257610aa160046000868152602001908152602001600020600085815260200190815260200160002060000154878784818110610a95577f4e487b7100000000000000000000000000000000000000000000000000000000600052603260045260246000fd5b90506020020135610f20565b60016008600086815260200190815260200160002060008581526020019081526020016000206000888885818110610b02577f4e487b7100000000000000000000000000000000000000000000000000000000600052603260045260246000fd5b90506020020135815260200190815260200160002060006101000a81548160ff0219169083151502179055506000600360009054906101000a900473ffffffffffffffffffffffffffffffffffffffff1673ffffffffffffffffffffffffffffffffffffffff166245c88d888885818110610ba6577f4e487b7100000000000000000000000000000000000000000000000000000000600052603260045260246000fd5b905060200201358787876040518563ffffffff1660e01b8152600401610bcf9493929190611813565b602060405180830381600087803b158015610be957600080fd5b505af1158015610bfd573d6000803e3d6000fd5b505050506040513d601f19601f82011682018060405250810190610c219190611265565b905080610c63576040517f08c379a0000000000000000000000000000000000000000000000000000000008152600401610c5a9061172f565b60405180910390fd5b868683818110610c9c577f4e487b7100000000000000000000000000000000000000000000000000000000600052603260045260246000fd5b905060200201357fe67a5e82598f7f53d4b460514b6cd2b3ff2694703b59b3997c9762fa61853905868686604051610cd6939291906117dc565b60405180910390a2508080610cea906119cb565b915050610a26565b505050505050565b6000806000838152602001908152602001600020600201549050919050565b6000806000838152602001908152602001600020600001549050919050565b610d40610ea2565b610d4a6000611047565b565b6004602052816000526040600020602052806000526040600020600091509150508060000154908060010154905082565b6005602052816000526040600020602052806000526040600020600091509150505481565b6000600160009054906101000a900473ffffffffffffffffffffffffffffffffffffffff16905090565b60076020528060005260406000206000915054906101000a900473ffffffffffffffffffffffffffffffffffffffff1681565b6000806000838152602001908152602001600020600101549050919050565b610e26610ea2565b600073ffffffffffffffffffffffffffffffffffffffff168173ffffffffffffffffffffffffffffffffffffffff161415610e96576040517f08c379a0000000000000000000000000000000000000000000000000000000008152600401610e8d906116ef565b60405180910390fd5b610e9f81611047565b50565b610eaa61110d565b73ffffffffffffffffffffffffffffffffffffffff16610ec8610da2565b73ffffffffffffffffffffffffffffffffffffffff1614610f1e576040517f08c379a0000000000000000000000000000000000000000000000000000000008152600401610f159061174f565b60405180910390fd5b565b6000610f2b83610d19565b1415610f63576040517f029f057900000000000000000000000000000000000000000000000000000000815260040160405180910390fd5b60008083815260200190815260200160002073__$0c6eb7207c37accf1552a1c47686411ac0$__63168703fa9091836040518363ffffffff1660e01b8152600401610faf92919061176f565b60006040518083038186803b158015610fc757600080fd5b505af4158015610fdb573d6000803e3d6000fd5b505050506000610fea83610dff565b905060006001610ff985610cfa565b6110039190611907565b9050837f19239b3f93cd10558aaf11423af70c77763bf54f52bcc75bfa74d4d13548cde9828585604051611039939291906117dc565b60405180910390a250505050565b6000600160009054906101000a900473ffffffffffffffffffffffffffffffffffffffff16905081600160006101000a81548173ffffffffffffffffffffffffffffffffffffffff021916908373ffffffffffffffffffffffffffffffffffffffff1602179055508173ffffffffffffffffffffffffffffffffffffffff168173ffffffffffffffffffffffffffffffffffffffff167f8be0079c531659141344cd1fd0a4f28419497f9722a3daafe3b4186f6b6457e060405160405180910390a35050565b600033905090565b60008135905061112481611b0d565b92915050565b60008190508260206008028201111561114257600080fd5b92915050565b60008083601f84011261115a57600080fd5b8235905067ffffffffffffffff81111561117357600080fd5b60208301915083602082028301111561118b57600080fd5b9250929050565b6000815190506111a181611b24565b92915050565b6000813590506111b681611b3b565b92915050565b6000602082840312156111ce57600080fd5b60006111dc84828501611115565b91505092915050565b6000806000806000608086880312156111fd57600080fd5b600086013567ffffffffffffffff81111561121757600080fd5b61122388828901611148565b95509550506020611236888289016111a7565b9350506040611247888289016111a7565b9250506060611258888289016111a7565b9150509295509295909350565b60006020828403121561127757600080fd5b600061128584828501611192565b91505092915050565b6000602082840312156112a057600080fd5b60006112ae848285016111a7565b91505092915050565b600080604083850312156112ca57600080fd5b60006112d8858286016111a7565b92505060206112e9858286016111a7565b9150509250929050565b60008060006060848603121561130857600080fd5b6000611316868287016111a7565b9350506020611327868287016111a7565b9250506040611338868287016111a7565b9150509250925092565b600080600080610160858703121561135957600080fd5b6000611367878288016111a7565b9450506020611378878288016111a7565b9350506040611389878288016111a7565b925050606061139a8782880161112a565b91505092959194509250565b60006113b2838361143c565b60408301905092915050565b60006113ca8383611608565b60208301905092915050565b6113df8161193b565b82525050565b6113ee8161187c565b6113f881846118c4565b925061140382611858565b8060005b8381101561143457815161141b87826113a6565b96506114268361189d565b925050600181019050611407565b505050505050565b61144581611887565b61144f81846118cf565b925061145a82611862565b8060005b8381101561148b57815161147287826113be565b965061147d836118aa565b92505060018101905061145e565b505050505050565b61149c81611887565b6114a681846118da565b92506114b182611862565b8060005b838110156114e25781516114c987826113be565b96506114d4836118aa565b9250506001810190506114b5565b505050505050565b60006114f582611892565b6114ff81856118e5565b935061150a8361186c565b8060005b8381101561153b57815161152288826113be565b975061152d836118b7565b92505060018101905061150e565b5085935050505092915050565b6115518161194d565b82525050565b61156081611983565b82525050565b61156f816119a7565b82525050565b60006115826026836118f6565b915061158d82611a43565b604082019050919050565b60006115a5600e836118f6565b91506115b082611a92565b602082019050919050565b60006115c86014836118f6565b91506115d382611abb565b602082019050919050565b60006115eb6020836118f6565b91506115f682611ae4565b602082019050919050565b8082525050565b61161181611979565b82525050565b61162081611979565b82525050565b61162f81611979565b82525050565b600060208201905061164a60008301846113d6565b92915050565b6000610120820190506116666000830187611493565b61167360408301866113e5565b61168060c0830185611493565b81810361010083015261169381846114ea565b905095945050505050565b60006020820190506116b36000830184611548565b92915050565b60006020820190506116ce6000830184611557565b92915050565b60006020820190506116e96000830184611566565b92915050565b6000602082019050818103600083015261170881611575565b9050919050565b6000602082019050818103600083015261172881611598565b9050919050565b60006020820190508181036000830152611748816115bb565b9050919050565b60006020820190508181036000830152611768816115de565b9050919050565b60006040820190506117846000830185611601565b6117916020830184611626565b9392505050565b60006020820190506117ad6000830184611617565b92915050565b60006040820190506117c86000830185611617565b6117d56020830184611617565b9392505050565b60006060820190506117f16000830186611617565b6117fe6020830185611617565b61180b6040830184611617565b949350505050565b60006080820190506118286000830187611617565b6118356020830186611617565b6118426040830185611617565b61184f6060830184611617565b95945050505050565b6000819050919050565b6000819050919050565b6000819050602082019050919050565b600060029050919050565b600060029050919050565b600081519050919050565b6000602082019050919050565b6000602082019050919050565b6000602082019050919050565b600081905092915050565b600081905092915050565b600081905092915050565b600082825260208201905092915050565b600082825260208201905092915050565b600061191282611979565b915061191d83611979565b9250828210156119305761192f611a14565b5b828203905092915050565b600061194682611959565b9050919050565b60008115159050919050565b600073ffffffffffffffffffffffffffffffffffffffff82169050919050565b6000819050919050565b600061198e82611995565b9050919050565b60006119a082611959565b9050919050565b60006119b2826119b9565b9050919050565b60006119c482611959565b9050919050565b60006119d682611979565b91507fffffffffffffffffffffffffffffffffffffffffffffffffffffffffffffffff821415611a0957611a08611a14565b5b600182019050919050565b7f4e487b7100000000000000000000000000000000000000000000000000000000600052601160045260246000fd5b7f4f776e61626c653a206e6577206f776e657220697320746865207a65726f206160008201527f6464726573730000000000000000000000000000000000000000000000000000602082015250565b7f70726f6f6620696e76616c696421000000000000000000000000000000000000600082015250565b7f6661696c656420746f206d696e74207a6b534254000000000000000000000000600082015250565b7f4f776e61626c653a2063616c6c6572206973206e6f7420746865206f776e6572600082015250565b611b168161193b565b8114611b2157600080fd5b50565b611b2d8161194d565b8114611b3857600080fd5b50565b611b4481611979565b8114611b4f57600080fd5b5056fea26469706673582212204c1c925cba94bc32418377b4897348b8ca76b9f4ec4f041e702b6d74e3394cef64736f6c63430008040033",
  "linkReferences": {
    "@zk-kit/incremental-merkle-tree.sol/IncrementalBinaryTree.sol": {
      "IncrementalBinaryTree": [
        {
          "length": 20,
          "start": 1000
        },
        {
          "length": 20,
          "start": 5854
        }
      ]
    }
  },
  "deployedLinkReferences": {
    "@zk-kit/incremental-merkle-tree.sol/IncrementalBinaryTree.sol": {
      "IncrementalBinaryTree": [
        {
          "length": 20,
          "start": 3959
        }
      ]
    }
  }
}