{
  "_format": "hh-sol-artifact-1",
  "contractName": "Pomp",
  "sourceName": "contracts/pomp.sol",
  "abi": [
    {
      "inputs": [
        {
          "internalType": "contract IVerifier",
          "name": "_verifier",
          "type": "address"
        },
        {
          "internalType": "uint256",
          "name": "poolDepth",
          "type": "uint256"
        },
        {
          "internalType": "contract ZkSbtInterface",
          "name": "_ZkSbt",
          "type": "address"
        }
      ],
      "stateMutability": "nonpayable",
      "type": "constructor"
    },
    {
      "inputs": [],
      "name": "Semaphore__GroupAlreadyExists",
      "type": "error"
    },
    {
      "inputs": [],
      "name": "Semaphore__GroupDoesNotExist",
      "type": "error"
    },
    {
      "anonymous": false,
      "inputs": [
        {
          "indexed": true,
          "internalType": "uint256",
          "name": "groupId",
          "type": "uint256"
        },
        {
          "indexed": false,
          "internalType": "uint256",
          "name": "merkleTreeDepth",
          "type": "uint256"
        },
        {
          "indexed": false,
          "internalType": "uint256",
          "name": "zeroValue",
          "type": "uint256"
        }
      ],
      "name": "GroupCreated",
      "type": "event"
    },
    {
      "anonymous": false,
      "inputs": [
        {
          "indexed": true,
          "internalType": "uint256",
          "name": "groupId",
          "type": "uint256"
        },
        {
          "indexed": false,
          "internalType": "uint256",
          "name": "index",
          "type": "uint256"
        },
        {
          "indexed": false,
          "internalType": "uint256",
          "name": "identityCommitment",
          "type": "uint256"
        },
        {
          "indexed": false,
          "internalType": "uint256",
          "name": "merkleTreeRoot",
          "type": "uint256"
        }
      ],
      "name": "MemberAdded",
      "type": "event"
    },
    {
      "anonymous": false,
      "inputs": [
        {
          "indexed": true,
          "internalType": "uint256",
          "name": "groupId",
          "type": "uint256"
        },
        {
          "indexed": false,
          "internalType": "uint256",
          "name": "index",
          "type": "uint256"
        },
        {
          "indexed": false,
          "internalType": "uint256",
          "name": "identityCommitment",
          "type": "uint256"
        },
        {
          "indexed": false,
          "internalType": "uint256",
          "name": "merkleTreeRoot",
          "type": "uint256"
        }
      ],
      "name": "MemberRemoved",
      "type": "event"
    },
    {
      "anonymous": false,
      "inputs": [
        {
          "indexed": true,
          "internalType": "uint256",
          "name": "groupId",
          "type": "uint256"
        },
        {
          "indexed": false,
          "internalType": "uint256",
          "name": "index",
          "type": "uint256"
        },
        {
          "indexed": false,
          "internalType": "uint256",
          "name": "identityCommitment",
          "type": "uint256"
        },
        {
          "indexed": false,
          "internalType": "uint256",
          "name": "newIdentityCommitment",
          "type": "uint256"
        },
        {
          "indexed": false,
          "internalType": "uint256",
          "name": "merkleTreeRoot",
          "type": "uint256"
        }
      ],
      "name": "MemberUpdated",
      "type": "event"
    },
    {
      "anonymous": false,
      "inputs": [
        {
          "indexed": true,
          "internalType": "address",
          "name": "previousOwner",
          "type": "address"
        },
        {
          "indexed": true,
          "internalType": "address",
          "name": "newOwner",
          "type": "address"
        }
      ],
      "name": "OwnershipTransferred",
      "type": "event"
    },
    {
      "anonymous": false,
      "inputs": [
        {
          "indexed": true,
          "internalType": "uint256",
          "name": "identity",
          "type": "uint256"
        },
        {
          "indexed": false,
          "internalType": "uint256",
          "name": "asset",
          "type": "uint256"
        },
        {
          "indexed": false,
          "internalType": "uint256",
          "name": "range",
          "type": "uint256"
        },
        {
          "indexed": false,
          "internalType": "uint256",
          "name": "sbtId",
          "type": "uint256"
        }
      ],
      "name": "SbtMinted",
      "type": "event"
    },
    {
      "anonymous": false,
      "inputs": [
        {
          "indexed": true,
          "internalType": "address",
          "name": "oldAddress",
          "type": "address"
        },
        {
          "indexed": true,
          "internalType": "address",
          "name": "newAddress",
          "type": "address"
        }
      ],
      "name": "ZkSbtAddressChange",
      "type": "event"
    },
    {
      "inputs": [],
      "name": "ZkSbt",
      "outputs": [
        {
          "internalType": "contract ZkSbtInterface",
          "name": "",
          "type": "address"
        }
      ],
      "stateMutability": "view",
      "type": "function"
    },
    {
      "inputs": [
        {
          "internalType": "address",
          "name": "token",
          "type": "address"
        }
      ],
      "name": "addAsset",
      "outputs": [],
      "stateMutability": "nonpayable",
      "type": "function"
    },
    {
      "inputs": [
        {
          "internalType": "uint256",
          "name": "groupId",
          "type": "uint256"
        }
      ],
      "name": "getMerkleTreeDepth",
      "outputs": [
        {
          "internalType": "uint256",
          "name": "",
          "type": "uint256"
        }
      ],
      "stateMutability": "view",
      "type": "function"
    },
    {
      "inputs": [
        {
          "internalType": "uint256",
          "name": "groupId",
          "type": "uint256"
        }
      ],
      "name": "getMerkleTreeRoot",
      "outputs": [
        {
          "internalType": "uint256",
          "name": "",
          "type": "uint256"
        }
      ],
      "stateMutability": "view",
      "type": "function"
    },
    {
      "inputs": [
        {
          "internalType": "uint256",
          "name": "groupId",
          "type": "uint256"
        }
      ],
      "name": "getNumberOfMerkleTreeLeaves",
      "outputs": [
        {
          "internalType": "uint256",
          "name": "",
          "type": "uint256"
        }
      ],
      "stateMutability": "view",
      "type": "function"
    },
    {
      "inputs": [],
      "name": "latestPoolId",
      "outputs": [
        {
          "internalType": "uint256",
          "name": "",
          "type": "uint256"
        }
      ],
      "stateMutability": "view",
      "type": "function"
    },
    {
      "inputs": [
        {
          "internalType": "uint256[]",
          "name": "identity",
          "type": "uint256[]"
        },
        {
          "internalType": "uint256",
          "name": "asset",
          "type": "uint256"
        },
        {
          "internalType": "uint256",
          "name": "range",
          "type": "uint256"
        },
        {
          "internalType": "uint256[]",
          "name": "sbtId",
          "type": "uint256[]"
        },
        {
          "internalType": "bytes[]",
          "name": "certificate_signature",
          "type": "bytes[]"
        }
      ],
      "name": "mint",
      "outputs": [],
      "stateMutability": "nonpayable",
      "type": "function"
    },
    {
      "inputs": [
        {
          "internalType": "uint256",
          "name": "",
          "type": "uint256"
        }
      ],
      "name": "nullifierHashes",
      "outputs": [
        {
          "internalType": "bool",
          "name": "",
          "type": "bool"
        }
      ],
      "stateMutability": "view",
      "type": "function"
    },
    {
      "inputs": [],
      "name": "owner",
      "outputs": [
        {
          "internalType": "address",
          "name": "",
          "type": "address"
        }
      ],
      "stateMutability": "view",
      "type": "function"
    },
    {
      "inputs": [
        {
          "internalType": "uint256",
          "name": "",
          "type": "uint256"
        },
        {
          "internalType": "uint256",
          "name": "",
          "type": "uint256"
        }
      ],
      "name": "pools",
      "outputs": [
        {
          "internalType": "uint256",
          "name": "id",
          "type": "uint256"
        },
        {
          "internalType": "uint256",
          "name": "depth",
          "type": "uint256"
        }
      ],
      "stateMutability": "view",
      "type": "function"
    },
    {
      "inputs": [],
      "name": "renounceOwnership",
      "outputs": [],
      "stateMutability": "nonpayable",
      "type": "function"
    },
    {
      "inputs": [
        {
          "internalType": "uint256",
          "name": "",
          "type": "uint256"
        },
        {
          "internalType": "uint256",
          "name": "",
          "type": "uint256"
        }
      ],
      "name": "salts",
      "outputs": [
        {
          "internalType": "uint256",
          "name": "",
          "type": "uint256"
        }
      ],
      "stateMutability": "view",
      "type": "function"
    },
    {
      "inputs": [
        {
          "internalType": "uint256",
          "name": "",
          "type": "uint256"
        },
        {
          "internalType": "uint256",
          "name": "",
          "type": "uint256"
        },
        {
          "internalType": "uint256",
          "name": "",
          "type": "uint256"
        }
      ],
      "name": "sbt_minted",
      "outputs": [
        {
          "internalType": "bool",
          "name": "",
          "type": "bool"
        }
      ],
      "stateMutability": "view",
      "type": "function"
    },
    {
      "inputs": [
        {
          "internalType": "address",
          "name": "_newZkSbtAddress",
          "type": "address"
        }
      ],
      "name": "setZkSbtAddress",
      "outputs": [],
      "stateMutability": "nonpayable",
      "type": "function"
    },
    {
      "inputs": [
        {
          "internalType": "address",
          "name": "newOwner",
          "type": "address"
        }
      ],
      "name": "transferOwnership",
      "outputs": [],
      "stateMutability": "nonpayable",
      "type": "function"
    },
    {
      "inputs": [
        {
          "internalType": "uint256",
          "name": "",
          "type": "uint256"
        }
      ],
      "name": "verifiers",
      "outputs": [
        {
          "internalType": "contract IVerifier",
          "name": "",
          "type": "address"
        }
      ],
      "stateMutability": "view",
      "type": "function"
    },
    {
      "inputs": [
        {
          "internalType": "uint256",
          "name": "asset",
          "type": "uint256"
        },
        {
          "internalType": "uint256",
          "name": "range",
          "type": "uint256"
        },
        {
          "internalType": "uint256",
          "name": "nullifierHash",
          "type": "uint256"
        },
        {
          "internalType": "uint256[8]",
          "name": "proof",
          "type": "uint256[8]"
        }
      ],
      "name": "verify",
      "outputs": [],
      "stateMutability": "nonpayable",
      "type": "function"
    },
    {
      "inputs": [
        {
          "internalType": "uint256",
          "name": "asset",
          "type": "uint256"
        },
        {
          "internalType": "uint256",
          "name": "range",
          "type": "uint256"
        },
        {
          "internalType": "uint256",
          "name": "merkle_root",
          "type": "uint256"
        },
        {
          "internalType": "uint256",
          "name": "nullifierHash",
          "type": "uint256"
        },
        {
          "internalType": "uint256[8]",
          "name": "proof",
          "type": "uint256[8]"
        },
        {
          "internalType": "uint256",
          "name": "salt",
          "type": "uint256"
        }
      ],
      "name": "verifyWithRootAndSalt",
      "outputs": [],
      "stateMutability": "nonpayable",
      "type": "function"
    },
    {
      "inputs": [
        {
          "internalType": "uint256",
          "name": "asset",
          "type": "uint256"
        },
        {
          "internalType": "uint256",
          "name": "range",
          "type": "uint256"
        },
        {
          "internalType": "uint256",
          "name": "nullifierHash",
          "type": "uint256"
        },
        {
          "internalType": "uint256[8]",
          "name": "proof",
          "type": "uint256[8]"
        },
        {
          "internalType": "uint256",
          "name": "salt",
          "type": "uint256"
        }
      ],
      "name": "verifyWithSalt",
      "outputs": [],
      "stateMutability": "nonpayable",
      "type": "function"
    }
  ],
  "bytecode": "0x60806040523480156200001157600080fd5b5060405162002ed638038062002ed68339818101604052810190620000379190620004fb565b620000576200004b6200020660201b60201c565b6200020e60201b60201c565b826007600084815260200190815260200160002060006101000a81548173ffffffffffffffffffffffffffffffffffffffff021916908373ffffffffffffffffffffffffffffffffffffffff16021790555060006002819055506200013760006001811115620000f0577f4e487b7100000000000000000000000000000000000000000000000000000000600052602160045260246000fd5b6003808111156200012a577f4e487b7100000000000000000000000000000000000000000000000000000000600052602160045260246000fd5b84620002d460201b60201c565b620001bc60018081111562000175577f4e487b7100000000000000000000000000000000000000000000000000000000600052602160045260246000fd5b600380811115620001af577f4e487b7100000000000000000000000000000000000000000000000000000000600052602160045260246000fd5b84620002d460201b60201c565b80600360006101000a81548173ffffffffffffffffffffffffffffffffffffffff021916908373ffffffffffffffffffffffffffffffffffffffff16021790555050505062000757565b600033905090565b6000600160009054906101000a900473ffffffffffffffffffffffffffffffffffffffff16905081600160006101000a81548173ffffffffffffffffffffffffffffffffffffffff021916908373ffffffffffffffffffffffffffffffffffffffff1602179055508173ffffffffffffffffffffffffffffffffffffffff168173ffffffffffffffffffffffffffffffffffffffff167f8be0079c531659141344cd1fd0a4f28419497f9722a3daafe3b4186f6b6457e060405160405180910390a35050565b620002e8600254826200035560201b60201c565b604051806040016040528060026000815480929190620003089062000682565b919050558152602001828152506004600085815260200190815260200160002060008481526020019081526020016000206000820151816000015560208201518160010155905050505050565b600062000368836200049760201b60201c565b14620003a0576040517f8121725b00000000000000000000000000000000000000000000000000000000815260040160405180910390fd5b6000600883604051602001620003b7919062000595565b6040516020818303038152906040528051906020012060001c901c905060008084815260200190815260200160002073__$0c6eb7207c37accf1552a1c47686411ac0$__631095fbb4909184846040518463ffffffff1660e01b81526004016200042493929190620005b2565b60006040518083038186803b1580156200043d57600080fd5b505af415801562000452573d6000803e3d6000fd5b50505050827f0d000126c26c1bbe400fd2332187f75d58b69306f9ec47b408686189d3a0083383836040516200048a929190620005ef565b60405180910390a2505050565b6000806000838152602001908152602001600020600001549050919050565b600081519050620004c78162000709565b92915050565b600081519050620004de8162000723565b92915050565b600081519050620004f5816200073d565b92915050565b6000806000606084860312156200051157600080fd5b60006200052186828701620004b6565b93505060206200053486828701620004e4565b92505060406200054786828701620004cd565b9150509250925092565b8082525050565b620005638162000678565b82525050565b620005748162000678565b82525050565b6200058f620005898262000678565b620006d0565b82525050565b6000620005a382846200057a565b60208201915081905092915050565b6000606082019050620005c9600083018662000551565b620005d8602083018562000569565b620005e7604083018462000569565b949350505050565b600060408201905062000606600083018562000558565b62000615602083018462000558565b9392505050565b6000620006298262000658565b9050919050565b60006200063d826200061c565b9050919050565b600062000651826200061c565b9050919050565b600073ffffffffffffffffffffffffffffffffffffffff82169050919050565b6000819050919050565b60006200068f8262000678565b91507fffffffffffffffffffffffffffffffffffffffffffffffffffffffffffffffff821415620006c557620006c4620006da565b5b600182019050919050565b6000819050919050565b7f4e487b7100000000000000000000000000000000000000000000000000000000600052601160045260246000fd5b620007148162000630565b81146200072057600080fd5b50565b6200072e8162000644565b81146200073a57600080fd5b50565b620007488162000678565b81146200075457600080fd5b50565b61276f80620007676000396000f3fe608060405234801561001057600080fd5b50600436106101215760003560e01c80636389e107116100ad5780638da5cb5b116100715780638da5cb5b14610319578063ac1eff6814610337578063cc5ddbd214610367578063dabc4d5114610383578063f2fde38b146103b357610121565b80636389e107146102625780636d529a1c14610292578063715018a6146102ae5780637450e2de146102b85780638cc5be5c146102e957610121565b8063298410e5116100f4578063298410e5146101be578063417c4fa7146101da57806346541a24146101f657806356bf062e14610214578063638480be1461023257610121565b806301d7b7e51461012657806313efaaaa146101425780631f79a1e91461015e578063206dd17b1461018e575b600080fd5b610140600480360381019061013b9190611abe565b6103cf565b005b61015c60048036038101906101579190611a5a565b610419565b005b610178600480360381019061017391906119a6565b610486565b6040516101859190612006565b60405180910390f35b6101a860048036038101906101a39190611a0b565b6104a6565b6040516101b59190612006565b60405180910390f35b6101d860048036038101906101d39190611888565b6104e2565b005b6101f460048036038101906101ef9190611888565b6104ed565b005b6101fe6105bb565b60405161020b91906121c5565b60405180910390f35b61021c6105c1565b6040516102299190612081565b60405180910390f35b61024c600480360381019061024791906119a6565b6105e7565b60405161025991906121c5565b60405180910390f35b61027c600480360381019061027791906119a6565b610606565b60405161028991906121c5565b60405180910390f35b6102ac60048036038101906102a79190611b37565b610625565b005b6102b6610b07565b005b6102d260048036038101906102cd91906119cf565b610b1b565b6040516102e09291906121e0565b60405180910390f35b61030360048036038101906102fe91906119cf565b610b4c565b60405161031091906121c5565b60405180910390f35b610321610b71565b60405161032e9190611f9d565b60405180910390f35b610351600480360381019061034c91906119a6565b610b9b565b60405161035e9190612066565b60405180910390f35b610381600480360381019061037c91906118b1565b610bce565b005b61039d600480360381019061039891906119a6565b611087565b6040516103aa91906121c5565b60405180910390f35b6103cd60048036038101906103c89190611888565b6110a6565b005b600061040160046000888152602001908152602001600020600087815260200190815260200160002060000154611087565b9050610411868683878787610625565b505050505050565b600061044b60046000878152602001908152602001600020600086815260200190815260200160002060000154611087565b905061047f8585838686600560008c815260200190815260200160002060008b815260200190815260200160002054610625565b5050505050565b60066020528060005260406000206000915054906101000a900460ff1681565b6008602052826000526040600020602052816000526040600020602052806000526040600020600092509250509054906101000a900460ff1681565b6104ea61112a565b50565b6104f561112a565b6000600360009054906101000a900473ffffffffffffffffffffffffffffffffffffffff16905081600360006101000a81548173ffffffffffffffffffffffffffffffffffffffff021916908373ffffffffffffffffffffffffffffffffffffffff1602179055508173ffffffffffffffffffffffffffffffffffffffff168173ffffffffffffffffffffffffffffffffffffffff167f11a7c3b8107d993bc669b5867b58e002c54e379b04105f91481b7860c57e6b9760405160405180910390a35050565b60025481565b600360009054906101000a900473ffffffffffffffffffffffffffffffffffffffff1681565b6000806000838152602001908152602001600020600201549050919050565b6000806000838152602001908152602001600020600001549050919050565b600061065760046000898152602001908152602001600020600088815260200190815260200160002060000154610606565b90506000600367ffffffffffffffff81111561069c577f4e487b7100000000000000000000000000000000000000000000000000000000600052604160045260246000fd5b6040519080825280602002602001820160405280156106ca5781602001602082028036833780820191505090505b5090508581600081518110610708577f4e487b7100000000000000000000000000000000000000000000000000000000600052603260045260246000fd5b602002602001018181525050848160018151811061074f577f4e487b7100000000000000000000000000000000000000000000000000000000600052603260045260246000fd5b6020026020010181815250508281600281518110610796577f4e487b7100000000000000000000000000000000000000000000000000000000600052603260045260246000fd5b60200260200101818152505060006007600084815260200190815260200160002060009054906101000a900473ffffffffffffffffffffffffffffffffffffffff1673ffffffffffffffffffffffffffffffffffffffff1663c32e370e604051806040016040528088600060088110610838577f4e487b7100000000000000000000000000000000000000000000000000000000600052603260045260246000fd5b602002013581526020018860016008811061087c577f4e487b7100000000000000000000000000000000000000000000000000000000600052603260045260246000fd5b6020020135815250604051806040016040528060405180604001604052808b6002600881106108d4577f4e487b7100000000000000000000000000000000000000000000000000000000600052603260045260246000fd5b602002013581526020018b600360088110610918577f4e487b7100000000000000000000000000000000000000000000000000000000600052603260045260246000fd5b6020020135815250815260200160405180604001604052808b60046008811061096a577f4e487b7100000000000000000000000000000000000000000000000000000000600052603260045260246000fd5b602002013581526020018b6005600881106109ae577f4e487b7100000000000000000000000000000000000000000000000000000000600052603260045260246000fd5b602002013581525081525060405180604001604052808a6006600881106109fe577f4e487b7100000000000000000000000000000000000000000000000000000000600052603260045260246000fd5b602002013581526020018a600760088110610a42577f4e487b7100000000000000000000000000000000000000000000000000000000600052603260045260246000fd5b6020020135815250866040518563ffffffff1660e01b8152600401610a6a9493929190611fb8565b60206040518083038186803b158015610a8257600080fd5b505afa158015610a96573d6000803e3d6000fd5b505050506040513d601f19601f82011682018060405250810190610aba919061197d565b905080610afc576040517f08c379a0000000000000000000000000000000000000000000000000000000008152600401610af3906120fc565b60405180910390fd5b505050505050505050565b610b0f61112a565b610b1960006111a8565b565b6004602052816000526040600020602052806000526040600020600091509150508060000154908060010154905082565b6005602052816000526040600020602052806000526040600020600091509150505481565b6000600160009054906101000a900473ffffffffffffffffffffffffffffffffffffffff16905090565b60076020528060005260406000206000915054906101000a900473ffffffffffffffffffffffffffffffffffffffff1681565b610bd661112a565b600060405180606001604052806028815260200161271260289139905060005b8989905081101561107b576000604051602001610c1290611f6a565b60405160208183030381529060405290506000610cc38280519060200120878786818110610c69577f4e487b7100000000000000000000000000000000000000000000000000000000600052603260045260246000fd5b9050602002810190610c7b9190612285565b8080601f016020809104026020016040519081016040528093929190818152602001838380828437600081840152601f19601f8201169050808301925050505050505061126e565b9050610ccd610b71565b73ffffffffffffffffffffffffffffffffffffffff168173ffffffffffffffffffffffffffffffffffffffff1614610d3a576040517f08c379a0000000000000000000000000000000000000000000000000000000008152600401610d319061213c565b60405180910390fd5b610daa600460008c815260200190815260200160002060008b8152602001908152602001600020600001548d8d86818110610d9e577f4e487b7100000000000000000000000000000000000000000000000000000000600052603260045260246000fd5b90506020020135611295565b6001600860008c815260200190815260200160002060008b815260200190815260200160002060008e8e87818110610e0b577f4e487b7100000000000000000000000000000000000000000000000000000000600052603260045260246000fd5b90506020020135815260200190815260200160002060006101000a81548160ff0219169083151502179055506000600360009054906101000a900473ffffffffffffffffffffffffffffffffffffffff1673ffffffffffffffffffffffffffffffffffffffff166245c88d8e8e87818110610eaf577f4e487b7100000000000000000000000000000000000000000000000000000000600052603260045260246000fd5b905060200201358d8d8d8d8a818110610ef1577f4e487b7100000000000000000000000000000000000000000000000000000000600052603260045260246000fd5b905060200201356040518563ffffffff1660e01b8152600401610f179493929190612240565b602060405180830381600087803b158015610f3157600080fd5b505af1158015610f45573d6000803e3d6000fd5b505050506040513d601f19601f82011682018060405250810190610f69919061197d565b905080610fab576040517f08c379a0000000000000000000000000000000000000000000000000000000008152600401610fa29061215c565b60405180910390fd5b8c8c85818110610fe4577f4e487b7100000000000000000000000000000000000000000000000000000000600052603260045260246000fd5b905060200201357fe67a5e82598f7f53d4b460514b6cd2b3ff2694703b59b3997c9762fa618539058c8c8c8c89818110611047577f4e487b7100000000000000000000000000000000000000000000000000000000600052603260045260246000fd5b9050602002013560405161105d93929190612209565b60405180910390a2505050808061107390612471565b915050610bf6565b50505050505050505050565b6000806000838152602001908152602001600020600101549050919050565b6110ae61112a565b600073ffffffffffffffffffffffffffffffffffffffff168173ffffffffffffffffffffffffffffffffffffffff16141561111e576040517f08c379a0000000000000000000000000000000000000000000000000000000008152600401611115906120dc565b60405180910390fd5b611127816111a8565b50565b6111326113bc565b73ffffffffffffffffffffffffffffffffffffffff16611150610b71565b73ffffffffffffffffffffffffffffffffffffffff16146111a6576040517f08c379a000000000000000000000000000000000000000000000000000000000815260040161119d9061217c565b60405180910390fd5b565b6000600160009054906101000a900473ffffffffffffffffffffffffffffffffffffffff16905081600160006101000a81548173ffffffffffffffffffffffffffffffffffffffff021916908373ffffffffffffffffffffffffffffffffffffffff1602179055508173ffffffffffffffffffffffffffffffffffffffff168173ffffffffffffffffffffffffffffffffffffffff167f8be0079c531659141344cd1fd0a4f28419497f9722a3daafe3b4186f6b6457e060405160405180910390a35050565b600080600061127d85856113c4565b9150915061128a81611416565b819250505092915050565b60006112a083610606565b14156112d8576040517f029f057900000000000000000000000000000000000000000000000000000000815260040160405180910390fd5b60008083815260200190815260200160002073__$0c6eb7207c37accf1552a1c47686411ac0$__63168703fa9091836040518363ffffffff1660e01b815260040161132492919061219c565b60006040518083038186803b15801561133c57600080fd5b505af4158015611350573d6000803e3d6000fd5b50505050600061135f83611087565b90506000600161136e856105e7565b6113789190612396565b9050837f19239b3f93cd10558aaf11423af70c77763bf54f52bcc75bfa74d4d13548cde98285856040516113ae93929190612209565b60405180910390a250505050565b600033905090565b6000806041835114156114065760008060006020860151925060408601519150606086015160001a90506113fa878285856116b4565b9450945050505061140f565b60006002915091505b9250929050565b60006004811115611450577f4e487b7100000000000000000000000000000000000000000000000000000000600052602160045260246000fd5b816004811115611489577f4e487b7100000000000000000000000000000000000000000000000000000000600052602160045260246000fd5b1415611494576116b1565b600160048111156114ce577f4e487b7100000000000000000000000000000000000000000000000000000000600052602160045260246000fd5b816004811115611507577f4e487b7100000000000000000000000000000000000000000000000000000000600052602160045260246000fd5b1415611548576040517f08c379a000000000000000000000000000000000000000000000000000000000815260040161153f9061209c565b60405180910390fd5b60026004811115611582577f4e487b7100000000000000000000000000000000000000000000000000000000600052602160045260246000fd5b8160048111156115bb577f4e487b7100000000000000000000000000000000000000000000000000000000600052602160045260246000fd5b14156115fc576040517f08c379a00000000000000000000000000000000000000000000000000000000081526004016115f3906120bc565b60405180910390fd5b60036004811115611636577f4e487b7100000000000000000000000000000000000000000000000000000000600052602160045260246000fd5b81600481111561166f577f4e487b7100000000000000000000000000000000000000000000000000000000600052602160045260246000fd5b14156116b0576040517f08c379a00000000000000000000000000000000000000000000000000000000081526004016116a79061211c565b60405180910390fd5b5b50565b6000807f7fffffffffffffffffffffffffffffff5d576e7357a4501ddfe92f46681b20a08360001c11156116ef57600060039150915061178e565b6000600187878787604051600081526020016040526040516117149493929190612021565b6020604051602081039080840390855afa158015611736573d6000803e3d6000fd5b505050602060405103519050600073ffffffffffffffffffffffffffffffffffffffff168173ffffffffffffffffffffffffffffffffffffffff1614156117855760006001925092505061178e565b80600092509250505b94509492505050565b6000813590506117a6816126cc565b92915050565b60008083601f8401126117be57600080fd5b8235905067ffffffffffffffff8111156117d757600080fd5b6020830191508360208202830111156117ef57600080fd5b9250929050565b60008190508260206008028201111561180e57600080fd5b92915050565b60008083601f84011261182657600080fd5b8235905067ffffffffffffffff81111561183f57600080fd5b60208301915083602082028301111561185757600080fd5b9250929050565b60008151905061186d816126e3565b92915050565b600081359050611882816126fa565b92915050565b60006020828403121561189a57600080fd5b60006118a884828501611797565b91505092915050565b60008060008060008060008060a0898b0312156118cd57600080fd5b600089013567ffffffffffffffff8111156118e757600080fd5b6118f38b828c01611814565b985098505060206119068b828c01611873565b96505060406119178b828c01611873565b955050606089013567ffffffffffffffff81111561193457600080fd5b6119408b828c01611814565b9450945050608089013567ffffffffffffffff81111561195f57600080fd5b61196b8b828c016117ac565b92509250509295985092959890939650565b60006020828403121561198f57600080fd5b600061199d8482850161185e565b91505092915050565b6000602082840312156119b857600080fd5b60006119c684828501611873565b91505092915050565b600080604083850312156119e257600080fd5b60006119f085828601611873565b9250506020611a0185828601611873565b9150509250929050565b600080600060608486031215611a2057600080fd5b6000611a2e86828701611873565b9350506020611a3f86828701611873565b9250506040611a5086828701611873565b9150509250925092565b6000806000806101608587031215611a7157600080fd5b6000611a7f87828801611873565b9450506020611a9087828801611873565b9350506040611aa187828801611873565b9250506060611ab2878288016117f6565b91505092959194509250565b60008060008060006101808688031215611ad757600080fd5b6000611ae588828901611873565b9550506020611af688828901611873565b9450506040611b0788828901611873565b9350506060611b18888289016117f6565b925050610160611b2a88828901611873565b9150509295509295909350565b6000806000806000806101a08789031215611b5157600080fd5b6000611b5f89828a01611873565b9650506020611b7089828a01611873565b9550506040611b8189828a01611873565b9450506060611b9289828a01611873565b9350506080611ba389828a016117f6565b925050610180611bb589828a01611873565b9150509295509295509295565b6000611bce8383611c58565b60408301905092915050565b6000611be68383611f2e565b60208301905092915050565b611bfb816123ca565b82525050565b611c0a81612300565b611c148184612348565b9250611c1f826122dc565b8060005b83811015611c50578151611c378782611bc2565b9650611c4283612321565b925050600181019050611c23565b505050505050565b611c618161230b565b611c6b8184612353565b9250611c76826122e6565b8060005b83811015611ca7578151611c8e8782611bda565b9650611c998361232e565b925050600181019050611c7a565b505050505050565b611cb88161230b565b611cc2818461235e565b9250611ccd826122e6565b8060005b83811015611cfe578151611ce58782611bda565b9650611cf08361232e565b925050600181019050611cd1565b505050505050565b6000611d1182612316565b611d1b8185612369565b9350611d26836122f0565b8060005b83811015611d57578151611d3e8882611bda565b9750611d498361233b565b925050600181019050611d2a565b5085935050505092915050565b611d6d816123dc565b82525050565b611d7c816123e8565b82525050565b611d8b81612429565b82525050565b611d9a8161244d565b82525050565b6000611dad601883612385565b9150611db8826124e9565b602082019050919050565b6000611dd0601f83612385565b9150611ddb82612512565b602082019050919050565b6000611df3602683612385565b9150611dfe8261253b565b604082019050919050565b6000611e16600e83612385565b9150611e218261258a565b602082019050919050565b7f3078000000000000000000000000000000000000000000000000000000000000815250565b6000611e5f602283612385565b9150611e6a826125b3565b604082019050919050565b6000611e82601e83612385565b9150611e8d82612602565b602082019050919050565b6000611ea5602a8361237a565b9150611eb08261262b565b602a82019050919050565b6000611ec8601483612385565b9150611ed38261267a565b602082019050919050565b6000611eeb602083612385565b9150611ef6826126a3565b602082019050919050565b7f19457468657265756d205369676e6564204d6573736167653a0a313330000000815250565b8082525050565b611f3781612412565b82525050565b611f4681612412565b82525050565b611f5581612412565b82525050565b611f648161241c565b82525050565b6000611f7582611f01565b601d82019150611f8482611e2c565b600282019150611f9382611e98565b9150819050919050565b6000602082019050611fb26000830184611bf2565b92915050565b600061012082019050611fce6000830187611caf565b611fdb6040830186611c01565b611fe860c0830185611caf565b818103610100830152611ffb8184611d06565b905095945050505050565b600060208201905061201b6000830184611d64565b92915050565b60006080820190506120366000830187611d73565b6120436020830186611f5b565b6120506040830185611d73565b61205d6060830184611d73565b95945050505050565b600060208201905061207b6000830184611d82565b92915050565b60006020820190506120966000830184611d91565b92915050565b600060208201905081810360008301526120b581611da0565b9050919050565b600060208201905081810360008301526120d581611dc3565b9050919050565b600060208201905081810360008301526120f581611de6565b9050919050565b6000602082019050818103600083015261211581611e09565b9050919050565b6000602082019050818103600083015261213581611e52565b9050919050565b6000602082019050818103600083015261215581611e75565b9050919050565b6000602082019050818103600083015261217581611ebb565b9050919050565b6000602082019050818103600083015261219581611ede565b9050919050565b60006040820190506121b16000830185611f27565b6121be6020830184611f4c565b9392505050565b60006020820190506121da6000830184611f3d565b92915050565b60006040820190506121f56000830185611f3d565b6122026020830184611f3d565b9392505050565b600060608201905061221e6000830186611f3d565b61222b6020830185611f3d565b6122386040830184611f3d565b949350505050565b60006080820190506122556000830187611f3d565b6122626020830186611f3d565b61226f6040830185611f3d565b61227c6060830184611f3d565b95945050505050565b6000808335600160200384360303811261229e57600080fd5b80840192508235915067ffffffffffffffff8211156122bc57600080fd5b6020830192506001820236038313156122d457600080fd5b509250929050565b6000819050919050565b6000819050919050565b6000819050602082019050919050565b600060029050919050565b600060029050919050565b600081519050919050565b6000602082019050919050565b6000602082019050919050565b6000602082019050919050565b600081905092915050565b600081905092915050565b600081905092915050565b600082825260208201905092915050565b600081905092915050565b600082825260208201905092915050565b60006123a182612412565b91506123ac83612412565b9250828210156123bf576123be6124ba565b5b828203905092915050565b60006123d5826123f2565b9050919050565b60008115159050919050565b6000819050919050565b600073ffffffffffffffffffffffffffffffffffffffff82169050919050565b6000819050919050565b600060ff82169050919050565b60006124348261243b565b9050919050565b6000612446826123f2565b9050919050565b60006124588261245f565b9050919050565b600061246a826123f2565b9050919050565b600061247c82612412565b91507fffffffffffffffffffffffffffffffffffffffffffffffffffffffffffffffff8214156124af576124ae6124ba565b5b600182019050919050565b7f4e487b7100000000000000000000000000000000000000000000000000000000600052601160045260246000fd5b7f45434453413a20696e76616c6964207369676e61747572650000000000000000600082015250565b7f45434453413a20696e76616c6964207369676e6174757265206c656e67746800600082015250565b7f4f776e61626c653a206e6577206f776e657220697320746865207a65726f206160008201527f6464726573730000000000000000000000000000000000000000000000000000602082015250565b7f70726f6f6620696e76616c696421000000000000000000000000000000000000600082015250565b7f45434453413a20696e76616c6964207369676e6174757265202773272076616c60008201527f7565000000000000000000000000000000000000000000000000000000000000602082015250565b7f496e76616c6964204365727469666963617465205369676e6174757265210000600082015250565b7f30787369676e2074686973206d65737361676520746f20636c61696d20796f7560008201527f72207a6b534254203a2000000000000000000000000000000000000000000000602082015250565b7f6661696c656420746f206d696e74207a6b534254000000000000000000000000600082015250565b7f4f776e61626c653a2063616c6c6572206973206e6f7420746865206f776e6572600082015250565b6126d5816123ca565b81146126e057600080fd5b50565b6126ec816123dc565b81146126f757600080fd5b50565b61270381612412565b811461270e57600080fd5b5056fe5369676e2074686973206d65737361676520746f20636c61696d20796f7572207a6b534254203a20a2646970667358221220d8e1469b7d502b5bb2065fa65343d67ec90ac76043a6090e33f51bee5596c78a64736f6c63430008040033",
  "linkReferences": {
    "@zk-kit/incremental-merkle-tree.sol/IncrementalBinaryTree.sol": {
      "IncrementalBinaryTree": [
        {
          "length": 20,
          "start": 1000
        },
        {
          "length": 20,
          "start": 6739
        }
      ]
    }
  },
  "deployedLinkReferences": {
    "@zk-kit/incremental-merkle-tree.sol/IncrementalBinaryTree.sol": {
      "IncrementalBinaryTree": [
        {
          "length": 20,
          "start": 4844
        }
      ]
    }
  }
}