{
  "_format": "hh-sol-artifact-1",
  "contractName": "Pomp",
  "sourceName": "contracts/pomp.sol",
  "abi": [
    {
      "inputs": [
        {
          "internalType": "contract IVerifier",
          "name": "_verifier",
          "type": "address"
        },
        {
          "internalType": "uint256",
          "name": "poolDepth",
          "type": "uint256"
        }
      ],
      "stateMutability": "nonpayable",
      "type": "constructor"
    },
    {
      "inputs": [],
      "name": "Semaphore__GroupAlreadyExists",
      "type": "error"
    },
    {
      "inputs": [],
      "name": "Semaphore__GroupDoesNotExist",
      "type": "error"
    },
    {
      "anonymous": false,
      "inputs": [
        {
          "indexed": true,
          "internalType": "uint256",
          "name": "groupId",
          "type": "uint256"
        },
        {
          "indexed": false,
          "internalType": "uint256",
          "name": "merkleTreeDepth",
          "type": "uint256"
        },
        {
          "indexed": false,
          "internalType": "uint256",
          "name": "zeroValue",
          "type": "uint256"
        }
      ],
      "name": "GroupCreated",
      "type": "event"
    },
    {
      "anonymous": false,
      "inputs": [
        {
          "indexed": true,
          "internalType": "uint256",
          "name": "groupId",
          "type": "uint256"
        },
        {
          "indexed": false,
          "internalType": "uint256",
          "name": "index",
          "type": "uint256"
        },
        {
          "indexed": false,
          "internalType": "uint256",
          "name": "identityCommitment",
          "type": "uint256"
        },
        {
          "indexed": false,
          "internalType": "uint256",
          "name": "merkleTreeRoot",
          "type": "uint256"
        }
      ],
      "name": "MemberAdded",
      "type": "event"
    },
    {
      "anonymous": false,
      "inputs": [
        {
          "indexed": true,
          "internalType": "uint256",
          "name": "groupId",
          "type": "uint256"
        },
        {
          "indexed": false,
          "internalType": "uint256",
          "name": "index",
          "type": "uint256"
        },
        {
          "indexed": false,
          "internalType": "uint256",
          "name": "identityCommitment",
          "type": "uint256"
        },
        {
          "indexed": false,
          "internalType": "uint256",
          "name": "merkleTreeRoot",
          "type": "uint256"
        }
      ],
      "name": "MemberRemoved",
      "type": "event"
    },
    {
      "anonymous": false,
      "inputs": [
        {
          "indexed": true,
          "internalType": "uint256",
          "name": "groupId",
          "type": "uint256"
        },
        {
          "indexed": false,
          "internalType": "uint256",
          "name": "index",
          "type": "uint256"
        },
        {
          "indexed": false,
          "internalType": "uint256",
          "name": "identityCommitment",
          "type": "uint256"
        },
        {
          "indexed": false,
          "internalType": "uint256",
          "name": "newIdentityCommitment",
          "type": "uint256"
        },
        {
          "indexed": false,
          "internalType": "uint256",
          "name": "merkleTreeRoot",
          "type": "uint256"
        }
      ],
      "name": "MemberUpdated",
      "type": "event"
    },
    {
      "anonymous": false,
      "inputs": [
        {
          "indexed": true,
          "internalType": "address",
          "name": "previousOwner",
          "type": "address"
        },
        {
          "indexed": true,
          "internalType": "address",
          "name": "newOwner",
          "type": "address"
        }
      ],
      "name": "OwnershipTransferred",
      "type": "event"
    },
    {
      "inputs": [
        {
          "internalType": "uint256",
          "name": "asset",
          "type": "uint256"
        },
        {
          "internalType": "uint256",
          "name": "range",
          "type": "uint256"
        },
        {
          "internalType": "uint256",
          "name": "poolDepth",
          "type": "uint256"
        }
      ],
      "name": "createPompPool",
      "outputs": [],
      "stateMutability": "nonpayable",
      "type": "function"
    },
    {
      "inputs": [
        {
          "internalType": "uint256",
          "name": "groupId",
          "type": "uint256"
        }
      ],
      "name": "getMerkleTreeDepth",
      "outputs": [
        {
          "internalType": "uint256",
          "name": "",
          "type": "uint256"
        }
      ],
      "stateMutability": "view",
      "type": "function"
    },
    {
      "inputs": [
        {
          "internalType": "uint256",
          "name": "groupId",
          "type": "uint256"
        }
      ],
      "name": "getMerkleTreeRoot",
      "outputs": [
        {
          "internalType": "uint256",
          "name": "",
          "type": "uint256"
        }
      ],
      "stateMutability": "view",
      "type": "function"
    },
    {
      "inputs": [
        {
          "internalType": "uint256",
          "name": "groupId",
          "type": "uint256"
        }
      ],
      "name": "getNumberOfMerkleTreeLeaves",
      "outputs": [
        {
          "internalType": "uint256",
          "name": "",
          "type": "uint256"
        }
      ],
      "stateMutability": "view",
      "type": "function"
    },
    {
      "inputs": [],
      "name": "latestPoolId",
      "outputs": [
        {
          "internalType": "uint256",
          "name": "",
          "type": "uint256"
        }
      ],
      "stateMutability": "view",
      "type": "function"
    },
    {
      "inputs": [
        {
          "internalType": "uint256[]",
          "name": "identity",
          "type": "uint256[]"
        },
        {
          "internalType": "uint256",
          "name": "asset",
          "type": "uint256"
        },
        {
          "internalType": "uint256",
          "name": "range",
          "type": "uint256"
        }
      ],
      "name": "mint",
      "outputs": [],
      "stateMutability": "nonpayable",
      "type": "function"
    },
    {
      "inputs": [],
      "name": "owner",
      "outputs": [
        {
          "internalType": "address",
          "name": "",
          "type": "address"
        }
      ],
      "stateMutability": "view",
      "type": "function"
    },
    {
      "inputs": [],
      "name": "renounceOwnership",
      "outputs": [],
      "stateMutability": "nonpayable",
      "type": "function"
    },
    {
      "inputs": [
        {
          "internalType": "address",
          "name": "newOwner",
          "type": "address"
        }
      ],
      "name": "transferOwnership",
      "outputs": [],
      "stateMutability": "nonpayable",
      "type": "function"
    },
    {
      "inputs": [
        {
          "internalType": "uint256",
          "name": "asset",
          "type": "uint256"
        },
        {
          "internalType": "uint256",
          "name": "range",
          "type": "uint256"
        },
        {
          "internalType": "uint256",
          "name": "nullifierHash",
          "type": "uint256"
        },
        {
          "internalType": "uint256[8]",
          "name": "proof",
          "type": "uint256[8]"
        }
      ],
      "name": "verify",
      "outputs": [],
      "stateMutability": "nonpayable",
      "type": "function"
    }
  ],
  "bytecode": "0x60806040523480156200001157600080fd5b5060405162001d1038038062001d1083398181016040528101906200003791906200056d565b620000576200004b620001c460201b60201c565b620001cc60201b60201c565b816006600083815260200190815260200160002060006101000a81548173ffffffffffffffffffffffffffffffffffffffff021916908373ffffffffffffffffffffffffffffffffffffffff16021790555060006002819055506200013760006001811115620000f0577f4e487b7100000000000000000000000000000000000000000000000000000000600052602160045260246000fd5b6003808111156200012a577f4e487b7100000000000000000000000000000000000000000000000000000000600052602160045260246000fd5b836200029260201b60201c565b620001bc60018081111562000175577f4e487b7100000000000000000000000000000000000000000000000000000000600052602160045260246000fd5b600380811115620001af577f4e487b7100000000000000000000000000000000000000000000000000000000600052602160045260246000fd5b836200029260201b60201c565b505062000809565b600033905090565b6000600160009054906101000a900473ffffffffffffffffffffffffffffffffffffffff16905081600160006101000a81548173ffffffffffffffffffffffffffffffffffffffff021916908373ffffffffffffffffffffffffffffffffffffffff1602179055508173ffffffffffffffffffffffffffffffffffffffff168173ffffffffffffffffffffffffffffffffffffffff167f8be0079c531659141344cd1fd0a4f28419497f9722a3daafe3b4186f6b6457e060405160405180910390a35050565b620002a26200032360201b60201c565b620002b660025482620003b460201b60201c565b604051806040016040528060026000815480929190620002d69062000725565b919050558152602001828152506003600085815260200190815260200160002060008481526020019081526020016000206000820151816000015560208201518160010155905050505050565b62000333620001c460201b60201c565b73ffffffffffffffffffffffffffffffffffffffff1662000359620004f660201b60201c565b73ffffffffffffffffffffffffffffffffffffffff1614620003b2576040517f08c379a0000000000000000000000000000000000000000000000000000000008152600401620003a99062000636565b60405180910390fd5b565b6000620003c7836200052060201b60201c565b14620003ff576040517f8121725b00000000000000000000000000000000000000000000000000000000815260040160405180910390fd5b600060088360405160200162000416919062000619565b6040516020818303038152906040528051906020012060001c901c905060008084815260200190815260200160002073__$0c6eb7207c37accf1552a1c47686411ac0$__631095fbb4909184846040518463ffffffff1660e01b8152600401620004839392919062000658565b60006040518083038186803b1580156200049c57600080fd5b505af4158015620004b1573d6000803e3d6000fd5b50505050827f0d000126c26c1bbe400fd2332187f75d58b69306f9ec47b408686189d3a008338383604051620004e992919062000695565b60405180910390a2505050565b6000600160009054906101000a900473ffffffffffffffffffffffffffffffffffffffff16905090565b6000806000838152602001908152602001600020600001549050919050565b6000815190506200055081620007d5565b92915050565b6000815190506200056781620007ef565b92915050565b600080604083850312156200058157600080fd5b600062000591858286016200053f565b9250506020620005a48582860162000556565b9150509250929050565b6000620005bd602083620006c2565b9150620005ca82620007ac565b602082019050919050565b8082525050565b620005e7816200071b565b82525050565b620005f8816200071b565b82525050565b620006136200060d826200071b565b62000773565b82525050565b6000620006278284620005fe565b60208201915081905092915050565b600060208201905081810360008301526200065181620005ae565b9050919050565b60006060820190506200066f6000830186620005d5565b6200067e6020830185620005ed565b6200068d6040830184620005ed565b949350505050565b6000604082019050620006ac6000830185620005dc565b620006bb6020830184620005dc565b9392505050565b600082825260208201905092915050565b6000620006e082620006fb565b9050919050565b6000620006f482620006d3565b9050919050565b600073ffffffffffffffffffffffffffffffffffffffff82169050919050565b6000819050919050565b600062000732826200071b565b91507fffffffffffffffffffffffffffffffffffffffffffffffffffffffffffffffff8214156200076857620007676200077d565b5b600182019050919050565b6000819050919050565b7f4e487b7100000000000000000000000000000000000000000000000000000000600052601160045260246000fd5b7f4f776e61626c653a2063616c6c6572206973206e6f7420746865206f776e6572600082015250565b620007e081620006e7565b8114620007ec57600080fd5b50565b620007fa816200071b565b81146200080657600080fd5b50565b6114f780620008196000396000f3fe608060405234801561001057600080fd5b506004361061009e5760003560e01c80638da5cb5b116100665780638da5cb5b14610147578063990fb24414610165578063b749fb1514610181578063dabc4d511461019d578063f2fde38b146101cd5761009e565b806313efaaaa146100a357806346541a24146100bf578063638480be146100dd5780636389e1071461010d578063715018a61461013d575b600080fd5b6100bd60048036038101906100b89190610e44565b6101e9565b005b6100c76106bd565b6040516100d491906111ff565b60405180910390f35b6100f760048036038101906100f29190610dcc565b6106c3565b60405161010491906111ff565b60405180910390f35b61012760048036038101906101229190610dcc565b6106e2565b60405161013491906111ff565b60405180910390f35b610145610701565b005b61014f610715565b60405161015c91906110f6565b60405180910390f35b61017f600480360381019061017a9190610df5565b61073f565b005b61019b60048036038101906101969190610d60565b6107be565b005b6101b760048036038101906101b29190610dcc565b61085e565b6040516101c491906111ff565b60405180910390f35b6101e760048036038101906101e29190610d37565b61087d565b005b600061021b600360008781526020019081526020016000206000868152602001908152602001600020600001546106e2565b9050600061024f6003600088815260200190815260200160002060008781526020019081526020016000206000015461085e565b90506000600367ffffffffffffffff811115610294577f4e487b7100000000000000000000000000000000000000000000000000000000600052604160045260246000fd5b6040519080825280602002602001820160405280156102c25781602001602082028036833780820191505090505b5090508181600081518110610300577f4e487b7100000000000000000000000000000000000000000000000000000000600052603260045260246000fd5b6020026020010181815250508481600181518110610347577f4e487b7100000000000000000000000000000000000000000000000000000000600052603260045260246000fd5b60200260200101818152505060046000888152602001908152602001600020600087815260200190815260200160002054816002815181106103b2577f4e487b7100000000000000000000000000000000000000000000000000000000600052603260045260246000fd5b6020026020010181815250506006600084815260200190815260200160002060009054906101000a900473ffffffffffffffffffffffffffffffffffffffff1673ffffffffffffffffffffffffffffffffffffffff1663c32e370e604051806040016040528087600060088110610452577f4e487b7100000000000000000000000000000000000000000000000000000000600052603260045260246000fd5b6020020135815260200187600160088110610496577f4e487b7100000000000000000000000000000000000000000000000000000000600052603260045260246000fd5b6020020135815250604051806040016040528060405180604001604052808a6002600881106104ee577f4e487b7100000000000000000000000000000000000000000000000000000000600052603260045260246000fd5b602002013581526020018a600360088110610532577f4e487b7100000000000000000000000000000000000000000000000000000000600052603260045260246000fd5b6020020135815250815260200160405180604001604052808a600460088110610584577f4e487b7100000000000000000000000000000000000000000000000000000000600052603260045260246000fd5b602002013581526020018a6005600881106105c8577f4e487b7100000000000000000000000000000000000000000000000000000000600052603260045260246000fd5b6020020135815250815250604051806040016040528089600660088110610618577f4e487b7100000000000000000000000000000000000000000000000000000000600052603260045260246000fd5b602002013581526020018960076008811061065c577f4e487b7100000000000000000000000000000000000000000000000000000000600052603260045260246000fd5b6020020135815250856040518563ffffffff1660e01b81526004016106849493929190611111565b60006040518083038186803b15801561069c57600080fd5b505afa1580156106b0573d6000803e3d6000fd5b5050505050505050505050565b60025481565b6000806000838152602001908152602001600020600201549050919050565b6000806000838152602001908152602001600020600001549050919050565b610709610901565b610713600061097f565b565b6000600160009054906101000a900473ffffffffffffffffffffffffffffffffffffffff16905090565b610747610901565b61075360025482610a45565b60405180604001604052806002600081548092919061077190611399565b919050558152602001828152506003600085815260200190815260200160002060008481526020019081526020016000206000820151816000015560208201518160010155905050505050565b6107c6610901565b60005b848490508110156108575761084460036000858152602001908152602001600020600084815260200190815260200160002060000154868684818110610838577f4e487b7100000000000000000000000000000000000000000000000000000000600052603260045260246000fd5b90506020020135610b76565b808061084f90611399565b9150506107c9565b5050505050565b6000806000838152602001908152602001600020600101549050919050565b610885610901565b600073ffffffffffffffffffffffffffffffffffffffff168173ffffffffffffffffffffffffffffffffffffffff1614156108f5576040517f08c379a00000000000000000000000000000000000000000000000000000000081526004016108ec9061115f565b60405180910390fd5b6108fe8161097f565b50565b610909610c9d565b73ffffffffffffffffffffffffffffffffffffffff16610927610715565b73ffffffffffffffffffffffffffffffffffffffff161461097d576040517f08c379a00000000000000000000000000000000000000000000000000000000081526004016109749061117f565b60405180910390fd5b565b6000600160009054906101000a900473ffffffffffffffffffffffffffffffffffffffff16905081600160006101000a81548173ffffffffffffffffffffffffffffffffffffffff021916908373ffffffffffffffffffffffffffffffffffffffff1602179055508173ffffffffffffffffffffffffffffffffffffffff168173ffffffffffffffffffffffffffffffffffffffff167f8be0079c531659141344cd1fd0a4f28419497f9722a3daafe3b4186f6b6457e060405160405180910390a35050565b6000610a50836106e2565b14610a87576040517f8121725b00000000000000000000000000000000000000000000000000000000815260040160405180910390fd5b6000600883604051602001610a9c91906110db565b6040516020818303038152906040528051906020012060001c901c905060008084815260200190815260200160002073__$0c6eb7207c37accf1552a1c47686411ac0$__631095fbb4909184846040518463ffffffff1660e01b8152600401610b07939291906111c8565b60006040518083038186803b158015610b1f57600080fd5b505af4158015610b33573d6000803e3d6000fd5b50505050827f0d000126c26c1bbe400fd2332187f75d58b69306f9ec47b408686189d3a008338383604051610b6992919061121a565b60405180910390a2505050565b6000610b81836106e2565b1415610bb9576040517f029f057900000000000000000000000000000000000000000000000000000000815260040160405180910390fd5b60008083815260200190815260200160002073__$0c6eb7207c37accf1552a1c47686411ac0$__63168703fa9091836040518363ffffffff1660e01b8152600401610c0592919061119f565b60006040518083038186803b158015610c1d57600080fd5b505af4158015610c31573d6000803e3d6000fd5b505050506000610c408361085e565b905060006001610c4f856106c3565b610c599190611329565b9050837f19239b3f93cd10558aaf11423af70c77763bf54f52bcc75bfa74d4d13548cde9828585604051610c8f93929190611243565b60405180910390a250505050565b600033905090565b600081359050610cb481611493565b92915050565b600081905082602060080282011115610cd257600080fd5b92915050565b60008083601f840112610cea57600080fd5b8235905067ffffffffffffffff811115610d0357600080fd5b602083019150836020820283011115610d1b57600080fd5b9250929050565b600081359050610d31816114aa565b92915050565b600060208284031215610d4957600080fd5b6000610d5784828501610ca5565b91505092915050565b60008060008060608587031215610d7657600080fd5b600085013567ffffffffffffffff811115610d9057600080fd5b610d9c87828801610cd8565b94509450506020610daf87828801610d22565b9250506040610dc087828801610d22565b91505092959194509250565b600060208284031215610dde57600080fd5b6000610dec84828501610d22565b91505092915050565b600080600060608486031215610e0a57600080fd5b6000610e1886828701610d22565b9350506020610e2986828701610d22565b9250506040610e3a86828701610d22565b9150509250925092565b6000806000806101608587031215610e5b57600080fd5b6000610e6987828801610d22565b9450506020610e7a87828801610d22565b9350506040610e8b87828801610d22565b9250506060610e9c87828801610cba565b91505092959194509250565b6000610eb48383610f3e565b60408301905092915050565b6000610ecc8383611097565b60208301905092915050565b610ee18161135d565b82525050565b610ef08161129e565b610efa81846112e6565b9250610f058261127a565b8060005b83811015610f36578151610f1d8782610ea8565b9650610f28836112bf565b925050600181019050610f09565b505050505050565b610f47816112a9565b610f5181846112f1565b9250610f5c82611284565b8060005b83811015610f8d578151610f748782610ec0565b9650610f7f836112cc565b925050600181019050610f60565b505050505050565b610f9e816112a9565b610fa881846112fc565b9250610fb382611284565b8060005b83811015610fe4578151610fcb8782610ec0565b9650610fd6836112cc565b925050600181019050610fb7565b505050505050565b6000610ff7826112b4565b6110018185611307565b935061100c8361128e565b8060005b8381101561103d5781516110248882610ec0565b975061102f836112d9565b925050600181019050611010565b5085935050505092915050565b6000611057602683611318565b91506110628261141b565b604082019050919050565b600061107a602083611318565b91506110858261146a565b602082019050919050565b8082525050565b6110a08161138f565b82525050565b6110af8161138f565b82525050565b6110be8161138f565b82525050565b6110d56110d08261138f565b6113e2565b82525050565b60006110e782846110c4565b60208201915081905092915050565b600060208201905061110b6000830184610ed8565b92915050565b6000610120820190506111276000830187610f95565b6111346040830186610ee7565b61114160c0830185610f95565b8181036101008301526111548184610fec565b905095945050505050565b600060208201905081810360008301526111788161104a565b9050919050565b600060208201905081810360008301526111988161106d565b9050919050565b60006040820190506111b46000830185611090565b6111c160208301846110b5565b9392505050565b60006060820190506111dd6000830186611090565b6111ea60208301856110b5565b6111f760408301846110b5565b949350505050565b600060208201905061121460008301846110a6565b92915050565b600060408201905061122f60008301856110a6565b61123c60208301846110a6565b9392505050565b600060608201905061125860008301866110a6565b61126560208301856110a6565b61127260408301846110a6565b949350505050565b6000819050919050565b6000819050919050565b6000819050602082019050919050565b600060029050919050565b600060029050919050565b600081519050919050565b6000602082019050919050565b6000602082019050919050565b6000602082019050919050565b600081905092915050565b600081905092915050565b600081905092915050565b600082825260208201905092915050565b600082825260208201905092915050565b60006113348261138f565b915061133f8361138f565b925082821015611352576113516113ec565b5b828203905092915050565b60006113688261136f565b9050919050565b600073ffffffffffffffffffffffffffffffffffffffff82169050919050565b6000819050919050565b60006113a48261138f565b91507fffffffffffffffffffffffffffffffffffffffffffffffffffffffffffffffff8214156113d7576113d66113ec565b5b600182019050919050565b6000819050919050565b7f4e487b7100000000000000000000000000000000000000000000000000000000600052601160045260246000fd5b7f4f776e61626c653a206e6577206f776e657220697320746865207a65726f206160008201527f6464726573730000000000000000000000000000000000000000000000000000602082015250565b7f4f776e61626c653a2063616c6c6572206973206e6f7420746865206f776e6572600082015250565b61149c8161135d565b81146114a757600080fd5b50565b6114b38161138f565b81146114be57600080fd5b5056fea2646970667358221220c7bd3fb9eb0922ab45ff50008dc4bfc5ceff8283675100a225383f83c7372f6064736f6c63430008040033",
  "linkReferences": {
    "@zk-kit/incremental-merkle-tree.sol/IncrementalBinaryTree.sol": {
      "IncrementalBinaryTree": [
        {
          "length": 20,
          "start": 1095
        },
        {
          "length": 20,
          "start": 4838
        },
        {
          "length": 20,
          "start": 5094
        }
      ]
    }
  },
  "deployedLinkReferences": {
    "@zk-kit/incremental-merkle-tree.sol/IncrementalBinaryTree.sol": {
      "IncrementalBinaryTree": [
        {
          "length": 20,
          "start": 2765
        },
        {
          "length": 20,
          "start": 3021
        }
      ]
    }
  }
}