{
  "_format": "hh-sol-artifact-1",
  "contractName": "Pomp",
  "sourceName": "contracts/pomp.sol",
  "abi": [
    {
      "inputs": [
        {
          "internalType": "contract IVerifier",
          "name": "_verifier",
          "type": "address"
        },
        {
          "internalType": "uint256",
          "name": "poolDepth",
          "type": "uint256"
        }
      ],
      "stateMutability": "nonpayable",
      "type": "constructor"
    },
    {
      "inputs": [],
      "name": "Semaphore__GroupAlreadyExists",
      "type": "error"
    },
    {
      "inputs": [],
      "name": "Semaphore__GroupDoesNotExist",
      "type": "error"
    },
    {
      "anonymous": false,
      "inputs": [
        {
          "indexed": true,
          "internalType": "uint256",
          "name": "groupId",
          "type": "uint256"
        },
        {
          "indexed": false,
          "internalType": "uint256",
          "name": "merkleTreeDepth",
          "type": "uint256"
        },
        {
          "indexed": false,
          "internalType": "uint256",
          "name": "zeroValue",
          "type": "uint256"
        }
      ],
      "name": "GroupCreated",
      "type": "event"
    },
    {
      "anonymous": false,
      "inputs": [
        {
          "indexed": true,
          "internalType": "uint256",
          "name": "groupId",
          "type": "uint256"
        },
        {
          "indexed": false,
          "internalType": "uint256",
          "name": "index",
          "type": "uint256"
        },
        {
          "indexed": false,
          "internalType": "uint256",
          "name": "identityCommitment",
          "type": "uint256"
        },
        {
          "indexed": false,
          "internalType": "uint256",
          "name": "merkleTreeRoot",
          "type": "uint256"
        }
      ],
      "name": "MemberAdded",
      "type": "event"
    },
    {
      "anonymous": false,
      "inputs": [
        {
          "indexed": true,
          "internalType": "uint256",
          "name": "groupId",
          "type": "uint256"
        },
        {
          "indexed": false,
          "internalType": "uint256",
          "name": "index",
          "type": "uint256"
        },
        {
          "indexed": false,
          "internalType": "uint256",
          "name": "identityCommitment",
          "type": "uint256"
        },
        {
          "indexed": false,
          "internalType": "uint256",
          "name": "merkleTreeRoot",
          "type": "uint256"
        }
      ],
      "name": "MemberRemoved",
      "type": "event"
    },
    {
      "anonymous": false,
      "inputs": [
        {
          "indexed": true,
          "internalType": "uint256",
          "name": "groupId",
          "type": "uint256"
        },
        {
          "indexed": false,
          "internalType": "uint256",
          "name": "index",
          "type": "uint256"
        },
        {
          "indexed": false,
          "internalType": "uint256",
          "name": "identityCommitment",
          "type": "uint256"
        },
        {
          "indexed": false,
          "internalType": "uint256",
          "name": "newIdentityCommitment",
          "type": "uint256"
        },
        {
          "indexed": false,
          "internalType": "uint256",
          "name": "merkleTreeRoot",
          "type": "uint256"
        }
      ],
      "name": "MemberUpdated",
      "type": "event"
    },
    {
      "anonymous": false,
      "inputs": [
        {
          "indexed": true,
          "internalType": "address",
          "name": "previousOwner",
          "type": "address"
        },
        {
          "indexed": true,
          "internalType": "address",
          "name": "newOwner",
          "type": "address"
        }
      ],
      "name": "OwnershipTransferred",
      "type": "event"
    },
    {
      "anonymous": false,
      "inputs": [
        {
          "indexed": true,
          "internalType": "uint256",
          "name": "identity",
          "type": "uint256"
        },
        {
          "indexed": false,
          "internalType": "uint256",
          "name": "asset",
          "type": "uint256"
        },
        {
          "indexed": false,
          "internalType": "uint256",
          "name": "range",
          "type": "uint256"
        }
      ],
      "name": "SbtMinted",
      "type": "event"
    },
    {
      "inputs": [
        {
          "internalType": "address",
          "name": "token",
          "type": "address"
        }
      ],
      "name": "addAsset",
      "outputs": [],
      "stateMutability": "nonpayable",
      "type": "function"
    },
    {
      "inputs": [
        {
          "internalType": "uint256",
          "name": "groupId",
          "type": "uint256"
        }
      ],
      "name": "getMerkleTreeDepth",
      "outputs": [
        {
          "internalType": "uint256",
          "name": "",
          "type": "uint256"
        }
      ],
      "stateMutability": "view",
      "type": "function"
    },
    {
      "inputs": [
        {
          "internalType": "uint256",
          "name": "groupId",
          "type": "uint256"
        }
      ],
      "name": "getMerkleTreeRoot",
      "outputs": [
        {
          "internalType": "uint256",
          "name": "",
          "type": "uint256"
        }
      ],
      "stateMutability": "view",
      "type": "function"
    },
    {
      "inputs": [
        {
          "internalType": "uint256",
          "name": "groupId",
          "type": "uint256"
        }
      ],
      "name": "getNumberOfMerkleTreeLeaves",
      "outputs": [
        {
          "internalType": "uint256",
          "name": "",
          "type": "uint256"
        }
      ],
      "stateMutability": "view",
      "type": "function"
    },
    {
      "inputs": [],
      "name": "latestPoolId",
      "outputs": [
        {
          "internalType": "uint256",
          "name": "",
          "type": "uint256"
        }
      ],
      "stateMutability": "view",
      "type": "function"
    },
    {
      "inputs": [
        {
          "internalType": "uint256[]",
          "name": "identity",
          "type": "uint256[]"
        },
        {
          "internalType": "uint256",
          "name": "asset",
          "type": "uint256"
        },
        {
          "internalType": "uint256",
          "name": "range",
          "type": "uint256"
        }
      ],
      "name": "mint",
      "outputs": [],
      "stateMutability": "nonpayable",
      "type": "function"
    },
    {
      "inputs": [
        {
          "internalType": "uint256",
          "name": "",
          "type": "uint256"
        }
      ],
      "name": "nullifierHashes",
      "outputs": [
        {
          "internalType": "bool",
          "name": "",
          "type": "bool"
        }
      ],
      "stateMutability": "view",
      "type": "function"
    },
    {
      "inputs": [],
      "name": "owner",
      "outputs": [
        {
          "internalType": "address",
          "name": "",
          "type": "address"
        }
      ],
      "stateMutability": "view",
      "type": "function"
    },
    {
      "inputs": [],
      "name": "renounceOwnership",
      "outputs": [],
      "stateMutability": "nonpayable",
      "type": "function"
    },
    {
      "inputs": [
        {
          "internalType": "uint256",
          "name": "",
          "type": "uint256"
        },
        {
          "internalType": "uint256",
          "name": "",
          "type": "uint256"
        }
      ],
      "name": "salts",
      "outputs": [
        {
          "internalType": "uint256",
          "name": "",
          "type": "uint256"
        }
      ],
      "stateMutability": "view",
      "type": "function"
    },
    {
      "inputs": [
        {
          "internalType": "uint256",
          "name": "",
          "type": "uint256"
        },
        {
          "internalType": "uint256",
          "name": "",
          "type": "uint256"
        },
        {
          "internalType": "uint256",
          "name": "",
          "type": "uint256"
        }
      ],
      "name": "sbt_minted",
      "outputs": [
        {
          "internalType": "bool",
          "name": "",
          "type": "bool"
        }
      ],
      "stateMutability": "view",
      "type": "function"
    },
    {
      "inputs": [
        {
          "internalType": "address",
          "name": "newOwner",
          "type": "address"
        }
      ],
      "name": "transferOwnership",
      "outputs": [],
      "stateMutability": "nonpayable",
      "type": "function"
    },
    {
      "inputs": [
        {
          "internalType": "uint256",
          "name": "asset",
          "type": "uint256"
        },
        {
          "internalType": "uint256",
          "name": "range",
          "type": "uint256"
        },
        {
          "internalType": "uint256",
          "name": "nullifierHash",
          "type": "uint256"
        },
        {
          "internalType": "uint256[8]",
          "name": "proof",
          "type": "uint256[8]"
        }
      ],
      "name": "verify",
      "outputs": [],
      "stateMutability": "nonpayable",
      "type": "function"
    }
  ],
  "bytecode": "0x60806040523480156200001157600080fd5b5060405162001d8a38038062001d8a8339818101604052810190620000379190620004a2565b620000576200004b620001c460201b60201c565b620001cc60201b60201c565b816006600083815260200190815260200160002060006101000a81548173ffffffffffffffffffffffffffffffffffffffff021916908373ffffffffffffffffffffffffffffffffffffffff16021790555060006002819055506200013760006001811115620000f0577f4e487b7100000000000000000000000000000000000000000000000000000000600052602160045260246000fd5b6003808111156200012a577f4e487b7100000000000000000000000000000000000000000000000000000000600052602160045260246000fd5b836200029260201b60201c565b620001bc60018081111562000175577f4e487b7100000000000000000000000000000000000000000000000000000000600052602160045260246000fd5b600380811115620001af577f4e487b7100000000000000000000000000000000000000000000000000000000600052602160045260246000fd5b836200029260201b60201c565b5050620006bb565b600033905090565b6000600160009054906101000a900473ffffffffffffffffffffffffffffffffffffffff16905081600160006101000a81548173ffffffffffffffffffffffffffffffffffffffff021916908373ffffffffffffffffffffffffffffffffffffffff1602179055508173ffffffffffffffffffffffffffffffffffffffff168173ffffffffffffffffffffffffffffffffffffffff167f8be0079c531659141344cd1fd0a4f28419497f9722a3daafe3b4186f6b6457e060405160405180910390a35050565b620002a6600254826200031360201b60201c565b604051806040016040528060026000815480929190620002c69062000600565b919050558152602001828152506003600085815260200190815260200160002060008481526020019081526020016000206000820151816000015560208201518160010155905050505050565b600062000326836200045560201b60201c565b146200035e576040517f8121725b00000000000000000000000000000000000000000000000000000000815260040160405180910390fd5b600060088360405160200162000375919062000527565b6040516020818303038152906040528051906020012060001c901c905060008084815260200190815260200160002073__$0c6eb7207c37accf1552a1c47686411ac0$__631095fbb4909184846040518463ffffffff1660e01b8152600401620003e29392919062000544565b60006040518083038186803b158015620003fb57600080fd5b505af415801562000410573d6000803e3d6000fd5b50505050827f0d000126c26c1bbe400fd2332187f75d58b69306f9ec47b408686189d3a0083383836040516200044892919062000581565b60405180910390a2505050565b6000806000838152602001908152602001600020600001549050919050565b600081519050620004858162000687565b92915050565b6000815190506200049c81620006a1565b92915050565b60008060408385031215620004b657600080fd5b6000620004c68582860162000474565b9250506020620004d9858286016200048b565b9150509250929050565b8082525050565b620004f581620005f6565b82525050565b6200050681620005f6565b82525050565b620005216200051b82620005f6565b6200064e565b82525050565b60006200053582846200050c565b60208201915081905092915050565b60006060820190506200055b6000830186620004e3565b6200056a6020830185620004fb565b620005796040830184620004fb565b949350505050565b6000604082019050620005986000830185620004ea565b620005a76020830184620004ea565b9392505050565b6000620005bb82620005d6565b9050919050565b6000620005cf82620005ae565b9050919050565b600073ffffffffffffffffffffffffffffffffffffffff82169050919050565b6000819050919050565b60006200060d82620005f6565b91507fffffffffffffffffffffffffffffffffffffffffffffffffffffffffffffffff82141562000643576200064262000658565b5b600182019050919050565b6000819050919050565b7f4e487b7100000000000000000000000000000000000000000000000000000000600052601160045260246000fd5b6200069281620005c2565b81146200069e57600080fd5b50565b620006ac81620005f6565b8114620006b857600080fd5b50565b6116bf80620006cb6000396000f3fe608060405234801561001057600080fd5b50600436106100cf5760003560e01c80636389e1071161008c5780638da5cb5b116100665780638da5cb5b14610224578063b749fb1514610242578063dabc4d511461025e578063f2fde38b1461028e576100cf565b80636389e107146101ba578063715018a6146101ea5780638cc5be5c146101f4576100cf565b806313efaaaa146100d45780631f79a1e9146100f0578063206dd17b14610120578063298410e51461015057806346541a241461016c578063638480be1461018a575b600080fd5b6100ee60048036038101906100e99190610fc6565b6102aa565b005b61010a60048036038101906101059190610f12565b6107e3565b60405161011791906112e1565b60405180910390f35b61013a60048036038101906101359190610f77565b610803565b60405161014791906112e1565b60405180910390f35b61016a60048036038101906101659190610e54565b61083f565b005b61017461084a565b6040516101819190611385565b60405180910390f35b6101a4600480360381019061019f9190610f12565b610850565b6040516101b19190611385565b60405180910390f35b6101d460048036038101906101cf9190610f12565b61086f565b6040516101e19190611385565b60405180910390f35b6101f261088e565b005b61020e60048036038101906102099190610f3b565b6108a2565b60405161021b9190611385565b60405180910390f35b61022c6108c7565b6040516102399190611278565b60405180910390f35b61025c60048036038101906102579190610e7d565b6108f1565b005b61027860048036038101906102739190610f12565b610a97565b6040516102859190611385565b60405180910390f35b6102a860048036038101906102a39190610e54565b610ab6565b005b60006102dc6003600087815260200190815260200160002060008681526020019081526020016000206000015461086f565b9050600061031060036000888152602001908152602001600020600087815260200190815260200160002060000154610a97565b90506000600367ffffffffffffffff811115610355577f4e487b7100000000000000000000000000000000000000000000000000000000600052604160045260246000fd5b6040519080825280602002602001820160405280156103835781602001602082028036833780820191505090505b50905081816000815181106103c1577f4e487b7100000000000000000000000000000000000000000000000000000000600052603260045260246000fd5b6020026020010181815250508481600181518110610408577f4e487b7100000000000000000000000000000000000000000000000000000000600052603260045260246000fd5b6020026020010181815250506004600088815260200190815260200160002060008781526020019081526020016000205481600281518110610473577f4e487b7100000000000000000000000000000000000000000000000000000000600052603260045260246000fd5b60200260200101818152505060006006600085815260200190815260200160002060009054906101000a900473ffffffffffffffffffffffffffffffffffffffff1673ffffffffffffffffffffffffffffffffffffffff1663c32e370e604051806040016040528088600060088110610515577f4e487b7100000000000000000000000000000000000000000000000000000000600052603260045260246000fd5b6020020135815260200188600160088110610559577f4e487b7100000000000000000000000000000000000000000000000000000000600052603260045260246000fd5b6020020135815250604051806040016040528060405180604001604052808b6002600881106105b1577f4e487b7100000000000000000000000000000000000000000000000000000000600052603260045260246000fd5b602002013581526020018b6003600881106105f5577f4e487b7100000000000000000000000000000000000000000000000000000000600052603260045260246000fd5b6020020135815250815260200160405180604001604052808b600460088110610647577f4e487b7100000000000000000000000000000000000000000000000000000000600052603260045260246000fd5b602002013581526020018b60056008811061068b577f4e487b7100000000000000000000000000000000000000000000000000000000600052603260045260246000fd5b602002013581525081525060405180604001604052808a6006600881106106db577f4e487b7100000000000000000000000000000000000000000000000000000000600052603260045260246000fd5b602002013581526020018a60076008811061071f577f4e487b7100000000000000000000000000000000000000000000000000000000600052603260045260246000fd5b6020020135815250866040518563ffffffff1660e01b81526004016107479493929190611293565b60206040518083038186803b15801561075f57600080fd5b505afa158015610773573d6000803e3d6000fd5b505050506040513d601f19601f820116820180604052508101906107979190610ee9565b9050806107d9576040517f08c379a00000000000000000000000000000000000000000000000000000000081526004016107d09061131c565b60405180910390fd5b5050505050505050565b60056020528060005260406000206000915054906101000a900460ff1681565b6007602052826000526040600020602052816000526040600020602052806000526040600020600092509250509054906101000a900460ff1681565b610847610b3a565b50565b60025481565b6000806000838152602001908152602001600020600201549050919050565b6000806000838152602001908152602001600020600001549050919050565b610896610b3a565b6108a06000610bb8565b565b6004602052816000526040600020602052806000526040600020600091509150505481565b6000600160009054906101000a900473ffffffffffffffffffffffffffffffffffffffff16905090565b6108f9610b3a565b60005b84849050811015610a90576109776003600085815260200190815260200160002060008481526020019081526020016000206000015486868481811061096b577f4e487b7100000000000000000000000000000000000000000000000000000000600052603260045260246000fd5b90506020020135610c7e565b600160076000858152602001908152602001600020600084815260200190815260200160002060008787858181106109d8577f4e487b7100000000000000000000000000000000000000000000000000000000600052603260045260246000fd5b90506020020135815260200190815260200160002060006101000a81548160ff021916908315150217905550848482818110610a3d577f4e487b7100000000000000000000000000000000000000000000000000000000600052603260045260246000fd5b905060200201357fb0fa07ed1fb532e2c64061289963a2b1b72c0e7463762514163f878d21565b4e8484604051610a759291906113a0565b60405180910390a28080610a889061152b565b9150506108fc565b5050505050565b6000806000838152602001908152602001600020600101549050919050565b610abe610b3a565b600073ffffffffffffffffffffffffffffffffffffffff168173ffffffffffffffffffffffffffffffffffffffff161415610b2e576040517f08c379a0000000000000000000000000000000000000000000000000000000008152600401610b25906112fc565b60405180910390fd5b610b3781610bb8565b50565b610b42610da5565b73ffffffffffffffffffffffffffffffffffffffff16610b606108c7565b73ffffffffffffffffffffffffffffffffffffffff1614610bb6576040517f08c379a0000000000000000000000000000000000000000000000000000000008152600401610bad9061133c565b60405180910390fd5b565b6000600160009054906101000a900473ffffffffffffffffffffffffffffffffffffffff16905081600160006101000a81548173ffffffffffffffffffffffffffffffffffffffff021916908373ffffffffffffffffffffffffffffffffffffffff1602179055508173ffffffffffffffffffffffffffffffffffffffff168173ffffffffffffffffffffffffffffffffffffffff167f8be0079c531659141344cd1fd0a4f28419497f9722a3daafe3b4186f6b6457e060405160405180910390a35050565b6000610c898361086f565b1415610cc1576040517f029f057900000000000000000000000000000000000000000000000000000000815260040160405180910390fd5b60008083815260200190815260200160002073__$0c6eb7207c37accf1552a1c47686411ac0$__63168703fa9091836040518363ffffffff1660e01b8152600401610d0d92919061135c565b60006040518083038186803b158015610d2557600080fd5b505af4158015610d39573d6000803e3d6000fd5b505050506000610d4883610a97565b905060006001610d5785610850565b610d6191906114af565b9050837f19239b3f93cd10558aaf11423af70c77763bf54f52bcc75bfa74d4d13548cde9828585604051610d97939291906113c9565b60405180910390a250505050565b600033905090565b600081359050610dbc81611644565b92915050565b600081905082602060080282011115610dda57600080fd5b92915050565b60008083601f840112610df257600080fd5b8235905067ffffffffffffffff811115610e0b57600080fd5b602083019150836020820283011115610e2357600080fd5b9250929050565b600081519050610e398161165b565b92915050565b600081359050610e4e81611672565b92915050565b600060208284031215610e6657600080fd5b6000610e7484828501610dad565b91505092915050565b60008060008060608587031215610e9357600080fd5b600085013567ffffffffffffffff811115610ead57600080fd5b610eb987828801610de0565b94509450506020610ecc87828801610e3f565b9250506040610edd87828801610e3f565b91505092959194509250565b600060208284031215610efb57600080fd5b6000610f0984828501610e2a565b91505092915050565b600060208284031215610f2457600080fd5b6000610f3284828501610e3f565b91505092915050565b60008060408385031215610f4e57600080fd5b6000610f5c85828601610e3f565b9250506020610f6d85828601610e3f565b9150509250929050565b600080600060608486031215610f8c57600080fd5b6000610f9a86828701610e3f565b9350506020610fab86828701610e3f565b9250506040610fbc86828701610e3f565b9150509250925092565b6000806000806101608587031215610fdd57600080fd5b6000610feb87828801610e3f565b9450506020610ffc87828801610e3f565b935050604061100d87828801610e3f565b925050606061101e87828801610dc2565b91505092959194509250565b600061103683836110c0565b60408301905092915050565b600061104e838361124b565b60208301905092915050565b611063816114e3565b82525050565b61107281611424565b61107c818461146c565b925061108782611400565b8060005b838110156110b857815161109f878261102a565b96506110aa83611445565b92505060018101905061108b565b505050505050565b6110c98161142f565b6110d38184611477565b92506110de8261140a565b8060005b8381101561110f5781516110f68782611042565b965061110183611452565b9250506001810190506110e2565b505050505050565b6111208161142f565b61112a8184611482565b92506111358261140a565b8060005b8381101561116657815161114d8782611042565b965061115883611452565b925050600181019050611139565b505050505050565b60006111798261143a565b611183818561148d565b935061118e83611414565b8060005b838110156111bf5781516111a68882611042565b97506111b18361145f565b925050600181019050611192565b5085935050505092915050565b6111d5816114f5565b82525050565b60006111e860268361149e565b91506111f3826115a3565b604082019050919050565b600061120b600e8361149e565b9150611216826115f2565b602082019050919050565b600061122e60208361149e565b91506112398261161b565b602082019050919050565b8082525050565b61125481611521565b82525050565b61126381611521565b82525050565b61127281611521565b82525050565b600060208201905061128d600083018461105a565b92915050565b6000610120820190506112a96000830187611117565b6112b66040830186611069565b6112c360c0830185611117565b8181036101008301526112d6818461116e565b905095945050505050565b60006020820190506112f660008301846111cc565b92915050565b60006020820190508181036000830152611315816111db565b9050919050565b60006020820190508181036000830152611335816111fe565b9050919050565b6000602082019050818103600083015261135581611221565b9050919050565b60006040820190506113716000830185611244565b61137e6020830184611269565b9392505050565b600060208201905061139a600083018461125a565b92915050565b60006040820190506113b5600083018561125a565b6113c2602083018461125a565b9392505050565b60006060820190506113de600083018661125a565b6113eb602083018561125a565b6113f8604083018461125a565b949350505050565b6000819050919050565b6000819050919050565b6000819050602082019050919050565b600060029050919050565b600060029050919050565b600081519050919050565b6000602082019050919050565b6000602082019050919050565b6000602082019050919050565b600081905092915050565b600081905092915050565b600081905092915050565b600082825260208201905092915050565b600082825260208201905092915050565b60006114ba82611521565b91506114c583611521565b9250828210156114d8576114d7611574565b5b828203905092915050565b60006114ee82611501565b9050919050565b60008115159050919050565b600073ffffffffffffffffffffffffffffffffffffffff82169050919050565b6000819050919050565b600061153682611521565b91507fffffffffffffffffffffffffffffffffffffffffffffffffffffffffffffffff82141561156957611568611574565b5b600182019050919050565b7f4e487b7100000000000000000000000000000000000000000000000000000000600052601160045260246000fd5b7f4f776e61626c653a206e6577206f776e657220697320746865207a65726f206160008201527f6464726573730000000000000000000000000000000000000000000000000000602082015250565b7f70726f6f6620696e76616c696421000000000000000000000000000000000000600082015250565b7f4f776e61626c653a2063616c6c6572206973206e6f7420746865206f776e6572600082015250565b61164d816114e3565b811461165857600080fd5b50565b611664816114f5565b811461166f57600080fd5b50565b61167b81611521565b811461168657600080fd5b5056fea2646970667358221220c7b1ac272718189e09c9f3319c44a4878c17eaa46706f2131102912a7855781c64736f6c63430008040033",
  "linkReferences": {
    "@zk-kit/incremental-merkle-tree.sol/IncrementalBinaryTree.sol": {
      "IncrementalBinaryTree": [
        {
          "length": 20,
          "start": 934
        },
        {
          "length": 20,
          "start": 5024
        }
      ]
    }
  },
  "deployedLinkReferences": {
    "@zk-kit/incremental-merkle-tree.sol/IncrementalBinaryTree.sol": {
      "IncrementalBinaryTree": [
        {
          "length": 20,
          "start": 3285
        }
      ]
    }
  }
}