{
  "_format": "hh-sol-artifact-1",
  "contractName": "Pomp",
  "sourceName": "contracts/pomp.sol",
  "abi": [
    {
      "inputs": [
        {
          "internalType": "contract IVerifier",
          "name": "_verifier",
          "type": "address"
        },
        {
          "internalType": "uint256",
          "name": "poolDepth",
          "type": "uint256"
        }
      ],
      "stateMutability": "nonpayable",
      "type": "constructor"
    },
    {
      "inputs": [],
      "name": "Semaphore__GroupAlreadyExists",
      "type": "error"
    },
    {
      "inputs": [],
      "name": "Semaphore__GroupDoesNotExist",
      "type": "error"
    },
    {
      "anonymous": false,
      "inputs": [
        {
          "indexed": true,
          "internalType": "uint256",
          "name": "groupId",
          "type": "uint256"
        },
        {
          "indexed": false,
          "internalType": "uint256",
          "name": "merkleTreeDepth",
          "type": "uint256"
        },
        {
          "indexed": false,
          "internalType": "uint256",
          "name": "zeroValue",
          "type": "uint256"
        }
      ],
      "name": "GroupCreated",
      "type": "event"
    },
    {
      "anonymous": false,
      "inputs": [
        {
          "indexed": true,
          "internalType": "uint256",
          "name": "groupId",
          "type": "uint256"
        },
        {
          "indexed": false,
          "internalType": "uint256",
          "name": "index",
          "type": "uint256"
        },
        {
          "indexed": false,
          "internalType": "uint256",
          "name": "identityCommitment",
          "type": "uint256"
        },
        {
          "indexed": false,
          "internalType": "uint256",
          "name": "merkleTreeRoot",
          "type": "uint256"
        }
      ],
      "name": "MemberAdded",
      "type": "event"
    },
    {
      "anonymous": false,
      "inputs": [
        {
          "indexed": true,
          "internalType": "uint256",
          "name": "groupId",
          "type": "uint256"
        },
        {
          "indexed": false,
          "internalType": "uint256",
          "name": "index",
          "type": "uint256"
        },
        {
          "indexed": false,
          "internalType": "uint256",
          "name": "identityCommitment",
          "type": "uint256"
        },
        {
          "indexed": false,
          "internalType": "uint256",
          "name": "merkleTreeRoot",
          "type": "uint256"
        }
      ],
      "name": "MemberRemoved",
      "type": "event"
    },
    {
      "anonymous": false,
      "inputs": [
        {
          "indexed": true,
          "internalType": "uint256",
          "name": "groupId",
          "type": "uint256"
        },
        {
          "indexed": false,
          "internalType": "uint256",
          "name": "index",
          "type": "uint256"
        },
        {
          "indexed": false,
          "internalType": "uint256",
          "name": "identityCommitment",
          "type": "uint256"
        },
        {
          "indexed": false,
          "internalType": "uint256",
          "name": "newIdentityCommitment",
          "type": "uint256"
        },
        {
          "indexed": false,
          "internalType": "uint256",
          "name": "merkleTreeRoot",
          "type": "uint256"
        }
      ],
      "name": "MemberUpdated",
      "type": "event"
    },
    {
      "anonymous": false,
      "inputs": [
        {
          "indexed": true,
          "internalType": "address",
          "name": "previousOwner",
          "type": "address"
        },
        {
          "indexed": true,
          "internalType": "address",
          "name": "newOwner",
          "type": "address"
        }
      ],
      "name": "OwnershipTransferred",
      "type": "event"
    },
    {
      "anonymous": false,
      "inputs": [
        {
          "indexed": true,
          "internalType": "uint256",
          "name": "identity",
          "type": "uint256"
        },
        {
          "indexed": false,
          "internalType": "uint256",
          "name": "asset",
          "type": "uint256"
        },
        {
          "indexed": false,
          "internalType": "uint256",
          "name": "range",
          "type": "uint256"
        },
        {
          "indexed": false,
          "internalType": "uint256",
          "name": "sbtId",
          "type": "uint256"
        }
      ],
      "name": "SbtMinted",
      "type": "event"
    },
    {
      "anonymous": false,
      "inputs": [
        {
          "indexed": true,
          "internalType": "address",
          "name": "oldAddress",
          "type": "address"
        },
        {
          "indexed": true,
          "internalType": "address",
          "name": "newAddress",
          "type": "address"
        }
      ],
      "name": "ZkSbtAddressChange",
      "type": "event"
    },
    {
      "inputs": [],
      "name": "ZkSbt",
      "outputs": [
        {
          "internalType": "contract ZkSbtInterface",
          "name": "",
          "type": "address"
        }
      ],
      "stateMutability": "view",
      "type": "function"
    },
    {
      "inputs": [
        {
          "internalType": "address",
          "name": "token",
          "type": "address"
        }
      ],
      "name": "addAsset",
      "outputs": [],
      "stateMutability": "nonpayable",
      "type": "function"
    },
    {
      "inputs": [
        {
          "internalType": "uint256",
          "name": "groupId",
          "type": "uint256"
        }
      ],
      "name": "getMerkleTreeDepth",
      "outputs": [
        {
          "internalType": "uint256",
          "name": "",
          "type": "uint256"
        }
      ],
      "stateMutability": "view",
      "type": "function"
    },
    {
      "inputs": [
        {
          "internalType": "uint256",
          "name": "groupId",
          "type": "uint256"
        }
      ],
      "name": "getMerkleTreeRoot",
      "outputs": [
        {
          "internalType": "uint256",
          "name": "",
          "type": "uint256"
        }
      ],
      "stateMutability": "view",
      "type": "function"
    },
    {
      "inputs": [
        {
          "internalType": "uint256",
          "name": "groupId",
          "type": "uint256"
        }
      ],
      "name": "getNumberOfMerkleTreeLeaves",
      "outputs": [
        {
          "internalType": "uint256",
          "name": "",
          "type": "uint256"
        }
      ],
      "stateMutability": "view",
      "type": "function"
    },
    {
      "inputs": [],
      "name": "latestPoolId",
      "outputs": [
        {
          "internalType": "uint256",
          "name": "",
          "type": "uint256"
        }
      ],
      "stateMutability": "view",
      "type": "function"
    },
    {
      "inputs": [
        {
          "internalType": "uint256[]",
          "name": "identity",
          "type": "uint256[]"
        },
        {
          "internalType": "uint256",
          "name": "asset",
          "type": "uint256"
        },
        {
          "internalType": "uint256",
          "name": "range",
          "type": "uint256"
        },
        {
          "internalType": "uint256",
          "name": "sbtId",
          "type": "uint256"
        }
      ],
      "name": "mint",
      "outputs": [],
      "stateMutability": "nonpayable",
      "type": "function"
    },
    {
      "inputs": [
        {
          "internalType": "uint256",
          "name": "",
          "type": "uint256"
        }
      ],
      "name": "nullifierHashes",
      "outputs": [
        {
          "internalType": "bool",
          "name": "",
          "type": "bool"
        }
      ],
      "stateMutability": "view",
      "type": "function"
    },
    {
      "inputs": [],
      "name": "owner",
      "outputs": [
        {
          "internalType": "address",
          "name": "",
          "type": "address"
        }
      ],
      "stateMutability": "view",
      "type": "function"
    },
    {
      "inputs": [],
      "name": "renounceOwnership",
      "outputs": [],
      "stateMutability": "nonpayable",
      "type": "function"
    },
    {
      "inputs": [
        {
          "internalType": "uint256",
          "name": "",
          "type": "uint256"
        },
        {
          "internalType": "uint256",
          "name": "",
          "type": "uint256"
        }
      ],
      "name": "salts",
      "outputs": [
        {
          "internalType": "uint256",
          "name": "",
          "type": "uint256"
        }
      ],
      "stateMutability": "view",
      "type": "function"
    },
    {
      "inputs": [
        {
          "internalType": "uint256",
          "name": "",
          "type": "uint256"
        },
        {
          "internalType": "uint256",
          "name": "",
          "type": "uint256"
        },
        {
          "internalType": "uint256",
          "name": "",
          "type": "uint256"
        }
      ],
      "name": "sbt_minted",
      "outputs": [
        {
          "internalType": "bool",
          "name": "",
          "type": "bool"
        }
      ],
      "stateMutability": "view",
      "type": "function"
    },
    {
      "inputs": [
        {
          "internalType": "address",
          "name": "_newZkSbtAddress",
          "type": "address"
        }
      ],
      "name": "setZkSbtAddress",
      "outputs": [],
      "stateMutability": "nonpayable",
      "type": "function"
    },
    {
      "inputs": [
        {
          "internalType": "address",
          "name": "newOwner",
          "type": "address"
        }
      ],
      "name": "transferOwnership",
      "outputs": [],
      "stateMutability": "nonpayable",
      "type": "function"
    },
    {
      "inputs": [
        {
          "internalType": "uint256",
          "name": "asset",
          "type": "uint256"
        },
        {
          "internalType": "uint256",
          "name": "range",
          "type": "uint256"
        },
        {
          "internalType": "uint256",
          "name": "nullifierHash",
          "type": "uint256"
        },
        {
          "internalType": "uint256[8]",
          "name": "proof",
          "type": "uint256[8]"
        }
      ],
      "name": "verify",
      "outputs": [],
      "stateMutability": "nonpayable",
      "type": "function"
    }
  ],
  "bytecode": "0x60806040523480156200001157600080fd5b5060405162002101380380620021018339818101604052810190620000379190620004a2565b620000576200004b620001c460201b60201c565b620001cc60201b60201c565b816007600083815260200190815260200160002060006101000a81548173ffffffffffffffffffffffffffffffffffffffff021916908373ffffffffffffffffffffffffffffffffffffffff16021790555060006002819055506200013760006001811115620000f0577f4e487b7100000000000000000000000000000000000000000000000000000000600052602160045260246000fd5b6003808111156200012a577f4e487b7100000000000000000000000000000000000000000000000000000000600052602160045260246000fd5b836200029260201b60201c565b620001bc60018081111562000175577f4e487b7100000000000000000000000000000000000000000000000000000000600052602160045260246000fd5b600380811115620001af577f4e487b7100000000000000000000000000000000000000000000000000000000600052602160045260246000fd5b836200029260201b60201c565b5050620006bb565b600033905090565b6000600160009054906101000a900473ffffffffffffffffffffffffffffffffffffffff16905081600160006101000a81548173ffffffffffffffffffffffffffffffffffffffff021916908373ffffffffffffffffffffffffffffffffffffffff1602179055508173ffffffffffffffffffffffffffffffffffffffff168173ffffffffffffffffffffffffffffffffffffffff167f8be0079c531659141344cd1fd0a4f28419497f9722a3daafe3b4186f6b6457e060405160405180910390a35050565b620002a6600254826200031360201b60201c565b604051806040016040528060026000815480929190620002c69062000600565b919050558152602001828152506004600085815260200190815260200160002060008481526020019081526020016000206000820151816000015560208201518160010155905050505050565b600062000326836200045560201b60201c565b146200035e576040517f8121725b00000000000000000000000000000000000000000000000000000000815260040160405180910390fd5b600060088360405160200162000375919062000527565b6040516020818303038152906040528051906020012060001c901c905060008084815260200190815260200160002073__$0c6eb7207c37accf1552a1c47686411ac0$__631095fbb4909184846040518463ffffffff1660e01b8152600401620003e29392919062000544565b60006040518083038186803b158015620003fb57600080fd5b505af415801562000410573d6000803e3d6000fd5b50505050827f0d000126c26c1bbe400fd2332187f75d58b69306f9ec47b408686189d3a0083383836040516200044892919062000581565b60405180910390a2505050565b6000806000838152602001908152602001600020600001549050919050565b600081519050620004858162000687565b92915050565b6000815190506200049c81620006a1565b92915050565b60008060408385031215620004b657600080fd5b6000620004c68582860162000474565b9250506020620004d9858286016200048b565b9150509250929050565b8082525050565b620004f581620005f6565b82525050565b6200050681620005f6565b82525050565b620005216200051b82620005f6565b6200064e565b82525050565b60006200053582846200050c565b60208201915081905092915050565b60006060820190506200055b6000830186620004e3565b6200056a6020830185620004fb565b620005796040830184620004fb565b949350505050565b6000604082019050620005986000830185620004ea565b620005a76020830184620004ea565b9392505050565b6000620005bb82620005d6565b9050919050565b6000620005cf82620005ae565b9050919050565b600073ffffffffffffffffffffffffffffffffffffffff82169050919050565b6000819050919050565b60006200060d82620005f6565b91507fffffffffffffffffffffffffffffffffffffffffffffffffffffffffffffffff82141562000643576200064262000658565b5b600182019050919050565b6000819050919050565b7f4e487b7100000000000000000000000000000000000000000000000000000000600052601160045260246000fd5b6200069281620005c2565b81146200069e57600080fd5b50565b620006ac81620005f6565b8114620006b857600080fd5b50565b611a3680620006cb6000396000f3fe608060405234801561001057600080fd5b50600436106100f55760003560e01c80635d4bb7c7116100975780638cc5be5c116100665780638cc5be5c146102705780638da5cb5b146102a0578063dabc4d51146102be578063f2fde38b146102ee576100f5565b80635d4bb7c7146101ea578063638480be146102065780636389e10714610236578063715018a614610266576100f5565b8063298410e5116100d3578063298410e514610176578063417c4fa71461019257806346541a24146101ae57806356bf062e146101cc576100f5565b806313efaaaa146100fa5780631f79a1e914610116578063206dd17b14610146575b600080fd5b610114600480360381019061010f9190611267565b61030a565b005b610130600480360381019061012b91906111b3565b610843565b60405161013d91906115b4565b60405180910390f35b610160600480360381019061015b9190611218565b610863565b60405161016d91906115b4565b60405180910390f35b610190600480360381019061018b91906110e1565b61089f565b005b6101ac60048036038101906101a791906110e1565b6108aa565b005b6101b6610978565b6040516101c39190611693565b60405180910390f35b6101d461097e565b6040516101e191906115cf565b60405180910390f35b61020460048036038101906101ff919061110a565b6109a4565b005b610220600480360381019061021b91906111b3565b610c83565b60405161022d9190611693565b60405180910390f35b610250600480360381019061024b91906111b3565b610ca2565b60405161025d9190611693565b60405180910390f35b61026e610cc1565b005b61028a600480360381019061028591906111dc565b610cd5565b6040516102979190611693565b60405180910390f35b6102a8610cfa565b6040516102b5919061154b565b60405180910390f35b6102d860048036038101906102d391906111b3565b610d24565b6040516102e59190611693565b60405180910390f35b610308600480360381019061030391906110e1565b610d43565b005b600061033c60046000878152602001908152602001600020600086815260200190815260200160002060000154610ca2565b9050600061037060046000888152602001908152602001600020600087815260200190815260200160002060000154610d24565b90506000600367ffffffffffffffff8111156103b5577f4e487b7100000000000000000000000000000000000000000000000000000000600052604160045260246000fd5b6040519080825280602002602001820160405280156103e35781602001602082028036833780820191505090505b5090508181600081518110610421577f4e487b7100000000000000000000000000000000000000000000000000000000600052603260045260246000fd5b6020026020010181815250508481600181518110610468577f4e487b7100000000000000000000000000000000000000000000000000000000600052603260045260246000fd5b60200260200101818152505060056000888152602001908152602001600020600087815260200190815260200160002054816002815181106104d3577f4e487b7100000000000000000000000000000000000000000000000000000000600052603260045260246000fd5b60200260200101818152505060006007600085815260200190815260200160002060009054906101000a900473ffffffffffffffffffffffffffffffffffffffff1673ffffffffffffffffffffffffffffffffffffffff1663c32e370e604051806040016040528088600060088110610575577f4e487b7100000000000000000000000000000000000000000000000000000000600052603260045260246000fd5b60200201358152602001886001600881106105b9577f4e487b7100000000000000000000000000000000000000000000000000000000600052603260045260246000fd5b6020020135815250604051806040016040528060405180604001604052808b600260088110610611577f4e487b7100000000000000000000000000000000000000000000000000000000600052603260045260246000fd5b602002013581526020018b600360088110610655577f4e487b7100000000000000000000000000000000000000000000000000000000600052603260045260246000fd5b6020020135815250815260200160405180604001604052808b6004600881106106a7577f4e487b7100000000000000000000000000000000000000000000000000000000600052603260045260246000fd5b602002013581526020018b6005600881106106eb577f4e487b7100000000000000000000000000000000000000000000000000000000600052603260045260246000fd5b602002013581525081525060405180604001604052808a60066008811061073b577f4e487b7100000000000000000000000000000000000000000000000000000000600052603260045260246000fd5b602002013581526020018a60076008811061077f577f4e487b7100000000000000000000000000000000000000000000000000000000600052603260045260246000fd5b6020020135815250866040518563ffffffff1660e01b81526004016107a79493929190611566565b60206040518083038186803b1580156107bf57600080fd5b505afa1580156107d3573d6000803e3d6000fd5b505050506040513d601f19601f820116820180604052508101906107f7919061118a565b905080610839576040517f08c379a00000000000000000000000000000000000000000000000000000000081526004016108309061160a565b60405180910390fd5b5050505050505050565b60066020528060005260406000206000915054906101000a900460ff1681565b6008602052826000526040600020602052816000526040600020602052806000526040600020600092509250509054906101000a900460ff1681565b6108a7610dc7565b50565b6108b2610dc7565b6000600360009054906101000a900473ffffffffffffffffffffffffffffffffffffffff16905081600360006101000a81548173ffffffffffffffffffffffffffffffffffffffff021916908373ffffffffffffffffffffffffffffffffffffffff1602179055508173ffffffffffffffffffffffffffffffffffffffff168173ffffffffffffffffffffffffffffffffffffffff167f11a7c3b8107d993bc669b5867b58e002c54e379b04105f91481b7860c57e6b9760405160405180910390a35050565b60025481565b600360009054906101000a900473ffffffffffffffffffffffffffffffffffffffff1681565b6109ac610dc7565b60005b85859050811015610c7b57610a2a60046000868152602001908152602001600020600085815260200190815260200160002060000154878784818110610a1e577f4e487b7100000000000000000000000000000000000000000000000000000000600052603260045260246000fd5b90506020020135610e45565b60016008600086815260200190815260200160002060008581526020019081526020016000206000888885818110610a8b577f4e487b7100000000000000000000000000000000000000000000000000000000600052603260045260246000fd5b90506020020135815260200190815260200160002060006101000a81548160ff0219169083151502179055506000600360009054906101000a900473ffffffffffffffffffffffffffffffffffffffff1673ffffffffffffffffffffffffffffffffffffffff166245c88d888885818110610b2f577f4e487b7100000000000000000000000000000000000000000000000000000000600052603260045260246000fd5b905060200201358787876040518563ffffffff1660e01b8152600401610b5894939291906116e5565b602060405180830381600087803b158015610b7257600080fd5b505af1158015610b86573d6000803e3d6000fd5b505050506040513d601f19601f82011682018060405250810190610baa919061118a565b905080610bec576040517f08c379a0000000000000000000000000000000000000000000000000000000008152600401610be39061162a565b60405180910390fd5b868683818110610c25577f4e487b7100000000000000000000000000000000000000000000000000000000600052603260045260246000fd5b905060200201357fe67a5e82598f7f53d4b460514b6cd2b3ff2694703b59b3997c9762fa61853905868686604051610c5f939291906116ae565b60405180910390a2508080610c7390611879565b9150506109af565b505050505050565b6000806000838152602001908152602001600020600201549050919050565b6000806000838152602001908152602001600020600001549050919050565b610cc9610dc7565b610cd36000610f6c565b565b6005602052816000526040600020602052806000526040600020600091509150505481565b6000600160009054906101000a900473ffffffffffffffffffffffffffffffffffffffff16905090565b6000806000838152602001908152602001600020600101549050919050565b610d4b610dc7565b600073ffffffffffffffffffffffffffffffffffffffff168173ffffffffffffffffffffffffffffffffffffffff161415610dbb576040517f08c379a0000000000000000000000000000000000000000000000000000000008152600401610db2906115ea565b60405180910390fd5b610dc481610f6c565b50565b610dcf611032565b73ffffffffffffffffffffffffffffffffffffffff16610ded610cfa565b73ffffffffffffffffffffffffffffffffffffffff1614610e43576040517f08c379a0000000000000000000000000000000000000000000000000000000008152600401610e3a9061164a565b60405180910390fd5b565b6000610e5083610ca2565b1415610e88576040517f029f057900000000000000000000000000000000000000000000000000000000815260040160405180910390fd5b60008083815260200190815260200160002073__$0c6eb7207c37accf1552a1c47686411ac0$__63168703fa9091836040518363ffffffff1660e01b8152600401610ed492919061166a565b60006040518083038186803b158015610eec57600080fd5b505af4158015610f00573d6000803e3d6000fd5b505050506000610f0f83610d24565b905060006001610f1e85610c83565b610f2891906117d9565b9050837f19239b3f93cd10558aaf11423af70c77763bf54f52bcc75bfa74d4d13548cde9828585604051610f5e939291906116ae565b60405180910390a250505050565b6000600160009054906101000a900473ffffffffffffffffffffffffffffffffffffffff16905081600160006101000a81548173ffffffffffffffffffffffffffffffffffffffff021916908373ffffffffffffffffffffffffffffffffffffffff1602179055508173ffffffffffffffffffffffffffffffffffffffff168173ffffffffffffffffffffffffffffffffffffffff167f8be0079c531659141344cd1fd0a4f28419497f9722a3daafe3b4186f6b6457e060405160405180910390a35050565b600033905090565b600081359050611049816119bb565b92915050565b60008190508260206008028201111561106757600080fd5b92915050565b60008083601f84011261107f57600080fd5b8235905067ffffffffffffffff81111561109857600080fd5b6020830191508360208202830111156110b057600080fd5b9250929050565b6000815190506110c6816119d2565b92915050565b6000813590506110db816119e9565b92915050565b6000602082840312156110f357600080fd5b60006111018482850161103a565b91505092915050565b60008060008060006080868803121561112257600080fd5b600086013567ffffffffffffffff81111561113c57600080fd5b6111488882890161106d565b9550955050602061115b888289016110cc565b935050604061116c888289016110cc565b925050606061117d888289016110cc565b9150509295509295909350565b60006020828403121561119c57600080fd5b60006111aa848285016110b7565b91505092915050565b6000602082840312156111c557600080fd5b60006111d3848285016110cc565b91505092915050565b600080604083850312156111ef57600080fd5b60006111fd858286016110cc565b925050602061120e858286016110cc565b9150509250929050565b60008060006060848603121561122d57600080fd5b600061123b868287016110cc565b935050602061124c868287016110cc565b925050604061125d868287016110cc565b9150509250925092565b600080600080610160858703121561127e57600080fd5b600061128c878288016110cc565b945050602061129d878288016110cc565b93505060406112ae878288016110cc565b92505060606112bf8782880161104f565b91505092959194509250565b60006112d78383611361565b60408301905092915050565b60006112ef838361151e565b60208301905092915050565b6113048161180d565b82525050565b6113138161174e565b61131d8184611796565b92506113288261172a565b8060005b8381101561135957815161134087826112cb565b965061134b8361176f565b92505060018101905061132c565b505050505050565b61136a81611759565b61137481846117a1565b925061137f82611734565b8060005b838110156113b057815161139787826112e3565b96506113a28361177c565b925050600181019050611383565b505050505050565b6113c181611759565b6113cb81846117ac565b92506113d682611734565b8060005b838110156114075781516113ee87826112e3565b96506113f98361177c565b9250506001810190506113da565b505050505050565b600061141a82611764565b61142481856117b7565b935061142f8361173e565b8060005b8381101561146057815161144788826112e3565b975061145283611789565b925050600181019050611433565b5085935050505092915050565b6114768161181f565b82525050565b61148581611855565b82525050565b60006114986026836117c8565b91506114a3826118f1565b604082019050919050565b60006114bb600e836117c8565b91506114c682611940565b602082019050919050565b60006114de6014836117c8565b91506114e982611969565b602082019050919050565b60006115016020836117c8565b915061150c82611992565b602082019050919050565b8082525050565b6115278161184b565b82525050565b6115368161184b565b82525050565b6115458161184b565b82525050565b600060208201905061156060008301846112fb565b92915050565b60006101208201905061157c60008301876113b8565b611589604083018661130a565b61159660c08301856113b8565b8181036101008301526115a9818461140f565b905095945050505050565b60006020820190506115c9600083018461146d565b92915050565b60006020820190506115e4600083018461147c565b92915050565b600060208201905081810360008301526116038161148b565b9050919050565b60006020820190508181036000830152611623816114ae565b9050919050565b60006020820190508181036000830152611643816114d1565b9050919050565b60006020820190508181036000830152611663816114f4565b9050919050565b600060408201905061167f6000830185611517565b61168c602083018461153c565b9392505050565b60006020820190506116a8600083018461152d565b92915050565b60006060820190506116c3600083018661152d565b6116d0602083018561152d565b6116dd604083018461152d565b949350505050565b60006080820190506116fa600083018761152d565b611707602083018661152d565b611714604083018561152d565b611721606083018461152d565b95945050505050565b6000819050919050565b6000819050919050565b6000819050602082019050919050565b600060029050919050565b600060029050919050565b600081519050919050565b6000602082019050919050565b6000602082019050919050565b6000602082019050919050565b600081905092915050565b600081905092915050565b600081905092915050565b600082825260208201905092915050565b600082825260208201905092915050565b60006117e48261184b565b91506117ef8361184b565b925082821015611802576118016118c2565b5b828203905092915050565b60006118188261182b565b9050919050565b60008115159050919050565b600073ffffffffffffffffffffffffffffffffffffffff82169050919050565b6000819050919050565b600061186082611867565b9050919050565b60006118728261182b565b9050919050565b60006118848261184b565b91507fffffffffffffffffffffffffffffffffffffffffffffffffffffffffffffffff8214156118b7576118b66118c2565b5b600182019050919050565b7f4e487b7100000000000000000000000000000000000000000000000000000000600052601160045260246000fd5b7f4f776e61626c653a206e6577206f776e657220697320746865207a65726f206160008201527f6464726573730000000000000000000000000000000000000000000000000000602082015250565b7f70726f6f6620696e76616c696421000000000000000000000000000000000000600082015250565b7f6661696c656420746f206d696e74207a6b534254000000000000000000000000600082015250565b7f4f776e61626c653a2063616c6c6572206973206e6f7420746865206f776e6572600082015250565b6119c48161180d565b81146119cf57600080fd5b50565b6119db8161181f565b81146119e657600080fd5b50565b6119f28161184b565b81146119fd57600080fd5b5056fea26469706673582212207f5950bc38f4d2ff246b8134ad5b74dc0c5228a674687da5ae48a52bfde9b51364736f6c63430008040033",
  "linkReferences": {
    "@zk-kit/incremental-merkle-tree.sol/IncrementalBinaryTree.sol": {
      "IncrementalBinaryTree": [
        {
          "length": 20,
          "start": 934
        },
        {
          "length": 20,
          "start": 5479
        }
      ]
    }
  },
  "deployedLinkReferences": {
    "@zk-kit/incremental-merkle-tree.sol/IncrementalBinaryTree.sol": {
      "IncrementalBinaryTree": [
        {
          "length": 20,
          "start": 3740
        }
      ]
    }
  }
}