{
  "_format": "hh-sol-artifact-1",
  "contractName": "Zksbt",
  "sourceName": "contracts/zksbt.sol",
  "abi": [
    {
      "inputs": [
        {
          "internalType": "contract IVerifier",
          "name": "_verifier",
          "type": "address"
        },
        {
          "internalType": "uint256",
          "name": "poolDepth",
          "type": "uint256"
        },
        {
          "internalType": "contract SbtInterface",
          "name": "_iSbt",
          "type": "address"
        }
      ],
      "stateMutability": "nonpayable",
      "type": "constructor"
    },
    {
      "inputs": [],
      "name": "Semaphore__GroupAlreadyExists",
      "type": "error"
    },
    {
      "inputs": [],
      "name": "Semaphore__GroupDoesNotExist",
      "type": "error"
    },
    {
      "anonymous": false,
      "inputs": [
        {
          "indexed": true,
          "internalType": "uint256",
          "name": "groupId",
          "type": "uint256"
        },
        {
          "indexed": false,
          "internalType": "uint256",
          "name": "merkleTreeDepth",
          "type": "uint256"
        },
        {
          "indexed": false,
          "internalType": "uint256",
          "name": "zeroValue",
          "type": "uint256"
        }
      ],
      "name": "GroupCreated",
      "type": "event"
    },
    {
      "anonymous": false,
      "inputs": [
        {
          "indexed": true,
          "internalType": "uint256",
          "name": "groupId",
          "type": "uint256"
        },
        {
          "indexed": false,
          "internalType": "uint256",
          "name": "index",
          "type": "uint256"
        },
        {
          "indexed": false,
          "internalType": "uint256",
          "name": "identityCommitment",
          "type": "uint256"
        },
        {
          "indexed": false,
          "internalType": "uint256",
          "name": "merkleTreeRoot",
          "type": "uint256"
        }
      ],
      "name": "MemberAdded",
      "type": "event"
    },
    {
      "anonymous": false,
      "inputs": [
        {
          "indexed": true,
          "internalType": "uint256",
          "name": "groupId",
          "type": "uint256"
        },
        {
          "indexed": false,
          "internalType": "uint256",
          "name": "index",
          "type": "uint256"
        },
        {
          "indexed": false,
          "internalType": "uint256",
          "name": "identityCommitment",
          "type": "uint256"
        },
        {
          "indexed": false,
          "internalType": "uint256",
          "name": "merkleTreeRoot",
          "type": "uint256"
        }
      ],
      "name": "MemberRemoved",
      "type": "event"
    },
    {
      "anonymous": false,
      "inputs": [
        {
          "indexed": true,
          "internalType": "uint256",
          "name": "groupId",
          "type": "uint256"
        },
        {
          "indexed": false,
          "internalType": "uint256",
          "name": "index",
          "type": "uint256"
        },
        {
          "indexed": false,
          "internalType": "uint256",
          "name": "identityCommitment",
          "type": "uint256"
        },
        {
          "indexed": false,
          "internalType": "uint256",
          "name": "newIdentityCommitment",
          "type": "uint256"
        },
        {
          "indexed": false,
          "internalType": "uint256",
          "name": "merkleTreeRoot",
          "type": "uint256"
        }
      ],
      "name": "MemberUpdated",
      "type": "event"
    },
    {
      "anonymous": false,
      "inputs": [
        {
          "indexed": true,
          "internalType": "address",
          "name": "previousOwner",
          "type": "address"
        },
        {
          "indexed": true,
          "internalType": "address",
          "name": "newOwner",
          "type": "address"
        }
      ],
      "name": "OwnershipTransferred",
      "type": "event"
    },
    {
      "anonymous": false,
      "inputs": [
        {
          "indexed": true,
          "internalType": "uint256",
          "name": "identity",
          "type": "uint256"
        },
        {
          "indexed": false,
          "internalType": "uint256",
          "name": "sbt",
          "type": "uint256"
        }
      ],
      "name": "SbtMinted",
      "type": "event"
    },
    {
      "anonymous": false,
      "inputs": [
        {
          "indexed": true,
          "internalType": "address",
          "name": "oldAddress",
          "type": "address"
        },
        {
          "indexed": true,
          "internalType": "address",
          "name": "newAddress",
          "type": "address"
        }
      ],
      "name": "ZkSbtAddressChange",
      "type": "event"
    },
    {
      "inputs": [
        {
          "internalType": "uint256",
          "name": "sbt",
          "type": "uint256"
        },
        {
          "internalType": "string",
          "name": "name",
          "type": "string"
        },
        {
          "internalType": "uint256",
          "name": "poolDepth",
          "type": "uint256"
        }
      ],
      "name": "createSbtPool",
      "outputs": [
        {
          "internalType": "uint256",
          "name": "",
          "type": "uint256"
        }
      ],
      "stateMutability": "nonpayable",
      "type": "function"
    },
    {
      "inputs": [
        {
          "internalType": "uint256",
          "name": "groupId",
          "type": "uint256"
        }
      ],
      "name": "getMerkleTreeDepth",
      "outputs": [
        {
          "internalType": "uint256",
          "name": "",
          "type": "uint256"
        }
      ],
      "stateMutability": "view",
      "type": "function"
    },
    {
      "inputs": [
        {
          "internalType": "uint256",
          "name": "groupId",
          "type": "uint256"
        }
      ],
      "name": "getMerkleTreeRoot",
      "outputs": [
        {
          "internalType": "uint256",
          "name": "",
          "type": "uint256"
        }
      ],
      "stateMutability": "view",
      "type": "function"
    },
    {
      "inputs": [
        {
          "internalType": "uint256",
          "name": "groupId",
          "type": "uint256"
        }
      ],
      "name": "getNumberOfMerkleTreeLeaves",
      "outputs": [
        {
          "internalType": "uint256",
          "name": "",
          "type": "uint256"
        }
      ],
      "stateMutability": "view",
      "type": "function"
    },
    {
      "inputs": [
        {
          "internalType": "uint64",
          "name": "category",
          "type": "uint64"
        },
        {
          "internalType": "uint64",
          "name": "attribute",
          "type": "uint64"
        }
      ],
      "name": "getSbtPool",
      "outputs": [
        {
          "components": [
            {
              "internalType": "uint256",
              "name": "id",
              "type": "uint256"
            },
            {
              "internalType": "string",
              "name": "name",
              "type": "string"
            },
            {
              "internalType": "uint256",
              "name": "depth",
              "type": "uint256"
            },
            {
              "internalType": "uint256",
              "name": "salt",
              "type": "uint256"
            }
          ],
          "internalType": "struct Pool",
          "name": "",
          "type": "tuple"
        }
      ],
      "stateMutability": "view",
      "type": "function"
    },
    {
      "inputs": [
        {
          "internalType": "uint256",
          "name": "sbt",
          "type": "uint256"
        }
      ],
      "name": "getSbtPoolV2",
      "outputs": [
        {
          "components": [
            {
              "internalType": "uint256",
              "name": "id",
              "type": "uint256"
            },
            {
              "internalType": "string",
              "name": "name",
              "type": "string"
            },
            {
              "internalType": "uint256",
              "name": "depth",
              "type": "uint256"
            },
            {
              "internalType": "uint256",
              "name": "salt",
              "type": "uint256"
            }
          ],
          "internalType": "struct Pool",
          "name": "",
          "type": "tuple"
        }
      ],
      "stateMutability": "view",
      "type": "function"
    },
    {
      "inputs": [],
      "name": "iSbt",
      "outputs": [
        {
          "internalType": "contract SbtInterface",
          "name": "",
          "type": "address"
        }
      ],
      "stateMutability": "view",
      "type": "function"
    },
    {
      "inputs": [],
      "name": "latestPoolId",
      "outputs": [
        {
          "internalType": "uint256",
          "name": "",
          "type": "uint256"
        }
      ],
      "stateMutability": "view",
      "type": "function"
    },
    {
      "inputs": [
        {
          "internalType": "uint256[]",
          "name": "identity",
          "type": "uint256[]"
        },
        {
          "internalType": "uint256[]",
          "name": "sbt",
          "type": "uint256[]"
        },
        {
          "internalType": "bytes[]",
          "name": "certificate_signature",
          "type": "bytes[]"
        }
      ],
      "name": "mint",
      "outputs": [],
      "stateMutability": "nonpayable",
      "type": "function"
    },
    {
      "inputs": [],
      "name": "owner",
      "outputs": [
        {
          "internalType": "address",
          "name": "",
          "type": "address"
        }
      ],
      "stateMutability": "view",
      "type": "function"
    },
    {
      "inputs": [
        {
          "internalType": "uint256",
          "name": "",
          "type": "uint256"
        }
      ],
      "name": "pools",
      "outputs": [
        {
          "internalType": "uint256",
          "name": "id",
          "type": "uint256"
        },
        {
          "internalType": "string",
          "name": "name",
          "type": "string"
        },
        {
          "internalType": "uint256",
          "name": "depth",
          "type": "uint256"
        },
        {
          "internalType": "uint256",
          "name": "salt",
          "type": "uint256"
        }
      ],
      "stateMutability": "view",
      "type": "function"
    },
    {
      "inputs": [],
      "name": "renounceOwnership",
      "outputs": [],
      "stateMutability": "nonpayable",
      "type": "function"
    },
    {
      "inputs": [
        {
          "internalType": "uint256",
          "name": "",
          "type": "uint256"
        },
        {
          "internalType": "uint256",
          "name": "",
          "type": "uint256"
        }
      ],
      "name": "sbt_minted",
      "outputs": [
        {
          "internalType": "uint256",
          "name": "",
          "type": "uint256"
        }
      ],
      "stateMutability": "view",
      "type": "function"
    },
    {
      "inputs": [
        {
          "internalType": "address",
          "name": "_newZkSbtAddress",
          "type": "address"
        }
      ],
      "name": "setZkSbtAddress",
      "outputs": [],
      "stateMutability": "nonpayable",
      "type": "function"
    },
    {
      "inputs": [
        {
          "internalType": "address",
          "name": "newOwner",
          "type": "address"
        }
      ],
      "name": "transferOwnership",
      "outputs": [],
      "stateMutability": "nonpayable",
      "type": "function"
    },
    {
      "inputs": [
        {
          "internalType": "uint256",
          "name": "",
          "type": "uint256"
        }
      ],
      "name": "verifiers",
      "outputs": [
        {
          "internalType": "contract IVerifier",
          "name": "",
          "type": "address"
        }
      ],
      "stateMutability": "view",
      "type": "function"
    },
    {
      "inputs": [
        {
          "internalType": "uint256",
          "name": "sbt",
          "type": "uint256"
        },
        {
          "internalType": "uint256",
          "name": "nullifierHash",
          "type": "uint256"
        },
        {
          "internalType": "uint256[8]",
          "name": "proof",
          "type": "uint256[8]"
        }
      ],
      "name": "verify",
      "outputs": [],
      "stateMutability": "nonpayable",
      "type": "function"
    },
    {
      "inputs": [
        {
          "internalType": "uint256",
          "name": "sbt",
          "type": "uint256"
        },
        {
          "internalType": "uint256",
          "name": "merkle_root",
          "type": "uint256"
        },
        {
          "internalType": "uint256",
          "name": "nullifierHash",
          "type": "uint256"
        },
        {
          "internalType": "uint256[8]",
          "name": "proof",
          "type": "uint256[8]"
        },
        {
          "internalType": "uint256",
          "name": "salt",
          "type": "uint256"
        }
      ],
      "name": "verifyWithRootAndSalt",
      "outputs": [],
      "stateMutability": "view",
      "type": "function"
    },
    {
      "inputs": [
        {
          "internalType": "uint256",
          "name": "sbt",
          "type": "uint256"
        },
        {
          "internalType": "uint256",
          "name": "nullifierHash",
          "type": "uint256"
        },
        {
          "internalType": "uint256[8]",
          "name": "proof",
          "type": "uint256[8]"
        },
        {
          "internalType": "uint256",
          "name": "salt",
          "type": "uint256"
        }
      ],
      "name": "verifyWithSalt",
      "outputs": [],
      "stateMutability": "nonpayable",
      "type": "function"
    }
  ],
  "bytecode": "0x60806040523480156200001157600080fd5b50604051620042853803806200428583398181016040528101906200003791906200073e565b620000576200004b6200029860201b60201c565b620002a060201b60201c565b826002600084815260200190815260200160002060006101000a81548173ffffffffffffffffffffffffffffffffffffffff021916908373ffffffffffffffffffffffffffffffffffffffff16021790555060006003819055506200017f6200013c60006001811115620000f4577f4e487b7100000000000000000000000000000000000000000000000000000000600052602160045260246000fd5b6003808111156200012e577f4e487b7100000000000000000000000000000000000000000000000000000000600052602160045260246000fd5b60006200036660201b60201c565b6040518060400160405280601281526020017f504f4d502d4554482d52414e47455f313030000000000000000000000000000081525084620003e560201b60201c565b506200024d6200020a600180811115620001c2577f4e487b7100000000000000000000000000000000000000000000000000000000600052602160045260246000fd5b600380811115620001fc577f4e487b7100000000000000000000000000000000000000000000000000000000600052602160045260246000fd5b60006200036660201b60201c565b6040518060400160405280601281526020017f504f4d502d424e422d52414e47455f313030000000000000000000000000000081525084620003e560201b60201c565b5080600460006101000a81548173ffffffffffffffffffffffffffffffffffffffff021916908373ffffffffffffffffffffffffffffffffffffffff16021790555050505062000b16565b600033905090565b6000600160009054906101000a900473ffffffffffffffffffffffffffffffffffffffff16905081600160006101000a81548173ffffffffffffffffffffffffffffffffffffffff021916908373ffffffffffffffffffffffffffffffffffffffff1602179055508173ffffffffffffffffffffffffffffffffffffffff168173ffffffffffffffffffffffffffffffffffffffff167f8be0079c531659141344cd1fd0a4f28419497f9722a3daafe3b4186f6b6457e060405160405180910390a35050565b60008083602062000378919062000909565b63ffffffff168563ffffffff16901b63ffffffff169050620003db600280811115620003cd577f4e487b7100000000000000000000000000000000000000000000000000000000600052602160045260246000fd5b82856200049460201b60201c565b9150509392505050565b6000620003fb60035483620004e860201b60201c565b6040518060800160405280600360008154809291906200041b9062000a12565b9190505581526020018481526020018381526020016000815250600560008681526020019081526020016000206000820151816000015560208201518160010190805190602001906200047092919062000649565b50604082015181600201556060820151816003015590505060035490509392505050565b6000816080620004a591906200085f565b6fffffffffffffffffffffffffffffffff168367ffffffffffffffff1660c0620004d09190620008ac565b8567ffffffffffffffff16901b901b90509392505050565b6000620004fb836200062a60201b60201c565b1462000533576040517f8121725b00000000000000000000000000000000000000000000000000000000815260040160405180910390fd5b60006008836040516020016200054a9190620007d8565b6040516020818303038152906040528051906020012060001c901c905060008084815260200190815260200160002073__$0c6eb7207c37accf1552a1c47686411ac0$__631095fbb4909184846040518463ffffffff1660e01b8152600401620005b793929190620007f5565b60006040518083038186803b158015620005d057600080fd5b505af4158015620005e5573d6000803e3d6000fd5b50505050827f0d000126c26c1bbe400fd2332187f75d58b69306f9ec47b408686189d3a0083383836040516200061d92919062000832565b60405180910390a2505050565b6000806000838152602001908152602001600020600001549050919050565b8280546200065790620009dc565b90600052602060002090601f0160209004810192826200067b5760008555620006c7565b82601f106200069657805160ff1916838001178555620006c7565b82800160010185558215620006c7579182015b82811115620006c6578251825591602001919060010190620006a9565b5b509050620006d69190620006da565b5090565b5b80821115620006f5576000816000905550600101620006db565b5090565b6000815190506200070a8162000ac8565b92915050565b600081519050620007218162000ae2565b92915050565b600081519050620007388162000afc565b92915050565b6000806000606084860312156200075457600080fd5b60006200076486828701620006f9565b9350506020620007778682870162000727565b92505060406200078a8682870162000710565b9150509250925092565b8082525050565b620007a681620009c2565b82525050565b620007b781620009c2565b82525050565b620007d2620007cc82620009c2565b62000a60565b82525050565b6000620007e68284620007bd565b60208201915081905092915050565b60006060820190506200080c600083018662000794565b6200081b6020830185620007ac565b6200082a6040830184620007ac565b949350505050565b60006040820190506200084960008301856200079b565b6200085860208301846200079b565b9392505050565b60006200086c8262000986565b9150620008798362000986565b9250826fffffffffffffffffffffffffffffffff03821115620008a157620008a062000a6a565b5b828201905092915050565b6000620008b982620009c2565b9150620008c683620009c2565b9250827fffffffffffffffffffffffffffffffffffffffffffffffffffffffffffffffff03821115620008fe57620008fd62000a6a565b5b828201905092915050565b60006200091682620009cc565b91506200092383620009cc565b92508263ffffffff038211156200093f576200093e62000a6a565b5b828201905092915050565b60006200095782620009a2565b9050919050565b60006200096b826200094a565b9050919050565b60006200097f826200094a565b9050919050565b60006fffffffffffffffffffffffffffffffff82169050919050565b600073ffffffffffffffffffffffffffffffffffffffff82169050919050565b6000819050919050565b600063ffffffff82169050919050565b60006002820490506001821680620009f557607f821691505b6020821081141562000a0c5762000a0b62000a99565b5b50919050565b600062000a1f82620009c2565b91507fffffffffffffffffffffffffffffffffffffffffffffffffffffffffffffffff82141562000a555762000a5462000a6a565b5b600182019050919050565b6000819050919050565b7f4e487b7100000000000000000000000000000000000000000000000000000000600052601160045260246000fd5b7f4e487b7100000000000000000000000000000000000000000000000000000000600052602260045260246000fd5b62000ad3816200095e565b811462000adf57600080fd5b50565b62000aed8162000972565b811462000af957600080fd5b50565b62000b0781620009c2565b811462000b1357600080fd5b50565b61375f8062000b266000396000f3fe608060405234801561001057600080fd5b50600436106101215760003560e01c8063855fbdf2116100ad578063c1351b0c11610071578063c1351b0c14610331578063c6898a261461034d578063dabc4d511461037d578063de27170a146103ad578063f2fde38b146103c957610121565b8063855fbdf2146102625780638da5cb5b14610292578063ac1eff68146102b0578063ac4afa38146102e0578063bd8620341461031357610121565b80634fe93235116100f45780634fe93235146101ac578063638480be146101c85780636389e107146101f85780636d9985b114610228578063715018a61461025857610121565b80631d2277f114610126578063412724b314610156578063417c4fa71461017257806346541a241461018e575b600080fd5b610140600480360381019061013b919061250d565b6103e5565b60405161014d9190612fae565b60405180910390f35b610170600480360381019061016b91906125de565b6104dc565b005b61018c60048036038101906101879190612417565b61055c565b005b61019661062a565b6040516101a39190612fd0565b60405180910390f35b6101c660048036038101906101c1919061262e565b610630565b005b6101e260048036038101906101dd919061250d565b61065d565b6040516101ef9190612fd0565b60405180910390f35b610212600480360381019061020d919061250d565b61067c565b60405161021f9190612fd0565b60405180910390f35b610242600480360381019061023d9190612536565b61069b565b60405161024f9190612fd0565b60405180910390f35b6102606106fe565b005b61027c6004803603810190610277919061270c565b610712565b6040516102899190612fae565b60405180910390f35b61029a61081d565b6040516102a79190612d6a565b60405180910390f35b6102ca60048036038101906102c5919061250d565b610847565b6040516102d79190612e18565b60405180910390f35b6102fa60048036038101906102f5919061250d565b61087a565b60405161030a9493929190613030565b60405180910390f35b61031b610932565b6040516103289190612e33565b60405180910390f35b61034b60048036038101906103469190612693565b610958565b005b610367600480360381019061036291906125a2565b610e1e565b6040516103749190612fd0565b60405180910390f35b6103976004803603810190610392919061250d565b610e43565b6040516103a49190612fd0565b60405180910390f35b6103c760048036038101906103c29190612440565b610e62565b005b6103e360048036038101906103de9190612417565b611551565b005b6103ed6121fc565b600560006103fa846115d5565b6fffffffffffffffffffffffffffffffff1681526020019081526020016000206040518060800160405290816000820154815260200160018201805461043f906133f9565b80601f016020809104026020016040519081016040528092919081815260200182805461046b906133f9565b80156104b85780601f1061048d576101008083540402835291602001916104b8565b820191906000526020600020905b81548152906001019060200180831161049b57829003601f168201915b50505050508152602001600282015481526020016003820154815250509050919050565b60006104f36104ea856103e5565b60000151610e43565b905061050e84828585610505896103e5565b60600151610958565b60016005600061051d876115d5565b6fffffffffffffffffffffffffffffffff168152602001908152602001600020600301600082825461054f919061321f565b9250508190555050505050565b6105646115e3565b6000600460009054906101000a900473ffffffffffffffffffffffffffffffffffffffff16905081600460006101000a81548173ffffffffffffffffffffffffffffffffffffffff021916908373ffffffffffffffffffffffffffffffffffffffff1602179055508173ffffffffffffffffffffffffffffffffffffffff168173ffffffffffffffffffffffffffffffffffffffff167f11a7c3b8107d993bc669b5867b58e002c54e379b04105f91481b7860c57e6b9760405160405180910390a35050565b60035481565b600061064761063e866103e5565b60000151610e43565b90506106568582868686610958565b5050505050565b6000806000838152602001908152602001600020600201549050919050565b6000806000838152602001908152602001600020600001549050919050565b60006106a56115e3565b6106f48585858080601f016020809104026020016040519081016040528093929190818152602001838380828437600081840152601f19601f8201169050808301925050505050505084611661565b9050949350505050565b6107066115e3565b6107106000611704565b565b61071a6121fc565b6005600083604061072b9190613275565b67ffffffffffffffff168567ffffffffffffffff16901b67ffffffffffffffff1681526020019081526020016000206040518060800160405290816000820154815260200160018201805461077f906133f9565b80601f01602080910402602001604051908101604052809291908181526020018280546107ab906133f9565b80156107f85780601f106107cd576101008083540402835291602001916107f8565b820191906000526020600020905b8154815290600101906020018083116107db57829003601f168201915b5050505050815260200160028201548152602001600382015481525050905092915050565b6000600160009054906101000a900473ffffffffffffffffffffffffffffffffffffffff16905090565b60026020528060005260406000206000915054906101000a900473ffffffffffffffffffffffffffffffffffffffff1681565b60056020528060005260406000206000915090508060000154908060010180546108a3906133f9565b80601f01602080910402602001604051908101604052809291908181526020018280546108cf906133f9565b801561091c5780601f106108f15761010080835404028352916020019161091c565b820191906000526020600020905b8154815290600101906020018083116108ff57829003601f168201915b5050505050908060020154908060030154905084565b600460009054906101000a900473ffffffffffffffffffffffffffffffffffffffff1681565b600061096f610966876103e5565b6000015161067c565b90506000600367ffffffffffffffff8111156109b4577f4e487b7100000000000000000000000000000000000000000000000000000000600052604160045260246000fd5b6040519080825280602002602001820160405280156109e25781602001602082028036833780820191505090505b5090508581600081518110610a20577f4e487b7100000000000000000000000000000000000000000000000000000000600052603260045260246000fd5b6020026020010181815250508481600181518110610a67577f4e487b7100000000000000000000000000000000000000000000000000000000600052603260045260246000fd5b6020026020010181815250508281600281518110610aae577f4e487b7100000000000000000000000000000000000000000000000000000000600052603260045260246000fd5b60200260200101818152505060006002600084815260200190815260200160002060009054906101000a900473ffffffffffffffffffffffffffffffffffffffff1673ffffffffffffffffffffffffffffffffffffffff1663c32e370e604051806040016040528088600060088110610b50577f4e487b7100000000000000000000000000000000000000000000000000000000600052603260045260246000fd5b6020020135815260200188600160088110610b94577f4e487b7100000000000000000000000000000000000000000000000000000000600052603260045260246000fd5b6020020135815250604051806040016040528060405180604001604052808b600260088110610bec577f4e487b7100000000000000000000000000000000000000000000000000000000600052603260045260246000fd5b602002013581526020018b600360088110610c30577f4e487b7100000000000000000000000000000000000000000000000000000000600052603260045260246000fd5b6020020135815250815260200160405180604001604052808b600460088110610c82577f4e487b7100000000000000000000000000000000000000000000000000000000600052603260045260246000fd5b602002013581526020018b600560088110610cc6577f4e487b7100000000000000000000000000000000000000000000000000000000600052603260045260246000fd5b602002013581525081525060405180604001604052808a600660088110610d16577f4e487b7100000000000000000000000000000000000000000000000000000000600052603260045260246000fd5b602002013581526020018a600760088110610d5a577f4e487b7100000000000000000000000000000000000000000000000000000000600052603260045260246000fd5b6020020135815250866040518563ffffffff1660e01b8152600401610d829493929190612d85565b60206040518083038186803b158015610d9a57600080fd5b505afa158015610dae573d6000803e3d6000fd5b505050506040513d601f19601f82011682018060405250810190610dd291906124e4565b905080610e14576040517f08c379a0000000000000000000000000000000000000000000000000000000008152600401610e0b90612eae565b60405180910390fd5b5050505050505050565b6006602052816000526040600020602052806000526040600020600091509150505481565b6000806000838152602001908152602001600020600101549050919050565b610e6a6115e3565b60005b8686905081101561154857600060405180606001604052806023815260200161370760239139610edb898985818110610ecf577f4e487b7100000000000000000000000000000000000000000000000000000000600052603260045260246000fd5b905060200201356117ca565b610f35610f26898987818110610f1a577f4e487b7100000000000000000000000000000000000000000000000000000000600052603260045260246000fd5b905060200201356118ee565b67ffffffffffffffff166117ca565b610f8f610f808a8a88818110610f74577f4e487b7100000000000000000000000000000000000000000000000000000000600052603260045260246000fd5b905060200201356118fc565b67ffffffffffffffff166117ca565b610ff1610fda8b8b89818110610fce577f4e487b7100000000000000000000000000000000000000000000000000000000600052603260045260246000fd5b90506020020135611914565b6fffffffffffffffffffffffffffffffff166117ca565b604051602001611005959493929190612c99565b6040516020818303038152906040529050600061102182611930565b905060006110bc82878787818110611062577f4e487b7100000000000000000000000000000000000000000000000000000000600052603260045260246000fd5b905060200281019061107491906130dc565b8080601f016020809104026020016040519081016040528093929190818152602001838380828437600081840152601f19601f8201169050808301925050505050505061196b565b90506110c661081d565b73ffffffffffffffffffffffffffffffffffffffff168173ffffffffffffffffffffffffffffffffffffffff1614611133576040517f08c379a000000000000000000000000000000000000000000000000000000000815260040161112a90612eee565b60405180910390fd5b6111eb600560006111828b8b89818110611176577f4e487b7100000000000000000000000000000000000000000000000000000000600052603260045260246000fd5b905060200201356115d5565b6fffffffffffffffffffffffffffffffff168152602001908152602001600020600001548b8b878181106111df577f4e487b7100000000000000000000000000000000000000000000000000000000600052603260045260246000fd5b90506020020135611992565b611233888886818110611227577f4e487b7100000000000000000000000000000000000000000000000000000000600052603260045260246000fd5b90506020020135611914565b6fffffffffffffffffffffffffffffffff16600660006112918b8b89818110611285577f4e487b7100000000000000000000000000000000000000000000000000000000600052603260045260246000fd5b905060200201356115d5565b6fffffffffffffffffffffffffffffffff16815260200190815260200160002060008c8c888181106112ec577f4e487b7100000000000000000000000000000000000000000000000000000000600052603260045260246000fd5b905060200201358152602001908152602001600020819055506000600460009054906101000a900473ffffffffffffffffffffffffffffffffffffffff1673ffffffffffffffffffffffffffffffffffffffff166245c88d8c8c8881811061137d577f4e487b7100000000000000000000000000000000000000000000000000000000600052603260045260246000fd5b90506020020135600060038d8d8b8181106113c1577f4e487b7100000000000000000000000000000000000000000000000000000000600052603260045260246000fd5b905060200201356040518563ffffffff1660e01b81526004016113e79493929190612feb565b602060405180830381600087803b15801561140157600080fd5b505af1158015611415573d6000803e3d6000fd5b505050506040513d601f19601f8201168201806040525081019061143991906124e4565b90508061147b576040517f08c379a000000000000000000000000000000000000000000000000000000000815260040161147290612f0e565b60405180910390fd5b8a8a868181106114b4577f4e487b7100000000000000000000000000000000000000000000000000000000600052603260045260246000fd5b905060200201357f893774c134c8642424126673a3dfcb58f0d67c9c36dc2eda74eada471a00b2dc8a8a88818110611515577f4e487b7100000000000000000000000000000000000000000000000000000000600052603260045260246000fd5b905060200201356040516115299190612fd0565b60405180910390a25050505080806115409061342b565b915050610e6d565b50505050505050565b6115596115e3565b600073ffffffffffffffffffffffffffffffffffffffff168173ffffffffffffffffffffffffffffffffffffffff1614156115c9576040517f08c379a00000000000000000000000000000000000000000000000000000000081526004016115c090612e8e565b60405180910390fd5b6115d281611704565b50565b6000608082901c9050919050565b6115eb611ab9565b73ffffffffffffffffffffffffffffffffffffffff1661160961081d565b73ffffffffffffffffffffffffffffffffffffffff161461165f576040517f08c379a000000000000000000000000000000000000000000000000000000000815260040161165690612f2e565b60405180910390fd5b565b600061166f60035483611ac1565b60405180608001604052806003600081548092919061168d9061342b565b9190505581526020018481526020018381526020016000815250600560008681526020019081526020016000206000820151816000015560208201518160010190805190602001906116e0929190612224565b50604082015181600201556060820151816003015590505060035490509392505050565b6000600160009054906101000a900473ffffffffffffffffffffffffffffffffffffffff16905081600160006101000a81548173ffffffffffffffffffffffffffffffffffffffff021916908373ffffffffffffffffffffffffffffffffffffffff1602179055508173ffffffffffffffffffffffffffffffffffffffff168173ffffffffffffffffffffffffffffffffffffffff167f8be0079c531659141344cd1fd0a4f28419497f9722a3daafe3b4186f6b6457e060405160405180910390a35050565b6060600060016117d984611bf2565b01905060008167ffffffffffffffff81111561181e577f4e487b7100000000000000000000000000000000000000000000000000000000600052604160045260246000fd5b6040519080825280601f01601f1916602001820160405280156118505781602001600182028036833780820191505090505b509050600082602001820190505b6001156118e3578080600190039150507f3031323334353637383961626364656600000000000000000000000000000000600a86061a8153600a85816118cd577f4e487b7100000000000000000000000000000000000000000000000000000000600052601260045260246000fd5b04945060008514156118de576118e3565b61185e565b819350505050919050565b600060c082901c9050919050565b600067ffffffffffffffff608083901c169050919050565b60006fffffffffffffffffffffffffffffffff82169050919050565b600061193c82516117ca565b8260405160200161194e929190612d20565b604051602081830303815290604052805190602001209050919050565b600080600061197a8585611e29565b9150915061198781611e7b565b819250505092915050565b600061199d8361067c565b14156119d5576040517f029f057900000000000000000000000000000000000000000000000000000000815260040160405180910390fd5b60008083815260200190815260200160002073__$0c6eb7207c37accf1552a1c47686411ac0$__63168703fa9091836040518363ffffffff1660e01b8152600401611a21929190612f4e565b60006040518083038186803b158015611a3957600080fd5b505af4158015611a4d573d6000803e3d6000fd5b505050506000611a5c83610e43565b905060006001611a6b8561065d565b611a7591906132b3565b9050837f19239b3f93cd10558aaf11423af70c77763bf54f52bcc75bfa74d4d13548cde9828585604051611aab939291906130a5565b60405180910390a250505050565b600033905090565b6000611acc8361067c565b14611b03576040517f8121725b00000000000000000000000000000000000000000000000000000000815260040160405180910390fd5b6000600883604051602001611b189190612d4f565b6040516020818303038152906040528051906020012060001c901c905060008084815260200190815260200160002073__$0c6eb7207c37accf1552a1c47686411ac0$__631095fbb4909184846040518463ffffffff1660e01b8152600401611b8393929190612f77565b60006040518083038186803b158015611b9b57600080fd5b505af4158015611baf573d6000803e3d6000fd5b50505050827f0d000126c26c1bbe400fd2332187f75d58b69306f9ec47b408686189d3a008338383604051611be592919061307c565b60405180910390a2505050565b600080600090507a184f03e93ff9f4daa797ed6e38ed64bf6a1f0100000000000000008310611c76577a184f03e93ff9f4daa797ed6e38ed64bf6a1f0100000000000000008381611c6c577f4e487b7100000000000000000000000000000000000000000000000000000000600052601260045260246000fd5b0492506040810190505b6d04ee2d6d415b85acef81000000008310611cd9576d04ee2d6d415b85acef81000000008381611ccf577f4e487b7100000000000000000000000000000000000000000000000000000000600052601260045260246000fd5b0492506020810190505b662386f26fc100008310611d2e57662386f26fc100008381611d24577f4e487b7100000000000000000000000000000000000000000000000000000000600052601260045260246000fd5b0492506010810190505b6305f5e1008310611d7d576305f5e1008381611d73577f4e487b7100000000000000000000000000000000000000000000000000000000600052601260045260246000fd5b0492506008810190505b6127108310611dc8576127108381611dbe577f4e487b7100000000000000000000000000000000000000000000000000000000600052601260045260246000fd5b0492506004810190505b60648310611e115760648381611e07577f4e487b7100000000000000000000000000000000000000000000000000000000600052601260045260246000fd5b0492506002810190505b600a8310611e20576001810190505b80915050919050565b600080604183511415611e6b5760008060006020860151925060408601519150606086015160001a9050611e5f87828585612119565b94509450505050611e74565b60006002915091505b9250929050565b60006004811115611eb5577f4e487b7100000000000000000000000000000000000000000000000000000000600052602160045260246000fd5b816004811115611eee577f4e487b7100000000000000000000000000000000000000000000000000000000600052602160045260246000fd5b1415611ef957612116565b60016004811115611f33577f4e487b7100000000000000000000000000000000000000000000000000000000600052602160045260246000fd5b816004811115611f6c577f4e487b7100000000000000000000000000000000000000000000000000000000600052602160045260246000fd5b1415611fad576040517f08c379a0000000000000000000000000000000000000000000000000000000008152600401611fa490612e4e565b60405180910390fd5b60026004811115611fe7577f4e487b7100000000000000000000000000000000000000000000000000000000600052602160045260246000fd5b816004811115612020577f4e487b7100000000000000000000000000000000000000000000000000000000600052602160045260246000fd5b1415612061576040517f08c379a000000000000000000000000000000000000000000000000000000000815260040161205890612e6e565b60405180910390fd5b6003600481111561209b577f4e487b7100000000000000000000000000000000000000000000000000000000600052602160045260246000fd5b8160048111156120d4577f4e487b7100000000000000000000000000000000000000000000000000000000600052602160045260246000fd5b1415612115576040517f08c379a000000000000000000000000000000000000000000000000000000000815260040161210c90612ece565b60405180910390fd5b5b50565b6000807f7fffffffffffffffffffffffffffffff5d576e7357a4501ddfe92f46681b20a08360001c11156121545760006003915091506121f3565b6000600187878787604051600081526020016040526040516121799493929190612dd3565b6020604051602081039080840390855afa15801561219b573d6000803e3d6000fd5b505050602060405103519050600073ffffffffffffffffffffffffffffffffffffffff168173ffffffffffffffffffffffffffffffffffffffff1614156121ea576000600192509250506121f3565b80600092509250505b94509492505050565b6040518060800160405280600081526020016060815260200160008152602001600081525090565b828054612230906133f9565b90600052602060002090601f0160209004810192826122525760008555612299565b82601f1061226b57805160ff1916838001178555612299565b82800160010185558215612299579182015b8281111561229857825182559160200191906001019061227d565b5b5090506122a691906122aa565b5090565b5b808211156122c35760008160009055506001016122ab565b5090565b6000813590506122d6816136aa565b92915050565b60008083601f8401126122ee57600080fd5b8235905067ffffffffffffffff81111561230757600080fd5b60208301915083602082028301111561231f57600080fd5b9250929050565b60008190508260206008028201111561233e57600080fd5b92915050565b60008083601f84011261235657600080fd5b8235905067ffffffffffffffff81111561236f57600080fd5b60208301915083602082028301111561238757600080fd5b9250929050565b60008151905061239d816136c1565b92915050565b60008083601f8401126123b557600080fd5b8235905067ffffffffffffffff8111156123ce57600080fd5b6020830191508360018202830111156123e657600080fd5b9250929050565b6000813590506123fc816136d8565b92915050565b600081359050612411816136ef565b92915050565b60006020828403121561242957600080fd5b6000612437848285016122c7565b91505092915050565b6000806000806000806060878903121561245957600080fd5b600087013567ffffffffffffffff81111561247357600080fd5b61247f89828a01612344565b9650965050602087013567ffffffffffffffff81111561249e57600080fd5b6124aa89828a01612344565b9450945050604087013567ffffffffffffffff8111156124c957600080fd5b6124d589828a016122dc565b92509250509295509295509295565b6000602082840312156124f657600080fd5b60006125048482850161238e565b91505092915050565b60006020828403121561251f57600080fd5b600061252d848285016123ed565b91505092915050565b6000806000806060858703121561254c57600080fd5b600061255a878288016123ed565b945050602085013567ffffffffffffffff81111561257757600080fd5b612583878288016123a3565b93509350506040612596878288016123ed565b91505092959194509250565b600080604083850312156125b557600080fd5b60006125c3858286016123ed565b92505060206125d4858286016123ed565b9150509250929050565b600080600061014084860312156125f457600080fd5b6000612602868287016123ed565b9350506020612613868287016123ed565b925050604061262486828701612326565b9150509250925092565b600080600080610160858703121561264557600080fd5b6000612653878288016123ed565b9450506020612664878288016123ed565b935050604061267587828801612326565b925050610140612687878288016123ed565b91505092959194509250565b600080600080600061018086880312156126ac57600080fd5b60006126ba888289016123ed565b95505060206126cb888289016123ed565b94505060406126dc888289016123ed565b93505060606126ed88828901612326565b9250506101606126ff888289016123ed565b9150509295509295909350565b6000806040838503121561271f57600080fd5b600061272d85828601612402565b925050602061273e85828601612402565b9150509250929050565b600061275483836127de565b60408301905092915050565b600061276c8383612c46565b60208301905092915050565b612781816132e7565b82525050565b61279081613157565b61279a81846131b5565b92506127a582613133565b8060005b838110156127d65781516127bd8782612748565b96506127c88361318e565b9250506001810190506127a9565b505050505050565b6127e781613162565b6127f181846131c0565b92506127fc8261313d565b8060005b8381101561282d5781516128148782612760565b965061281f8361319b565b925050600181019050612800565b505050505050565b61283e81613162565b61284881846131cb565b92506128538261313d565b8060005b8381101561288457815161286b8782612760565b96506128768361319b565b925050600181019050612857565b505050505050565b60006128978261316d565b6128a181856131d6565b93506128ac83613147565b8060005b838110156128dd5781516128c48882612760565b97506128cf836131a8565b9250506001810190506128b0565b5085935050505092915050565b6128f381613305565b82525050565b600061290482613178565b61290e81856131e7565b935061291e8185602086016133c6565b80840191505092915050565b6129338161335a565b82525050565b6129428161337e565b82525050565b612951816133a2565b82525050565b612960816133b4565b82525050565b600061297182613183565b61297b81856131f2565b935061298b8185602086016133c6565b612994816134dc565b840191505092915050565b60006129aa82613183565b6129b48185613203565b93506129c48185602086016133c6565b6129cd816134dc565b840191505092915050565b60006129e382613183565b6129ed8185613214565b93506129fd8185602086016133c6565b80840191505092915050565b6000612a16601883613203565b9150612a21826134ed565b602082019050919050565b6000612a39601f83613203565b9150612a4482613516565b602082019050919050565b6000612a5c602683613203565b9150612a678261353f565b604082019050919050565b6000612a7f600e83613203565b9150612a8a8261358e565b602082019050919050565b7f2073627420696420000000000000000000000000000000000000000000000000815250565b6000612ac8602283613203565b9150612ad3826135b7565b604082019050919050565b6000612aeb601e83613203565b9150612af682613606565b602082019050919050565b7f206964656e746974792000000000000000000000000000000000000000000000815250565b6000612b34601483613203565b9150612b3f8261362f565b602082019050919050565b7f2073627420617474726962757465200000000000000000000000000000000000815250565b6000612b7d602083613203565b9150612b8882613658565b602082019050919050565b6000612ba0601a83613214565b9150612bab82613681565b601a82019050919050565b7f207362742063617465676f727920000000000000000000000000000000000000815250565b8082525050565b6000608083016000830151612bfb6000860182612c46565b5060208301518482036020860152612c138282612966565b9150506040830151612c286040860182612c46565b506060830151612c3b6060860182612c46565b508091505092915050565b612c4f8161332f565b82525050565b612c5e8161332f565b82525050565b612c6d8161332f565b82525050565b612c84612c7f8261332f565b613474565b82525050565b612c938161334d565b82525050565b6000612ca582886128f9565b9150612cb082612b01565b600a82019150612cc082876128f9565b9150612ccb82612bb6565b600e82019150612cdb82866128f9565b9150612ce682612b4a565b600f82019150612cf682856128f9565b9150612d0182612a95565b600882019150612d1182846128f9565b91508190509695505050505050565b6000612d2b82612b93565b9150612d3782856129d8565b9150612d4382846128f9565b91508190509392505050565b6000612d5b8284612c73565b60208201915081905092915050565b6000602082019050612d7f6000830184612778565b92915050565b600061012082019050612d9b6000830187612835565b612da86040830186612787565b612db560c0830185612835565b818103610100830152612dc8818461288c565b905095945050505050565b6000608082019050612de860008301876128ea565b612df56020830186612c8a565b612e0260408301856128ea565b612e0f60608301846128ea565b95945050505050565b6000602082019050612e2d600083018461292a565b92915050565b6000602082019050612e486000830184612939565b92915050565b60006020820190508181036000830152612e6781612a09565b9050919050565b60006020820190508181036000830152612e8781612a2c565b9050919050565b60006020820190508181036000830152612ea781612a4f565b9050919050565b60006020820190508181036000830152612ec781612a72565b9050919050565b60006020820190508181036000830152612ee781612abb565b9050919050565b60006020820190508181036000830152612f0781612ade565b9050919050565b60006020820190508181036000830152612f2781612b27565b9050919050565b60006020820190508181036000830152612f4781612b70565b9050919050565b6000604082019050612f636000830185612bdc565b612f706020830184612c64565b9392505050565b6000606082019050612f8c6000830186612bdc565b612f996020830185612c64565b612fa66040830184612c64565b949350505050565b60006020820190508181036000830152612fc88184612be3565b905092915050565b6000602082019050612fe56000830184612c55565b92915050565b60006080820190506130006000830187612c55565b61300d6020830186612948565b61301a6040830185612957565b6130276060830184612c55565b95945050505050565b60006080820190506130456000830187612c55565b8181036020830152613057818661299f565b90506130666040830185612c55565b6130736060830184612c55565b95945050505050565b60006040820190506130916000830185612c55565b61309e6020830184612c55565b9392505050565b60006060820190506130ba6000830186612c55565b6130c76020830185612c55565b6130d46040830184612c55565b949350505050565b600080833560016020038436030381126130f557600080fd5b80840192508235915067ffffffffffffffff82111561311357600080fd5b60208301925060018202360383131561312b57600080fd5b509250929050565b6000819050919050565b6000819050919050565b6000819050602082019050919050565b600060029050919050565b600060029050919050565b600081519050919050565b600081519050919050565b600081519050919050565b6000602082019050919050565b6000602082019050919050565b6000602082019050919050565b600081905092915050565b600081905092915050565b600081905092915050565b600082825260208201905092915050565b600081905092915050565b600082825260208201905092915050565b600082825260208201905092915050565b600081905092915050565b600061322a8261332f565b91506132358361332f565b9250827fffffffffffffffffffffffffffffffffffffffffffffffffffffffffffffffff0382111561326a5761326961347e565b5b828201905092915050565b600061328082613339565b915061328b83613339565b92508267ffffffffffffffff038211156132a8576132a761347e565b5b828201905092915050565b60006132be8261332f565b91506132c98361332f565b9250828210156132dc576132db61347e565b5b828203905092915050565b60006132f28261330f565b9050919050565b60008115159050919050565b6000819050919050565b600073ffffffffffffffffffffffffffffffffffffffff82169050919050565b6000819050919050565b600067ffffffffffffffff82169050919050565b600060ff82169050919050565b60006133658261336c565b9050919050565b60006133778261330f565b9050919050565b600061338982613390565b9050919050565b600061339b8261330f565b9050919050565b60006133ad8261332f565b9050919050565b60006133bf8261332f565b9050919050565b60005b838110156133e45780820151818401526020810190506133c9565b838111156133f3576000848401525b50505050565b6000600282049050600182168061341157607f821691505b60208210811415613425576134246134ad565b5b50919050565b60006134368261332f565b91507fffffffffffffffffffffffffffffffffffffffffffffffffffffffffffffffff8214156134695761346861347e565b5b600182019050919050565b6000819050919050565b7f4e487b7100000000000000000000000000000000000000000000000000000000600052601160045260246000fd5b7f4e487b7100000000000000000000000000000000000000000000000000000000600052602260045260246000fd5b6000601f19601f8301169050919050565b7f45434453413a20696e76616c6964207369676e61747572650000000000000000600082015250565b7f45434453413a20696e76616c6964207369676e6174757265206c656e67746800600082015250565b7f4f776e61626c653a206e6577206f776e657220697320746865207a65726f206160008201527f6464726573730000000000000000000000000000000000000000000000000000602082015250565b7f70726f6f6620696e76616c696421000000000000000000000000000000000000600082015250565b7f45434453413a20696e76616c6964207369676e6174757265202773272076616c60008201527f7565000000000000000000000000000000000000000000000000000000000000602082015250565b7f496e76616c6964204365727469666963617465205369676e6174757265210000600082015250565b7f6661696c656420746f206d696e74207a6b534254000000000000000000000000600082015250565b7f4f776e61626c653a2063616c6c6572206973206e6f7420746865206f776e6572600082015250565b7f19457468657265756d205369676e6564204d6573736167653a0a000000000000600082015250565b6136b3816132e7565b81146136be57600080fd5b50565b6136ca816132f9565b81146136d557600080fd5b50565b6136e18161332f565b81146136ec57600080fd5b50565b6136f881613339565b811461370357600080fd5b5056fe5369676e2074686973206d65657361676520746f20636c61696d207a6b534254203a20a264697066735822122098ee693557f5525872cce3f32b98a5523a57636b60c280850a9179007cd56b3a64736f6c63430008040033",
  "linkReferences": {
    "@zk-kit/incremental-merkle-tree.sol/IncrementalBinaryTree.sol": {
      "IncrementalBinaryTree": [
        {
          "length": 20,
          "start": 1403
        },
        {
          "length": 20,
          "start": 9487
        },
        {
          "length": 20,
          "start": 9839
        }
      ]
    }
  },
  "deployedLinkReferences": {
    "@zk-kit/incremental-merkle-tree.sol/IncrementalBinaryTree.sol": {
      "IncrementalBinaryTree": [
        {
          "length": 20,
          "start": 6633
        },
        {
          "length": 20,
          "start": 6985
        }
      ]
    }
  }
}