{
  "_format": "hh-sol-artifact-1",
  "contractName": "Zksbt",
  "sourceName": "contracts/zksbt.sol",
  "abi": [
    {
      "inputs": [],
      "name": "Semaphore__GroupAlreadyExists",
      "type": "error"
    },
    {
      "inputs": [],
      "name": "Semaphore__GroupDoesNotExist",
      "type": "error"
    },
    {
      "anonymous": false,
      "inputs": [
        {
          "indexed": true,
          "internalType": "uint256",
          "name": "groupId",
          "type": "uint256"
        },
        {
          "indexed": false,
          "internalType": "uint256",
          "name": "merkleTreeDepth",
          "type": "uint256"
        },
        {
          "indexed": false,
          "internalType": "uint256",
          "name": "zeroValue",
          "type": "uint256"
        }
      ],
      "name": "GroupCreated",
      "type": "event"
    },
    {
      "anonymous": false,
      "inputs": [
        {
          "indexed": false,
          "internalType": "uint8",
          "name": "version",
          "type": "uint8"
        }
      ],
      "name": "Initialized",
      "type": "event"
    },
    {
      "anonymous": false,
      "inputs": [
        {
          "indexed": true,
          "internalType": "uint256",
          "name": "groupId",
          "type": "uint256"
        },
        {
          "indexed": false,
          "internalType": "uint256",
          "name": "index",
          "type": "uint256"
        },
        {
          "indexed": false,
          "internalType": "uint256",
          "name": "identityCommitment",
          "type": "uint256"
        },
        {
          "indexed": false,
          "internalType": "uint256",
          "name": "merkleTreeRoot",
          "type": "uint256"
        }
      ],
      "name": "MemberAdded",
      "type": "event"
    },
    {
      "anonymous": false,
      "inputs": [
        {
          "indexed": true,
          "internalType": "uint256",
          "name": "groupId",
          "type": "uint256"
        },
        {
          "indexed": false,
          "internalType": "uint256",
          "name": "index",
          "type": "uint256"
        },
        {
          "indexed": false,
          "internalType": "uint256",
          "name": "identityCommitment",
          "type": "uint256"
        },
        {
          "indexed": false,
          "internalType": "uint256",
          "name": "merkleTreeRoot",
          "type": "uint256"
        }
      ],
      "name": "MemberRemoved",
      "type": "event"
    },
    {
      "anonymous": false,
      "inputs": [
        {
          "indexed": true,
          "internalType": "uint256",
          "name": "groupId",
          "type": "uint256"
        },
        {
          "indexed": false,
          "internalType": "uint256",
          "name": "index",
          "type": "uint256"
        },
        {
          "indexed": false,
          "internalType": "uint256",
          "name": "identityCommitment",
          "type": "uint256"
        },
        {
          "indexed": false,
          "internalType": "uint256",
          "name": "newIdentityCommitment",
          "type": "uint256"
        },
        {
          "indexed": false,
          "internalType": "uint256",
          "name": "merkleTreeRoot",
          "type": "uint256"
        }
      ],
      "name": "MemberUpdated",
      "type": "event"
    },
    {
      "anonymous": false,
      "inputs": [
        {
          "indexed": true,
          "internalType": "address",
          "name": "previousOwner",
          "type": "address"
        },
        {
          "indexed": true,
          "internalType": "address",
          "name": "newOwner",
          "type": "address"
        }
      ],
      "name": "OwnershipTransferred",
      "type": "event"
    },
    {
      "anonymous": false,
      "inputs": [
        {
          "indexed": true,
          "internalType": "uint256",
          "name": "publicAddress",
          "type": "uint256"
        },
        {
          "indexed": false,
          "internalType": "uint256",
          "name": "category",
          "type": "uint256"
        },
        {
          "indexed": false,
          "internalType": "string",
          "name": "attribute",
          "type": "string"
        },
        {
          "indexed": false,
          "internalType": "uint256",
          "name": "id",
          "type": "uint256"
        },
        {
          "indexed": false,
          "internalType": "uint256",
          "name": "verifyTimestamp",
          "type": "uint256"
        }
      ],
      "name": "SbtMinted",
      "type": "event"
    },
    {
      "anonymous": false,
      "inputs": [
        {
          "indexed": true,
          "internalType": "address",
          "name": "oldAddress",
          "type": "address"
        },
        {
          "indexed": true,
          "internalType": "address",
          "name": "newAddress",
          "type": "address"
        }
      ],
      "name": "ZkSbtAddressChange",
      "type": "event"
    },
    {
      "inputs": [],
      "name": "VERSION",
      "outputs": [
        {
          "internalType": "bytes",
          "name": "",
          "type": "bytes"
        }
      ],
      "stateMutability": "view",
      "type": "function"
    },
    {
      "inputs": [
        {
          "internalType": "uint256",
          "name": "category",
          "type": "uint256"
        },
        {
          "internalType": "string",
          "name": "name",
          "type": "string"
        }
      ],
      "name": "addSbt",
      "outputs": [],
      "stateMutability": "nonpayable",
      "type": "function"
    },
    {
      "inputs": [
        {
          "internalType": "uint256",
          "name": "groupId",
          "type": "uint256"
        },
        {
          "internalType": "uint256",
          "name": "category",
          "type": "uint256"
        },
        {
          "internalType": "string",
          "name": "attribute",
          "type": "string"
        }
      ],
      "name": "checkGroupIdInSbtPool",
      "outputs": [],
      "stateMutability": "nonpayable",
      "type": "function"
    },
    {
      "inputs": [
        {
          "internalType": "uint256",
          "name": "groupId",
          "type": "uint256"
        }
      ],
      "name": "getMerkleTreeDepth",
      "outputs": [
        {
          "internalType": "uint256",
          "name": "",
          "type": "uint256"
        }
      ],
      "stateMutability": "view",
      "type": "function"
    },
    {
      "inputs": [
        {
          "internalType": "uint256",
          "name": "groupId",
          "type": "uint256"
        }
      ],
      "name": "getMerkleTreeRoot",
      "outputs": [
        {
          "internalType": "uint256",
          "name": "",
          "type": "uint256"
        }
      ],
      "stateMutability": "view",
      "type": "function"
    },
    {
      "inputs": [
        {
          "internalType": "uint256",
          "name": "groupId",
          "type": "uint256"
        }
      ],
      "name": "getNumberOfMerkleTreeLeaves",
      "outputs": [
        {
          "internalType": "uint256",
          "name": "",
          "type": "uint256"
        }
      ],
      "stateMutability": "view",
      "type": "function"
    },
    {
      "inputs": [],
      "name": "iSbt",
      "outputs": [
        {
          "internalType": "contract SbtInterface",
          "name": "",
          "type": "address"
        }
      ],
      "stateMutability": "view",
      "type": "function"
    },
    {
      "inputs": [],
      "name": "identityVerifier",
      "outputs": [
        {
          "internalType": "contract IVerifier",
          "name": "",
          "type": "address"
        }
      ],
      "stateMutability": "view",
      "type": "function"
    },
    {
      "inputs": [
        {
          "internalType": "contract IVerifier",
          "name": "_verifier",
          "type": "address"
        },
        {
          "internalType": "contract IVerifier",
          "name": "_identityVerifier",
          "type": "address"
        },
        {
          "internalType": "contract SbtInterface",
          "name": "_iSbt",
          "type": "address"
        }
      ],
      "name": "initialize",
      "outputs": [],
      "stateMutability": "nonpayable",
      "type": "function"
    },
    {
      "inputs": [],
      "name": "latestStartGroupId",
      "outputs": [
        {
          "internalType": "uint256",
          "name": "",
          "type": "uint256"
        }
      ],
      "stateMutability": "view",
      "type": "function"
    },
    {
      "inputs": [
        {
          "components": [
            {
              "internalType": "uint256",
              "name": "category",
              "type": "uint256"
            },
            {
              "internalType": "string",
              "name": "attribute",
              "type": "string"
            },
            {
              "internalType": "uint256",
              "name": "publicAddress",
              "type": "uint256"
            },
            {
              "internalType": "uint256",
              "name": "id",
              "type": "uint256"
            },
            {
              "internalType": "uint256",
              "name": "verifyTimestamp",
              "type": "uint256"
            }
          ],
          "internalType": "struct SbtInfo[]",
          "name": "sbtInfo",
          "type": "tuple[]"
        },
        {
          "internalType": "bytes[]",
          "name": "signature",
          "type": "bytes[]"
        }
      ],
      "name": "mint",
      "outputs": [],
      "stateMutability": "nonpayable",
      "type": "function"
    },
    {
      "inputs": [],
      "name": "owner",
      "outputs": [
        {
          "internalType": "address",
          "name": "",
          "type": "address"
        }
      ],
      "stateMutability": "view",
      "type": "function"
    },
    {
      "inputs": [
        {
          "internalType": "uint256",
          "name": "",
          "type": "uint256"
        }
      ],
      "name": "pools",
      "outputs": [
        {
          "internalType": "uint256",
          "name": "id",
          "type": "uint256"
        },
        {
          "internalType": "string",
          "name": "name",
          "type": "string"
        },
        {
          "internalType": "uint256",
          "name": "depth",
          "type": "uint256"
        },
        {
          "internalType": "uint256",
          "name": "amount",
          "type": "uint256"
        },
        {
          "internalType": "uint256",
          "name": "category",
          "type": "uint256"
        },
        {
          "internalType": "uint256",
          "name": "salt",
          "type": "uint256"
        }
      ],
      "stateMutability": "view",
      "type": "function"
    },
    {
      "inputs": [],
      "name": "renounceOwnership",
      "outputs": [],
      "stateMutability": "nonpayable",
      "type": "function"
    },
    {
      "inputs": [
        {
          "internalType": "uint256",
          "name": "publicAddress",
          "type": "uint256"
        },
        {
          "internalType": "uint256",
          "name": "category",
          "type": "uint256"
        },
        {
          "internalType": "string",
          "name": "attribute",
          "type": "string"
        },
        {
          "internalType": "uint256",
          "name": "id",
          "type": "uint256"
        },
        {
          "internalType": "uint256",
          "name": "verifyTimestamp",
          "type": "uint256"
        }
      ],
      "name": "sbt_claim_message",
      "outputs": [
        {
          "internalType": "bytes",
          "name": "",
          "type": "bytes"
        }
      ],
      "stateMutability": "pure",
      "type": "function"
    },
    {
      "inputs": [
        {
          "internalType": "uint256",
          "name": "",
          "type": "uint256"
        }
      ],
      "name": "sbt_group",
      "outputs": [
        {
          "internalType": "uint256",
          "name": "",
          "type": "uint256"
        }
      ],
      "stateMutability": "view",
      "type": "function"
    },
    {
      "inputs": [
        {
          "internalType": "uint256",
          "name": "",
          "type": "uint256"
        }
      ],
      "name": "sbt_minted",
      "outputs": [
        {
          "internalType": "uint256",
          "name": "category",
          "type": "uint256"
        },
        {
          "internalType": "string",
          "name": "attribute",
          "type": "string"
        },
        {
          "internalType": "uint256",
          "name": "publicAddress",
          "type": "uint256"
        },
        {
          "internalType": "uint256",
          "name": "id",
          "type": "uint256"
        },
        {
          "internalType": "uint256",
          "name": "verifyTimestamp",
          "type": "uint256"
        }
      ],
      "stateMutability": "view",
      "type": "function"
    },
    {
      "inputs": [
        {
          "internalType": "address",
          "name": "_newZkSbtAddress",
          "type": "address"
        }
      ],
      "name": "setZkSbtAddress",
      "outputs": [],
      "stateMutability": "nonpayable",
      "type": "function"
    },
    {
      "inputs": [
        {
          "internalType": "address",
          "name": "newOwner",
          "type": "address"
        }
      ],
      "name": "transferOwnership",
      "outputs": [],
      "stateMutability": "nonpayable",
      "type": "function"
    },
    {
      "inputs": [],
      "name": "verifier",
      "outputs": [
        {
          "internalType": "contract IVerifier",
          "name": "",
          "type": "address"
        }
      ],
      "stateMutability": "view",
      "type": "function"
    },
    {
      "inputs": [
        {
          "internalType": "uint256",
          "name": "category",
          "type": "uint256"
        },
        {
          "internalType": "string",
          "name": "attribute",
          "type": "string"
        },
        {
          "internalType": "uint256",
          "name": "groupId",
          "type": "uint256"
        },
        {
          "internalType": "uint256",
          "name": "nullifierHash",
          "type": "uint256"
        },
        {
          "internalType": "uint256[8]",
          "name": "proof",
          "type": "uint256[8]"
        }
      ],
      "name": "verify",
      "outputs": [],
      "stateMutability": "nonpayable",
      "type": "function"
    },
    {
      "inputs": [
        {
          "internalType": "uint256",
          "name": "identity",
          "type": "uint256"
        },
        {
          "internalType": "uint256",
          "name": "nullifierHash",
          "type": "uint256"
        },
        {
          "internalType": "uint256[8]",
          "name": "proof",
          "type": "uint256[8]"
        },
        {
          "internalType": "uint256",
          "name": "salt",
          "type": "uint256"
        }
      ],
      "name": "verifyIdentity",
      "outputs": [],
      "stateMutability": "nonpayable",
      "type": "function"
    },
    {
      "inputs": [
        {
          "internalType": "uint256",
          "name": "category",
          "type": "uint256"
        },
        {
          "internalType": "string",
          "name": "attribute",
          "type": "string"
        },
        {
          "internalType": "uint256",
          "name": "groupId",
          "type": "uint256"
        },
        {
          "internalType": "uint256",
          "name": "merkle_root",
          "type": "uint256"
        },
        {
          "internalType": "uint256",
          "name": "nullifierHash",
          "type": "uint256"
        },
        {
          "internalType": "uint256[8]",
          "name": "proof",
          "type": "uint256[8]"
        },
        {
          "internalType": "uint256",
          "name": "salt",
          "type": "uint256"
        }
      ],
      "name": "verifyWithRootAndSalt",
      "outputs": [],
      "stateMutability": "nonpayable",
      "type": "function"
    },
    {
      "inputs": [
        {
          "internalType": "uint256",
          "name": "category",
          "type": "uint256"
        },
        {
          "internalType": "string",
          "name": "attribute",
          "type": "string"
        },
        {
          "internalType": "uint256",
          "name": "groupId",
          "type": "uint256"
        },
        {
          "internalType": "uint256",
          "name": "nullifierHash",
          "type": "uint256"
        },
        {
          "internalType": "uint256[8]",
          "name": "proof",
          "type": "uint256[8]"
        },
        {
          "internalType": "uint256",
          "name": "salt",
          "type": "uint256"
        }
      ],
      "name": "verifyWithSalt",
      "outputs": [],
      "stateMutability": "nonpayable",
      "type": "function"
    }
  ],
  "bytecode": "0x608060405234801561001057600080fd5b506148d6806100206000396000f3fe608060405234801561001057600080fd5b50600436106101585760003560e01c8063a20c7c42116100c3578063d7d455651161007c578063d7d45565146103b8578063dabc4d51146103d4578063dfd572a014610404578063f2fde38b14610422578063f6bbdcd51461043e578063ffa1ad741461046e57610158565b8063a20c7c42146102f3578063aac79d721461030f578063ac4afa381461032d578063b325ecd714610362578063bd8620341461037e578063c0c53b8b1461039c57610158565b8063715018a611610115578063715018a61461022f578063733f532814610239578063800e1a09146102555780638708ae74146102715780638a0d0f8c146102a15780638da5cb5b146102d557610158565b8063021eee2b1461015d5780632b7ac3f314610179578063417c4fa71461019757806342d4a721146101b3578063638480be146101cf5780636389e107146101ff575b600080fd5b610177600480360381019061017291906130fe565b61048c565b005b610181610942565b60405161018e9190613b3e565b60405180910390f35b6101b160048036038101906101ac9190612e0b565b610968565b005b6101cd60048036038101906101c89190612fcb565b610a36565b005b6101e960048036038101906101e49190612f21565b610aa9565b6040516101f69190613daf565b60405180910390f35b61021960048036038101906102149190612f21565b610ac8565b6040516102269190613daf565b60405180910390f35b610237610ae7565b005b610253600480360381019061024e9190612e34565b610afb565b005b61026f600480360381019061026a919061305b565b6110c3565b005b61028b60048036038101906102869190612f21565b6110f3565b6040516102989190613daf565b60405180910390f35b6102bb60048036038101906102b69190612f21565b61110b565b6040516102cc959493929190613e16565b60405180910390f35b6102dd6111c9565b6040516102ea9190613a53565b60405180910390f35b61030d60048036038101906103089190612f73565b6111f3565b005b61031761124e565b6040516103249190613daf565b60405180910390f35b61034760048036038101906103429190612f21565b611254565b60405161035996959493929190613e70565b60405180910390f35b61037c600480360381019061037791906131b6565b611318565b005b6103866117b2565b6040516103939190613b59565b60405180910390f35b6103b660048036038101906103b19190612ed2565b6117d8565b005b6103d260048036038101906103cd919061321b565b6119e7565b005b6103ee60048036038101906103e99190612f21565b611aa9565b6040516103fb9190613daf565b60405180910390f35b61040c611ac8565b6040516104199190613b3e565b60405180910390f35b61043c60048036038101906104379190612e0b565b611aee565b005b61045860048036038101906104539190613282565b611b72565b6040516104659190613b1c565b60405180910390f35b610476611be1565b6040516104839190613b1c565b60405180910390f35b6104978588886119e7565b60006104a286610ac8565b90506000600367ffffffffffffffff8111156104e7577f4e487b7100000000000000000000000000000000000000000000000000000000600052604160045260246000fd5b6040519080825280602002602001820160405280156105155781602001602082028036833780820191505090505b5090508581600081518110610553577f4e487b7100000000000000000000000000000000000000000000000000000000600052603260045260246000fd5b602002602001018181525050848160018151811061059a577f4e487b7100000000000000000000000000000000000000000000000000000000600052603260045260246000fd5b60200260200101818152505082816002815181106105e1577f4e487b7100000000000000000000000000000000000000000000000000000000600052603260045260246000fd5b6020026020010181815250506000600260009054906101000a900473ffffffffffffffffffffffffffffffffffffffff1673ffffffffffffffffffffffffffffffffffffffff1663c32e370e604051806040016040528088600060088110610672577f4e487b7100000000000000000000000000000000000000000000000000000000600052603260045260246000fd5b60200201358152602001886001600881106106b6577f4e487b7100000000000000000000000000000000000000000000000000000000600052603260045260246000fd5b6020020135815250604051806040016040528060405180604001604052808b60026008811061070e577f4e487b7100000000000000000000000000000000000000000000000000000000600052603260045260246000fd5b602002013581526020018b600360088110610752577f4e487b7100000000000000000000000000000000000000000000000000000000600052603260045260246000fd5b6020020135815250815260200160405180604001604052808b6004600881106107a4577f4e487b7100000000000000000000000000000000000000000000000000000000600052603260045260246000fd5b602002013581526020018b6005600881106107e8577f4e487b7100000000000000000000000000000000000000000000000000000000600052603260045260246000fd5b602002013581525081525060405180604001604052808a600660088110610838577f4e487b7100000000000000000000000000000000000000000000000000000000600052603260045260246000fd5b602002013581526020018a60076008811061087c577f4e487b7100000000000000000000000000000000000000000000000000000000600052603260045260246000fd5b6020020135815250866040518563ffffffff1660e01b81526004016108a49493929190613a89565b60206040518083038186803b1580156108bc57600080fd5b505afa1580156108d0573d6000803e3d6000fd5b505050506040513d601f19601f820116820180604052508101906108f49190612ea9565b905080610936576040517f08c379a000000000000000000000000000000000000000000000000000000000815260040161092d90613c0f565b60405180910390fd5b50505050505050505050565b600260009054906101000a900473ffffffffffffffffffffffffffffffffffffffff1681565b610970611c1a565b6000600560009054906101000a900473ffffffffffffffffffffffffffffffffffffffff16905081600560006101000a81548173ffffffffffffffffffffffffffffffffffffffff021916908373ffffffffffffffffffffffffffffffffffffffff1602179055508173ffffffffffffffffffffffffffffffffffffffff168173ffffffffffffffffffffffffffffffffffffffff167f11a7c3b8107d993bc669b5867b58e002c54e379b04105f91481b7860c57e6b9760405160405180910390a35050565b610a418386866119e7565b6000610a4c84611aa9565b9050610a73868686848787600660008e81526020019081526020016000206005015461048c565b6001600660008881526020019081526020016000206005016000828254610a9a91906141a3565b92505081905550505050505050565b6000806000838152602001908152602001600020600201549050919050565b6000806000838152602001908152602001600020600001549050919050565b610aef611c1a565b610af96000611c98565b565b818190508484905014610b43576040517f08c379a0000000000000000000000000000000000000000000000000000000008152600401610b3a90613d2f565b60405180910390fd5b60005b848490508110156110bc576000858583818110610b8c577f4e487b7100000000000000000000000000000000000000000000000000000000600052603260045260246000fd5b9050602002810190610b9e9190614032565b6000013590506000868684818110610bdf577f4e487b7100000000000000000000000000000000000000000000000000000000600052603260045260246000fd5b9050602002810190610bf19190614032565b8060200190610c009190613fdb565b8080601f016020809104026020016040519081016040528093929190818152602001838380828437600081840152601f19601f8201169050808301925050505050505090506000878785818110610c80577f4e487b7100000000000000000000000000000000000000000000000000000000600052603260045260246000fd5b9050602002810190610c929190614032565b6040013590506000888886818110610cd3577f4e487b7100000000000000000000000000000000000000000000000000000000600052603260045260246000fd5b9050602002810190610ce59190614032565b6060013590506000600760008381526020019081526020016000206004015414610d44576040517f08c379a0000000000000000000000000000000000000000000000000000000008152600401610d3b90613baf565b60405180910390fd5b6000898987818110610d7f577f4e487b7100000000000000000000000000000000000000000000000000000000600052603260045260246000fd5b9050602002810190610d919190614032565b6080013590506000610da68487878686611b72565b90506000610db382611d5e565b90506000610e4e828c8c8c818110610df4577f4e487b7100000000000000000000000000000000000000000000000000000000600052603260045260246000fd5b9050602002810190610e069190613f84565b8080601f016020809104026020016040519081016040528093929190818152602001838380828437600081840152601f19601f82011690508083019250505050505050611d99565b9050610e586111c9565b73ffffffffffffffffffffffffffffffffffffffff168173ffffffffffffffffffffffffffffffffffffffff1614610ec5576040517f08c379a0000000000000000000000000000000000000000000000000000000008152600401610ebc90613c4f565b60405180910390fd5b6040518060a001604052808981526020018881526020018781526020018681526020018581525060076000878152602001908152602001600020600082015181600001556020820151816001019080519060200190610f25929190612b86565b50604082015181600201556060820151816003015560808201518160040155905050610f548888888888611dc0565b60086000878152602001908152602001600020819055506000600560009054906101000a900473ffffffffffffffffffffffffffffffffffffffff1673ffffffffffffffffffffffffffffffffffffffff166372a25df2888b8b8a6040518563ffffffff1660e01b8152600401610fce9493929190613f01565b602060405180830381600087803b158015610fe857600080fd5b505af1158015610ffc573d6000803e3d6000fd5b505050506040513d601f19601f820116820180604052508101906110209190612ea9565b905080611062576040517f08c379a000000000000000000000000000000000000000000000000000000000815260040161105990613c8f565b60405180910390fd5b867f6f74f220ffa645b2084cd31546f177e2302182fcd48031a40b61ac895aff2bc38a8a89896040516110989493929190613dca565b60405180910390a250505050505050505080806110b4906143e0565b915050610b46565b5050505050565b6110ce8487876119e7565b60006110d985611aa9565b90506110ea8787878488888861048c565b50505050505050565b60086020528060005260406000206000915090505481565b60076020528060005260406000206000915090508060000154908060010180546111349061437d565b80601f01602080910402602001604051908101604052809291908181526020018280546111609061437d565b80156111ad5780601f10611182576101008083540402835291602001916111ad565b820191906000526020600020905b81548152906001019060200180831161119057829003601f168201915b5050505050908060020154908060030154908060040154905085565b6000600160009054906101000a900473ffffffffffffffffffffffffffffffffffffffff16905090565b6111fb611c1a565b6112498383838080601f016020809104026020016040519081016040528093929190818152602001838380828437600081840152601f19601f82011690508083019250505050505050612098565b505050565b60045481565b600660205280600052604060002060009150905080600001549080600101805461127d9061437d565b80601f01602080910402602001604051908101604052809291908181526020018280546112a99061437d565b80156112f65780601f106112cb576101008083540402835291602001916112f6565b820191906000526020600020905b8154815290600101906020018083116112d957829003601f168201915b5050505050908060020154908060030154908060040154908060050154905086565b6000600367ffffffffffffffff81111561135b577f4e487b7100000000000000000000000000000000000000000000000000000000600052604160045260246000fd5b6040519080825280602002602001820160405280156113895781602001602082028036833780820191505090505b50905084816000815181106113c7577f4e487b7100000000000000000000000000000000000000000000000000000000600052603260045260246000fd5b602002602001018181525050838160018151811061140e577f4e487b7100000000000000000000000000000000000000000000000000000000600052603260045260246000fd5b6020026020010181815250508181600281518110611455577f4e487b7100000000000000000000000000000000000000000000000000000000600052603260045260246000fd5b6020026020010181815250506000600360009054906101000a900473ffffffffffffffffffffffffffffffffffffffff1673ffffffffffffffffffffffffffffffffffffffff1663c32e370e6040518060400160405280876000600881106114e6577f4e487b7100000000000000000000000000000000000000000000000000000000600052603260045260246000fd5b602002013581526020018760016008811061152a577f4e487b7100000000000000000000000000000000000000000000000000000000600052603260045260246000fd5b6020020135815250604051806040016040528060405180604001604052808a600260088110611582577f4e487b7100000000000000000000000000000000000000000000000000000000600052603260045260246000fd5b602002013581526020018a6003600881106115c6577f4e487b7100000000000000000000000000000000000000000000000000000000600052603260045260246000fd5b6020020135815250815260200160405180604001604052808a600460088110611618577f4e487b7100000000000000000000000000000000000000000000000000000000600052603260045260246000fd5b602002013581526020018a60056008811061165c577f4e487b7100000000000000000000000000000000000000000000000000000000600052603260045260246000fd5b60200201358152508152506040518060400160405280896006600881106116ac577f4e487b7100000000000000000000000000000000000000000000000000000000600052603260045260246000fd5b60200201358152602001896007600881106116f0577f4e487b7100000000000000000000000000000000000000000000000000000000600052603260045260246000fd5b6020020135815250866040518563ffffffff1660e01b81526004016117189493929190613a89565b60206040518083038186803b15801561173057600080fd5b505afa158015611744573d6000803e3d6000fd5b505050506040513d601f19601f820116820180604052508101906117689190612ea9565b9050806117aa576040517f08c379a00000000000000000000000000000000000000000000000000000000081526004016117a190613c0f565b60405180910390fd5b505050505050565b600560009054906101000a900473ffffffffffffffffffffffffffffffffffffffff1681565b6000600160159054906101000a900460ff1615905080801561180b575060018060149054906101000a900460ff1660ff16105b80611839575061181a306121c3565b158015611838575060018060149054906101000a900460ff1660ff16145b5b611878576040517f08c379a000000000000000000000000000000000000000000000000000000000815260040161186f90613c6f565b60405180910390fd5b60018060146101000a81548160ff021916908360ff16021790555080156118b45760018060156101000a81548160ff0219169083151502179055505b6118bc6121e6565b83600260006101000a81548173ffffffffffffffffffffffffffffffffffffffff021916908373ffffffffffffffffffffffffffffffffffffffff16021790555082600360006101000a81548173ffffffffffffffffffffffffffffffffffffffff021916908373ffffffffffffffffffffffffffffffffffffffff160217905550600160048190555081600560006101000a81548173ffffffffffffffffffffffffffffffffffffffff021916908373ffffffffffffffffffffffffffffffffffffffff16021790555080156119e1576000600160156101000a81548160ff0219169083151502179055507f7f26b83ff96e1f2b6a682f133852f6798a09c465da95921460cefb384740249860016040516119d89190613b74565b60405180910390a15b50505050565b60006006600084815260200190815260200160002060000154905080841015611a45576040517f08c379a0000000000000000000000000000000000000000000000000000000008152600401611a3c90613d0f565b60405180910390fd5b60106080611a53919061422a565b6001901b81611a6291906141a3565b8410611aa3576040517f08c379a0000000000000000000000000000000000000000000000000000000008152600401611a9a90613ccf565b60405180910390fd5b50505050565b6000806000838152602001908152602001600020600101549050919050565b600360009054906101000a900473ffffffffffffffffffffffffffffffffffffffff1681565b611af6611c1a565b600073ffffffffffffffffffffffffffffffffffffffff168173ffffffffffffffffffffffffffffffffffffffff161415611b66576040517f08c379a0000000000000000000000000000000000000000000000000000000008152600401611b5d90613bef565b60405180910390fd5b611b6f81611c98565b50565b606060405180606001604052806023815260200161487e60239139611b96876121f8565b611b9f876121f8565b86611ba9876121f8565b611bb2876121f8565b604051602001611bc796959493929190613966565b604051602081830303815290604052905095945050505050565b6040518060400160405280600381526020017f302e35000000000000000000000000000000000000000000000000000000000081525081565b611c2261231c565b73ffffffffffffffffffffffffffffffffffffffff16611c406111c9565b73ffffffffffffffffffffffffffffffffffffffff1614611c96576040517f08c379a0000000000000000000000000000000000000000000000000000000008152600401611c8d90613caf565b60405180910390fd5b565b6000600160009054906101000a900473ffffffffffffffffffffffffffffffffffffffff16905081600160006101000a81548173ffffffffffffffffffffffffffffffffffffffff021916908373ffffffffffffffffffffffffffffffffffffffff1602179055508173ffffffffffffffffffffffffffffffffffffffff168173ffffffffffffffffffffffffffffffffffffffff167f8be0079c531659141344cd1fd0a4f28419497f9722a3daafe3b4186f6b6457e060405160405180910390a35050565b6000611d6a82516121f8565b82604051602001611d7c929190613a09565b604051602081830303815290604052805190602001209050919050565b6000806000611da88585612324565b91509150611db581612376565b819250505092915050565b60008060066000888152602001908152602001600020600001541415611dfa57611df98660405180602001604052806000815250612098565b5b6000600660008881526020019081526020016000209050600081600001549050600082600201546001901b8360030154611e3491906141f9565b82611e3f91906141a3565b90506000836003015414158015611e6d5750600083600201546001901b8460030154611e6b9190614433565b145b15611e8157611e80818460020154612614565b5b600073__$c71a83c115de0c7ed4ad66768f63425c95$__6329a5f2f660405180604001604052808b81526020018a8152506040518263ffffffff1660e01b8152600401611ece9190613a6e565b60206040518083038186803b158015611ee657600080fd5b505af4158015611efa573d6000803e3d6000fd5b505050506040513d601f19601f82011682018060405250810190611f1e9190612f4a565b905073__$c71a83c115de0c7ed4ad66768f63425c95$__6329a5f2f660405180604001604052808481526020018a8152506040518263ffffffff1660e01b8152600401611f6b9190613a6e565b60206040518083038186803b158015611f8357600080fd5b505af4158015611f97573d6000803e3d6000fd5b505050506040513d601f19601f82011682018060405250810190611fbb9190612f4a565b905073__$c71a83c115de0c7ed4ad66768f63425c95$__6329a5f2f660405180604001604052808481526020018c8051906020012060001c8152506040518263ffffffff1660e01b81526004016120129190613a6e565b60206040518083038186803b15801561202a57600080fd5b505af415801561203e573d6000803e3d6000fd5b505050506040513d601f19601f820116820180604052508101906120629190612f4a565b905061206e8282612745565b836003016000815480929190612083906143e0565b91905055508194505050505095945050505050565b60006006600084815260200190815260200160002060000154146120f1576040517f08c379a00000000000000000000000000000000000000000000000000000000081526004016120e890613cef565b60405180910390fd5b6120fe6004546010612614565b6040518060c0016040528060045481526020018281526020016010815260200160008152602001838152602001600081525060066000848152602001908152602001600020600082015181600001556020820151816001019080519060200190612169929190612b86565b5060408201518160020155606082015181600301556080820151816004015560a08201518160050155905050601060806121a3919061422a565b6001901b600460008282546121b891906141a3565b925050819055505050565b6000808273ffffffffffffffffffffffffffffffffffffffff163b119050919050565b6121f66121f161231c565b611c98565b565b6060600060016122078461286c565b01905060008167ffffffffffffffff81111561224c577f4e487b7100000000000000000000000000000000000000000000000000000000600052604160045260246000fd5b6040519080825280601f01601f19166020018201604052801561227e5781602001600182028036833780820191505090505b509050600082602001820190505b600115612311578080600190039150507f3031323334353637383961626364656600000000000000000000000000000000600a86061a8153600a85816122fb577f4e487b7100000000000000000000000000000000000000000000000000000000600052601260045260246000fd5b049450600085141561230c57612311565b61228c565b819350505050919050565b600033905090565b6000806041835114156123665760008060006020860151925060408601519150606086015160001a905061235a87828585612aa3565b9450945050505061236f565b60006002915091505b9250929050565b600060048111156123b0577f4e487b7100000000000000000000000000000000000000000000000000000000600052602160045260246000fd5b8160048111156123e9577f4e487b7100000000000000000000000000000000000000000000000000000000600052602160045260246000fd5b14156123f457612611565b6001600481111561242e577f4e487b7100000000000000000000000000000000000000000000000000000000600052602160045260246000fd5b816004811115612467577f4e487b7100000000000000000000000000000000000000000000000000000000600052602160045260246000fd5b14156124a8576040517f08c379a000000000000000000000000000000000000000000000000000000000815260040161249f90613b8f565b60405180910390fd5b600260048111156124e2577f4e487b7100000000000000000000000000000000000000000000000000000000600052602160045260246000fd5b81600481111561251b577f4e487b7100000000000000000000000000000000000000000000000000000000600052602160045260246000fd5b141561255c576040517f08c379a000000000000000000000000000000000000000000000000000000000815260040161255390613bcf565b60405180910390fd5b60036004811115612596577f4e487b7100000000000000000000000000000000000000000000000000000000600052602160045260246000fd5b8160048111156125cf577f4e487b7100000000000000000000000000000000000000000000000000000000600052602160045260246000fd5b1415612610576040517f08c379a000000000000000000000000000000000000000000000000000000000815260040161260790613c2f565b60405180910390fd5b5b50565b600061261f83610ac8565b14612656576040517f8121725b00000000000000000000000000000000000000000000000000000000815260040160405180910390fd5b600060088360405160200161266b9190613a38565b6040516020818303038152906040528051906020012060001c901c905060008084815260200190815260200160002073__$0c6eb7207c37accf1552a1c47686411ac0$__631095fbb4909184846040518463ffffffff1660e01b81526004016126d693929190613d78565b60006040518083038186803b1580156126ee57600080fd5b505af4158015612702573d6000803e3d6000fd5b50505050827f0d000126c26c1bbe400fd2332187f75d58b69306f9ec47b408686189d3a008338383604051612738929190613ed8565b60405180910390a2505050565b600061275083610ac8565b1415612788576040517f029f057900000000000000000000000000000000000000000000000000000000815260040160405180910390fd5b60008083815260200190815260200160002073__$0c6eb7207c37accf1552a1c47686411ac0$__63168703fa9091836040518363ffffffff1660e01b81526004016127d4929190613d4f565b60006040518083038186803b1580156127ec57600080fd5b505af4158015612800573d6000803e3d6000fd5b50505050600061280f83611aa9565b90506000600161281e85610aa9565b612828919061422a565b9050837f19239b3f93cd10558aaf11423af70c77763bf54f52bcc75bfa74d4d13548cde982858560405161285e93929190613f4d565b60405180910390a250505050565b600080600090507a184f03e93ff9f4daa797ed6e38ed64bf6a1f01000000000000000083106128f0577a184f03e93ff9f4daa797ed6e38ed64bf6a1f01000000000000000083816128e6577f4e487b7100000000000000000000000000000000000000000000000000000000600052601260045260246000fd5b0492506040810190505b6d04ee2d6d415b85acef81000000008310612953576d04ee2d6d415b85acef81000000008381612949577f4e487b7100000000000000000000000000000000000000000000000000000000600052601260045260246000fd5b0492506020810190505b662386f26fc1000083106129a857662386f26fc10000838161299e577f4e487b7100000000000000000000000000000000000000000000000000000000600052601260045260246000fd5b0492506010810190505b6305f5e10083106129f7576305f5e10083816129ed577f4e487b7100000000000000000000000000000000000000000000000000000000600052601260045260246000fd5b0492506008810190505b6127108310612a42576127108381612a38577f4e487b7100000000000000000000000000000000000000000000000000000000600052601260045260246000fd5b0492506004810190505b60648310612a8b5760648381612a81577f4e487b7100000000000000000000000000000000000000000000000000000000600052601260045260246000fd5b0492506002810190505b600a8310612a9a576001810190505b80915050919050565b6000807f7fffffffffffffffffffffffffffffff5d576e7357a4501ddfe92f46681b20a08360001c1115612ade576000600391509150612b7d565b600060018787878760405160008152602001604052604051612b039493929190613ad7565b6020604051602081039080840390855afa158015612b25573d6000803e3d6000fd5b505050602060405103519050600073ffffffffffffffffffffffffffffffffffffffff168173ffffffffffffffffffffffffffffffffffffffff161415612b7457600060019250925050612b7d565b80600092509250505b94509492505050565b828054612b929061437d565b90600052602060002090601f016020900481019282612bb45760008555612bfb565b82601f10612bcd57805160ff1916838001178555612bfb565b82800160010185558215612bfb579182015b82811115612bfa578251825591602001919060010190612bdf565b5b509050612c089190612c0c565b5090565b5b80821115612c25576000816000905550600101612c0d565b5090565b6000612c3c612c378461407b565b614056565b905082815260208101848484011115612c5457600080fd5b612c5f84828561433b565b509392505050565b600081359050612c768161480a565b92915050565b60008083601f840112612c8e57600080fd5b8235905067ffffffffffffffff811115612ca757600080fd5b602083019150836020820283011115612cbf57600080fd5b9250929050565b60008083601f840112612cd857600080fd5b8235905067ffffffffffffffff811115612cf157600080fd5b602083019150836020820283011115612d0957600080fd5b9250929050565b600081905082602060080282011115612d2857600080fd5b92915050565b600081519050612d3d81614821565b92915050565b600081359050612d5281614838565b92915050565b600081359050612d678161484f565b92915050565b60008083601f840112612d7f57600080fd5b8235905067ffffffffffffffff811115612d9857600080fd5b602083019150836001820283011115612db057600080fd5b9250929050565b600082601f830112612dc857600080fd5b8135612dd8848260208601612c29565b91505092915050565b600081359050612df081614866565b92915050565b600081519050612e0581614866565b92915050565b600060208284031215612e1d57600080fd5b6000612e2b84828501612c67565b91505092915050565b60008060008060408587031215612e4a57600080fd5b600085013567ffffffffffffffff811115612e6457600080fd5b612e7087828801612cc6565b9450945050602085013567ffffffffffffffff811115612e8f57600080fd5b612e9b87828801612c7c565b925092505092959194509250565b600060208284031215612ebb57600080fd5b6000612ec984828501612d2e565b91505092915050565b600080600060608486031215612ee757600080fd5b6000612ef586828701612d43565b9350506020612f0686828701612d43565b9250506040612f1786828701612d58565b9150509250925092565b600060208284031215612f3357600080fd5b6000612f4184828501612de1565b91505092915050565b600060208284031215612f5c57600080fd5b6000612f6a84828501612df6565b91505092915050565b600080600060408486031215612f8857600080fd5b6000612f9686828701612de1565b935050602084013567ffffffffffffffff811115612fb357600080fd5b612fbf86828701612d6d565b92509250509250925092565b60008060008060006101808688031215612fe457600080fd5b6000612ff288828901612de1565b955050602086013567ffffffffffffffff81111561300f57600080fd5b61301b88828901612db7565b945050604061302c88828901612de1565b935050606061303d88828901612de1565b925050608061304e88828901612d10565b9150509295509295909350565b6000806000806000806101a0878903121561307557600080fd5b600061308389828a01612de1565b965050602087013567ffffffffffffffff8111156130a057600080fd5b6130ac89828a01612db7565b95505060406130bd89828a01612de1565b94505060606130ce89828a01612de1565b93505060806130df89828a01612d10565b9250506101806130f189828a01612de1565b9150509295509295509295565b60008060008060008060006101c0888a03121561311a57600080fd5b60006131288a828b01612de1565b975050602088013567ffffffffffffffff81111561314557600080fd5b6131518a828b01612db7565b96505060406131628a828b01612de1565b95505060606131738a828b01612de1565b94505060806131848a828b01612de1565b93505060a06131958a828b01612d10565b9250506101a06131a78a828b01612de1565b91505092959891949750929550565b60008060008061016085870312156131cd57600080fd5b60006131db87828801612de1565b94505060206131ec87828801612de1565b93505060406131fd87828801612d10565b92505061014061320f87828801612de1565b91505092959194509250565b60008060006060848603121561323057600080fd5b600061323e86828701612de1565b935050602061324f86828701612de1565b925050604084013567ffffffffffffffff81111561326c57600080fd5b61327886828701612db7565b9150509250925092565b600080600080600060a0868803121561329a57600080fd5b60006132a888828901612de1565b95505060206132b988828901612de1565b945050604086013567ffffffffffffffff8111156132d657600080fd5b6132e288828901612db7565b93505060606132f388828901612de1565b925050608061330488828901612de1565b9150509295509295909350565b600061331d83836133bf565b60408301905092915050565b60006133358383613904565b60208301905092915050565b600061334d8383613931565b60208301905092915050565b6133628161425e565b82525050565b613371816140d0565b61337b818461412e565b9250613386826140ac565b8060005b838110156133b757815161339e8782613311565b96506133a983614107565b92505060018101905061338a565b505050505050565b6133c8816140db565b6133d28184614139565b92506133dd826140b6565b8060005b8381101561340e5781516133f58782613329565b965061340083614114565b9250506001810190506133e1565b505050505050565b61341f816140db565b6134298184614144565b9250613434826140b6565b8060005b8381101561346557815161344c8782613329565b965061345783614114565b925050600181019050613438565b505050505050565b613476816140db565b613480818461414f565b925061348b826140b6565b8060005b838110156134bc5781516134a38782613341565b96506134ae83614114565b92505060018101905061348f565b505050505050565b60006134cf826140e6565b6134d9818561415a565b93506134e4836140c0565b8060005b838110156135155781516134fc8882613329565b975061350783614121565b9250506001810190506134e8565b5085935050505092915050565b61352b8161427c565b82525050565b600061353c826140f1565b613546818561416b565b935061355681856020860161434a565b61355f81614520565b840191505092915050565b6000613575826140f1565b61357f818561417c565b935061358f81856020860161434a565b80840191505092915050565b6135a4816142e1565b82525050565b6135b381614305565b82525050565b6135c281614329565b82525050565b60006135d3826140fc565b6135dd8185614187565b93506135ed81856020860161434a565b6135f681614520565b840191505092915050565b600061360c826140fc565b6136168185614198565b935061362681856020860161434a565b80840191505092915050565b600061363f601883614187565b915061364a82614531565b602082019050919050565b6000613662601183614187565b915061366d8261455a565b602082019050919050565b6000613685601f83614187565b915061369082614583565b602082019050919050565b60006136a8602683614187565b91506136b3826145ac565b604082019050919050565b7f207075626c696320616464726573732000000000000000000000000000000000815250565b60006136f1600e83614187565b91506136fc826145fb565b602082019050919050565b7f2073627420696420000000000000000000000000000000000000000000000000815250565b600061373a602283614187565b915061374582614624565b604082019050919050565b600061375d601e83614187565b915061376882614673565b602082019050919050565b6000613780602e83614187565b915061378b8261469c565b604082019050919050565b60006137a3601483614187565b91506137ae826146eb565b602082019050919050565b7f2073627420617474726962757465200000000000000000000000000000000000815250565b60006137ec602083614187565b91506137f782614714565b602082019050919050565b600061380f601a83614198565b915061381a8261473d565b601a82019050919050565b6000613832600b83614187565b915061383d82614766565b602082019050919050565b6000613855601783614187565b91506138608261478f565b602082019050919050565b7f207665726966792074696d657374616d70200000000000000000000000000000815250565b7f207362742063617465676f727920000000000000000000000000000000000000815250565b60006138c4600d83614187565b91506138cf826147b8565b602082019050919050565b60006138e7601683614187565b91506138f2826147e1565b602082019050919050565b8082525050565b61390d816142ca565b82525050565b61391c816142ca565b82525050565b61392b816142ca565b82525050565b61393a816142ca565b82525050565b61395161394c826142ca565b614429565b82525050565b613960816142d4565b82525050565b6000613972828961356a565b915061397d826136be565b60108201915061398d828861356a565b915061399882613891565b600e820191506139a8828761356a565b91506139b3826137b9565b600f820191506139c3828661356a565b91506139ce82613707565b6008820191506139de828561356a565b91506139e98261386b565b6012820191506139f9828461356a565b9150819050979650505050505050565b6000613a1482613802565b9150613a208285613601565b9150613a2c828461356a565b91508190509392505050565b6000613a448284613940565b60208201915081905092915050565b6000602082019050613a686000830184613359565b92915050565b6000604082019050613a83600083018461346d565b92915050565b600061012082019050613a9f6000830187613416565b613aac6040830186613368565b613ab960c0830185613416565b818103610100830152613acc81846134c4565b905095945050505050565b6000608082019050613aec6000830187613522565b613af96020830186613957565b613b066040830185613522565b613b136060830184613522565b95945050505050565b60006020820190508181036000830152613b368184613531565b905092915050565b6000602082019050613b53600083018461359b565b92915050565b6000602082019050613b6e60008301846135aa565b92915050565b6000602082019050613b8960008301846135b9565b92915050565b60006020820190508181036000830152613ba881613632565b9050919050565b60006020820190508181036000830152613bc881613655565b9050919050565b60006020820190508181036000830152613be881613678565b9050919050565b60006020820190508181036000830152613c088161369b565b9050919050565b60006020820190508181036000830152613c28816136e4565b9050919050565b60006020820190508181036000830152613c488161372d565b9050919050565b60006020820190508181036000830152613c6881613750565b9050919050565b60006020820190508181036000830152613c8881613773565b9050919050565b60006020820190508181036000830152613ca881613796565b9050919050565b60006020820190508181036000830152613cc8816137df565b9050919050565b60006020820190508181036000830152613ce881613825565b9050919050565b60006020820190508181036000830152613d0881613848565b9050919050565b60006020820190508181036000830152613d28816138b7565b9050919050565b60006020820190508181036000830152613d48816138da565b9050919050565b6000604082019050613d6460008301856138fd565b613d716020830184613922565b9392505050565b6000606082019050613d8d60008301866138fd565b613d9a6020830185613922565b613da76040830184613922565b949350505050565b6000602082019050613dc46000830184613913565b92915050565b6000608082019050613ddf6000830187613913565b8181036020830152613df181866135c8565b9050613e006040830185613913565b613e0d6060830184613913565b95945050505050565b600060a082019050613e2b6000830188613913565b8181036020830152613e3d81876135c8565b9050613e4c6040830186613913565b613e596060830185613913565b613e666080830184613913565b9695505050505050565b600060c082019050613e856000830189613913565b8181036020830152613e9781886135c8565b9050613ea66040830187613913565b613eb36060830186613913565b613ec06080830185613913565b613ecd60a0830184613913565b979650505050505050565b6000604082019050613eed6000830185613913565b613efa6020830184613913565b9392505050565b6000608082019050613f166000830187613913565b613f236020830186613913565b8181036040830152613f3581856135c8565b9050613f446060830184613913565b95945050505050565b6000606082019050613f626000830186613913565b613f6f6020830185613913565b613f7c6040830184613913565b949350505050565b60008083356001602003843603038112613f9d57600080fd5b80840192508235915067ffffffffffffffff821115613fbb57600080fd5b602083019250600182023603831315613fd357600080fd5b509250929050565b60008083356001602003843603038112613ff457600080fd5b80840192508235915067ffffffffffffffff82111561401257600080fd5b60208301925060018202360383131561402a57600080fd5b509250929050565b60008235600160a00383360303811261404a57600080fd5b80830191505092915050565b6000614060614071565b905061406c82826143af565b919050565b6000604051905090565b600067ffffffffffffffff821115614096576140956144f1565b5b61409f82614520565b9050602081019050919050565b6000819050919050565b6000819050919050565b6000819050602082019050919050565b600060029050919050565b600060029050919050565b600081519050919050565b600081519050919050565b600081519050919050565b6000602082019050919050565b6000602082019050919050565b6000602082019050919050565b600081905092915050565b600081905092915050565b600081905092915050565b600081905092915050565b600082825260208201905092915050565b600082825260208201905092915050565b600081905092915050565b600082825260208201905092915050565b600081905092915050565b60006141ae826142ca565b91506141b9836142ca565b9250827fffffffffffffffffffffffffffffffffffffffffffffffffffffffffffffffff038211156141ee576141ed614464565b5b828201905092915050565b6000614204826142ca565b915061420f836142ca565b92508261421f5761421e614493565b5b828204905092915050565b6000614235826142ca565b9150614240836142ca565b92508282101561425357614252614464565b5b828203905092915050565b6000614269826142aa565b9050919050565b60008115159050919050565b6000819050919050565b60006142918261425e565b9050919050565b60006142a38261425e565b9050919050565b600073ffffffffffffffffffffffffffffffffffffffff82169050919050565b6000819050919050565b600060ff82169050919050565b60006142ec826142f3565b9050919050565b60006142fe826142aa565b9050919050565b600061431082614317565b9050919050565b6000614322826142aa565b9050919050565b6000614334826142d4565b9050919050565b82818337600083830152505050565b60005b8381101561436857808201518184015260208101905061434d565b83811115614377576000848401525b50505050565b6000600282049050600182168061439557607f821691505b602082108114156143a9576143a86144c2565b5b50919050565b6143b882614520565b810181811067ffffffffffffffff821117156143d7576143d66144f1565b5b80604052505050565b60006143eb826142ca565b91507fffffffffffffffffffffffffffffffffffffffffffffffffffffffffffffffff82141561441e5761441d614464565b5b600182019050919050565b6000819050919050565b600061443e826142ca565b9150614449836142ca565b92508261445957614458614493565b5b828206905092915050565b7f4e487b7100000000000000000000000000000000000000000000000000000000600052601160045260246000fd5b7f4e487b7100000000000000000000000000000000000000000000000000000000600052601260045260246000fd5b7f4e487b7100000000000000000000000000000000000000000000000000000000600052602260045260246000fd5b7f4e487b7100000000000000000000000000000000000000000000000000000000600052604160045260246000fd5b6000601f19601f8301169050919050565b7f45434453413a20696e76616c6964207369676e61747572650000000000000000600082015250565b7f73616d65207a6b73627420657869737421000000000000000000000000000000600082015250565b7f45434453413a20696e76616c6964207369676e6174757265206c656e67746800600082015250565b7f4f776e61626c653a206e6577206f776e657220697320746865207a65726f206160008201527f6464726573730000000000000000000000000000000000000000000000000000602082015250565b7f70726f6f6620696e76616c696421000000000000000000000000000000000000600082015250565b7f45434453413a20696e76616c6964207369676e6174757265202773272076616c60008201527f7565000000000000000000000000000000000000000000000000000000000000602082015250565b7f496e76616c6964204365727469666963617465205369676e6174757265210000600082015250565b7f496e697469616c697a61626c653a20636f6e747261637420697320616c72656160008201527f647920696e697469616c697a6564000000000000000000000000000000000000602082015250565b7f6661696c656420746f206d696e74207a6b534254000000000000000000000000600082015250565b7f4f776e61626c653a2063616c6c6572206973206e6f7420746865206f776e6572600082015250565b7f19457468657265756d205369676e6564204d6573736167653a0a000000000000600082015250565b7f696420746f6f2062696721000000000000000000000000000000000000000000600082015250565b7f73627420706f6f6c20616c726561647920657869737421000000000000000000600082015250565b7f696420746f6f20736d616c6c2100000000000000000000000000000000000000600082015250565b7f7362742f736967206c656e206e6f74206d617463682100000000000000000000600082015250565b6148138161425e565b811461481e57600080fd5b50565b61482a81614270565b811461483557600080fd5b50565b61484181614286565b811461484c57600080fd5b50565b61485881614298565b811461486357600080fd5b50565b61486f816142ca565b811461487a57600080fd5b5056fe5369676e2074686973206d65657361676520746f20636c61696d207a6b534254203a20a2646970667358221220b9b69e346bbd000be02341e9540d6540d3a79194a900a9f193a13b5d9211052464736f6c63430008040033",
  "linkReferences": {
    "@zk-kit/incremental-merkle-tree.sol/Hashes.sol": {
      "PoseidonT3": [
        {
          "length": 20,
          "start": 7845
        },
        {
          "length": 20,
          "start": 8002
        },
        {
          "length": 20,
          "start": 8159
        }
      ]
    },
    "@zk-kit/incremental-merkle-tree.sol/IncrementalBinaryTree.sol": {
      "IncrementalBinaryTree": [
        {
          "length": 20,
          "start": 9916
        },
        {
          "length": 20,
          "start": 10172
        }
      ]
    }
  },
  "deployedLinkReferences": {
    "@zk-kit/incremental-merkle-tree.sol/Hashes.sol": {
      "PoseidonT3": [
        {
          "length": 20,
          "start": 7813
        },
        {
          "length": 20,
          "start": 7970
        },
        {
          "length": 20,
          "start": 8127
        }
      ]
    },
    "@zk-kit/incremental-merkle-tree.sol/IncrementalBinaryTree.sol": {
      "IncrementalBinaryTree": [
        {
          "length": 20,
          "start": 9884
        },
        {
          "length": 20,
          "start": 10140
        }
      ]
    }
  }
}