{
  "_format": "hh-sol-artifact-1",
  "contractName": "Zksbt",
  "sourceName": "contracts/zksbt.sol",
  "abi": [
    {
      "inputs": [
        {
          "internalType": "contract IVerifier",
          "name": "_verifier",
          "type": "address"
        },
        {
          "internalType": "uint256",
          "name": "poolDepth",
          "type": "uint256"
        },
        {
          "internalType": "contract SbtInterface",
          "name": "_Sbt",
          "type": "address"
        }
      ],
      "stateMutability": "nonpayable",
      "type": "constructor"
    },
    {
      "inputs": [],
      "name": "Semaphore__GroupAlreadyExists",
      "type": "error"
    },
    {
      "inputs": [],
      "name": "Semaphore__GroupDoesNotExist",
      "type": "error"
    },
    {
      "anonymous": false,
      "inputs": [
        {
          "indexed": true,
          "internalType": "uint256",
          "name": "groupId",
          "type": "uint256"
        },
        {
          "indexed": false,
          "internalType": "uint256",
          "name": "merkleTreeDepth",
          "type": "uint256"
        },
        {
          "indexed": false,
          "internalType": "uint256",
          "name": "zeroValue",
          "type": "uint256"
        }
      ],
      "name": "GroupCreated",
      "type": "event"
    },
    {
      "anonymous": false,
      "inputs": [
        {
          "indexed": true,
          "internalType": "uint256",
          "name": "groupId",
          "type": "uint256"
        },
        {
          "indexed": false,
          "internalType": "uint256",
          "name": "index",
          "type": "uint256"
        },
        {
          "indexed": false,
          "internalType": "uint256",
          "name": "identityCommitment",
          "type": "uint256"
        },
        {
          "indexed": false,
          "internalType": "uint256",
          "name": "merkleTreeRoot",
          "type": "uint256"
        }
      ],
      "name": "MemberAdded",
      "type": "event"
    },
    {
      "anonymous": false,
      "inputs": [
        {
          "indexed": true,
          "internalType": "uint256",
          "name": "groupId",
          "type": "uint256"
        },
        {
          "indexed": false,
          "internalType": "uint256",
          "name": "index",
          "type": "uint256"
        },
        {
          "indexed": false,
          "internalType": "uint256",
          "name": "identityCommitment",
          "type": "uint256"
        },
        {
          "indexed": false,
          "internalType": "uint256",
          "name": "merkleTreeRoot",
          "type": "uint256"
        }
      ],
      "name": "MemberRemoved",
      "type": "event"
    },
    {
      "anonymous": false,
      "inputs": [
        {
          "indexed": true,
          "internalType": "uint256",
          "name": "groupId",
          "type": "uint256"
        },
        {
          "indexed": false,
          "internalType": "uint256",
          "name": "index",
          "type": "uint256"
        },
        {
          "indexed": false,
          "internalType": "uint256",
          "name": "identityCommitment",
          "type": "uint256"
        },
        {
          "indexed": false,
          "internalType": "uint256",
          "name": "newIdentityCommitment",
          "type": "uint256"
        },
        {
          "indexed": false,
          "internalType": "uint256",
          "name": "merkleTreeRoot",
          "type": "uint256"
        }
      ],
      "name": "MemberUpdated",
      "type": "event"
    },
    {
      "anonymous": false,
      "inputs": [
        {
          "indexed": true,
          "internalType": "address",
          "name": "previousOwner",
          "type": "address"
        },
        {
          "indexed": true,
          "internalType": "address",
          "name": "newOwner",
          "type": "address"
        }
      ],
      "name": "OwnershipTransferred",
      "type": "event"
    },
    {
      "anonymous": false,
      "inputs": [
        {
          "indexed": true,
          "internalType": "uint256",
          "name": "identity",
          "type": "uint256"
        },
        {
          "indexed": false,
          "internalType": "uint256",
          "name": "asset",
          "type": "uint256"
        },
        {
          "indexed": false,
          "internalType": "uint256",
          "name": "range",
          "type": "uint256"
        },
        {
          "indexed": false,
          "internalType": "uint256",
          "name": "sbtId",
          "type": "uint256"
        }
      ],
      "name": "SbtMinted",
      "type": "event"
    },
    {
      "anonymous": false,
      "inputs": [
        {
          "indexed": true,
          "internalType": "address",
          "name": "oldAddress",
          "type": "address"
        },
        {
          "indexed": true,
          "internalType": "address",
          "name": "newAddress",
          "type": "address"
        }
      ],
      "name": "ZkSbtAddressChange",
      "type": "event"
    },
    {
      "inputs": [],
      "name": "Sbt",
      "outputs": [
        {
          "internalType": "contract SbtInterface",
          "name": "",
          "type": "address"
        }
      ],
      "stateMutability": "view",
      "type": "function"
    },
    {
      "inputs": [
        {
          "internalType": "address",
          "name": "token",
          "type": "address"
        }
      ],
      "name": "addAsset",
      "outputs": [],
      "stateMutability": "nonpayable",
      "type": "function"
    },
    {
      "inputs": [
        {
          "internalType": "uint256",
          "name": "groupId",
          "type": "uint256"
        }
      ],
      "name": "getMerkleTreeDepth",
      "outputs": [
        {
          "internalType": "uint256",
          "name": "",
          "type": "uint256"
        }
      ],
      "stateMutability": "view",
      "type": "function"
    },
    {
      "inputs": [
        {
          "internalType": "uint256",
          "name": "groupId",
          "type": "uint256"
        }
      ],
      "name": "getMerkleTreeRoot",
      "outputs": [
        {
          "internalType": "uint256",
          "name": "",
          "type": "uint256"
        }
      ],
      "stateMutability": "view",
      "type": "function"
    },
    {
      "inputs": [
        {
          "internalType": "uint256",
          "name": "groupId",
          "type": "uint256"
        }
      ],
      "name": "getNumberOfMerkleTreeLeaves",
      "outputs": [
        {
          "internalType": "uint256",
          "name": "",
          "type": "uint256"
        }
      ],
      "stateMutability": "view",
      "type": "function"
    },
    {
      "inputs": [],
      "name": "latestPoolId",
      "outputs": [
        {
          "internalType": "uint256",
          "name": "",
          "type": "uint256"
        }
      ],
      "stateMutability": "view",
      "type": "function"
    },
    {
      "inputs": [
        {
          "internalType": "uint256[]",
          "name": "identity",
          "type": "uint256[]"
        },
        {
          "internalType": "uint256",
          "name": "asset",
          "type": "uint256"
        },
        {
          "internalType": "uint256",
          "name": "range",
          "type": "uint256"
        },
        {
          "internalType": "uint256[]",
          "name": "sbtId",
          "type": "uint256[]"
        },
        {
          "internalType": "bytes[]",
          "name": "certificate_signature",
          "type": "bytes[]"
        }
      ],
      "name": "mint",
      "outputs": [],
      "stateMutability": "nonpayable",
      "type": "function"
    },
    {
      "inputs": [
        {
          "internalType": "uint256",
          "name": "",
          "type": "uint256"
        }
      ],
      "name": "nullifierHashes",
      "outputs": [
        {
          "internalType": "bool",
          "name": "",
          "type": "bool"
        }
      ],
      "stateMutability": "view",
      "type": "function"
    },
    {
      "inputs": [],
      "name": "owner",
      "outputs": [
        {
          "internalType": "address",
          "name": "",
          "type": "address"
        }
      ],
      "stateMutability": "view",
      "type": "function"
    },
    {
      "inputs": [
        {
          "internalType": "uint256",
          "name": "",
          "type": "uint256"
        },
        {
          "internalType": "uint256",
          "name": "",
          "type": "uint256"
        }
      ],
      "name": "pools",
      "outputs": [
        {
          "internalType": "uint256",
          "name": "id",
          "type": "uint256"
        },
        {
          "internalType": "uint256",
          "name": "depth",
          "type": "uint256"
        }
      ],
      "stateMutability": "view",
      "type": "function"
    },
    {
      "inputs": [],
      "name": "renounceOwnership",
      "outputs": [],
      "stateMutability": "nonpayable",
      "type": "function"
    },
    {
      "inputs": [
        {
          "internalType": "uint256",
          "name": "",
          "type": "uint256"
        },
        {
          "internalType": "uint256",
          "name": "",
          "type": "uint256"
        }
      ],
      "name": "salts",
      "outputs": [
        {
          "internalType": "uint256",
          "name": "",
          "type": "uint256"
        }
      ],
      "stateMutability": "view",
      "type": "function"
    },
    {
      "inputs": [
        {
          "internalType": "uint256",
          "name": "",
          "type": "uint256"
        },
        {
          "internalType": "uint256",
          "name": "",
          "type": "uint256"
        },
        {
          "internalType": "uint256",
          "name": "",
          "type": "uint256"
        }
      ],
      "name": "sbt_minted",
      "outputs": [
        {
          "internalType": "bool",
          "name": "",
          "type": "bool"
        }
      ],
      "stateMutability": "view",
      "type": "function"
    },
    {
      "inputs": [
        {
          "internalType": "address",
          "name": "_newZkSbtAddress",
          "type": "address"
        }
      ],
      "name": "setZkSbtAddress",
      "outputs": [],
      "stateMutability": "nonpayable",
      "type": "function"
    },
    {
      "inputs": [
        {
          "internalType": "address",
          "name": "newOwner",
          "type": "address"
        }
      ],
      "name": "transferOwnership",
      "outputs": [],
      "stateMutability": "nonpayable",
      "type": "function"
    },
    {
      "inputs": [
        {
          "internalType": "uint256",
          "name": "",
          "type": "uint256"
        }
      ],
      "name": "verifiers",
      "outputs": [
        {
          "internalType": "contract IVerifier",
          "name": "",
          "type": "address"
        }
      ],
      "stateMutability": "view",
      "type": "function"
    },
    {
      "inputs": [
        {
          "internalType": "uint256",
          "name": "asset",
          "type": "uint256"
        },
        {
          "internalType": "uint256",
          "name": "range",
          "type": "uint256"
        },
        {
          "internalType": "uint256",
          "name": "nullifierHash",
          "type": "uint256"
        },
        {
          "internalType": "uint256[8]",
          "name": "proof",
          "type": "uint256[8]"
        }
      ],
      "name": "verify",
      "outputs": [],
      "stateMutability": "nonpayable",
      "type": "function"
    },
    {
      "inputs": [
        {
          "internalType": "uint256",
          "name": "asset",
          "type": "uint256"
        },
        {
          "internalType": "uint256",
          "name": "range",
          "type": "uint256"
        },
        {
          "internalType": "uint256",
          "name": "merkle_root",
          "type": "uint256"
        },
        {
          "internalType": "uint256",
          "name": "nullifierHash",
          "type": "uint256"
        },
        {
          "internalType": "uint256[8]",
          "name": "proof",
          "type": "uint256[8]"
        },
        {
          "internalType": "uint256",
          "name": "salt",
          "type": "uint256"
        }
      ],
      "name": "verifyWithRootAndSalt",
      "outputs": [],
      "stateMutability": "nonpayable",
      "type": "function"
    },
    {
      "inputs": [
        {
          "internalType": "uint256",
          "name": "asset",
          "type": "uint256"
        },
        {
          "internalType": "uint256",
          "name": "range",
          "type": "uint256"
        },
        {
          "internalType": "uint256",
          "name": "nullifierHash",
          "type": "uint256"
        },
        {
          "internalType": "uint256[8]",
          "name": "proof",
          "type": "uint256[8]"
        },
        {
          "internalType": "uint256",
          "name": "salt",
          "type": "uint256"
        }
      ],
      "name": "verifyWithSalt",
      "outputs": [],
      "stateMutability": "nonpayable",
      "type": "function"
    }
  ],
  "bytecode": "0x60806040523480156200001157600080fd5b5060405162002df538038062002df58339818101604052810190620000379190620004fb565b620000576200004b6200020660201b60201c565b6200020e60201b60201c565b826007600084815260200190815260200160002060006101000a81548173ffffffffffffffffffffffffffffffffffffffff021916908373ffffffffffffffffffffffffffffffffffffffff16021790555060006002819055506200013760006001811115620000f0577f4e487b7100000000000000000000000000000000000000000000000000000000600052602160045260246000fd5b6003808111156200012a577f4e487b7100000000000000000000000000000000000000000000000000000000600052602160045260246000fd5b84620002d460201b60201c565b620001bc60018081111562000175577f4e487b7100000000000000000000000000000000000000000000000000000000600052602160045260246000fd5b600380811115620001af577f4e487b7100000000000000000000000000000000000000000000000000000000600052602160045260246000fd5b84620002d460201b60201c565b80600360006101000a81548173ffffffffffffffffffffffffffffffffffffffff021916908373ffffffffffffffffffffffffffffffffffffffff16021790555050505062000757565b600033905090565b6000600160009054906101000a900473ffffffffffffffffffffffffffffffffffffffff16905081600160006101000a81548173ffffffffffffffffffffffffffffffffffffffff021916908373ffffffffffffffffffffffffffffffffffffffff1602179055508173ffffffffffffffffffffffffffffffffffffffff168173ffffffffffffffffffffffffffffffffffffffff167f8be0079c531659141344cd1fd0a4f28419497f9722a3daafe3b4186f6b6457e060405160405180910390a35050565b620002e8600254826200035560201b60201c565b604051806040016040528060026000815480929190620003089062000682565b919050558152602001828152506004600085815260200190815260200160002060008481526020019081526020016000206000820151816000015560208201518160010155905050505050565b600062000368836200049760201b60201c565b14620003a0576040517f8121725b00000000000000000000000000000000000000000000000000000000815260040160405180910390fd5b6000600883604051602001620003b7919062000595565b6040516020818303038152906040528051906020012060001c901c905060008084815260200190815260200160002073__$0c6eb7207c37accf1552a1c47686411ac0$__631095fbb4909184846040518463ffffffff1660e01b81526004016200042493929190620005b2565b60006040518083038186803b1580156200043d57600080fd5b505af415801562000452573d6000803e3d6000fd5b50505050827f0d000126c26c1bbe400fd2332187f75d58b69306f9ec47b408686189d3a0083383836040516200048a929190620005ef565b60405180910390a2505050565b6000806000838152602001908152602001600020600001549050919050565b600081519050620004c78162000709565b92915050565b600081519050620004de8162000723565b92915050565b600081519050620004f5816200073d565b92915050565b6000806000606084860312156200051157600080fd5b60006200052186828701620004b6565b93505060206200053486828701620004e4565b92505060406200054786828701620004cd565b9150509250925092565b8082525050565b620005638162000678565b82525050565b620005748162000678565b82525050565b6200058f620005898262000678565b620006d0565b82525050565b6000620005a382846200057a565b60208201915081905092915050565b6000606082019050620005c9600083018662000551565b620005d8602083018562000569565b620005e7604083018462000569565b949350505050565b600060408201905062000606600083018562000558565b62000615602083018462000558565b9392505050565b6000620006298262000658565b9050919050565b60006200063d826200061c565b9050919050565b600062000651826200061c565b9050919050565b600073ffffffffffffffffffffffffffffffffffffffff82169050919050565b6000819050919050565b60006200068f8262000678565b91507fffffffffffffffffffffffffffffffffffffffffffffffffffffffffffffffff821415620006c557620006c4620006da565b5b600182019050919050565b6000819050919050565b7f4e487b7100000000000000000000000000000000000000000000000000000000600052601160045260246000fd5b620007148162000630565b81146200072057600080fd5b50565b6200072e8162000644565b81146200073a57600080fd5b50565b620007488162000678565b81146200075457600080fd5b50565b61268e80620007676000396000f3fe608060405234801561001057600080fd5b50600436106101215760003560e01c80636d529a1c116100ad578063ac1eff6811610071578063ac1eff6814610319578063cc5ddbd214610349578063dabc4d5114610365578063e1baa9bd14610395578063f2fde38b146103b357610121565b80636d529a1c14610274578063715018a6146102905780637450e2de1461029a5780638cc5be5c146102cb5780638da5cb5b146102fb57610121565b8063298410e5116100f4578063298410e5146101be578063417c4fa7146101da57806346541a24146101f6578063638480be146102145780636389e1071461024457610121565b806301d7b7e51461012657806313efaaaa146101425780631f79a1e91461015e578063206dd17b1461018e575b600080fd5b610140600480360381019061013b9190611a49565b6103cf565b005b61015c600480360381019061015791906119e5565b610419565b005b61017860048036038101906101739190611931565b610486565b6040516101859190611f6e565b60405180910390f35b6101a860048036038101906101a39190611996565b6104a6565b6040516101b59190611f6e565b60405180910390f35b6101d860048036038101906101d39190611813565b6104e2565b005b6101f460048036038101906101ef9190611813565b6104ed565b005b6101fe6105bb565b60405161020b919061210d565b60405180910390f35b61022e60048036038101906102299190611931565b6105c1565b60405161023b919061210d565b60405180910390f35b61025e60048036038101906102599190611931565b6105e0565b60405161026b919061210d565b60405180910390f35b61028e60048036038101906102899190611ac2565b6105ff565b005b610298610ae1565b005b6102b460048036038101906102af919061195a565b610af5565b6040516102c2929190612128565b60405180910390f35b6102e560048036038101906102e0919061195a565b610b26565b6040516102f2919061210d565b60405180910390f35b610303610b4b565b6040516103109190611f05565b60405180910390f35b610333600480360381019061032e9190611931565b610b75565b6040516103409190611fce565b60405180910390f35b610363600480360381019061035e919061183c565b610ba8565b005b61037f600480360381019061037a9190611931565b610fec565b60405161038c919061210d565b60405180910390f35b61039d61100b565b6040516103aa9190611fe9565b60405180910390f35b6103cd60048036038101906103c89190611813565b611031565b005b600061040160046000888152602001908152602001600020600087815260200190815260200160002060000154610fec565b90506104118686838787876105ff565b505050505050565b600061044b60046000878152602001908152602001600020600086815260200190815260200160002060000154610fec565b905061047f8585838686600560008c815260200190815260200160002060008b8152602001908152602001600020546105ff565b5050505050565b60066020528060005260406000206000915054906101000a900460ff1681565b6008602052826000526040600020602052816000526040600020602052806000526040600020600092509250509054906101000a900460ff1681565b6104ea6110b5565b50565b6104f56110b5565b6000600360009054906101000a900473ffffffffffffffffffffffffffffffffffffffff16905081600360006101000a81548173ffffffffffffffffffffffffffffffffffffffff021916908373ffffffffffffffffffffffffffffffffffffffff1602179055508173ffffffffffffffffffffffffffffffffffffffff168173ffffffffffffffffffffffffffffffffffffffff167f11a7c3b8107d993bc669b5867b58e002c54e379b04105f91481b7860c57e6b9760405160405180910390a35050565b60025481565b6000806000838152602001908152602001600020600201549050919050565b6000806000838152602001908152602001600020600001549050919050565b6000610631600460008981526020019081526020016000206000888152602001908152602001600020600001546105e0565b90506000600367ffffffffffffffff811115610676577f4e487b7100000000000000000000000000000000000000000000000000000000600052604160045260246000fd5b6040519080825280602002602001820160405280156106a45781602001602082028036833780820191505090505b50905085816000815181106106e2577f4e487b7100000000000000000000000000000000000000000000000000000000600052603260045260246000fd5b6020026020010181815250508481600181518110610729577f4e487b7100000000000000000000000000000000000000000000000000000000600052603260045260246000fd5b6020026020010181815250508281600281518110610770577f4e487b7100000000000000000000000000000000000000000000000000000000600052603260045260246000fd5b60200260200101818152505060006007600084815260200190815260200160002060009054906101000a900473ffffffffffffffffffffffffffffffffffffffff1673ffffffffffffffffffffffffffffffffffffffff1663c32e370e604051806040016040528088600060088110610812577f4e487b7100000000000000000000000000000000000000000000000000000000600052603260045260246000fd5b6020020135815260200188600160088110610856577f4e487b7100000000000000000000000000000000000000000000000000000000600052603260045260246000fd5b6020020135815250604051806040016040528060405180604001604052808b6002600881106108ae577f4e487b7100000000000000000000000000000000000000000000000000000000600052603260045260246000fd5b602002013581526020018b6003600881106108f2577f4e487b7100000000000000000000000000000000000000000000000000000000600052603260045260246000fd5b6020020135815250815260200160405180604001604052808b600460088110610944577f4e487b7100000000000000000000000000000000000000000000000000000000600052603260045260246000fd5b602002013581526020018b600560088110610988577f4e487b7100000000000000000000000000000000000000000000000000000000600052603260045260246000fd5b602002013581525081525060405180604001604052808a6006600881106109d8577f4e487b7100000000000000000000000000000000000000000000000000000000600052603260045260246000fd5b602002013581526020018a600760088110610a1c577f4e487b7100000000000000000000000000000000000000000000000000000000600052603260045260246000fd5b6020020135815250866040518563ffffffff1660e01b8152600401610a449493929190611f20565b60206040518083038186803b158015610a5c57600080fd5b505afa158015610a70573d6000803e3d6000fd5b505050506040513d601f19601f82011682018060405250810190610a949190611908565b905080610ad6576040517f08c379a0000000000000000000000000000000000000000000000000000000008152600401610acd90612064565b60405180910390fd5b505050505050505050565b610ae96110b5565b610af36000611133565b565b6004602052816000526040600020602052806000526040600020600091509150508060000154908060010154905082565b6005602052816000526040600020602052806000526040600020600091509150505481565b6000600160009054906101000a900473ffffffffffffffffffffffffffffffffffffffff16905090565b60076020528060005260406000206000915054906101000a900473ffffffffffffffffffffffffffffffffffffffff1681565b610bb06110b5565b600060405180606001604052806028815260200161263160289139905060005b89899050811015610fe0576000604051602001610bec90611ed2565b60405160208183030381529060405290506000610c9d8280519060200120878786818110610c43577f4e487b7100000000000000000000000000000000000000000000000000000000600052603260045260246000fd5b9050602002810190610c5591906121cd565b8080601f016020809104026020016040519081016040528093929190818152602001838380828437600081840152601f19601f820116905080830192505050505050506111f9565b9050610d0f600460008c815260200190815260200160002060008b8152602001908152602001600020600001548d8d86818110610d03577f4e487b7100000000000000000000000000000000000000000000000000000000600052603260045260246000fd5b90506020020135611220565b6001600860008c815260200190815260200160002060008b815260200190815260200160002060008e8e87818110610d70577f4e487b7100000000000000000000000000000000000000000000000000000000600052603260045260246000fd5b90506020020135815260200190815260200160002060006101000a81548160ff0219169083151502179055506000600360009054906101000a900473ffffffffffffffffffffffffffffffffffffffff1673ffffffffffffffffffffffffffffffffffffffff166245c88d8e8e87818110610e14577f4e487b7100000000000000000000000000000000000000000000000000000000600052603260045260246000fd5b905060200201358d8d8d8d8a818110610e56577f4e487b7100000000000000000000000000000000000000000000000000000000600052603260045260246000fd5b905060200201356040518563ffffffff1660e01b8152600401610e7c9493929190612188565b602060405180830381600087803b158015610e9657600080fd5b505af1158015610eaa573d6000803e3d6000fd5b505050506040513d601f19601f82011682018060405250810190610ece9190611908565b905080610f10576040517f08c379a0000000000000000000000000000000000000000000000000000000008152600401610f07906120a4565b60405180910390fd5b8c8c85818110610f49577f4e487b7100000000000000000000000000000000000000000000000000000000600052603260045260246000fd5b905060200201357fe67a5e82598f7f53d4b460514b6cd2b3ff2694703b59b3997c9762fa618539058c8c8c8c89818110610fac577f4e487b7100000000000000000000000000000000000000000000000000000000600052603260045260246000fd5b90506020020135604051610fc293929190612151565b60405180910390a25050508080610fd8906123b9565b915050610bd0565b50505050505050505050565b6000806000838152602001908152602001600020600101549050919050565b600360009054906101000a900473ffffffffffffffffffffffffffffffffffffffff1681565b6110396110b5565b600073ffffffffffffffffffffffffffffffffffffffff168173ffffffffffffffffffffffffffffffffffffffff1614156110a9576040517f08c379a00000000000000000000000000000000000000000000000000000000081526004016110a090612044565b60405180910390fd5b6110b281611133565b50565b6110bd611347565b73ffffffffffffffffffffffffffffffffffffffff166110db610b4b565b73ffffffffffffffffffffffffffffffffffffffff1614611131576040517f08c379a0000000000000000000000000000000000000000000000000000000008152600401611128906120c4565b60405180910390fd5b565b6000600160009054906101000a900473ffffffffffffffffffffffffffffffffffffffff16905081600160006101000a81548173ffffffffffffffffffffffffffffffffffffffff021916908373ffffffffffffffffffffffffffffffffffffffff1602179055508173ffffffffffffffffffffffffffffffffffffffff168173ffffffffffffffffffffffffffffffffffffffff167f8be0079c531659141344cd1fd0a4f28419497f9722a3daafe3b4186f6b6457e060405160405180910390a35050565b6000806000611208858561134f565b91509150611215816113a1565b819250505092915050565b600061122b836105e0565b1415611263576040517f029f057900000000000000000000000000000000000000000000000000000000815260040160405180910390fd5b60008083815260200190815260200160002073__$0c6eb7207c37accf1552a1c47686411ac0$__63168703fa9091836040518363ffffffff1660e01b81526004016112af9291906120e4565b60006040518083038186803b1580156112c757600080fd5b505af41580156112db573d6000803e3d6000fd5b5050505060006112ea83610fec565b9050600060016112f9856105c1565b61130391906122de565b9050837f19239b3f93cd10558aaf11423af70c77763bf54f52bcc75bfa74d4d13548cde982858560405161133993929190612151565b60405180910390a250505050565b600033905090565b6000806041835114156113915760008060006020860151925060408601519150606086015160001a90506113858782858561163f565b9450945050505061139a565b60006002915091505b9250929050565b600060048111156113db577f4e487b7100000000000000000000000000000000000000000000000000000000600052602160045260246000fd5b816004811115611414577f4e487b7100000000000000000000000000000000000000000000000000000000600052602160045260246000fd5b141561141f5761163c565b60016004811115611459577f4e487b7100000000000000000000000000000000000000000000000000000000600052602160045260246000fd5b816004811115611492577f4e487b7100000000000000000000000000000000000000000000000000000000600052602160045260246000fd5b14156114d3576040517f08c379a00000000000000000000000000000000000000000000000000000000081526004016114ca90612004565b60405180910390fd5b6002600481111561150d577f4e487b7100000000000000000000000000000000000000000000000000000000600052602160045260246000fd5b816004811115611546577f4e487b7100000000000000000000000000000000000000000000000000000000600052602160045260246000fd5b1415611587576040517f08c379a000000000000000000000000000000000000000000000000000000000815260040161157e90612024565b60405180910390fd5b600360048111156115c1577f4e487b7100000000000000000000000000000000000000000000000000000000600052602160045260246000fd5b8160048111156115fa577f4e487b7100000000000000000000000000000000000000000000000000000000600052602160045260246000fd5b141561163b576040517f08c379a000000000000000000000000000000000000000000000000000000000815260040161163290612084565b60405180910390fd5b5b50565b6000807f7fffffffffffffffffffffffffffffff5d576e7357a4501ddfe92f46681b20a08360001c111561167a576000600391509150611719565b60006001878787876040516000815260200160405260405161169f9493929190611f89565b6020604051602081039080840390855afa1580156116c1573d6000803e3d6000fd5b505050602060405103519050600073ffffffffffffffffffffffffffffffffffffffff168173ffffffffffffffffffffffffffffffffffffffff16141561171057600060019250925050611719565b80600092509250505b94509492505050565b600081359050611731816125eb565b92915050565b60008083601f84011261174957600080fd5b8235905067ffffffffffffffff81111561176257600080fd5b60208301915083602082028301111561177a57600080fd5b9250929050565b60008190508260206008028201111561179957600080fd5b92915050565b60008083601f8401126117b157600080fd5b8235905067ffffffffffffffff8111156117ca57600080fd5b6020830191508360208202830111156117e257600080fd5b9250929050565b6000815190506117f881612602565b92915050565b60008135905061180d81612619565b92915050565b60006020828403121561182557600080fd5b600061183384828501611722565b91505092915050565b60008060008060008060008060a0898b03121561185857600080fd5b600089013567ffffffffffffffff81111561187257600080fd5b61187e8b828c0161179f565b985098505060206118918b828c016117fe565b96505060406118a28b828c016117fe565b955050606089013567ffffffffffffffff8111156118bf57600080fd5b6118cb8b828c0161179f565b9450945050608089013567ffffffffffffffff8111156118ea57600080fd5b6118f68b828c01611737565b92509250509295985092959890939650565b60006020828403121561191a57600080fd5b6000611928848285016117e9565b91505092915050565b60006020828403121561194357600080fd5b6000611951848285016117fe565b91505092915050565b6000806040838503121561196d57600080fd5b600061197b858286016117fe565b925050602061198c858286016117fe565b9150509250929050565b6000806000606084860312156119ab57600080fd5b60006119b9868287016117fe565b93505060206119ca868287016117fe565b92505060406119db868287016117fe565b9150509250925092565b60008060008061016085870312156119fc57600080fd5b6000611a0a878288016117fe565b9450506020611a1b878288016117fe565b9350506040611a2c878288016117fe565b9250506060611a3d87828801611781565b91505092959194509250565b60008060008060006101808688031215611a6257600080fd5b6000611a70888289016117fe565b9550506020611a81888289016117fe565b9450506040611a92888289016117fe565b9350506060611aa388828901611781565b925050610160611ab5888289016117fe565b9150509295509295909350565b6000806000806000806101a08789031215611adc57600080fd5b6000611aea89828a016117fe565b9650506020611afb89828a016117fe565b9550506040611b0c89828a016117fe565b9450506060611b1d89828a016117fe565b9350506080611b2e89828a01611781565b925050610180611b4089828a016117fe565b9150509295509295509295565b6000611b598383611be3565b60408301905092915050565b6000611b718383611e96565b60208301905092915050565b611b8681612312565b82525050565b611b9581612248565b611b9f8184612290565b9250611baa82612224565b8060005b83811015611bdb578151611bc28782611b4d565b9650611bcd83612269565b925050600181019050611bae565b505050505050565b611bec81612253565b611bf6818461229b565b9250611c018261222e565b8060005b83811015611c32578151611c198782611b65565b9650611c2483612276565b925050600181019050611c05565b505050505050565b611c4381612253565b611c4d81846122a6565b9250611c588261222e565b8060005b83811015611c89578151611c708782611b65565b9650611c7b83612276565b925050600181019050611c5c565b505050505050565b6000611c9c8261225e565b611ca681856122b1565b9350611cb183612238565b8060005b83811015611ce2578151611cc98882611b65565b9750611cd483612283565b925050600181019050611cb5565b5085935050505092915050565b611cf881612324565b82525050565b611d0781612330565b82525050565b611d1681612371565b82525050565b611d2581612395565b82525050565b6000611d386018836122cd565b9150611d4382612431565b602082019050919050565b6000611d5b601f836122cd565b9150611d668261245a565b602082019050919050565b6000611d7e6026836122cd565b9150611d8982612483565b604082019050919050565b6000611da1600e836122cd565b9150611dac826124d2565b602082019050919050565b7f3078000000000000000000000000000000000000000000000000000000000000815250565b6000611dea6022836122cd565b9150611df5826124fb565b604082019050919050565b6000611e0d602a836122c2565b9150611e188261254a565b602a82019050919050565b6000611e306014836122cd565b9150611e3b82612599565b602082019050919050565b6000611e536020836122cd565b9150611e5e826125c2565b602082019050919050565b7f19457468657265756d205369676e6564204d6573736167653a0a313330000000815250565b8082525050565b611e9f8161235a565b82525050565b611eae8161235a565b82525050565b611ebd8161235a565b82525050565b611ecc81612364565b82525050565b6000611edd82611e69565b601d82019150611eec82611db7565b600282019150611efb82611e00565b9150819050919050565b6000602082019050611f1a6000830184611b7d565b92915050565b600061012082019050611f366000830187611c3a565b611f436040830186611b8c565b611f5060c0830185611c3a565b818103610100830152611f638184611c91565b905095945050505050565b6000602082019050611f836000830184611cef565b92915050565b6000608082019050611f9e6000830187611cfe565b611fab6020830186611ec3565b611fb86040830185611cfe565b611fc56060830184611cfe565b95945050505050565b6000602082019050611fe36000830184611d0d565b92915050565b6000602082019050611ffe6000830184611d1c565b92915050565b6000602082019050818103600083015261201d81611d2b565b9050919050565b6000602082019050818103600083015261203d81611d4e565b9050919050565b6000602082019050818103600083015261205d81611d71565b9050919050565b6000602082019050818103600083015261207d81611d94565b9050919050565b6000602082019050818103600083015261209d81611ddd565b9050919050565b600060208201905081810360008301526120bd81611e23565b9050919050565b600060208201905081810360008301526120dd81611e46565b9050919050565b60006040820190506120f96000830185611e8f565b6121066020830184611eb4565b9392505050565b60006020820190506121226000830184611ea5565b92915050565b600060408201905061213d6000830185611ea5565b61214a6020830184611ea5565b9392505050565b60006060820190506121666000830186611ea5565b6121736020830185611ea5565b6121806040830184611ea5565b949350505050565b600060808201905061219d6000830187611ea5565b6121aa6020830186611ea5565b6121b76040830185611ea5565b6121c46060830184611ea5565b95945050505050565b600080833560016020038436030381126121e657600080fd5b80840192508235915067ffffffffffffffff82111561220457600080fd5b60208301925060018202360383131561221c57600080fd5b509250929050565b6000819050919050565b6000819050919050565b6000819050602082019050919050565b600060029050919050565b600060029050919050565b600081519050919050565b6000602082019050919050565b6000602082019050919050565b6000602082019050919050565b600081905092915050565b600081905092915050565b600081905092915050565b600082825260208201905092915050565b600081905092915050565b600082825260208201905092915050565b60006122e98261235a565b91506122f48361235a565b92508282101561230757612306612402565b5b828203905092915050565b600061231d8261233a565b9050919050565b60008115159050919050565b6000819050919050565b600073ffffffffffffffffffffffffffffffffffffffff82169050919050565b6000819050919050565b600060ff82169050919050565b600061237c82612383565b9050919050565b600061238e8261233a565b9050919050565b60006123a0826123a7565b9050919050565b60006123b28261233a565b9050919050565b60006123c48261235a565b91507fffffffffffffffffffffffffffffffffffffffffffffffffffffffffffffffff8214156123f7576123f6612402565b5b600182019050919050565b7f4e487b7100000000000000000000000000000000000000000000000000000000600052601160045260246000fd5b7f45434453413a20696e76616c6964207369676e61747572650000000000000000600082015250565b7f45434453413a20696e76616c6964207369676e6174757265206c656e67746800600082015250565b7f4f776e61626c653a206e6577206f776e657220697320746865207a65726f206160008201527f6464726573730000000000000000000000000000000000000000000000000000602082015250565b7f70726f6f6620696e76616c696421000000000000000000000000000000000000600082015250565b7f45434453413a20696e76616c6964207369676e6174757265202773272076616c60008201527f7565000000000000000000000000000000000000000000000000000000000000602082015250565b7f30787369676e2074686973206d65737361676520746f20636c61696d20796f7560008201527f72207a6b534254203a2000000000000000000000000000000000000000000000602082015250565b7f6661696c656420746f206d696e74207a6b534254000000000000000000000000600082015250565b7f4f776e61626c653a2063616c6c6572206973206e6f7420746865206f776e6572600082015250565b6125f481612312565b81146125ff57600080fd5b50565b61260b81612324565b811461261657600080fd5b50565b6126228161235a565b811461262d57600080fd5b5056fe5369676e2074686973206d65737361676520746f20636c61696d20796f7572207a6b534254203a20a2646970667358221220eb0f47aa20b5409e5f6276d241ef27ed62337a9e7f6db272c8b9131dd586d36164736f6c63430008040033",
  "linkReferences": {
    "@zk-kit/incremental-merkle-tree.sol/IncrementalBinaryTree.sol": {
      "IncrementalBinaryTree": [
        {
          "length": 20,
          "start": 1000
        },
        {
          "length": 20,
          "start": 6622
        }
      ]
    }
  },
  "deployedLinkReferences": {
    "@zk-kit/incremental-merkle-tree.sol/IncrementalBinaryTree.sol": {
      "IncrementalBinaryTree": [
        {
          "length": 20,
          "start": 4727
        }
      ]
    }
  }
}