{
  "_format": "hh-sol-artifact-1",
  "contractName": "Zksbt",
  "sourceName": "contracts/zkSBT.sol",
  "abi": [
    {
      "inputs": [],
      "name": "Semaphore__GroupAlreadyExists",
      "type": "error"
    },
    {
      "inputs": [],
      "name": "Semaphore__GroupDoesNotExist",
      "type": "error"
    },
    {
      "anonymous": false,
      "inputs": [
        {
          "indexed": true,
          "internalType": "uint256",
          "name": "groupId",
          "type": "uint256"
        },
        {
          "indexed": false,
          "internalType": "uint256",
          "name": "merkleTreeDepth",
          "type": "uint256"
        },
        {
          "indexed": false,
          "internalType": "uint256",
          "name": "zeroValue",
          "type": "uint256"
        }
      ],
      "name": "GroupCreated",
      "type": "event"
    },
    {
      "anonymous": false,
      "inputs": [
        {
          "indexed": false,
          "internalType": "uint8",
          "name": "version",
          "type": "uint8"
        }
      ],
      "name": "Initialized",
      "type": "event"
    },
    {
      "anonymous": false,
      "inputs": [
        {
          "indexed": true,
          "internalType": "uint256",
          "name": "groupId",
          "type": "uint256"
        },
        {
          "indexed": false,
          "internalType": "uint256",
          "name": "index",
          "type": "uint256"
        },
        {
          "indexed": false,
          "internalType": "uint256",
          "name": "identityCommitment",
          "type": "uint256"
        },
        {
          "indexed": false,
          "internalType": "uint256",
          "name": "merkleTreeRoot",
          "type": "uint256"
        }
      ],
      "name": "MemberAdded",
      "type": "event"
    },
    {
      "anonymous": false,
      "inputs": [
        {
          "indexed": true,
          "internalType": "uint256",
          "name": "groupId",
          "type": "uint256"
        },
        {
          "indexed": false,
          "internalType": "uint256",
          "name": "index",
          "type": "uint256"
        },
        {
          "indexed": false,
          "internalType": "uint256",
          "name": "identityCommitment",
          "type": "uint256"
        },
        {
          "indexed": false,
          "internalType": "uint256",
          "name": "merkleTreeRoot",
          "type": "uint256"
        }
      ],
      "name": "MemberRemoved",
      "type": "event"
    },
    {
      "anonymous": false,
      "inputs": [
        {
          "indexed": true,
          "internalType": "uint256",
          "name": "groupId",
          "type": "uint256"
        },
        {
          "indexed": false,
          "internalType": "uint256",
          "name": "index",
          "type": "uint256"
        },
        {
          "indexed": false,
          "internalType": "uint256",
          "name": "identityCommitment",
          "type": "uint256"
        },
        {
          "indexed": false,
          "internalType": "uint256",
          "name": "newIdentityCommitment",
          "type": "uint256"
        },
        {
          "indexed": false,
          "internalType": "uint256",
          "name": "merkleTreeRoot",
          "type": "uint256"
        }
      ],
      "name": "MemberUpdated",
      "type": "event"
    },
    {
      "anonymous": false,
      "inputs": [
        {
          "indexed": true,
          "internalType": "address",
          "name": "previousOwner",
          "type": "address"
        },
        {
          "indexed": true,
          "internalType": "address",
          "name": "newOwner",
          "type": "address"
        }
      ],
      "name": "OwnershipTransferred",
      "type": "event"
    },
    {
      "anonymous": false,
      "inputs": [
        {
          "indexed": true,
          "internalType": "uint256",
          "name": "identity",
          "type": "uint256"
        },
        {
          "indexed": false,
          "internalType": "uint256",
          "name": "sbt",
          "type": "uint256"
        }
      ],
      "name": "SbtMinted",
      "type": "event"
    },
    {
      "anonymous": false,
      "inputs": [
        {
          "indexed": true,
          "internalType": "address",
          "name": "oldAddress",
          "type": "address"
        },
        {
          "indexed": true,
          "internalType": "address",
          "name": "newAddress",
          "type": "address"
        }
      ],
      "name": "ZkSbtAddressChange",
      "type": "event"
    },
    {
      "inputs": [
        {
          "internalType": "uint256",
          "name": "groupId",
          "type": "uint256"
        },
        {
          "internalType": "uint256",
          "name": "sbt",
          "type": "uint256"
        }
      ],
      "name": "checkGroupIdInSbtPool",
      "outputs": [],
      "stateMutability": "nonpayable",
      "type": "function"
    },
    {
      "inputs": [
        {
          "internalType": "uint256",
          "name": "sbt",
          "type": "uint256"
        },
        {
          "internalType": "string",
          "name": "name",
          "type": "string"
        },
        {
          "internalType": "uint256",
          "name": "groupDepth",
          "type": "uint256"
        }
      ],
      "name": "createSbtPool",
      "outputs": [
        {
          "internalType": "uint256",
          "name": "",
          "type": "uint256"
        }
      ],
      "stateMutability": "nonpayable",
      "type": "function"
    },
    {
      "inputs": [
        {
          "internalType": "uint256",
          "name": "groupId",
          "type": "uint256"
        }
      ],
      "name": "getMerkleTreeDepth",
      "outputs": [
        {
          "internalType": "uint256",
          "name": "",
          "type": "uint256"
        }
      ],
      "stateMutability": "view",
      "type": "function"
    },
    {
      "inputs": [
        {
          "internalType": "uint256",
          "name": "groupId",
          "type": "uint256"
        }
      ],
      "name": "getMerkleTreeRoot",
      "outputs": [
        {
          "internalType": "uint256",
          "name": "",
          "type": "uint256"
        }
      ],
      "stateMutability": "view",
      "type": "function"
    },
    {
      "inputs": [
        {
          "internalType": "uint256",
          "name": "groupId",
          "type": "uint256"
        }
      ],
      "name": "getNumberOfMerkleTreeLeaves",
      "outputs": [
        {
          "internalType": "uint256",
          "name": "",
          "type": "uint256"
        }
      ],
      "stateMutability": "view",
      "type": "function"
    },
    {
      "inputs": [
        {
          "internalType": "uint64",
          "name": "category",
          "type": "uint64"
        },
        {
          "internalType": "uint64",
          "name": "attribute",
          "type": "uint64"
        }
      ],
      "name": "getSbtPool",
      "outputs": [
        {
          "components": [
            {
              "internalType": "uint256",
              "name": "id",
              "type": "uint256"
            },
            {
              "internalType": "string",
              "name": "name",
              "type": "string"
            },
            {
              "internalType": "uint256",
              "name": "depth",
              "type": "uint256"
            },
            {
              "internalType": "uint256",
              "name": "salt",
              "type": "uint256"
            },
            {
              "internalType": "uint256",
              "name": "amount",
              "type": "uint256"
            }
          ],
          "internalType": "struct Pool",
          "name": "",
          "type": "tuple"
        }
      ],
      "stateMutability": "view",
      "type": "function"
    },
    {
      "inputs": [
        {
          "internalType": "uint256",
          "name": "sbt",
          "type": "uint256"
        }
      ],
      "name": "getSbtPoolV2",
      "outputs": [
        {
          "components": [
            {
              "internalType": "uint256",
              "name": "id",
              "type": "uint256"
            },
            {
              "internalType": "string",
              "name": "name",
              "type": "string"
            },
            {
              "internalType": "uint256",
              "name": "depth",
              "type": "uint256"
            },
            {
              "internalType": "uint256",
              "name": "salt",
              "type": "uint256"
            },
            {
              "internalType": "uint256",
              "name": "amount",
              "type": "uint256"
            }
          ],
          "internalType": "struct Pool",
          "name": "",
          "type": "tuple"
        }
      ],
      "stateMutability": "view",
      "type": "function"
    },
    {
      "inputs": [],
      "name": "groupIdOffset",
      "outputs": [
        {
          "internalType": "uint256",
          "name": "",
          "type": "uint256"
        }
      ],
      "stateMutability": "view",
      "type": "function"
    },
    {
      "inputs": [],
      "name": "iSbt",
      "outputs": [
        {
          "internalType": "contract SbtInterface",
          "name": "",
          "type": "address"
        }
      ],
      "stateMutability": "view",
      "type": "function"
    },
    {
      "inputs": [
        {
          "internalType": "contract IVerifier",
          "name": "_verifier",
          "type": "address"
        },
        {
          "internalType": "uint256",
          "name": "groupDepth",
          "type": "uint256"
        },
        {
          "internalType": "contract SbtInterface",
          "name": "_iSbt",
          "type": "address"
        }
      ],
      "name": "initialize",
      "outputs": [],
      "stateMutability": "nonpayable",
      "type": "function"
    },
    {
      "inputs": [],
      "name": "latestStartGroupId",
      "outputs": [
        {
          "internalType": "uint256",
          "name": "",
          "type": "uint256"
        }
      ],
      "stateMutability": "view",
      "type": "function"
    },
    {
      "inputs": [
        {
          "internalType": "uint256[]",
          "name": "identity",
          "type": "uint256[]"
        },
        {
          "internalType": "uint256[]",
          "name": "sbt",
          "type": "uint256[]"
        },
        {
          "internalType": "bytes[]",
          "name": "certificate_signature",
          "type": "bytes[]"
        }
      ],
      "name": "mint",
      "outputs": [],
      "stateMutability": "nonpayable",
      "type": "function"
    },
    {
      "inputs": [],
      "name": "owner",
      "outputs": [
        {
          "internalType": "address",
          "name": "",
          "type": "address"
        }
      ],
      "stateMutability": "view",
      "type": "function"
    },
    {
      "inputs": [
        {
          "internalType": "uint256",
          "name": "",
          "type": "uint256"
        }
      ],
      "name": "pools",
      "outputs": [
        {
          "internalType": "uint256",
          "name": "id",
          "type": "uint256"
        },
        {
          "internalType": "string",
          "name": "name",
          "type": "string"
        },
        {
          "internalType": "uint256",
          "name": "depth",
          "type": "uint256"
        },
        {
          "internalType": "uint256",
          "name": "salt",
          "type": "uint256"
        },
        {
          "internalType": "uint256",
          "name": "amount",
          "type": "uint256"
        }
      ],
      "stateMutability": "view",
      "type": "function"
    },
    {
      "inputs": [],
      "name": "renounceOwnership",
      "outputs": [],
      "stateMutability": "nonpayable",
      "type": "function"
    },
    {
      "inputs": [
        {
          "internalType": "uint256",
          "name": "identity",
          "type": "uint256"
        },
        {
          "internalType": "uint256",
          "name": "sbt",
          "type": "uint256"
        }
      ],
      "name": "sbt_claim_message",
      "outputs": [
        {
          "internalType": "bytes",
          "name": "",
          "type": "bytes"
        }
      ],
      "stateMutability": "pure",
      "type": "function"
    },
    {
      "inputs": [
        {
          "internalType": "uint256",
          "name": "",
          "type": "uint256"
        },
        {
          "internalType": "uint256",
          "name": "",
          "type": "uint256"
        }
      ],
      "name": "sbt_identity_group",
      "outputs": [
        {
          "internalType": "uint256",
          "name": "",
          "type": "uint256"
        }
      ],
      "stateMutability": "view",
      "type": "function"
    },
    {
      "inputs": [
        {
          "internalType": "uint256",
          "name": "",
          "type": "uint256"
        },
        {
          "internalType": "uint256",
          "name": "",
          "type": "uint256"
        }
      ],
      "name": "sbt_minted",
      "outputs": [
        {
          "internalType": "uint256",
          "name": "",
          "type": "uint256"
        }
      ],
      "stateMutability": "view",
      "type": "function"
    },
    {
      "inputs": [
        {
          "internalType": "address",
          "name": "_newZkSbtAddress",
          "type": "address"
        }
      ],
      "name": "setZkSbtAddress",
      "outputs": [],
      "stateMutability": "nonpayable",
      "type": "function"
    },
    {
      "inputs": [
        {
          "internalType": "address",
          "name": "newOwner",
          "type": "address"
        }
      ],
      "name": "transferOwnership",
      "outputs": [],
      "stateMutability": "nonpayable",
      "type": "function"
    },
    {
      "inputs": [
        {
          "internalType": "uint256",
          "name": "",
          "type": "uint256"
        }
      ],
      "name": "verifiers",
      "outputs": [
        {
          "internalType": "contract IVerifier",
          "name": "",
          "type": "address"
        }
      ],
      "stateMutability": "view",
      "type": "function"
    },
    {
      "inputs": [
        {
          "internalType": "uint256",
          "name": "sbt",
          "type": "uint256"
        },
        {
          "internalType": "uint256",
          "name": "groupId",
          "type": "uint256"
        },
        {
          "internalType": "uint256",
          "name": "nullifierHash",
          "type": "uint256"
        },
        {
          "internalType": "uint256[8]",
          "name": "proof",
          "type": "uint256[8]"
        }
      ],
      "name": "verify",
      "outputs": [],
      "stateMutability": "nonpayable",
      "type": "function"
    },
    {
      "inputs": [
        {
          "internalType": "uint256",
          "name": "sbt",
          "type": "uint256"
        },
        {
          "internalType": "uint256",
          "name": "groupId",
          "type": "uint256"
        },
        {
          "internalType": "uint256",
          "name": "merkle_root",
          "type": "uint256"
        },
        {
          "internalType": "uint256",
          "name": "nullifierHash",
          "type": "uint256"
        },
        {
          "internalType": "uint256[8]",
          "name": "proof",
          "type": "uint256[8]"
        },
        {
          "internalType": "uint256",
          "name": "salt",
          "type": "uint256"
        }
      ],
      "name": "verifyWithRootAndSalt",
      "outputs": [],
      "stateMutability": "nonpayable",
      "type": "function"
    },
    {
      "inputs": [
        {
          "internalType": "uint256",
          "name": "sbt",
          "type": "uint256"
        },
        {
          "internalType": "uint256",
          "name": "groupId",
          "type": "uint256"
        },
        {
          "internalType": "uint256",
          "name": "nullifierHash",
          "type": "uint256"
        },
        {
          "internalType": "uint256[8]",
          "name": "proof",
          "type": "uint256[8]"
        },
        {
          "internalType": "uint256",
          "name": "salt",
          "type": "uint256"
        }
      ],
      "name": "verifyWithSalt",
      "outputs": [],
      "stateMutability": "nonpayable",
      "type": "function"
    },
    {
      "inputs": [],
      "name": "version",
      "outputs": [
        {
          "internalType": "bytes",
          "name": "",
          "type": "bytes"
        }
      ],
      "stateMutability": "view",
      "type": "function"
    }
  ],
  "bytecode": "0x608060405234801561001057600080fd5b506144e9806100206000396000f3fe608060405234801561001057600080fd5b50600436106101735760003560e01c8063855fbdf2116100de578063bd86203411610097578063dabc4d5111610071578063dabc4d5114610474578063de27170a146104a4578063f04d5e99146104c0578063f2fde38b146104f057610173565b8063bd8620341461040a578063c350a1b514610428578063c6898a261461044457610173565b8063855fbdf21461031e5780638da5cb5b1461034e57806390e5ff631461036c578063aac79d7214610388578063ac1eff68146103a6578063ac4afa38146103d657610173565b806354fd4d501161013057806354fd4d501461024a578063638480be146102685780636389e107146102985780636d529a1c146102c85780636d9985b1146102e4578063715018a61461031457610173565b806301d7b7e5146101785780630b5bbccb1461019457806313efaaaa146101b25780631d2277f1146101ce5780633cd7550d146101fe578063417c4fa71461022e575b600080fd5b610192600480360381019061018d9190612f85565b61050c565b005b61019c610539565b6040516101a99190613ae2565b60405180910390f35b6101cc60048036038101906101c79190612f21565b61053f565b005b6101e860048036038101906101e39190612e50565b6105bf565b6040516101f59190613ac0565b60405180910390f35b61021860048036038101906102139190612ee5565b6106c0565b604051610225919061386d565b60405180910390f35b61024860048036038101906102439190612d0b565b610768565b005b610252610836565b60405161025f919061386d565b60405180910390f35b610282600480360381019061027d9190612e50565b61086f565b60405161028f9190613ae2565b60405180910390f35b6102b260048036038101906102ad9190612e50565b61088e565b6040516102bf9190613ae2565b60405180910390f35b6102e260048036038101906102dd9190612ffe565b6108ad565b005b6102fe60048036038101906102f99190612e79565b610d72565b60405161030b9190613ae2565b60405180910390f35b61031c610dd5565b005b61033860048036038101906103339190613089565b610de9565b6040516103459190613ac0565b60405180910390f35b610356610efe565b60405161036391906137bf565b60405180910390f35b61038660048036038101906103819190612ee5565b610f28565b005b610390610fd0565b60405161039d9190613ae2565b60405180910390f35b6103c060048036038101906103bb9190612e50565b610fd6565b6040516103cd919061388f565b60405180910390f35b6103f060048036038101906103eb9190612e50565b611009565b604051610401959493929190613afd565b60405180910390f35b6104126110c7565b60405161041f91906138aa565b60405180910390f35b610442600480360381019061043d9190612e01565b6110ed565b005b61045e60048036038101906104599190612ee5565b611458565b60405161046b9190613ae2565b60405180910390f35b61048e60048036038101906104899190612e50565b61147d565b60405161049b9190613ae2565b60405180910390f35b6104be60048036038101906104b99190612d34565b61149c565b005b6104da60048036038101906104d59190612ee5565b611bd4565b6040516104e79190613ae2565b60405180910390f35b61050a60048036038101906105059190612d0b565b611bf9565b005b6105168486610f28565b60006105218561147d565b90506105318686838787876108ad565b505050505050565b60045481565b6105498385610f28565b60006105548461147d565b905061057085858386866105678b6105bf565b606001516108ad565b60016006600061057f88611c7d565b6fffffffffffffffffffffffffffffffff16815260200190815260200160002060030160008282546105b19190613d96565b925050819055505050505050565b6105c7612abf565b600660006105d484611c7d565b6fffffffffffffffffffffffffffffffff1681526020019081526020016000206040518060a0016040529081600082015481526020016001820180546106199061402b565b80601f01602080910402602001604051908101604052809291908181526020018280546106459061402b565b80156106925780601f1061066757610100808354040283529160200191610692565b820191906000526020600020905b81548152906001019060200180831161067557829003601f168201915b5050505050815260200160028201548152602001600382015481526020016004820154815250509050919050565b6060604051806060016040528060238152602001614491602391396106e484611c8b565b6106ff6106f085611daf565b67ffffffffffffffff16611c8b565b61071a61070b86611dbd565b67ffffffffffffffff16611c8b565b61073d61072687611dd5565b6fffffffffffffffffffffffffffffffff16611c8b565b6040516020016107519594939291906136ee565b604051602081830303815290604052905092915050565b610770611df1565b6000600560009054906101000a900473ffffffffffffffffffffffffffffffffffffffff16905081600560006101000a81548173ffffffffffffffffffffffffffffffffffffffff021916908373ffffffffffffffffffffffffffffffffffffffff1602179055508173ffffffffffffffffffffffffffffffffffffffff168173ffffffffffffffffffffffffffffffffffffffff167f11a7c3b8107d993bc669b5867b58e002c54e379b04105f91481b7860c57e6b9760405160405180910390a35050565b6040518060400160405280600381526020017f302e35000000000000000000000000000000000000000000000000000000000081525081565b6000806000838152602001908152602001600020600201549050919050565b6000806000838152602001908152602001600020600001549050919050565b6108b78587610f28565b60006108c28661088e565b90506000600367ffffffffffffffff811115610907577f4e487b7100000000000000000000000000000000000000000000000000000000600052604160045260246000fd5b6040519080825280602002602001820160405280156109355781602001602082028036833780820191505090505b5090508581600081518110610973577f4e487b7100000000000000000000000000000000000000000000000000000000600052603260045260246000fd5b60200260200101818152505084816001815181106109ba577f4e487b7100000000000000000000000000000000000000000000000000000000600052603260045260246000fd5b6020026020010181815250508281600281518110610a01577f4e487b7100000000000000000000000000000000000000000000000000000000600052603260045260246000fd5b60200260200101818152505060006002600084815260200190815260200160002060009054906101000a900473ffffffffffffffffffffffffffffffffffffffff1673ffffffffffffffffffffffffffffffffffffffff1663c32e370e604051806040016040528088600060088110610aa3577f4e487b7100000000000000000000000000000000000000000000000000000000600052603260045260246000fd5b6020020135815260200188600160088110610ae7577f4e487b7100000000000000000000000000000000000000000000000000000000600052603260045260246000fd5b6020020135815250604051806040016040528060405180604001604052808b600260088110610b3f577f4e487b7100000000000000000000000000000000000000000000000000000000600052603260045260246000fd5b602002013581526020018b600360088110610b83577f4e487b7100000000000000000000000000000000000000000000000000000000600052603260045260246000fd5b6020020135815250815260200160405180604001604052808b600460088110610bd5577f4e487b7100000000000000000000000000000000000000000000000000000000600052603260045260246000fd5b602002013581526020018b600560088110610c19577f4e487b7100000000000000000000000000000000000000000000000000000000600052603260045260246000fd5b602002013581525081525060405180604001604052808a600660088110610c69577f4e487b7100000000000000000000000000000000000000000000000000000000600052603260045260246000fd5b602002013581526020018a600760088110610cad577f4e487b7100000000000000000000000000000000000000000000000000000000600052603260045260246000fd5b6020020135815250866040518563ffffffff1660e01b8152600401610cd594939291906137da565b60206040518083038186803b158015610ced57600080fd5b505afa158015610d01573d6000803e3d6000fd5b505050506040513d601f19601f82011682018060405250810190610d259190612dd8565b905080610d67576040517f08c379a0000000000000000000000000000000000000000000000000000000008152600401610d5e90613960565b60405180910390fd5b505050505050505050565b6000610d7c611df1565b610dcb8585858080601f016020809104026020016040519081016040528093929190818152602001838380828437600081840152601f19601f8201169050808301925050505050505084611e6f565b9050949350505050565b610ddd611df1565b610de76000611f2a565b565b610df1612abf565b60066000836040610e029190613e26565b67ffffffffffffffff168567ffffffffffffffff16901b67ffffffffffffffff1681526020019081526020016000206040518060a001604052908160008201548152602001600182018054610e569061402b565b80601f0160208091040260200160405190810160405280929190818152602001828054610e829061402b565b8015610ecf5780601f10610ea457610100808354040283529160200191610ecf565b820191906000526020600020905b815481529060010190602001808311610eb257829003601f168201915b505050505081526020016002820154815260200160038201548152602001600482015481525050905092915050565b6000600160009054906101000a900473ffffffffffffffffffffffffffffffffffffffff16905090565b6000610f33826105bf565b60000151905080831015610f7c576040517f08c379a0000000000000000000000000000000000000000000000000000000008152600401610f7390613a40565b60405180910390fd5b60045481610f8a9190613d96565b8310610fcb576040517f08c379a0000000000000000000000000000000000000000000000000000000008152600401610fc290613a20565b60405180910390fd5b505050565b60035481565b60026020528060005260406000206000915054906101000a900473ffffffffffffffffffffffffffffffffffffffff1681565b60066020528060005260406000206000915090508060000154908060010180546110329061402b565b80601f016020809104026020016040519081016040528092919081815260200182805461105e9061402b565b80156110ab5780601f10611080576101008083540402835291602001916110ab565b820191906000526020600020905b81548152906001019060200180831161108e57829003601f168201915b5050505050908060020154908060030154908060040154905085565b600560009054906101000a900473ffffffffffffffffffffffffffffffffffffffff1681565b6000600160159054906101000a900460ff16159050808015611120575060018060149054906101000a900460ff1660ff16105b8061114e575061112f30611ff0565b15801561114d575060018060149054906101000a900460ff1660ff16145b5b61118d576040517f08c379a0000000000000000000000000000000000000000000000000000000008152600401611184906139c0565b60405180910390fd5b60018060146101000a81548160ff021916908360ff16021790555080156111c95760018060156101000a81548160ff0219169083151502179055505b6111d1612013565b8260806111de9190613e95565b600481905550836002600085815260200190815260200160002060006101000a81548173ffffffffffffffffffffffffffffffffffffffff021916908373ffffffffffffffffffffffffffffffffffffffff16021790555060006003819055506112fa6112be6000600181111561127e577f4e487b7100000000000000000000000000000000000000000000000000000000600052602160045260246000fd5b6003808111156112b7577f4e487b7100000000000000000000000000000000000000000000000000000000600052602160045260246000fd5b6000612025565b6040518060400160405280601281526020017f504f4d502d4554482d52414e47455f313030000000000000000000000000000081525085611e6f565b506113b661137a60018081111561133a577f4e487b7100000000000000000000000000000000000000000000000000000000600052602160045260246000fd5b600380811115611373577f4e487b7100000000000000000000000000000000000000000000000000000000600052602160045260246000fd5b6000612025565b6040518060400160405280601281526020017f504f4d502d424e422d52414e47455f313030000000000000000000000000000081525085611e6f565b5081600560006101000a81548173ffffffffffffffffffffffffffffffffffffffff021916908373ffffffffffffffffffffffffffffffffffffffff1602179055508015611452576000600160156101000a81548160ff0219169083151502179055507f7f26b83ff96e1f2b6a682f133852f6798a09c465da95921460cefb3847402498600160405161144991906138c5565b60405180910390a15b50505050565b6007602052816000526040600020602052806000526040600020600091509150505481565b6000806000838152602001908152602001600020600101549050919050565b6114a4611df1565b60005b86869050811015611bcb57600061153c8888848181106114f0577f4e487b7100000000000000000000000000000000000000000000000000000000600052603260045260246000fd5b90506020020135878785818110611530577f4e487b7100000000000000000000000000000000000000000000000000000000600052603260045260246000fd5b905060200201356106c0565b9050600061154982612099565b905060006115e48287878781811061158a577f4e487b7100000000000000000000000000000000000000000000000000000000600052603260045260246000fd5b905060200281019061159c9190613bfc565b8080601f016020809104026020016040519081016040528093929190818152602001838380828437600081840152601f19601f820116905080830192505050505050506120d4565b90506115ee610efe565b73ffffffffffffffffffffffffffffffffffffffff168173ffffffffffffffffffffffffffffffffffffffff161461165b576040517f08c379a0000000000000000000000000000000000000000000000000000000008152600401611652906139a0565b60405180910390fd5b6000600760006116a98b8b8981811061169d577f4e487b7100000000000000000000000000000000000000000000000000000000600052603260045260246000fd5b90506020020135611c7d565b6fffffffffffffffffffffffffffffffff16815260200190815260200160002060008c8c88818110611704577f4e487b7100000000000000000000000000000000000000000000000000000000600052603260045260246000fd5b905060200201358152602001908152602001600020541461175a576040517f08c379a000000000000000000000000000000000000000000000000000000000815260040161175190613920565b60405180910390fd5b6117e2888886818110611796577f4e487b7100000000000000000000000000000000000000000000000000000000600052603260045260246000fd5b905060200201358b8b878181106117d6577f4e487b7100000000000000000000000000000000000000000000000000000000600052603260045260246000fd5b905060200201356120fb565b61182a88888681811061181e577f4e487b7100000000000000000000000000000000000000000000000000000000600052603260045260246000fd5b90506020020135611dd5565b6fffffffffffffffffffffffffffffffff16600760006118888b8b8981811061187c577f4e487b7100000000000000000000000000000000000000000000000000000000600052603260045260246000fd5b90506020020135611c7d565b6fffffffffffffffffffffffffffffffff16815260200190815260200160002060008c8c888181106118e3577f4e487b7100000000000000000000000000000000000000000000000000000000600052603260045260246000fd5b905060200201358152602001908152602001600020819055506000600560009054906101000a900473ffffffffffffffffffffffffffffffffffffffff1673ffffffffffffffffffffffffffffffffffffffff166245c88d8c8c88818110611974577f4e487b7100000000000000000000000000000000000000000000000000000000600052603260045260246000fd5b905060200201356119c38c8c8a8181106119b7577f4e487b7100000000000000000000000000000000000000000000000000000000600052603260045260246000fd5b90506020020135611daf565b611a0b8d8d8b8181106119ff577f4e487b7100000000000000000000000000000000000000000000000000000000600052603260045260246000fd5b90506020020135611dbd565b8d8d8b818110611a44577f4e487b7100000000000000000000000000000000000000000000000000000000600052603260045260246000fd5b905060200201356040518563ffffffff1660e01b8152600401611a6a9493929190613bb7565b602060405180830381600087803b158015611a8457600080fd5b505af1158015611a98573d6000803e3d6000fd5b505050506040513d601f19601f82011682018060405250810190611abc9190612dd8565b905080611afe576040517f08c379a0000000000000000000000000000000000000000000000000000000008152600401611af5906139e0565b60405180910390fd5b8a8a86818110611b37577f4e487b7100000000000000000000000000000000000000000000000000000000600052603260045260246000fd5b905060200201357f893774c134c8642424126673a3dfcb58f0d67c9c36dc2eda74eada471a00b2dc8a8a88818110611b98577f4e487b7100000000000000000000000000000000000000000000000000000000600052603260045260246000fd5b90506020020135604051611bac9190613ae2565b60405180910390a2505050508080611bc39061405d565b9150506114a7565b50505050505050565b6008602052816000526040600020602052806000526040600020600091509150505481565b611c01611df1565b600073ffffffffffffffffffffffffffffffffffffffff168173ffffffffffffffffffffffffffffffffffffffff161415611c71576040517f08c379a0000000000000000000000000000000000000000000000000000000008152600401611c6890613940565b60405180910390fd5b611c7a81611f2a565b50565b6000608082901c9050919050565b606060006001611c9a84612205565b01905060008167ffffffffffffffff811115611cdf577f4e487b7100000000000000000000000000000000000000000000000000000000600052604160045260246000fd5b6040519080825280601f01601f191660200182016040528015611d115781602001600182028036833780820191505090505b509050600082602001820190505b600115611da4578080600190039150507f3031323334353637383961626364656600000000000000000000000000000000600a86061a8153600a8581611d8e577f4e487b7100000000000000000000000000000000000000000000000000000000600052601260045260246000fd5b0494506000851415611d9f57611da4565b611d1f565b819350505050919050565b600060c082901c9050919050565b600067ffffffffffffffff608083901c169050919050565b60006fffffffffffffffffffffffffffffffff82169050919050565b611df961243c565b73ffffffffffffffffffffffffffffffffffffffff16611e17610efe565b73ffffffffffffffffffffffffffffffffffffffff1614611e6d576040517f08c379a0000000000000000000000000000000000000000000000000000000008152600401611e6490613a00565b60405180910390fd5b565b6000611e7d60035483612444565b6040518060a00160405280600354815260200184815260200183815260200160008152602001600081525060066000868152602001908152602001600020600082015181600001556020820151816001019080519060200190611ee1929190612aee565b5060408201518160020155606082015181600301556080820151816004015590505060045460036000828254611f179190613d96565b9250508190555060035490509392505050565b6000600160009054906101000a900473ffffffffffffffffffffffffffffffffffffffff16905081600160006101000a81548173ffffffffffffffffffffffffffffffffffffffff021916908373ffffffffffffffffffffffffffffffffffffffff1602179055508173ffffffffffffffffffffffffffffffffffffffff168173ffffffffffffffffffffffffffffffffffffffff167f8be0079c531659141344cd1fd0a4f28419497f9722a3daafe3b4186f6b6457e060405160405180910390a35050565b6000808273ffffffffffffffffffffffffffffffffffffffff163b119050919050565b61202361201e61243c565b611f2a565b565b6000808360206120359190613dec565b63ffffffff168563ffffffff16901b63ffffffff16905061208f600280811115612088577f4e487b7100000000000000000000000000000000000000000000000000000000600052602160045260246000fd5b8285612575565b9150509392505050565b60006120a58251611c8b565b826040516020016120b7929190613775565b604051602081830303815290604052805190602001209050919050565b60008060006120e385856125c5565b915091506120f081612617565b819250505092915050565b60006006600061210a85611c7d565b6fffffffffffffffffffffffffffffffff1681526020019081526020016000209050600081600001549050600082600201546002901b836004015461214f9190613e64565b8261215a9190613d96565b9050600083600201546002901b846004015461217691906140b0565b141561219757612196816121899061405d565b9150818460020154612444565b5b6121a181856128b5565b80600860006121af88611c7d565b6fffffffffffffffffffffffffffffffff1681526020019081526020016000206000868152602001908152602001600020819055508260040160008154809291906121f99061405d565b91905055505050505050565b600080600090507a184f03e93ff9f4daa797ed6e38ed64bf6a1f0100000000000000008310612289577a184f03e93ff9f4daa797ed6e38ed64bf6a1f010000000000000000838161227f577f4e487b7100000000000000000000000000000000000000000000000000000000600052601260045260246000fd5b0492506040810190505b6d04ee2d6d415b85acef810000000083106122ec576d04ee2d6d415b85acef810000000083816122e2577f4e487b7100000000000000000000000000000000000000000000000000000000600052601260045260246000fd5b0492506020810190505b662386f26fc10000831061234157662386f26fc100008381612337577f4e487b7100000000000000000000000000000000000000000000000000000000600052601260045260246000fd5b0492506010810190505b6305f5e1008310612390576305f5e1008381612386577f4e487b7100000000000000000000000000000000000000000000000000000000600052601260045260246000fd5b0492506008810190505b61271083106123db5761271083816123d1577f4e487b7100000000000000000000000000000000000000000000000000000000600052601260045260246000fd5b0492506004810190505b60648310612424576064838161241a577f4e487b7100000000000000000000000000000000000000000000000000000000600052601260045260246000fd5b0492506002810190505b600a8310612433576001810190505b80915050919050565b600033905090565b600061244f8361088e565b14612486576040517f8121725b00000000000000000000000000000000000000000000000000000000815260040160405180910390fd5b600060088360405160200161249b91906137a4565b6040516020818303038152906040528051906020012060001c901c905060008084815260200190815260200160002073__$0c6eb7207c37accf1552a1c47686411ac0$__631095fbb4909184846040518463ffffffff1660e01b815260040161250693929190613a89565b60006040518083038186803b15801561251e57600080fd5b505af4158015612532573d6000803e3d6000fd5b50505050827f0d000126c26c1bbe400fd2332187f75d58b69306f9ec47b408686189d3a008338383604051612568929190613b57565b60405180910390a2505050565b60008160806125849190613d50565b6fffffffffffffffffffffffffffffffff168367ffffffffffffffff1660c06125ad9190613d96565b8567ffffffffffffffff16901b901b90509392505050565b6000806041835114156126075760008060006020860151925060408601519150606086015160001a90506125fb878285856129dc565b94509450505050612610565b60006002915091505b9250929050565b60006004811115612651577f4e487b7100000000000000000000000000000000000000000000000000000000600052602160045260246000fd5b81600481111561268a577f4e487b7100000000000000000000000000000000000000000000000000000000600052602160045260246000fd5b1415612695576128b2565b600160048111156126cf577f4e487b7100000000000000000000000000000000000000000000000000000000600052602160045260246000fd5b816004811115612708577f4e487b7100000000000000000000000000000000000000000000000000000000600052602160045260246000fd5b1415612749576040517f08c379a0000000000000000000000000000000000000000000000000000000008152600401612740906138e0565b60405180910390fd5b60026004811115612783577f4e487b7100000000000000000000000000000000000000000000000000000000600052602160045260246000fd5b8160048111156127bc577f4e487b7100000000000000000000000000000000000000000000000000000000600052602160045260246000fd5b14156127fd576040517f08c379a00000000000000000000000000000000000000000000000000000000081526004016127f490613900565b60405180910390fd5b60036004811115612837577f4e487b7100000000000000000000000000000000000000000000000000000000600052602160045260246000fd5b816004811115612870577f4e487b7100000000000000000000000000000000000000000000000000000000600052602160045260246000fd5b14156128b1576040517f08c379a00000000000000000000000000000000000000000000000000000000081526004016128a890613980565b60405180910390fd5b5b50565b60006128c08361088e565b14156128f8576040517f029f057900000000000000000000000000000000000000000000000000000000815260040160405180910390fd5b60008083815260200190815260200160002073__$0c6eb7207c37accf1552a1c47686411ac0$__63168703fa9091836040518363ffffffff1660e01b8152600401612944929190613a60565b60006040518083038186803b15801561295c57600080fd5b505af4158015612970573d6000803e3d6000fd5b50505050600061297f8361147d565b90506000600161298e8561086f565b6129989190613e95565b9050837f19239b3f93cd10558aaf11423af70c77763bf54f52bcc75bfa74d4d13548cde98285856040516129ce93929190613b80565b60405180910390a250505050565b6000807f7fffffffffffffffffffffffffffffff5d576e7357a4501ddfe92f46681b20a08360001c1115612a17576000600391509150612ab6565b600060018787878760405160008152602001604052604051612a3c9493929190613828565b6020604051602081039080840390855afa158015612a5e573d6000803e3d6000fd5b505050602060405103519050600073ffffffffffffffffffffffffffffffffffffffff168173ffffffffffffffffffffffffffffffffffffffff161415612aad57600060019250925050612ab6565b80600092509250505b94509492505050565b6040518060a0016040528060008152602001606081526020016000815260200160008152602001600081525090565b828054612afa9061402b565b90600052602060002090601f016020900481019282612b1c5760008555612b63565b82601f10612b3557805160ff1916838001178555612b63565b82800160010185558215612b63579182015b82811115612b62578251825591602001919060010190612b47565b5b509050612b709190612b74565b5090565b5b80821115612b8d576000816000905550600101612b75565b5090565b600081359050612ba081614406565b92915050565b60008083601f840112612bb857600080fd5b8235905067ffffffffffffffff811115612bd157600080fd5b602083019150836020820283011115612be957600080fd5b9250929050565b600081905082602060080282011115612c0857600080fd5b92915050565b60008083601f840112612c2057600080fd5b8235905067ffffffffffffffff811115612c3957600080fd5b602083019150836020820283011115612c5157600080fd5b9250929050565b600081519050612c678161441d565b92915050565b600081359050612c7c81614434565b92915050565b600081359050612c918161444b565b92915050565b60008083601f840112612ca957600080fd5b8235905067ffffffffffffffff811115612cc257600080fd5b602083019150836001820283011115612cda57600080fd5b9250929050565b600081359050612cf081614462565b92915050565b600081359050612d0581614479565b92915050565b600060208284031215612d1d57600080fd5b6000612d2b84828501612b91565b91505092915050565b60008060008060008060608789031215612d4d57600080fd5b600087013567ffffffffffffffff811115612d6757600080fd5b612d7389828a01612c0e565b9650965050602087013567ffffffffffffffff811115612d9257600080fd5b612d9e89828a01612c0e565b9450945050604087013567ffffffffffffffff811115612dbd57600080fd5b612dc989828a01612ba6565b92509250509295509295509295565b600060208284031215612dea57600080fd5b6000612df884828501612c58565b91505092915050565b600080600060608486031215612e1657600080fd5b6000612e2486828701612c6d565b9350506020612e3586828701612ce1565b9250506040612e4686828701612c82565b9150509250925092565b600060208284031215612e6257600080fd5b6000612e7084828501612ce1565b91505092915050565b60008060008060608587031215612e8f57600080fd5b6000612e9d87828801612ce1565b945050602085013567ffffffffffffffff811115612eba57600080fd5b612ec687828801612c97565b93509350506040612ed987828801612ce1565b91505092959194509250565b60008060408385031215612ef857600080fd5b6000612f0685828601612ce1565b9250506020612f1785828601612ce1565b9150509250929050565b6000806000806101608587031215612f3857600080fd5b6000612f4687828801612ce1565b9450506020612f5787828801612ce1565b9350506040612f6887828801612ce1565b9250506060612f7987828801612bf0565b91505092959194509250565b60008060008060006101808688031215612f9e57600080fd5b6000612fac88828901612ce1565b9550506020612fbd88828901612ce1565b9450506040612fce88828901612ce1565b9350506060612fdf88828901612bf0565b925050610160612ff188828901612ce1565b9150509295509295909350565b6000806000806000806101a0878903121561301857600080fd5b600061302689828a01612ce1565b965050602061303789828a01612ce1565b955050604061304889828a01612ce1565b945050606061305989828a01612ce1565b935050608061306a89828a01612bf0565b92505061018061307c89828a01612ce1565b9150509295509295509295565b6000806040838503121561309c57600080fd5b60006130aa85828601612cf6565b92505060206130bb85828601612cf6565b9150509250929050565b60006130d1838361315b565b60408301905092915050565b60006130e9838361368c565b60208301905092915050565b6130fe81613ec9565b82525050565b61310d81613c77565b6131178184613cd5565b925061312282613c53565b8060005b8381101561315357815161313a87826130c5565b965061314583613cae565b925050600181019050613126565b505050505050565b61316481613c82565b61316e8184613ce0565b925061317982613c5d565b8060005b838110156131aa57815161319187826130dd565b965061319c83613cbb565b92505060018101905061317d565b505050505050565b6131bb81613c82565b6131c58184613ceb565b92506131d082613c5d565b8060005b838110156132015781516131e887826130dd565b96506131f383613cbb565b9250506001810190506131d4565b505050505050565b600061321482613c8d565b61321e8185613cf6565b935061322983613c67565b8060005b8381101561325a57815161324188826130dd565b975061324c83613cc8565b92505060018101905061322d565b5085935050505092915050565b61327081613ee7565b82525050565b600061328182613c98565b61328b8185613d07565b935061329b818560208601613ff8565b6132a48161416e565b840191505092915050565b60006132ba82613c98565b6132c48185613d18565b93506132d4818560208601613ff8565b80840191505092915050565b6132e981613f8c565b82525050565b6132f881613fb0565b82525050565b61330781613fd4565b82525050565b600061331882613ca3565b6133228185613d23565b9350613332818560208601613ff8565b61333b8161416e565b840191505092915050565b600061335182613ca3565b61335b8185613d34565b935061336b818560208601613ff8565b6133748161416e565b840191505092915050565b600061338a82613ca3565b6133948185613d45565b93506133a4818560208601613ff8565b80840191505092915050565b60006133bd601883613d34565b91506133c88261417f565b602082019050919050565b60006133e0601f83613d34565b91506133eb826141a8565b602082019050919050565b6000613403600c83613d34565b915061340e826141d1565b602082019050919050565b6000613426602683613d34565b9150613431826141fa565b604082019050919050565b6000613449600e83613d34565b915061345482614249565b602082019050919050565b7f2073627420696420000000000000000000000000000000000000000000000000815250565b6000613492602283613d34565b915061349d82614272565b604082019050919050565b60006134b5601e83613d34565b91506134c0826142c1565b602082019050919050565b7f206964656e746974792000000000000000000000000000000000000000000000815250565b60006134fe602e83613d34565b9150613509826142ea565b604082019050919050565b6000613521601483613d34565b915061352c82614339565b602082019050919050565b7f2073627420617474726962757465200000000000000000000000000000000000815250565b600061356a602083613d34565b915061357582614362565b602082019050919050565b600061358d601a83613d45565b91506135988261438b565b601a82019050919050565b60006135b0600b83613d34565b91506135bb826143b4565b602082019050919050565b7f207362742063617465676f727920000000000000000000000000000000000000815250565b60006135f9600d83613d34565b9150613604826143dd565b602082019050919050565b8082525050565b600060a08301600083015161362e600086018261368c565b5060208301518482036020860152613646828261330d565b915050604083015161365b604086018261368c565b50606083015161366e606086018261368c565b506080830151613681608086018261368c565b508091505092915050565b61369581613f51565b82525050565b6136a481613f51565b82525050565b6136b381613f51565b82525050565b6136ca6136c582613f51565b6140a6565b82525050565b6136d981613fe6565b82525050565b6136e881613f7f565b82525050565b60006136fa82886132af565b9150613705826134cb565b600a8201915061371582876132af565b9150613720826135c6565b600e8201915061373082866132af565b915061373b82613537565b600f8201915061374b82856132af565b91506137568261345f565b60088201915061376682846132af565b91508190509695505050505050565b600061378082613580565b915061378c828561337f565b915061379882846132af565b91508190509392505050565b60006137b082846136b9565b60208201915081905092915050565b60006020820190506137d460008301846130f5565b92915050565b6000610120820190506137f060008301876131b2565b6137fd6040830186613104565b61380a60c08301856131b2565b81810361010083015261381d8184613209565b905095945050505050565b600060808201905061383d6000830187613267565b61384a60208301866136df565b6138576040830185613267565b6138646060830184613267565b95945050505050565b600060208201905081810360008301526138878184613276565b905092915050565b60006020820190506138a460008301846132e0565b92915050565b60006020820190506138bf60008301846132ef565b92915050565b60006020820190506138da60008301846132fe565b92915050565b600060208201905081810360008301526138f9816133b0565b9050919050565b60006020820190508181036000830152613919816133d3565b9050919050565b60006020820190508181036000830152613939816133f6565b9050919050565b6000602082019050818103600083015261395981613419565b9050919050565b600060208201905081810360008301526139798161343c565b9050919050565b6000602082019050818103600083015261399981613485565b9050919050565b600060208201905081810360008301526139b9816134a8565b9050919050565b600060208201905081810360008301526139d9816134f1565b9050919050565b600060208201905081810360008301526139f981613514565b9050919050565b60006020820190508181036000830152613a198161355d565b9050919050565b60006020820190508181036000830152613a39816135a3565b9050919050565b60006020820190508181036000830152613a59816135ec565b9050919050565b6000604082019050613a75600083018561360f565b613a8260208301846136aa565b9392505050565b6000606082019050613a9e600083018661360f565b613aab60208301856136aa565b613ab860408301846136aa565b949350505050565b60006020820190508181036000830152613ada8184613616565b905092915050565b6000602082019050613af7600083018461369b565b92915050565b600060a082019050613b12600083018861369b565b8181036020830152613b248187613346565b9050613b33604083018661369b565b613b40606083018561369b565b613b4d608083018461369b565b9695505050505050565b6000604082019050613b6c600083018561369b565b613b79602083018461369b565b9392505050565b6000606082019050613b95600083018661369b565b613ba2602083018561369b565b613baf604083018461369b565b949350505050565b6000608082019050613bcc600083018761369b565b613bd960208301866136d0565b613be660408301856136d0565b613bf3606083018461369b565b95945050505050565b60008083356001602003843603038112613c1557600080fd5b80840192508235915067ffffffffffffffff821115613c3357600080fd5b602083019250600182023603831315613c4b57600080fd5b509250929050565b6000819050919050565b6000819050919050565b6000819050602082019050919050565b600060029050919050565b600060029050919050565b600081519050919050565b600081519050919050565b600081519050919050565b6000602082019050919050565b6000602082019050919050565b6000602082019050919050565b600081905092915050565b600081905092915050565b600081905092915050565b600082825260208201905092915050565b600082825260208201905092915050565b600081905092915050565b600082825260208201905092915050565b600082825260208201905092915050565b600081905092915050565b6000613d5b82613f15565b9150613d6683613f15565b9250826fffffffffffffffffffffffffffffffff03821115613d8b57613d8a6140e1565b5b828201905092915050565b6000613da182613f51565b9150613dac83613f51565b9250827fffffffffffffffffffffffffffffffffffffffffffffffffffffffffffffffff03821115613de157613de06140e1565b5b828201905092915050565b6000613df782613f5b565b9150613e0283613f5b565b92508263ffffffff03821115613e1b57613e1a6140e1565b5b828201905092915050565b6000613e3182613f6b565b9150613e3c83613f6b565b92508267ffffffffffffffff03821115613e5957613e586140e1565b5b828201905092915050565b6000613e6f82613f51565b9150613e7a83613f51565b925082613e8a57613e89614110565b5b828204905092915050565b6000613ea082613f51565b9150613eab83613f51565b925082821015613ebe57613ebd6140e1565b5b828203905092915050565b6000613ed482613f31565b9050919050565b60008115159050919050565b6000819050919050565b6000613efc82613ec9565b9050919050565b6000613f0e82613ec9565b9050919050565b60006fffffffffffffffffffffffffffffffff82169050919050565b600073ffffffffffffffffffffffffffffffffffffffff82169050919050565b6000819050919050565b600063ffffffff82169050919050565b600067ffffffffffffffff82169050919050565b600060ff82169050919050565b6000613f9782613f9e565b9050919050565b6000613fa982613f31565b9050919050565b6000613fbb82613fc2565b9050919050565b6000613fcd82613f31565b9050919050565b6000613fdf82613f7f565b9050919050565b6000613ff182613f6b565b9050919050565b60005b83811015614016578082015181840152602081019050613ffb565b83811115614025576000848401525b50505050565b6000600282049050600182168061404357607f821691505b602082108114156140575761405661413f565b5b50919050565b600061406882613f51565b91507fffffffffffffffffffffffffffffffffffffffffffffffffffffffffffffffff82141561409b5761409a6140e1565b5b600182019050919050565b6000819050919050565b60006140bb82613f51565b91506140c683613f51565b9250826140d6576140d5614110565b5b828206905092915050565b7f4e487b7100000000000000000000000000000000000000000000000000000000600052601160045260246000fd5b7f4e487b7100000000000000000000000000000000000000000000000000000000600052601260045260246000fd5b7f4e487b7100000000000000000000000000000000000000000000000000000000600052602260045260246000fd5b6000601f19601f8301169050919050565b7f45434453413a20696e76616c6964207369676e61747572650000000000000000600082015250565b7f45434453413a20696e76616c6964207369676e6174757265206c656e67746800600082015250565b7f7a6b736274206578697374210000000000000000000000000000000000000000600082015250565b7f4f776e61626c653a206e6577206f776e657220697320746865207a65726f206160008201527f6464726573730000000000000000000000000000000000000000000000000000602082015250565b7f70726f6f6620696e76616c696421000000000000000000000000000000000000600082015250565b7f45434453413a20696e76616c6964207369676e6174757265202773272076616c60008201527f7565000000000000000000000000000000000000000000000000000000000000602082015250565b7f496e76616c6964204365727469666963617465205369676e6174757265210000600082015250565b7f496e697469616c697a61626c653a20636f6e747261637420697320616c72656160008201527f647920696e697469616c697a6564000000000000000000000000000000000000602082015250565b7f6661696c656420746f206d696e74207a6b534254000000000000000000000000600082015250565b7f4f776e61626c653a2063616c6c6572206973206e6f7420746865206f776e6572600082015250565b7f19457468657265756d205369676e6564204d6573736167653a0a000000000000600082015250565b7f696420746f6f2062696721000000000000000000000000000000000000000000600082015250565b7f696420746f6f20736d616c6c2100000000000000000000000000000000000000600082015250565b61440f81613ec9565b811461441a57600080fd5b50565b61442681613edb565b811461443157600080fd5b50565b61443d81613ef1565b811461444857600080fd5b50565b61445481613f03565b811461445f57600080fd5b50565b61446b81613f51565b811461447657600080fd5b50565b61448281613f6b565b811461448d57600080fd5b5056fe5369676e2074686973206d65657361676520746f20636c61696d207a6b534254203a20a264697066735822122042f90a988e27fe23fc834949134c97b9487d175c3ee8f34be9995114e0ff4b4064736f6c63430008040033",
  "linkReferences": {
    "@zk-kit/incremental-merkle-tree.sol/IncrementalBinaryTree.sol": {
      "IncrementalBinaryTree": [
        {
          "length": 20,
          "start": 9452
        },
        {
          "length": 20,
          "start": 10540
        }
      ]
    }
  },
  "deployedLinkReferences": {
    "@zk-kit/incremental-merkle-tree.sol/IncrementalBinaryTree.sol": {
      "IncrementalBinaryTree": [
        {
          "length": 20,
          "start": 9420
        },
        {
          "length": 20,
          "start": 10508
        }
      ]
    }
  }
}