{
  "_format": "hh-sol-artifact-1",
  "contractName": "Zksbt",
  "sourceName": "contracts/zksbt.sol",
  "abi": [
    {
      "inputs": [],
      "name": "Semaphore__GroupAlreadyExists",
      "type": "error"
    },
    {
      "inputs": [],
      "name": "Semaphore__GroupDoesNotExist",
      "type": "error"
    },
    {
      "anonymous": false,
      "inputs": [
        {
          "indexed": true,
          "internalType": "uint256",
          "name": "groupId",
          "type": "uint256"
        },
        {
          "indexed": false,
          "internalType": "uint256",
          "name": "merkleTreeDepth",
          "type": "uint256"
        },
        {
          "indexed": false,
          "internalType": "uint256",
          "name": "zeroValue",
          "type": "uint256"
        }
      ],
      "name": "GroupCreated",
      "type": "event"
    },
    {
      "anonymous": false,
      "inputs": [
        {
          "indexed": false,
          "internalType": "uint8",
          "name": "version",
          "type": "uint8"
        }
      ],
      "name": "Initialized",
      "type": "event"
    },
    {
      "anonymous": false,
      "inputs": [
        {
          "indexed": true,
          "internalType": "uint256",
          "name": "groupId",
          "type": "uint256"
        },
        {
          "indexed": false,
          "internalType": "uint256",
          "name": "index",
          "type": "uint256"
        },
        {
          "indexed": false,
          "internalType": "uint256",
          "name": "identityCommitment",
          "type": "uint256"
        },
        {
          "indexed": false,
          "internalType": "uint256",
          "name": "merkleTreeRoot",
          "type": "uint256"
        }
      ],
      "name": "MemberAdded",
      "type": "event"
    },
    {
      "anonymous": false,
      "inputs": [
        {
          "indexed": true,
          "internalType": "uint256",
          "name": "groupId",
          "type": "uint256"
        },
        {
          "indexed": false,
          "internalType": "uint256",
          "name": "index",
          "type": "uint256"
        },
        {
          "indexed": false,
          "internalType": "uint256",
          "name": "identityCommitment",
          "type": "uint256"
        },
        {
          "indexed": false,
          "internalType": "uint256",
          "name": "merkleTreeRoot",
          "type": "uint256"
        }
      ],
      "name": "MemberRemoved",
      "type": "event"
    },
    {
      "anonymous": false,
      "inputs": [
        {
          "indexed": true,
          "internalType": "uint256",
          "name": "groupId",
          "type": "uint256"
        },
        {
          "indexed": false,
          "internalType": "uint256",
          "name": "index",
          "type": "uint256"
        },
        {
          "indexed": false,
          "internalType": "uint256",
          "name": "identityCommitment",
          "type": "uint256"
        },
        {
          "indexed": false,
          "internalType": "uint256",
          "name": "newIdentityCommitment",
          "type": "uint256"
        },
        {
          "indexed": false,
          "internalType": "uint256",
          "name": "merkleTreeRoot",
          "type": "uint256"
        }
      ],
      "name": "MemberUpdated",
      "type": "event"
    },
    {
      "anonymous": false,
      "inputs": [
        {
          "indexed": true,
          "internalType": "address",
          "name": "previousOwner",
          "type": "address"
        },
        {
          "indexed": true,
          "internalType": "address",
          "name": "newOwner",
          "type": "address"
        }
      ],
      "name": "OwnershipTransferred",
      "type": "event"
    },
    {
      "anonymous": false,
      "inputs": [
        {
          "indexed": true,
          "internalType": "uint256",
          "name": "identity",
          "type": "uint256"
        },
        {
          "indexed": false,
          "internalType": "uint256",
          "name": "category",
          "type": "uint256"
        },
        {
          "indexed": false,
          "internalType": "string",
          "name": "attribute",
          "type": "string"
        },
        {
          "indexed": false,
          "internalType": "uint256",
          "name": "id",
          "type": "uint256"
        }
      ],
      "name": "SbtMinted",
      "type": "event"
    },
    {
      "anonymous": false,
      "inputs": [
        {
          "indexed": true,
          "internalType": "address",
          "name": "oldAddress",
          "type": "address"
        },
        {
          "indexed": true,
          "internalType": "address",
          "name": "newAddress",
          "type": "address"
        }
      ],
      "name": "ZkSbtAddressChange",
      "type": "event"
    },
    {
      "inputs": [],
      "name": "VERSION",
      "outputs": [
        {
          "internalType": "bytes",
          "name": "",
          "type": "bytes"
        }
      ],
      "stateMutability": "view",
      "type": "function"
    },
    {
      "inputs": [
        {
          "internalType": "uint256",
          "name": "category",
          "type": "uint256"
        },
        {
          "internalType": "string",
          "name": "attribute",
          "type": "string"
        },
        {
          "internalType": "string",
          "name": "name",
          "type": "string"
        }
      ],
      "name": "addSbt",
      "outputs": [],
      "stateMutability": "nonpayable",
      "type": "function"
    },
    {
      "inputs": [
        {
          "internalType": "uint256",
          "name": "groupId",
          "type": "uint256"
        },
        {
          "internalType": "uint256",
          "name": "category",
          "type": "uint256"
        },
        {
          "internalType": "string",
          "name": "attribute",
          "type": "string"
        }
      ],
      "name": "checkGroupIdInSbtPool",
      "outputs": [],
      "stateMutability": "nonpayable",
      "type": "function"
    },
    {
      "inputs": [
        {
          "internalType": "uint256",
          "name": "groupId",
          "type": "uint256"
        }
      ],
      "name": "getMerkleTreeDepth",
      "outputs": [
        {
          "internalType": "uint256",
          "name": "",
          "type": "uint256"
        }
      ],
      "stateMutability": "view",
      "type": "function"
    },
    {
      "inputs": [
        {
          "internalType": "uint256",
          "name": "groupId",
          "type": "uint256"
        }
      ],
      "name": "getMerkleTreeRoot",
      "outputs": [
        {
          "internalType": "uint256",
          "name": "",
          "type": "uint256"
        }
      ],
      "stateMutability": "view",
      "type": "function"
    },
    {
      "inputs": [
        {
          "internalType": "uint256",
          "name": "groupId",
          "type": "uint256"
        }
      ],
      "name": "getNumberOfMerkleTreeLeaves",
      "outputs": [
        {
          "internalType": "uint256",
          "name": "",
          "type": "uint256"
        }
      ],
      "stateMutability": "view",
      "type": "function"
    },
    {
      "inputs": [
        {
          "internalType": "uint256",
          "name": "category",
          "type": "uint256"
        },
        {
          "internalType": "string",
          "name": "attribute",
          "type": "string"
        }
      ],
      "name": "getSbtPool",
      "outputs": [
        {
          "components": [
            {
              "internalType": "uint256",
              "name": "id",
              "type": "uint256"
            },
            {
              "internalType": "string",
              "name": "name",
              "type": "string"
            },
            {
              "internalType": "uint256",
              "name": "depth",
              "type": "uint256"
            },
            {
              "internalType": "uint256",
              "name": "salt",
              "type": "uint256"
            },
            {
              "internalType": "uint256",
              "name": "amount",
              "type": "uint256"
            },
            {
              "internalType": "uint256",
              "name": "category",
              "type": "uint256"
            },
            {
              "internalType": "string",
              "name": "attribute",
              "type": "string"
            }
          ],
          "internalType": "struct Pool",
          "name": "",
          "type": "tuple"
        }
      ],
      "stateMutability": "view",
      "type": "function"
    },
    {
      "inputs": [],
      "name": "groupIdOffset",
      "outputs": [
        {
          "internalType": "uint256",
          "name": "",
          "type": "uint256"
        }
      ],
      "stateMutability": "view",
      "type": "function"
    },
    {
      "inputs": [],
      "name": "iSbt",
      "outputs": [
        {
          "internalType": "contract SbtInterface",
          "name": "",
          "type": "address"
        }
      ],
      "stateMutability": "view",
      "type": "function"
    },
    {
      "inputs": [
        {
          "internalType": "contract IVerifier",
          "name": "_verifier",
          "type": "address"
        },
        {
          "internalType": "uint256",
          "name": "groupDepth",
          "type": "uint256"
        },
        {
          "internalType": "contract SbtInterface",
          "name": "_iSbt",
          "type": "address"
        }
      ],
      "name": "initialize",
      "outputs": [],
      "stateMutability": "nonpayable",
      "type": "function"
    },
    {
      "inputs": [],
      "name": "latestStartGroupId",
      "outputs": [
        {
          "internalType": "uint256",
          "name": "",
          "type": "uint256"
        }
      ],
      "stateMutability": "view",
      "type": "function"
    },
    {
      "inputs": [
        {
          "internalType": "uint256[]",
          "name": "identity",
          "type": "uint256[]"
        },
        {
          "internalType": "uint256[]",
          "name": "category",
          "type": "uint256[]"
        },
        {
          "internalType": "string[]",
          "name": "attribute",
          "type": "string[]"
        },
        {
          "internalType": "uint256[]",
          "name": "ids",
          "type": "uint256[]"
        },
        {
          "internalType": "bytes[]",
          "name": "certificate_signature",
          "type": "bytes[]"
        }
      ],
      "name": "mint",
      "outputs": [],
      "stateMutability": "nonpayable",
      "type": "function"
    },
    {
      "inputs": [],
      "name": "owner",
      "outputs": [
        {
          "internalType": "address",
          "name": "",
          "type": "address"
        }
      ],
      "stateMutability": "view",
      "type": "function"
    },
    {
      "inputs": [
        {
          "internalType": "uint256",
          "name": "",
          "type": "uint256"
        },
        {
          "internalType": "string",
          "name": "",
          "type": "string"
        }
      ],
      "name": "pools",
      "outputs": [
        {
          "internalType": "uint256",
          "name": "id",
          "type": "uint256"
        },
        {
          "internalType": "string",
          "name": "name",
          "type": "string"
        },
        {
          "internalType": "uint256",
          "name": "depth",
          "type": "uint256"
        },
        {
          "internalType": "uint256",
          "name": "salt",
          "type": "uint256"
        },
        {
          "internalType": "uint256",
          "name": "amount",
          "type": "uint256"
        },
        {
          "internalType": "uint256",
          "name": "category",
          "type": "uint256"
        },
        {
          "internalType": "string",
          "name": "attribute",
          "type": "string"
        }
      ],
      "stateMutability": "view",
      "type": "function"
    },
    {
      "inputs": [],
      "name": "renounceOwnership",
      "outputs": [],
      "stateMutability": "nonpayable",
      "type": "function"
    },
    {
      "inputs": [
        {
          "internalType": "uint256",
          "name": "identity",
          "type": "uint256"
        },
        {
          "internalType": "uint256",
          "name": "category",
          "type": "uint256"
        },
        {
          "internalType": "string",
          "name": "attribute",
          "type": "string"
        },
        {
          "internalType": "uint256",
          "name": "id",
          "type": "uint256"
        }
      ],
      "name": "sbt_claim_message",
      "outputs": [
        {
          "internalType": "bytes",
          "name": "",
          "type": "bytes"
        }
      ],
      "stateMutability": "pure",
      "type": "function"
    },
    {
      "inputs": [
        {
          "internalType": "uint256",
          "name": "",
          "type": "uint256"
        },
        {
          "internalType": "string",
          "name": "",
          "type": "string"
        },
        {
          "internalType": "uint256",
          "name": "",
          "type": "uint256"
        }
      ],
      "name": "sbt_group",
      "outputs": [
        {
          "internalType": "uint256",
          "name": "",
          "type": "uint256"
        }
      ],
      "stateMutability": "view",
      "type": "function"
    },
    {
      "inputs": [
        {
          "internalType": "uint256",
          "name": "",
          "type": "uint256"
        },
        {
          "internalType": "string",
          "name": "",
          "type": "string"
        },
        {
          "internalType": "uint256",
          "name": "",
          "type": "uint256"
        }
      ],
      "name": "sbt_minted",
      "outputs": [
        {
          "internalType": "uint256",
          "name": "",
          "type": "uint256"
        }
      ],
      "stateMutability": "view",
      "type": "function"
    },
    {
      "inputs": [
        {
          "internalType": "address",
          "name": "_newZkSbtAddress",
          "type": "address"
        }
      ],
      "name": "setZkSbtAddress",
      "outputs": [],
      "stateMutability": "nonpayable",
      "type": "function"
    },
    {
      "inputs": [
        {
          "internalType": "address",
          "name": "newOwner",
          "type": "address"
        }
      ],
      "name": "transferOwnership",
      "outputs": [],
      "stateMutability": "nonpayable",
      "type": "function"
    },
    {
      "inputs": [
        {
          "internalType": "uint256",
          "name": "",
          "type": "uint256"
        }
      ],
      "name": "verifiers",
      "outputs": [
        {
          "internalType": "contract IVerifier",
          "name": "",
          "type": "address"
        }
      ],
      "stateMutability": "view",
      "type": "function"
    },
    {
      "inputs": [
        {
          "internalType": "uint256",
          "name": "category",
          "type": "uint256"
        },
        {
          "internalType": "string",
          "name": "attribute",
          "type": "string"
        },
        {
          "internalType": "uint256",
          "name": "groupId",
          "type": "uint256"
        },
        {
          "internalType": "uint256",
          "name": "nullifierHash",
          "type": "uint256"
        },
        {
          "internalType": "uint256[8]",
          "name": "proof",
          "type": "uint256[8]"
        }
      ],
      "name": "verify",
      "outputs": [],
      "stateMutability": "nonpayable",
      "type": "function"
    },
    {
      "inputs": [
        {
          "internalType": "uint256",
          "name": "category",
          "type": "uint256"
        },
        {
          "internalType": "string",
          "name": "attribute",
          "type": "string"
        },
        {
          "internalType": "uint256",
          "name": "groupId",
          "type": "uint256"
        },
        {
          "internalType": "uint256",
          "name": "merkle_root",
          "type": "uint256"
        },
        {
          "internalType": "uint256",
          "name": "nullifierHash",
          "type": "uint256"
        },
        {
          "internalType": "uint256[8]",
          "name": "proof",
          "type": "uint256[8]"
        },
        {
          "internalType": "uint256",
          "name": "salt",
          "type": "uint256"
        }
      ],
      "name": "verifyWithRootAndSalt",
      "outputs": [],
      "stateMutability": "nonpayable",
      "type": "function"
    },
    {
      "inputs": [
        {
          "internalType": "uint256",
          "name": "category",
          "type": "uint256"
        },
        {
          "internalType": "string",
          "name": "attribute",
          "type": "string"
        },
        {
          "internalType": "uint256",
          "name": "groupId",
          "type": "uint256"
        },
        {
          "internalType": "uint256",
          "name": "nullifierHash",
          "type": "uint256"
        },
        {
          "internalType": "uint256[8]",
          "name": "proof",
          "type": "uint256[8]"
        },
        {
          "internalType": "uint256",
          "name": "salt",
          "type": "uint256"
        }
      ],
      "name": "verifyWithSalt",
      "outputs": [],
      "stateMutability": "nonpayable",
      "type": "function"
    }
  ],
  "bytecode": "0x608060405234801561001057600080fd5b506145ba806100206000396000f3fe608060405234801561001057600080fd5b50600436106101585760003560e01c80639d84b1df116100c3578063c350a1b51161007c578063c350a1b5146103dd578063d7d45565146103f9578063dabc4d5114610415578063ec4e34f014610445578063f2fde38b14610475578063ffa1ad741461049157610158565b80639d84b1df146102ef5780639f2828c11461030b578063aac79d721461033b578063ac1eff6814610359578063b4142f6514610389578063bd862034146103bf57610158565b80636389e107116101155780636389e1071461022f578063715018a61461025f57806378d8552314610269578063800e1a091461028557806388d99644146102a15780638da5cb5b146102d157610158565b8063021eee2b1461015d5780630b5bbccb14610179578063313748af14610197578063417c4fa7146101c757806342d4a721146101e3578063638480be146101ff575b600080fd5b61017760048036038101906101729190612f6a565b6104af565b005b610181610976565b60405161018e9190613b56565b60405180910390f35b6101b160048036038101906101ac9190613089565b61097c565b6040516101be91906138e1565b60405180910390f35b6101e160048036038101906101dc9190612b29565b6109e0565b005b6101fd60048036038101906101f89190612e37565b610aae565b005b61021960048036038101906102149190612ccf565b610b34565b6040516102269190613b56565b60405180910390f35b61024960048036038101906102449190612ccf565b610b53565b6040516102569190613b56565b60405180910390f35b610267610b72565b005b610283600480360381019061027e9190612b52565b610b86565b005b61029f600480360381019061029a9190612ec7565b611048565b005b6102bb60048036038101906102b69190612dd0565b611078565b6040516102c89190613b56565b60405180910390f35b6102d96110c0565b6040516102e69190613833565b60405180910390f35b61030960048036038101906103049190612d4c565b6110ea565b005b61032560048036038101906103209190612cf8565b611149565b6040516103329190613b34565b60405180910390f35b6103436112e9565b6040516103509190613b56565b60405180910390f35b610373600480360381019061036e9190612ccf565b6112ef565b6040516103809190613903565b60405180910390f35b6103a3600480360381019061039e9190612cf8565b611322565b6040516103b69796959493929190613baf565b60405180910390f35b6103c7611497565b6040516103d4919061391e565b60405180910390f35b6103f760048036038101906103f29190612c80565b6114bd565b005b610413600480360381019061040e9190613022565b6118e5565b005b61042f600480360381019061042a9190612ccf565b61198f565b60405161043c9190613b56565b60405180910390f35b61045f600480360381019061045a9190612dd0565b6119ae565b60405161046c9190613b56565b60405180910390f35b61048f600480360381019061048a9190612b29565b6119f6565b005b610499611a7a565b6040516104a691906138e1565b60405180910390f35b6104ba8588886118e5565b60006104c586610b53565b90506000600367ffffffffffffffff81111561050a577f4e487b7100000000000000000000000000000000000000000000000000000000600052604160045260246000fd5b6040519080825280602002602001820160405280156105385781602001602082028036833780820191505090505b5090508581600081518110610576577f4e487b7100000000000000000000000000000000000000000000000000000000600052603260045260246000fd5b60200260200101818152505084816001815181106105bd577f4e487b7100000000000000000000000000000000000000000000000000000000600052603260045260246000fd5b6020026020010181815250508281600281518110610604577f4e487b7100000000000000000000000000000000000000000000000000000000600052603260045260246000fd5b60200260200101818152505060006002600084815260200190815260200160002060009054906101000a900473ffffffffffffffffffffffffffffffffffffffff1673ffffffffffffffffffffffffffffffffffffffff1663c32e370e6040518060400160405280886000600881106106a6577f4e487b7100000000000000000000000000000000000000000000000000000000600052603260045260246000fd5b60200201358152602001886001600881106106ea577f4e487b7100000000000000000000000000000000000000000000000000000000600052603260045260246000fd5b6020020135815250604051806040016040528060405180604001604052808b600260088110610742577f4e487b7100000000000000000000000000000000000000000000000000000000600052603260045260246000fd5b602002013581526020018b600360088110610786577f4e487b7100000000000000000000000000000000000000000000000000000000600052603260045260246000fd5b6020020135815250815260200160405180604001604052808b6004600881106107d8577f4e487b7100000000000000000000000000000000000000000000000000000000600052603260045260246000fd5b602002013581526020018b60056008811061081c577f4e487b7100000000000000000000000000000000000000000000000000000000600052603260045260246000fd5b602002013581525081525060405180604001604052808a60066008811061086c577f4e487b7100000000000000000000000000000000000000000000000000000000600052603260045260246000fd5b602002013581526020018a6007600881106108b0577f4e487b7100000000000000000000000000000000000000000000000000000000600052603260045260246000fd5b6020020135815250866040518563ffffffff1660e01b81526004016108d8949392919061384e565b60206040518083038186803b1580156108f057600080fd5b505afa158015610904573d6000803e3d6000fd5b505050506040513d601f19601f820116820180604052508101906109289190612c57565b90508061096a576040517f08c379a0000000000000000000000000000000000000000000000000000000008152600401610961906139b4565b60405180910390fd5b50505050505050505050565b60045481565b6060604051806060016040528060238152602001614562602391396109a086611ab3565b6109a986611ab3565b856109b386611ab3565b6040516020016109c795949392919061374b565b6040516020818303038152906040529050949350505050565b6109e8611bd7565b6000600560009054906101000a900473ffffffffffffffffffffffffffffffffffffffff16905081600560006101000a81548173ffffffffffffffffffffffffffffffffffffffff021916908373ffffffffffffffffffffffffffffffffffffffff1602179055508173ffffffffffffffffffffffffffffffffffffffff168173ffffffffffffffffffffffffffffffffffffffff167f11a7c3b8107d993bc669b5867b58e002c54e379b04105f91481b7860c57e6b9760405160405180910390a35050565b610ab98386866118e5565b6000610ac48461198f565b9050610ae2868686848787610ad98d8d611149565b606001516104af565b60016006600088815260200190815260200160002086604051610b0591906137d2565b90815260200160405180910390206003016000828254610b259190613ed9565b92505081905550505050505050565b6000806000838152602001908152602001600020600201549050919050565b6000806000838152602001908152602001600020600001549050919050565b610b7a611bd7565b610b846000611c55565b565b610b8e611bd7565b60005b8a8a905081101561103b5760008b8b83818110610bd7577f4e487b7100000000000000000000000000000000000000000000000000000000600052603260045260246000fd5b90506020020135905060008a8a84818110610c1b577f4e487b7100000000000000000000000000000000000000000000000000000000600052603260045260246000fd5b9050602002013590506000898985818110610c5f577f4e487b7100000000000000000000000000000000000000000000000000000000600052603260045260246000fd5b9050602002810190610c719190613d2f565b8080601f016020809104026020016040519081016040528093929190818152602001838380828437600081840152601f19601f82011690508083019250505050505050905060006006600084815260200190815260200160002082604051610cd991906137d2565b9081526020016040518091039020600001541415610d2c576040517f08c379a0000000000000000000000000000000000000000000000000000000008152600401610d2390613a94565b60405180910390fd5b6000888886818110610d67577f4e487b7100000000000000000000000000000000000000000000000000000000600052603260045260246000fd5b9050602002013590506000610d7e8585858561097c565b90506000610d8b82611d1b565b90506000610e26828b8b8b818110610dcc577f4e487b7100000000000000000000000000000000000000000000000000000000600052603260045260246000fd5b9050602002810190610dde9190613cd8565b8080601f016020809104026020016040519081016040528093929190818152602001838380828437600081840152601f19601f82011690508083019250505050505050611d56565b9050610e306110c0565b73ffffffffffffffffffffffffffffffffffffffff168173ffffffffffffffffffffffffffffffffffffffff1614610e9d576040517f08c379a0000000000000000000000000000000000000000000000000000000008152600401610e94906139f4565b60405180910390fd5b610ea8868689611d7d565b836007600088815260200190815260200160002086604051610eca91906137d2565b90815260200160405180910390206000898152602001908152602001600020819055506000600560009054906101000a900473ffffffffffffffffffffffffffffffffffffffff1673ffffffffffffffffffffffffffffffffffffffff166372a25df2898989896040518563ffffffff1660e01b8152600401610f509493929190613c55565b602060405180830381600087803b158015610f6a57600080fd5b505af1158015610f7e573d6000803e3d6000fd5b505050506040513d601f19601f82011682018060405250810190610fa29190612c57565b905080610fe4576040517f08c379a0000000000000000000000000000000000000000000000000000000008152600401610fdb90613a34565b60405180910390fd5b877f14176129252bd72ea28a7e3805ddfbcf1b21a66e6ff3eb5cd7c882ced5831b2b88888860405161101893929190613b71565b60405180910390a25050505050505050808061103390614116565b915050610b91565b5050505050505050505050565b6110538487876118e5565b600061105e8561198f565b905061106f878787848888886104af565b50505050505050565b60086020528260005260406000208280516020810182018051848252602083016020850120818352809550505050505060205280600052604060002060009250925050505481565b6000600160009054906101000a900473ffffffffffffffffffffffffffffffffffffffff16905090565b6110f2611bd7565b611143848484848080601f016020809104026020016040519081016040528093929190818152602001838380828437600081840152601f19601f820116905080830192505050505050506020611e91565b50505050565b611151612832565b600660008481526020019081526020016000208260405161117291906137d2565b90815260200160405180910390206040518060e0016040529081600082015481526020016001820180546111a5906140b3565b80601f01602080910402602001604051908101604052809291908181526020018280546111d1906140b3565b801561121e5780601f106111f35761010080835404028352916020019161121e565b820191906000526020600020905b81548152906001019060200180831161120157829003601f168201915b505050505081526020016002820154815260200160038201548152602001600482015481526020016005820154815260200160068201805461125f906140b3565b80601f016020809104026020016040519081016040528092919081815260200182805461128b906140b3565b80156112d85780601f106112ad576101008083540402835291602001916112d8565b820191906000526020600020905b8154815290600101906020018083116112bb57829003601f168201915b505050505081525050905092915050565b60035481565b60026020528060005260406000206000915054906101000a900473ffffffffffffffffffffffffffffffffffffffff1681565b6006602052816000526040600020818051602081018201805184825260208301602085012081835280955050505050506000915091505080600001549080600101805461136e906140b3565b80601f016020809104026020016040519081016040528092919081815260200182805461139a906140b3565b80156113e75780601f106113bc576101008083540402835291602001916113e7565b820191906000526020600020905b8154815290600101906020018083116113ca57829003601f168201915b505050505090806002015490806003015490806004015490806005015490806006018054611414906140b3565b80601f0160208091040260200160405190810160405280929190818152602001828054611440906140b3565b801561148d5780601f106114625761010080835404028352916020019161148d565b820191906000526020600020905b81548152906001019060200180831161147057829003601f168201915b5050505050905087565b600560009054906101000a900473ffffffffffffffffffffffffffffffffffffffff1681565b6000600160159054906101000a900460ff161590508080156114f0575060018060149054906101000a900460ff1660ff16105b8061151e57506114ff30611f93565b15801561151d575060018060149054906101000a900460ff1660ff16145b5b61155d576040517f08c379a000000000000000000000000000000000000000000000000000000000815260040161155490613a14565b60405180910390fd5b60018060146101000a81548160ff021916908360ff16021790555080156115995760018060156101000a81548160ff0219169083151502179055505b6115a1611fb6565b8260806115ae9190613f60565b6001901b600481905550836002600085815260200190815260200160002060006101000a81548173ffffffffffffffffffffffffffffffffffffffff021916908373ffffffffffffffffffffffffffffffffffffffff16021790555060016003819055506116636001604051806020016040528060008152506040518060400160405280600581526020017f5a4b42414200000000000000000000000000000000000000000000000000000081525086611e91565b6116b46002604051806020016040528060008152506040518060400160405280600581526020017f5a4b4b594300000000000000000000000000000000000000000000000000000081525086611e91565b611705600c604051806020016040528060008152506040518060400160405280600981526020017f706f6d704554482d30000000000000000000000000000000000000000000000081525086611e91565b611756600d604051806020016040528060008152506040518060400160405280600981526020017f706f6d70424e422d30000000000000000000000000000000000000000000000081525086611e91565b6117cd600c6040518060400160405280600381526020017f31303000000000000000000000000000000000000000000000000000000000008152506040518060400160405280600b81526020017f706f6d704554482d31303000000000000000000000000000000000000000000081525086611e91565b611844600d6040518060400160405280600381526020017f31303000000000000000000000000000000000000000000000000000000000008152506040518060400160405280600b81526020017f706f6d70424e422d31303000000000000000000000000000000000000000000081525086611e91565b81600560006101000a81548173ffffffffffffffffffffffffffffffffffffffff021916908373ffffffffffffffffffffffffffffffffffffffff16021790555080156118df576000600160156101000a81548160ff0219169083151502179055507f7f26b83ff96e1f2b6a682f133852f6798a09c465da95921460cefb384740249860016040516118d69190613939565b60405180910390a15b50505050565b60006118f18383611149565b6000015190508084101561193a576040517f08c379a000000000000000000000000000000000000000000000000000000000815260040161193190613ab4565b60405180910390fd5b600454816119489190613ed9565b8410611989576040517f08c379a000000000000000000000000000000000000000000000000000000000815260040161198090613a74565b60405180910390fd5b50505050565b6000806000838152602001908152602001600020600101549050919050565b60076020528260005260406000208280516020810182018051848252602083016020850120818352809550505050505060205280600052604060002060009250925050505481565b6119fe611bd7565b600073ffffffffffffffffffffffffffffffffffffffff168173ffffffffffffffffffffffffffffffffffffffff161415611a6e576040517f08c379a0000000000000000000000000000000000000000000000000000000008152600401611a6590613994565b60405180910390fd5b611a7781611c55565b50565b6040518060400160405280600381526020017f302e35000000000000000000000000000000000000000000000000000000000081525081565b606060006001611ac284611fc8565b01905060008167ffffffffffffffff811115611b07577f4e487b7100000000000000000000000000000000000000000000000000000000600052604160045260246000fd5b6040519080825280601f01601f191660200182016040528015611b395781602001600182028036833780820191505090505b509050600082602001820190505b600115611bcc578080600190039150507f3031323334353637383961626364656600000000000000000000000000000000600a86061a8153600a8581611bb6577f4e487b7100000000000000000000000000000000000000000000000000000000600052601260045260246000fd5b0494506000851415611bc757611bcc565b611b47565b819350505050919050565b611bdf6121ff565b73ffffffffffffffffffffffffffffffffffffffff16611bfd6110c0565b73ffffffffffffffffffffffffffffffffffffffff1614611c53576040517f08c379a0000000000000000000000000000000000000000000000000000000008152600401611c4a90613a54565b60405180910390fd5b565b6000600160009054906101000a900473ffffffffffffffffffffffffffffffffffffffff16905081600160006101000a81548173ffffffffffffffffffffffffffffffffffffffff021916908373ffffffffffffffffffffffffffffffffffffffff1602179055508173ffffffffffffffffffffffffffffffffffffffff168173ffffffffffffffffffffffffffffffffffffffff167f8be0079c531659141344cd1fd0a4f28419497f9722a3daafe3b4186f6b6457e060405160405180910390a35050565b6000611d278251611ab3565b82604051602001611d399291906137e9565b604051602081830303815290604052805190602001209050919050565b6000806000611d658585612207565b91509150611d7281612259565b819250505092915050565b60006006600085815260200190815260200160002083604051611da091906137d2565b90815260200160405180910390209050600081600001549050600082600201546001901b8360040154611dd39190613f2f565b82611dde9190613ed9565b90506000836004015414158015611e0c5750600083600201546001901b8460040154611e0a9190614169565b145b15611e2057611e1f8184600201546124f7565b5b611e2a8185612628565b806008600088815260200190815260200160002086604051611e4c91906137d2565b9081526020016040518091039020600086815260200190815260200160002081905550826004016000815480929190611e8490614116565b9190505550505050505050565b611e9d600354826124f7565b6040518060e0016040528060035481526020018381526020018281526020016000815260200160008152602001858152602001848152506006600086815260200190815260200160002084604051611ef591906137d2565b9081526020016040518091039020600082015181600001556020820151816001019080519060200190611f2992919061286f565b5060408201518160020155606082015181600301556080820151816004015560a0820151816005015560c0820151816006019080519060200190611f6e92919061286f565b5090505060045460036000828254611f869190613ed9565b9250508190555050505050565b6000808273ffffffffffffffffffffffffffffffffffffffff163b119050919050565b611fc6611fc16121ff565b611c55565b565b600080600090507a184f03e93ff9f4daa797ed6e38ed64bf6a1f010000000000000000831061204c577a184f03e93ff9f4daa797ed6e38ed64bf6a1f0100000000000000008381612042577f4e487b7100000000000000000000000000000000000000000000000000000000600052601260045260246000fd5b0492506040810190505b6d04ee2d6d415b85acef810000000083106120af576d04ee2d6d415b85acef810000000083816120a5577f4e487b7100000000000000000000000000000000000000000000000000000000600052601260045260246000fd5b0492506020810190505b662386f26fc10000831061210457662386f26fc1000083816120fa577f4e487b7100000000000000000000000000000000000000000000000000000000600052601260045260246000fd5b0492506010810190505b6305f5e1008310612153576305f5e1008381612149577f4e487b7100000000000000000000000000000000000000000000000000000000600052601260045260246000fd5b0492506008810190505b612710831061219e576127108381612194577f4e487b7100000000000000000000000000000000000000000000000000000000600052601260045260246000fd5b0492506004810190505b606483106121e757606483816121dd577f4e487b7100000000000000000000000000000000000000000000000000000000600052601260045260246000fd5b0492506002810190505b600a83106121f6576001810190505b80915050919050565b600033905090565b6000806041835114156122495760008060006020860151925060408601519150606086015160001a905061223d8782858561274f565b94509450505050612252565b60006002915091505b9250929050565b60006004811115612293577f4e487b7100000000000000000000000000000000000000000000000000000000600052602160045260246000fd5b8160048111156122cc577f4e487b7100000000000000000000000000000000000000000000000000000000600052602160045260246000fd5b14156122d7576124f4565b60016004811115612311577f4e487b7100000000000000000000000000000000000000000000000000000000600052602160045260246000fd5b81600481111561234a577f4e487b7100000000000000000000000000000000000000000000000000000000600052602160045260246000fd5b141561238b576040517f08c379a000000000000000000000000000000000000000000000000000000000815260040161238290613954565b60405180910390fd5b600260048111156123c5577f4e487b7100000000000000000000000000000000000000000000000000000000600052602160045260246000fd5b8160048111156123fe577f4e487b7100000000000000000000000000000000000000000000000000000000600052602160045260246000fd5b141561243f576040517f08c379a000000000000000000000000000000000000000000000000000000000815260040161243690613974565b60405180910390fd5b60036004811115612479577f4e487b7100000000000000000000000000000000000000000000000000000000600052602160045260246000fd5b8160048111156124b2577f4e487b7100000000000000000000000000000000000000000000000000000000600052602160045260246000fd5b14156124f3576040517f08c379a00000000000000000000000000000000000000000000000000000000081526004016124ea906139d4565b60405180910390fd5b5b50565b600061250283610b53565b14612539576040517f8121725b00000000000000000000000000000000000000000000000000000000815260040160405180910390fd5b600060088360405160200161254e9190613818565b6040516020818303038152906040528051906020012060001c901c905060008084815260200190815260200160002073__$0c6eb7207c37accf1552a1c47686411ac0$__631095fbb4909184846040518463ffffffff1660e01b81526004016125b993929190613afd565b60006040518083038186803b1580156125d157600080fd5b505af41580156125e5573d6000803e3d6000fd5b50505050827f0d000126c26c1bbe400fd2332187f75d58b69306f9ec47b408686189d3a00833838360405161261b929190613c2c565b60405180910390a2505050565b600061263383610b53565b141561266b576040517f029f057900000000000000000000000000000000000000000000000000000000815260040160405180910390fd5b60008083815260200190815260200160002073__$0c6eb7207c37accf1552a1c47686411ac0$__63168703fa9091836040518363ffffffff1660e01b81526004016126b7929190613ad4565b60006040518083038186803b1580156126cf57600080fd5b505af41580156126e3573d6000803e3d6000fd5b5050505060006126f28361198f565b90506000600161270185610b34565b61270b9190613f60565b9050837f19239b3f93cd10558aaf11423af70c77763bf54f52bcc75bfa74d4d13548cde982858560405161274193929190613ca1565b60405180910390a250505050565b6000807f7fffffffffffffffffffffffffffffff5d576e7357a4501ddfe92f46681b20a08360001c111561278a576000600391509150612829565b6000600187878787604051600081526020016040526040516127af949392919061389c565b6020604051602081039080840390855afa1580156127d1573d6000803e3d6000fd5b505050602060405103519050600073ffffffffffffffffffffffffffffffffffffffff168173ffffffffffffffffffffffffffffffffffffffff16141561282057600060019250925050612829565b80600092509250505b94509492505050565b6040518060e00160405280600081526020016060815260200160008152602001600081526020016000815260200160008152602001606081525090565b82805461287b906140b3565b90600052602060002090601f01602090048101928261289d57600085556128e4565b82601f106128b657805160ff19168380011785556128e4565b828001600101855582156128e4579182015b828111156128e35782518255916020019190600101906128c8565b5b5090506128f191906128f5565b5090565b5b8082111561290e5760008160009055506001016128f6565b5090565b600061292561292084613dab565b613d86565b90508281526020810184848401111561293d57600080fd5b612948848285614071565b509392505050565b60008135905061295f816144ee565b92915050565b60008083601f84011261297757600080fd5b8235905067ffffffffffffffff81111561299057600080fd5b6020830191508360208202830111156129a857600080fd5b9250929050565b60008083601f8401126129c157600080fd5b8235905067ffffffffffffffff8111156129da57600080fd5b6020830191508360208202830111156129f257600080fd5b9250929050565b600081905082602060080282011115612a1157600080fd5b92915050565b60008083601f840112612a2957600080fd5b8235905067ffffffffffffffff811115612a4257600080fd5b602083019150836020820283011115612a5a57600080fd5b9250929050565b600081519050612a7081614505565b92915050565b600081359050612a858161451c565b92915050565b600081359050612a9a81614533565b92915050565b60008083601f840112612ab257600080fd5b8235905067ffffffffffffffff811115612acb57600080fd5b602083019150836001820283011115612ae357600080fd5b9250929050565b600082601f830112612afb57600080fd5b8135612b0b848260208601612912565b91505092915050565b600081359050612b238161454a565b92915050565b600060208284031215612b3b57600080fd5b6000612b4984828501612950565b91505092915050565b60008060008060008060008060008060a08b8d031215612b7157600080fd5b60008b013567ffffffffffffffff811115612b8b57600080fd5b612b978d828e01612a17565b9a509a505060208b013567ffffffffffffffff811115612bb657600080fd5b612bc28d828e01612a17565b985098505060408b013567ffffffffffffffff811115612be157600080fd5b612bed8d828e016129af565b965096505060608b013567ffffffffffffffff811115612c0c57600080fd5b612c188d828e01612a17565b945094505060808b013567ffffffffffffffff811115612c3757600080fd5b612c438d828e01612965565b92509250509295989b9194979a5092959850565b600060208284031215612c6957600080fd5b6000612c7784828501612a61565b91505092915050565b600080600060608486031215612c9557600080fd5b6000612ca386828701612a76565b9350506020612cb486828701612b14565b9250506040612cc586828701612a8b565b9150509250925092565b600060208284031215612ce157600080fd5b6000612cef84828501612b14565b91505092915050565b60008060408385031215612d0b57600080fd5b6000612d1985828601612b14565b925050602083013567ffffffffffffffff811115612d3657600080fd5b612d4285828601612aea565b9150509250929050565b60008060008060608587031215612d6257600080fd5b6000612d7087828801612b14565b945050602085013567ffffffffffffffff811115612d8d57600080fd5b612d9987828801612aea565b935050604085013567ffffffffffffffff811115612db657600080fd5b612dc287828801612aa0565b925092505092959194509250565b600080600060608486031215612de557600080fd5b6000612df386828701612b14565b935050602084013567ffffffffffffffff811115612e1057600080fd5b612e1c86828701612aea565b9250506040612e2d86828701612b14565b9150509250925092565b60008060008060006101808688031215612e5057600080fd5b6000612e5e88828901612b14565b955050602086013567ffffffffffffffff811115612e7b57600080fd5b612e8788828901612aea565b9450506040612e9888828901612b14565b9350506060612ea988828901612b14565b9250506080612eba888289016129f9565b9150509295509295909350565b6000806000806000806101a08789031215612ee157600080fd5b6000612eef89828a01612b14565b965050602087013567ffffffffffffffff811115612f0c57600080fd5b612f1889828a01612aea565b9550506040612f2989828a01612b14565b9450506060612f3a89828a01612b14565b9350506080612f4b89828a016129f9565b925050610180612f5d89828a01612b14565b9150509295509295509295565b60008060008060008060006101c0888a031215612f8657600080fd5b6000612f948a828b01612b14565b975050602088013567ffffffffffffffff811115612fb157600080fd5b612fbd8a828b01612aea565b9650506040612fce8a828b01612b14565b9550506060612fdf8a828b01612b14565b9450506080612ff08a828b01612b14565b93505060a06130018a828b016129f9565b9250506101a06130138a828b01612b14565b91505092959891949750929550565b60008060006060848603121561303757600080fd5b600061304586828701612b14565b935050602061305686828701612b14565b925050604084013567ffffffffffffffff81111561307357600080fd5b61307f86828701612aea565b9150509250925092565b6000806000806080858703121561309f57600080fd5b60006130ad87828801612b14565b94505060206130be87828801612b14565b935050604085013567ffffffffffffffff8111156130db57600080fd5b6130e787828801612aea565b92505060606130f887828801612b14565b91505092959194509250565b6000613110838361319a565b60408301905092915050565b600061312883836136f8565b60208301905092915050565b61313d81613f94565b82525050565b61314c81613e00565b6131568184613e5e565b925061316182613ddc565b8060005b838110156131925781516131798782613104565b965061318483613e37565b925050600181019050613165565b505050505050565b6131a381613e0b565b6131ad8184613e69565b92506131b882613de6565b8060005b838110156131e95781516131d0878261311c565b96506131db83613e44565b9250506001810190506131bc565b505050505050565b6131fa81613e0b565b6132048184613e74565b925061320f82613de6565b8060005b83811015613240578151613227878261311c565b965061323283613e44565b925050600181019050613213565b505050505050565b600061325382613e16565b61325d8185613e7f565b935061326883613df0565b8060005b83811015613299578151613280888261311c565b975061328b83613e51565b92505060018101905061326c565b5085935050505092915050565b6132af81613fb2565b82525050565b60006132c082613e21565b6132ca8185613e90565b93506132da818560208601614080565b6132e381614256565b840191505092915050565b60006132f982613e21565b6133038185613ea1565b9350613313818560208601614080565b80840191505092915050565b61332881614017565b82525050565b6133378161403b565b82525050565b6133468161405f565b82525050565b600061335782613e2c565b6133618185613eac565b9350613371818560208601614080565b61337a81614256565b840191505092915050565b600061339082613e2c565b61339a8185613ebd565b93506133aa818560208601614080565b6133b381614256565b840191505092915050565b60006133c982613e2c565b6133d38185613ece565b93506133e3818560208601614080565b80840191505092915050565b60006133fc601883613ebd565b915061340782614267565b602082019050919050565b600061341f601f83613ebd565b915061342a82614290565b602082019050919050565b6000613442602683613ebd565b915061344d826142b9565b604082019050919050565b6000613465600e83613ebd565b915061347082614308565b602082019050919050565b7f2073627420696420000000000000000000000000000000000000000000000000815250565b60006134ae602283613ebd565b91506134b982614331565b604082019050919050565b60006134d1601e83613ebd565b91506134dc82614380565b602082019050919050565b7f206964656e746974792000000000000000000000000000000000000000000000815250565b600061351a602e83613ebd565b9150613525826143a9565b604082019050919050565b600061353d601483613ebd565b9150613548826143f8565b602082019050919050565b7f2073627420617474726962757465200000000000000000000000000000000000815250565b6000613586602083613ebd565b915061359182614421565b602082019050919050565b60006135a9601a83613ece565b91506135b48261444a565b601a82019050919050565b60006135cc600b83613ebd565b91506135d782614473565b602082019050919050565b60006135ef601383613ebd565b91506135fa8261449c565b602082019050919050565b7f207362742063617465676f727920000000000000000000000000000000000000815250565b6000613638600d83613ebd565b9150613643826144c5565b602082019050919050565b8082525050565b600060e08301600083015161366d60008601826136f8565b5060208301518482036020860152613685828261334c565b915050604083015161369a60408601826136f8565b5060608301516136ad60608601826136f8565b5060808301516136c060808601826136f8565b5060a08301516136d360a08601826136f8565b5060c083015184820360c08601526136eb828261334c565b9150508091505092915050565b61370181614000565b82525050565b61371081614000565b82525050565b61371f81614000565b82525050565b61373661373182614000565b61415f565b82525050565b6137458161400a565b82525050565b600061375782886132ee565b9150613762826134e7565b600a8201915061377282876132ee565b915061377d82613605565b600e8201915061378d82866132ee565b915061379882613553565b600f820191506137a882856132ee565b91506137b38261347b565b6008820191506137c382846132ee565b91508190509695505050505050565b60006137de82846133be565b915081905092915050565b60006137f48261359c565b915061380082856133be565b915061380c82846132ee565b91508190509392505050565b60006138248284613725565b60208201915081905092915050565b60006020820190506138486000830184613134565b92915050565b60006101208201905061386460008301876131f1565b6138716040830186613143565b61387e60c08301856131f1565b8181036101008301526138918184613248565b905095945050505050565b60006080820190506138b160008301876132a6565b6138be602083018661373c565b6138cb60408301856132a6565b6138d860608301846132a6565b95945050505050565b600060208201905081810360008301526138fb81846132b5565b905092915050565b6000602082019050613918600083018461331f565b92915050565b6000602082019050613933600083018461332e565b92915050565b600060208201905061394e600083018461333d565b92915050565b6000602082019050818103600083015261396d816133ef565b9050919050565b6000602082019050818103600083015261398d81613412565b9050919050565b600060208201905081810360008301526139ad81613435565b9050919050565b600060208201905081810360008301526139cd81613458565b9050919050565b600060208201905081810360008301526139ed816134a1565b9050919050565b60006020820190508181036000830152613a0d816134c4565b9050919050565b60006020820190508181036000830152613a2d8161350d565b9050919050565b60006020820190508181036000830152613a4d81613530565b9050919050565b60006020820190508181036000830152613a6d81613579565b9050919050565b60006020820190508181036000830152613a8d816135bf565b9050919050565b60006020820190508181036000830152613aad816135e2565b9050919050565b60006020820190508181036000830152613acd8161362b565b9050919050565b6000604082019050613ae9600083018561364e565b613af66020830184613716565b9392505050565b6000606082019050613b12600083018661364e565b613b1f6020830185613716565b613b2c6040830184613716565b949350505050565b60006020820190508181036000830152613b4e8184613655565b905092915050565b6000602082019050613b6b6000830184613707565b92915050565b6000606082019050613b866000830186613707565b8181036020830152613b988185613385565b9050613ba76040830184613707565b949350505050565b600060e082019050613bc4600083018a613707565b8181036020830152613bd68189613385565b9050613be56040830188613707565b613bf26060830187613707565b613bff6080830186613707565b613c0c60a0830185613707565b81810360c0830152613c1e8184613385565b905098975050505050505050565b6000604082019050613c416000830185613707565b613c4e6020830184613707565b9392505050565b6000608082019050613c6a6000830187613707565b613c776020830186613707565b8181036040830152613c898185613385565b9050613c986060830184613707565b95945050505050565b6000606082019050613cb66000830186613707565b613cc36020830185613707565b613cd06040830184613707565b949350505050565b60008083356001602003843603038112613cf157600080fd5b80840192508235915067ffffffffffffffff821115613d0f57600080fd5b602083019250600182023603831315613d2757600080fd5b509250929050565b60008083356001602003843603038112613d4857600080fd5b80840192508235915067ffffffffffffffff821115613d6657600080fd5b602083019250600182023603831315613d7e57600080fd5b509250929050565b6000613d90613da1565b9050613d9c82826140e5565b919050565b6000604051905090565b600067ffffffffffffffff821115613dc657613dc5614227565b5b613dcf82614256565b9050602081019050919050565b6000819050919050565b6000819050919050565b6000819050602082019050919050565b600060029050919050565b600060029050919050565b600081519050919050565b600081519050919050565b600081519050919050565b6000602082019050919050565b6000602082019050919050565b6000602082019050919050565b600081905092915050565b600081905092915050565b600081905092915050565b600082825260208201905092915050565b600082825260208201905092915050565b600081905092915050565b600082825260208201905092915050565b600082825260208201905092915050565b600081905092915050565b6000613ee482614000565b9150613eef83614000565b9250827fffffffffffffffffffffffffffffffffffffffffffffffffffffffffffffffff03821115613f2457613f2361419a565b5b828201905092915050565b6000613f3a82614000565b9150613f4583614000565b925082613f5557613f546141c9565b5b828204905092915050565b6000613f6b82614000565b9150613f7683614000565b925082821015613f8957613f8861419a565b5b828203905092915050565b6000613f9f82613fe0565b9050919050565b60008115159050919050565b6000819050919050565b6000613fc782613f94565b9050919050565b6000613fd982613f94565b9050919050565b600073ffffffffffffffffffffffffffffffffffffffff82169050919050565b6000819050919050565b600060ff82169050919050565b600061402282614029565b9050919050565b600061403482613fe0565b9050919050565b60006140468261404d565b9050919050565b600061405882613fe0565b9050919050565b600061406a8261400a565b9050919050565b82818337600083830152505050565b60005b8381101561409e578082015181840152602081019050614083565b838111156140ad576000848401525b50505050565b600060028204905060018216806140cb57607f821691505b602082108114156140df576140de6141f8565b5b50919050565b6140ee82614256565b810181811067ffffffffffffffff8211171561410d5761410c614227565b5b80604052505050565b600061412182614000565b91507fffffffffffffffffffffffffffffffffffffffffffffffffffffffffffffffff8214156141545761415361419a565b5b600182019050919050565b6000819050919050565b600061417482614000565b915061417f83614000565b92508261418f5761418e6141c9565b5b828206905092915050565b7f4e487b7100000000000000000000000000000000000000000000000000000000600052601160045260246000fd5b7f4e487b7100000000000000000000000000000000000000000000000000000000600052601260045260246000fd5b7f4e487b7100000000000000000000000000000000000000000000000000000000600052602260045260246000fd5b7f4e487b7100000000000000000000000000000000000000000000000000000000600052604160045260246000fd5b6000601f19601f8301169050919050565b7f45434453413a20696e76616c6964207369676e61747572650000000000000000600082015250565b7f45434453413a20696e76616c6964207369676e6174757265206c656e67746800600082015250565b7f4f776e61626c653a206e6577206f776e657220697320746865207a65726f206160008201527f6464726573730000000000000000000000000000000000000000000000000000602082015250565b7f70726f6f6620696e76616c696421000000000000000000000000000000000000600082015250565b7f45434453413a20696e76616c6964207369676e6174757265202773272076616c60008201527f7565000000000000000000000000000000000000000000000000000000000000602082015250565b7f496e76616c6964204365727469666963617465205369676e6174757265210000600082015250565b7f496e697469616c697a61626c653a20636f6e747261637420697320616c72656160008201527f647920696e697469616c697a6564000000000000000000000000000000000000602082015250565b7f6661696c656420746f206d696e74207a6b534254000000000000000000000000600082015250565b7f4f776e61626c653a2063616c6c6572206973206e6f7420746865206f776e6572600082015250565b7f19457468657265756d205369676e6564204d6573736167653a0a000000000000600082015250565b7f696420746f6f2062696721000000000000000000000000000000000000000000600082015250565b7f73627420706f6f6c206e6f742065786973742100000000000000000000000000600082015250565b7f696420746f6f20736d616c6c2100000000000000000000000000000000000000600082015250565b6144f781613f94565b811461450257600080fd5b50565b61450e81613fa6565b811461451957600080fd5b50565b61452581613fbc565b811461453057600080fd5b50565b61453c81613fce565b811461454757600080fd5b50565b61455381614000565b811461455e57600080fd5b5056fe5369676e2074686973206d65657361676520746f20636c61696d207a6b534254203a20a26469706673582212206aad8f1a3a846a848f9b8ecbc22f006460c84550d7a23f4b10ea2366e1cd30eb64736f6c63430008040033",
  "linkReferences": {
    "@zk-kit/incremental-merkle-tree.sol/IncrementalBinaryTree.sol": {
      "IncrementalBinaryTree": [
        {
          "length": 20,
          "start": 9631
        },
        {
          "length": 20,
          "start": 9887
        }
      ]
    }
  },
  "deployedLinkReferences": {
    "@zk-kit/incremental-merkle-tree.sol/IncrementalBinaryTree.sol": {
      "IncrementalBinaryTree": [
        {
          "length": 20,
          "start": 9599
        },
        {
          "length": 20,
          "start": 9855
        }
      ]
    }
  }
}