{
  "_format": "hh-sol-artifact-1",
  "contractName": "Zksbt",
  "sourceName": "contracts/zksbt.sol",
  "abi": [
    {
      "inputs": [],
      "name": "Semaphore__GroupAlreadyExists",
      "type": "error"
    },
    {
      "inputs": [],
      "name": "Semaphore__GroupDoesNotExist",
      "type": "error"
    },
    {
      "anonymous": false,
      "inputs": [
        {
          "indexed": true,
          "internalType": "uint256",
          "name": "groupId",
          "type": "uint256"
        },
        {
          "indexed": false,
          "internalType": "uint256",
          "name": "merkleTreeDepth",
          "type": "uint256"
        },
        {
          "indexed": false,
          "internalType": "uint256",
          "name": "zeroValue",
          "type": "uint256"
        }
      ],
      "name": "GroupCreated",
      "type": "event"
    },
    {
      "anonymous": false,
      "inputs": [
        {
          "indexed": false,
          "internalType": "uint8",
          "name": "version",
          "type": "uint8"
        }
      ],
      "name": "Initialized",
      "type": "event"
    },
    {
      "anonymous": false,
      "inputs": [
        {
          "indexed": true,
          "internalType": "uint256",
          "name": "groupId",
          "type": "uint256"
        },
        {
          "indexed": false,
          "internalType": "uint256",
          "name": "index",
          "type": "uint256"
        },
        {
          "indexed": false,
          "internalType": "uint256",
          "name": "identityCommitment",
          "type": "uint256"
        },
        {
          "indexed": false,
          "internalType": "uint256",
          "name": "merkleTreeRoot",
          "type": "uint256"
        }
      ],
      "name": "MemberAdded",
      "type": "event"
    },
    {
      "anonymous": false,
      "inputs": [
        {
          "indexed": true,
          "internalType": "uint256",
          "name": "groupId",
          "type": "uint256"
        },
        {
          "indexed": false,
          "internalType": "uint256",
          "name": "index",
          "type": "uint256"
        },
        {
          "indexed": false,
          "internalType": "uint256",
          "name": "identityCommitment",
          "type": "uint256"
        },
        {
          "indexed": false,
          "internalType": "uint256",
          "name": "merkleTreeRoot",
          "type": "uint256"
        }
      ],
      "name": "MemberRemoved",
      "type": "event"
    },
    {
      "anonymous": false,
      "inputs": [
        {
          "indexed": true,
          "internalType": "uint256",
          "name": "groupId",
          "type": "uint256"
        },
        {
          "indexed": false,
          "internalType": "uint256",
          "name": "index",
          "type": "uint256"
        },
        {
          "indexed": false,
          "internalType": "uint256",
          "name": "identityCommitment",
          "type": "uint256"
        },
        {
          "indexed": false,
          "internalType": "uint256",
          "name": "newIdentityCommitment",
          "type": "uint256"
        },
        {
          "indexed": false,
          "internalType": "uint256",
          "name": "merkleTreeRoot",
          "type": "uint256"
        }
      ],
      "name": "MemberUpdated",
      "type": "event"
    },
    {
      "anonymous": false,
      "inputs": [
        {
          "indexed": true,
          "internalType": "address",
          "name": "previousOwner",
          "type": "address"
        },
        {
          "indexed": true,
          "internalType": "address",
          "name": "newOwner",
          "type": "address"
        }
      ],
      "name": "OwnershipTransferred",
      "type": "event"
    },
    {
      "anonymous": false,
      "inputs": [
        {
          "indexed": true,
          "internalType": "uint256",
          "name": "publicAddress",
          "type": "uint256"
        },
        {
          "indexed": false,
          "internalType": "uint256",
          "name": "category",
          "type": "uint256"
        },
        {
          "indexed": false,
          "internalType": "string",
          "name": "attribute",
          "type": "string"
        },
        {
          "indexed": false,
          "internalType": "uint256",
          "name": "id",
          "type": "uint256"
        },
        {
          "indexed": false,
          "internalType": "uint256",
          "name": "verifyTimestamp",
          "type": "uint256"
        }
      ],
      "name": "SbtMinted",
      "type": "event"
    },
    {
      "anonymous": false,
      "inputs": [
        {
          "indexed": true,
          "internalType": "address",
          "name": "oldAddress",
          "type": "address"
        },
        {
          "indexed": true,
          "internalType": "address",
          "name": "newAddress",
          "type": "address"
        }
      ],
      "name": "ZkSbtAddressChange",
      "type": "event"
    },
    {
      "inputs": [],
      "name": "VERSION",
      "outputs": [
        {
          "internalType": "bytes",
          "name": "",
          "type": "bytes"
        }
      ],
      "stateMutability": "view",
      "type": "function"
    },
    {
      "inputs": [
        {
          "internalType": "uint256",
          "name": "category",
          "type": "uint256"
        },
        {
          "internalType": "string",
          "name": "attribute",
          "type": "string"
        },
        {
          "internalType": "string",
          "name": "name",
          "type": "string"
        }
      ],
      "name": "addSbt",
      "outputs": [],
      "stateMutability": "nonpayable",
      "type": "function"
    },
    {
      "inputs": [
        {
          "internalType": "uint256",
          "name": "groupId",
          "type": "uint256"
        },
        {
          "internalType": "uint256",
          "name": "category",
          "type": "uint256"
        },
        {
          "internalType": "string",
          "name": "attribute",
          "type": "string"
        }
      ],
      "name": "checkGroupIdInSbtPool",
      "outputs": [],
      "stateMutability": "nonpayable",
      "type": "function"
    },
    {
      "inputs": [
        {
          "internalType": "uint256",
          "name": "groupId",
          "type": "uint256"
        }
      ],
      "name": "getMerkleTreeDepth",
      "outputs": [
        {
          "internalType": "uint256",
          "name": "",
          "type": "uint256"
        }
      ],
      "stateMutability": "view",
      "type": "function"
    },
    {
      "inputs": [
        {
          "internalType": "uint256",
          "name": "groupId",
          "type": "uint256"
        }
      ],
      "name": "getMerkleTreeRoot",
      "outputs": [
        {
          "internalType": "uint256",
          "name": "",
          "type": "uint256"
        }
      ],
      "stateMutability": "view",
      "type": "function"
    },
    {
      "inputs": [
        {
          "internalType": "uint256",
          "name": "groupId",
          "type": "uint256"
        }
      ],
      "name": "getNumberOfMerkleTreeLeaves",
      "outputs": [
        {
          "internalType": "uint256",
          "name": "",
          "type": "uint256"
        }
      ],
      "stateMutability": "view",
      "type": "function"
    },
    {
      "inputs": [],
      "name": "iSbt",
      "outputs": [
        {
          "internalType": "contract SbtInterface",
          "name": "",
          "type": "address"
        }
      ],
      "stateMutability": "view",
      "type": "function"
    },
    {
      "inputs": [],
      "name": "identityVerifier",
      "outputs": [
        {
          "internalType": "contract IVerifier",
          "name": "",
          "type": "address"
        }
      ],
      "stateMutability": "view",
      "type": "function"
    },
    {
      "inputs": [
        {
          "internalType": "contract IVerifier",
          "name": "_verifier",
          "type": "address"
        },
        {
          "internalType": "contract IVerifier",
          "name": "_identityVerifier",
          "type": "address"
        },
        {
          "internalType": "contract SbtInterface",
          "name": "_iSbt",
          "type": "address"
        }
      ],
      "name": "initialize",
      "outputs": [],
      "stateMutability": "nonpayable",
      "type": "function"
    },
    {
      "inputs": [],
      "name": "latestStartGroupId",
      "outputs": [
        {
          "internalType": "uint256",
          "name": "",
          "type": "uint256"
        }
      ],
      "stateMutability": "view",
      "type": "function"
    },
    {
      "inputs": [
        {
          "components": [
            {
              "internalType": "uint256",
              "name": "category",
              "type": "uint256"
            },
            {
              "internalType": "string",
              "name": "attribute",
              "type": "string"
            },
            {
              "internalType": "uint256",
              "name": "publicAddress",
              "type": "uint256"
            },
            {
              "internalType": "uint256",
              "name": "id",
              "type": "uint256"
            },
            {
              "internalType": "uint256",
              "name": "verifyTimestamp",
              "type": "uint256"
            }
          ],
          "internalType": "struct SbtInfo[]",
          "name": "sbtInfo",
          "type": "tuple[]"
        },
        {
          "internalType": "bytes[]",
          "name": "signature",
          "type": "bytes[]"
        }
      ],
      "name": "mint",
      "outputs": [],
      "stateMutability": "nonpayable",
      "type": "function"
    },
    {
      "inputs": [],
      "name": "owner",
      "outputs": [
        {
          "internalType": "address",
          "name": "",
          "type": "address"
        }
      ],
      "stateMutability": "view",
      "type": "function"
    },
    {
      "inputs": [
        {
          "internalType": "uint256",
          "name": "",
          "type": "uint256"
        },
        {
          "internalType": "string",
          "name": "",
          "type": "string"
        }
      ],
      "name": "pools",
      "outputs": [
        {
          "internalType": "uint256",
          "name": "id",
          "type": "uint256"
        },
        {
          "internalType": "string",
          "name": "name",
          "type": "string"
        },
        {
          "internalType": "uint256",
          "name": "depth",
          "type": "uint256"
        },
        {
          "internalType": "uint256",
          "name": "amount",
          "type": "uint256"
        },
        {
          "internalType": "uint256",
          "name": "category",
          "type": "uint256"
        },
        {
          "internalType": "uint256",
          "name": "salt",
          "type": "uint256"
        },
        {
          "internalType": "string",
          "name": "attribute",
          "type": "string"
        }
      ],
      "stateMutability": "view",
      "type": "function"
    },
    {
      "inputs": [],
      "name": "renounceOwnership",
      "outputs": [],
      "stateMutability": "nonpayable",
      "type": "function"
    },
    {
      "inputs": [
        {
          "internalType": "uint256",
          "name": "publicAddress",
          "type": "uint256"
        },
        {
          "internalType": "uint256",
          "name": "category",
          "type": "uint256"
        },
        {
          "internalType": "string",
          "name": "attribute",
          "type": "string"
        },
        {
          "internalType": "uint256",
          "name": "id",
          "type": "uint256"
        },
        {
          "internalType": "uint256",
          "name": "verifyTimestamp",
          "type": "uint256"
        }
      ],
      "name": "sbt_claim_message",
      "outputs": [
        {
          "internalType": "bytes",
          "name": "",
          "type": "bytes"
        }
      ],
      "stateMutability": "pure",
      "type": "function"
    },
    {
      "inputs": [
        {
          "internalType": "uint256",
          "name": "",
          "type": "uint256"
        }
      ],
      "name": "sbt_group",
      "outputs": [
        {
          "internalType": "uint256",
          "name": "",
          "type": "uint256"
        }
      ],
      "stateMutability": "view",
      "type": "function"
    },
    {
      "inputs": [
        {
          "internalType": "uint256",
          "name": "",
          "type": "uint256"
        }
      ],
      "name": "sbt_minted",
      "outputs": [
        {
          "internalType": "uint256",
          "name": "category",
          "type": "uint256"
        },
        {
          "internalType": "string",
          "name": "attribute",
          "type": "string"
        },
        {
          "internalType": "uint256",
          "name": "publicAddress",
          "type": "uint256"
        },
        {
          "internalType": "uint256",
          "name": "id",
          "type": "uint256"
        },
        {
          "internalType": "uint256",
          "name": "verifyTimestamp",
          "type": "uint256"
        }
      ],
      "stateMutability": "view",
      "type": "function"
    },
    {
      "inputs": [
        {
          "internalType": "address",
          "name": "_newZkSbtAddress",
          "type": "address"
        }
      ],
      "name": "setZkSbtAddress",
      "outputs": [],
      "stateMutability": "nonpayable",
      "type": "function"
    },
    {
      "inputs": [
        {
          "internalType": "address",
          "name": "newOwner",
          "type": "address"
        }
      ],
      "name": "transferOwnership",
      "outputs": [],
      "stateMutability": "nonpayable",
      "type": "function"
    },
    {
      "inputs": [],
      "name": "verifier",
      "outputs": [
        {
          "internalType": "contract IVerifier",
          "name": "",
          "type": "address"
        }
      ],
      "stateMutability": "view",
      "type": "function"
    },
    {
      "inputs": [
        {
          "internalType": "uint256",
          "name": "category",
          "type": "uint256"
        },
        {
          "internalType": "string",
          "name": "attribute",
          "type": "string"
        },
        {
          "internalType": "uint256",
          "name": "groupId",
          "type": "uint256"
        },
        {
          "internalType": "uint256",
          "name": "nullifierHash",
          "type": "uint256"
        },
        {
          "internalType": "uint256[8]",
          "name": "proof",
          "type": "uint256[8]"
        }
      ],
      "name": "verify",
      "outputs": [],
      "stateMutability": "nonpayable",
      "type": "function"
    },
    {
      "inputs": [
        {
          "internalType": "uint256",
          "name": "identity",
          "type": "uint256"
        },
        {
          "internalType": "uint256",
          "name": "nullifierHash",
          "type": "uint256"
        },
        {
          "internalType": "uint256[8]",
          "name": "proof",
          "type": "uint256[8]"
        },
        {
          "internalType": "uint256",
          "name": "salt",
          "type": "uint256"
        }
      ],
      "name": "verifyIdentity",
      "outputs": [],
      "stateMutability": "nonpayable",
      "type": "function"
    },
    {
      "inputs": [
        {
          "internalType": "uint256",
          "name": "category",
          "type": "uint256"
        },
        {
          "internalType": "string",
          "name": "attribute",
          "type": "string"
        },
        {
          "internalType": "uint256",
          "name": "groupId",
          "type": "uint256"
        },
        {
          "internalType": "uint256",
          "name": "merkle_root",
          "type": "uint256"
        },
        {
          "internalType": "uint256",
          "name": "nullifierHash",
          "type": "uint256"
        },
        {
          "internalType": "uint256[8]",
          "name": "proof",
          "type": "uint256[8]"
        },
        {
          "internalType": "uint256",
          "name": "salt",
          "type": "uint256"
        }
      ],
      "name": "verifyWithRootAndSalt",
      "outputs": [],
      "stateMutability": "nonpayable",
      "type": "function"
    },
    {
      "inputs": [
        {
          "internalType": "uint256",
          "name": "category",
          "type": "uint256"
        },
        {
          "internalType": "string",
          "name": "attribute",
          "type": "string"
        },
        {
          "internalType": "uint256",
          "name": "groupId",
          "type": "uint256"
        },
        {
          "internalType": "uint256",
          "name": "nullifierHash",
          "type": "uint256"
        },
        {
          "internalType": "uint256[8]",
          "name": "proof",
          "type": "uint256[8]"
        },
        {
          "internalType": "uint256",
          "name": "salt",
          "type": "uint256"
        }
      ],
      "name": "verifyWithSalt",
      "outputs": [],
      "stateMutability": "nonpayable",
      "type": "function"
    }
  ],
  "bytecode": "0x608060405234801561001057600080fd5b50614b5a806100206000396000f3fe608060405234801561001057600080fd5b50600436106101585760003560e01c80639d84b1df116100c3578063d7d455651161007c578063d7d45565146103b9578063dabc4d51146103d5578063dfd572a014610405578063f2fde38b14610423578063f6bbdcd51461043f578063ffa1ad741461046f57610158565b80639d84b1df146102f3578063aac79d721461030f578063b325ecd71461032d578063b4142f6514610349578063bd8620341461037f578063c0c53b8b1461039d57610158565b8063715018a611610115578063715018a61461022f578063733f532814610239578063800e1a09146102555780638708ae74146102715780638a0d0f8c146102a15780638da5cb5b146102d557610158565b8063021eee2b1461015d5780632b7ac3f314610179578063417c4fa71461019757806342d4a721146101b3578063638480be146101cf5780636389e107146101ff575b600080fd5b610177600480360381019061017291906132ea565b61048d565b005b610181610943565b60405161018e9190613d64565b60405180910390f35b6101b160048036038101906101ac9190612f77565b610969565b005b6101cd60048036038101906101c891906131b7565b610a37565b005b6101e960048036038101906101e4919061308d565b610ae2565b6040516101f69190613ff5565b60405180910390f35b6102196004803603810190610214919061308d565b610b01565b6040516102269190613ff5565b60405180910390f35b610237610b20565b005b610253600480360381019061024e9190612fa0565b610b34565b005b61026f600480360381019061026a9190613247565b611172565b005b61028b6004803603810190610286919061308d565b6111a2565b6040516102989190613ff5565b60405180910390f35b6102bb60048036038101906102b6919061308d565b6111ba565b6040516102cc95949392919061405c565b60405180910390f35b6102dd611278565b6040516102ea9190613c79565b60405180910390f35b61030d60048036038101906103089190613133565b6112a2565b005b6103176112ff565b6040516103249190613ff5565b60405180910390f35b610347600480360381019061034291906133a2565b611305565b005b610363600480360381019061035e91906130df565b61179f565b60405161037697969594939291906140b6565b60405180910390f35b610387611914565b6040516103949190613d7f565b60405180910390f35b6103b760048036038101906103b2919061303e565b61193a565b005b6103d360048036038101906103ce9190613407565b611b49565b005b6103ef60048036038101906103ea919061308d565b611c27565b6040516103fc9190613ff5565b60405180910390f35b61040d611c46565b60405161041a9190613d64565b60405180910390f35b61043d60048036038101906104389190612f77565b611c6c565b005b6104596004803603810190610454919061346e565b611cf0565b6040516104669190613d42565b60405180910390f35b610477611d5f565b6040516104849190613d42565b60405180910390f35b610498858888611b49565b60006104a386610b01565b90506000600367ffffffffffffffff8111156104e8577f4e487b7100000000000000000000000000000000000000000000000000000000600052604160045260246000fd5b6040519080825280602002602001820160405280156105165781602001602082028036833780820191505090505b5090508581600081518110610554577f4e487b7100000000000000000000000000000000000000000000000000000000600052603260045260246000fd5b602002602001018181525050848160018151811061059b577f4e487b7100000000000000000000000000000000000000000000000000000000600052603260045260246000fd5b60200260200101818152505082816002815181106105e2577f4e487b7100000000000000000000000000000000000000000000000000000000600052603260045260246000fd5b6020026020010181815250506000600260009054906101000a900473ffffffffffffffffffffffffffffffffffffffff1673ffffffffffffffffffffffffffffffffffffffff1663c32e370e604051806040016040528088600060088110610673577f4e487b7100000000000000000000000000000000000000000000000000000000600052603260045260246000fd5b60200201358152602001886001600881106106b7577f4e487b7100000000000000000000000000000000000000000000000000000000600052603260045260246000fd5b6020020135815250604051806040016040528060405180604001604052808b60026008811061070f577f4e487b7100000000000000000000000000000000000000000000000000000000600052603260045260246000fd5b602002013581526020018b600360088110610753577f4e487b7100000000000000000000000000000000000000000000000000000000600052603260045260246000fd5b6020020135815250815260200160405180604001604052808b6004600881106107a5577f4e487b7100000000000000000000000000000000000000000000000000000000600052603260045260246000fd5b602002013581526020018b6005600881106107e9577f4e487b7100000000000000000000000000000000000000000000000000000000600052603260045260246000fd5b602002013581525081525060405180604001604052808a600660088110610839577f4e487b7100000000000000000000000000000000000000000000000000000000600052603260045260246000fd5b602002013581526020018a60076008811061087d577f4e487b7100000000000000000000000000000000000000000000000000000000600052603260045260246000fd5b6020020135815250866040518563ffffffff1660e01b81526004016108a59493929190613caf565b60206040518083038186803b1580156108bd57600080fd5b505afa1580156108d1573d6000803e3d6000fd5b505050506040513d601f19601f820116820180604052508101906108f59190613015565b905080610937576040517f08c379a000000000000000000000000000000000000000000000000000000000815260040161092e90613e35565b60405180910390fd5b50505050505050505050565b600260009054906101000a900473ffffffffffffffffffffffffffffffffffffffff1681565b610971611d98565b6000600560009054906101000a900473ffffffffffffffffffffffffffffffffffffffff16905081600560006101000a81548173ffffffffffffffffffffffffffffffffffffffff021916908373ffffffffffffffffffffffffffffffffffffffff1602179055508173ffffffffffffffffffffffffffffffffffffffff168173ffffffffffffffffffffffffffffffffffffffff167f11a7c3b8107d993bc669b5867b58e002c54e379b04105f91481b7860c57e6b9760405160405180910390a35050565b610a42838686611b49565b6000610a4d84611c27565b9050610a90868686848787600660008e81526020019081526020016000208c604051610a799190613c18565b90815260200160405180910390206005015461048d565b60016006600088815260200190815260200160002086604051610ab39190613c18565b90815260200160405180910390206005016000828254610ad391906143fe565b92505081905550505050505050565b6000806000838152602001908152602001600020600201549050919050565b6000806000838152602001908152602001600020600001549050919050565b610b28611d98565b610b326000611e16565b565b818190508484905014610b7c576040517f08c379a0000000000000000000000000000000000000000000000000000000008152600401610b7390613f75565b60405180910390fd5b60005b8484905081101561116b576000858583818110610bc5577f4e487b7100000000000000000000000000000000000000000000000000000000600052603260045260246000fd5b9050602002810190610bd7919061428d565b6000013590506000868684818110610c18577f4e487b7100000000000000000000000000000000000000000000000000000000600052603260045260246000fd5b9050602002810190610c2a919061428d565b8060200190610c399190614236565b8080601f016020809104026020016040519081016040528093929190818152602001838380828437600081840152601f19601f82011690508083019250505050505050905060006006600084815260200190815260200160002082604051610ca19190613c18565b9081526020016040518091039020600001541415610cf4576040517f08c379a0000000000000000000000000000000000000000000000000000000008152600401610ceb90613f35565b60405180910390fd5b6000878785818110610d2f577f4e487b7100000000000000000000000000000000000000000000000000000000600052603260045260246000fd5b9050602002810190610d41919061428d565b6040013590506000888886818110610d82577f4e487b7100000000000000000000000000000000000000000000000000000000600052603260045260246000fd5b9050602002810190610d94919061428d565b6060013590506000600760008381526020019081526020016000206004015414610df3576040517f08c379a0000000000000000000000000000000000000000000000000000000008152600401610dea90613dd5565b60405180910390fd5b6000898987818110610e2e577f4e487b7100000000000000000000000000000000000000000000000000000000600052603260045260246000fd5b9050602002810190610e40919061428d565b6080013590506000610e558487878686611cf0565b90506000610e6282611edc565b90506000610efd828c8c8c818110610ea3577f4e487b7100000000000000000000000000000000000000000000000000000000600052603260045260246000fd5b9050602002810190610eb591906141df565b8080601f016020809104026020016040519081016040528093929190818152602001838380828437600081840152601f19601f82011690508083019250505050505050611f17565b9050610f07611278565b73ffffffffffffffffffffffffffffffffffffffff168173ffffffffffffffffffffffffffffffffffffffff1614610f74576040517f08c379a0000000000000000000000000000000000000000000000000000000008152600401610f6b90613e75565b60405180910390fd5b6040518060a001604052808981526020018881526020018781526020018681526020018581525060076000878152602001908152602001600020600082015181600001556020820151816001019080519060200190610fd4929190612cf2565b506040820151816002015560608201518160030155608082015181600401559050506110038888888888611f3e565b60086000878152602001908152602001600020819055506000600560009054906101000a900473ffffffffffffffffffffffffffffffffffffffff1673ffffffffffffffffffffffffffffffffffffffff166372a25df2888b8b8a6040518563ffffffff1660e01b815260040161107d949392919061415c565b602060405180830381600087803b15801561109757600080fd5b505af11580156110ab573d6000803e3d6000fd5b505050506040513d601f19601f820116820180604052508101906110cf9190613015565b905080611111576040517f08c379a000000000000000000000000000000000000000000000000000000000815260040161110890613eb5565b60405180910390fd5b867f6f74f220ffa645b2084cd31546f177e2302182fcd48031a40b61ac895aff2bc38a8a89896040516111479493929190614010565b60405180910390a250505050505050505080806111639061463b565b915050610b7f565b5050505050565b61117d848787611b49565b600061118885611c27565b90506111998787878488888861048d565b50505050505050565b60086020528060005260406000206000915090505481565b60076020528060005260406000206000915090508060000154908060010180546111e3906145d8565b80601f016020809104026020016040519081016040528092919081815260200182805461120f906145d8565b801561125c5780601f106112315761010080835404028352916020019161125c565b820191906000526020600020905b81548152906001019060200180831161123f57829003601f168201915b5050505050908060020154908060030154908060040154905085565b6000600160009054906101000a900473ffffffffffffffffffffffffffffffffffffffff16905090565b6112aa611d98565b6112f9848484848080601f016020809104026020016040519081016040528093929190818152602001838380828437600081840152601f19601f820116905080830192505050505050506121a8565b50505050565b60045481565b6000600367ffffffffffffffff811115611348577f4e487b7100000000000000000000000000000000000000000000000000000000600052604160045260246000fd5b6040519080825280602002602001820160405280156113765781602001602082028036833780820191505090505b50905084816000815181106113b4577f4e487b7100000000000000000000000000000000000000000000000000000000600052603260045260246000fd5b60200260200101818152505083816001815181106113fb577f4e487b7100000000000000000000000000000000000000000000000000000000600052603260045260246000fd5b6020026020010181815250508181600281518110611442577f4e487b7100000000000000000000000000000000000000000000000000000000600052603260045260246000fd5b6020026020010181815250506000600360009054906101000a900473ffffffffffffffffffffffffffffffffffffffff1673ffffffffffffffffffffffffffffffffffffffff1663c32e370e6040518060400160405280876000600881106114d3577f4e487b7100000000000000000000000000000000000000000000000000000000600052603260045260246000fd5b6020020135815260200187600160088110611517577f4e487b7100000000000000000000000000000000000000000000000000000000600052603260045260246000fd5b6020020135815250604051806040016040528060405180604001604052808a60026008811061156f577f4e487b7100000000000000000000000000000000000000000000000000000000600052603260045260246000fd5b602002013581526020018a6003600881106115b3577f4e487b7100000000000000000000000000000000000000000000000000000000600052603260045260246000fd5b6020020135815250815260200160405180604001604052808a600460088110611605577f4e487b7100000000000000000000000000000000000000000000000000000000600052603260045260246000fd5b602002013581526020018a600560088110611649577f4e487b7100000000000000000000000000000000000000000000000000000000600052603260045260246000fd5b6020020135815250815250604051806040016040528089600660088110611699577f4e487b7100000000000000000000000000000000000000000000000000000000600052603260045260246000fd5b60200201358152602001896007600881106116dd577f4e487b7100000000000000000000000000000000000000000000000000000000600052603260045260246000fd5b6020020135815250866040518563ffffffff1660e01b81526004016117059493929190613caf565b60206040518083038186803b15801561171d57600080fd5b505afa158015611731573d6000803e3d6000fd5b505050506040513d601f19601f820116820180604052508101906117559190613015565b905080611797576040517f08c379a000000000000000000000000000000000000000000000000000000000815260040161178e90613e35565b60405180910390fd5b505050505050565b600660205281600052604060002081805160208101820180518482526020830160208501208183528095505050505050600091509150508060000154908060010180546117eb906145d8565b80601f0160208091040260200160405190810160405280929190818152602001828054611817906145d8565b80156118645780601f1061183957610100808354040283529160200191611864565b820191906000526020600020905b81548152906001019060200180831161184757829003601f168201915b505050505090806002015490806003015490806004015490806005015490806006018054611891906145d8565b80601f01602080910402602001604051908101604052809291908181526020018280546118bd906145d8565b801561190a5780601f106118df5761010080835404028352916020019161190a565b820191906000526020600020905b8154815290600101906020018083116118ed57829003601f168201915b5050505050905087565b600560009054906101000a900473ffffffffffffffffffffffffffffffffffffffff1681565b6000600160159054906101000a900460ff1615905080801561196d575060018060149054906101000a900460ff1660ff16105b8061199b575061197c3061232f565b15801561199a575060018060149054906101000a900460ff1660ff16145b5b6119da576040517f08c379a00000000000000000000000000000000000000000000000000000000081526004016119d190613e95565b60405180910390fd5b60018060146101000a81548160ff021916908360ff1602179055508015611a165760018060156101000a81548160ff0219169083151502179055505b611a1e612352565b83600260006101000a81548173ffffffffffffffffffffffffffffffffffffffff021916908373ffffffffffffffffffffffffffffffffffffffff16021790555082600360006101000a81548173ffffffffffffffffffffffffffffffffffffffff021916908373ffffffffffffffffffffffffffffffffffffffff160217905550600160048190555081600560006101000a81548173ffffffffffffffffffffffffffffffffffffffff021916908373ffffffffffffffffffffffffffffffffffffffff1602179055508015611b43576000600160156101000a81548160ff0219169083151502179055507f7f26b83ff96e1f2b6a682f133852f6798a09c465da95921460cefb38474024986001604051611b3a9190613d9a565b60405180910390a15b50505050565b60006006600084815260200190815260200160002082604051611b6c9190613c18565b908152602001604051809103902060000154905080841015611bc3576040517f08c379a0000000000000000000000000000000000000000000000000000000008152600401611bba90613f55565b60405180910390fd5b60106080611bd19190614485565b6001901b81611be091906143fe565b8410611c21576040517f08c379a0000000000000000000000000000000000000000000000000000000008152600401611c1890613ef5565b60405180910390fd5b50505050565b6000806000838152602001908152602001600020600101549050919050565b600360009054906101000a900473ffffffffffffffffffffffffffffffffffffffff1681565b611c74611d98565b600073ffffffffffffffffffffffffffffffffffffffff168173ffffffffffffffffffffffffffffffffffffffff161415611ce4576040517f08c379a0000000000000000000000000000000000000000000000000000000008152600401611cdb90613e15565b60405180910390fd5b611ced81611e16565b50565b6060604051806060016040528060238152602001614b0260239139611d1487612364565b611d1d87612364565b86611d2787612364565b611d3087612364565b604051602001611d4596959493929190613b75565b604051602081830303815290604052905095945050505050565b6040518060400160405280600381526020017f302e35000000000000000000000000000000000000000000000000000000000081525081565b611da0612488565b73ffffffffffffffffffffffffffffffffffffffff16611dbe611278565b73ffffffffffffffffffffffffffffffffffffffff1614611e14576040517f08c379a0000000000000000000000000000000000000000000000000000000008152600401611e0b90613ed5565b60405180910390fd5b565b6000600160009054906101000a900473ffffffffffffffffffffffffffffffffffffffff16905081600160006101000a81548173ffffffffffffffffffffffffffffffffffffffff021916908373ffffffffffffffffffffffffffffffffffffffff1602179055508173ffffffffffffffffffffffffffffffffffffffff168173ffffffffffffffffffffffffffffffffffffffff167f8be0079c531659141344cd1fd0a4f28419497f9722a3daafe3b4186f6b6457e060405160405180910390a35050565b6000611ee88251612364565b82604051602001611efa929190613c2f565b604051602081830303815290604052805190602001209050919050565b6000806000611f268585612490565b91509150611f33816124e2565b819250505092915050565b6000806006600088815260200190815260200160002086604051611f629190613c18565b9081526020016040518091039020600001541415611f9557611f948686604051806020016040528060008152506121a8565b5b60006006600088815260200190815260200160002086604051611fb89190613c18565b90815260200160405180910390209050600081600001549050600082600201546001901b8360030154611feb9190614454565b82611ff691906143fe565b905060008360030154141580156120245750600083600201546001901b8460030154612022919061468e565b145b1561203857612037818460020154612780565b5b600073__$c71a83c115de0c7ed4ad66768f63425c95$__6329a5f2f660405180604001604052808b81526020018a8152506040518263ffffffff1660e01b81526004016120859190613c94565b60206040518083038186803b15801561209d57600080fd5b505af41580156120b1573d6000803e3d6000fd5b505050506040513d601f19601f820116820180604052508101906120d591906130b6565b905073__$c71a83c115de0c7ed4ad66768f63425c95$__6329a5f2f660405180604001604052808481526020018a8152506040518263ffffffff1660e01b81526004016121229190613c94565b60206040518083038186803b15801561213a57600080fd5b505af415801561214e573d6000803e3d6000fd5b505050506040513d601f19601f8201168201806040525081019061217291906130b6565b905061217e82826128b1565b8360030160008154809291906121939061463b565b91905055508194505050505095945050505050565b600060066000858152602001908152602001600020836040516121cb9190613c18565b9081526020016040518091039020600001541461221d576040517f08c379a000000000000000000000000000000000000000000000000000000000815260040161221490613f15565b60405180910390fd5b61222a6004546010612780565b6040518060e0016040528060045481526020018281526020016010815260200160008152602001848152602001600081526020018381525060066000858152602001908152602001600020836040516122839190613c18565b90815260200160405180910390206000820151816000015560208201518160010190805190602001906122b7929190612cf2565b5060408201518160020155606082015181600301556080820151816004015560a0820151816005015560c08201518160060190805190602001906122fc929190612cf2565b509050506010608061230e9190614485565b6001901b6004600082825461232391906143fe565b92505081905550505050565b6000808273ffffffffffffffffffffffffffffffffffffffff163b119050919050565b61236261235d612488565b611e16565b565b606060006001612373846129d8565b01905060008167ffffffffffffffff8111156123b8577f4e487b7100000000000000000000000000000000000000000000000000000000600052604160045260246000fd5b6040519080825280601f01601f1916602001820160405280156123ea5781602001600182028036833780820191505090505b509050600082602001820190505b60011561247d578080600190039150507f3031323334353637383961626364656600000000000000000000000000000000600a86061a8153600a8581612467577f4e487b7100000000000000000000000000000000000000000000000000000000600052601260045260246000fd5b04945060008514156124785761247d565b6123f8565b819350505050919050565b600033905090565b6000806041835114156124d25760008060006020860151925060408601519150606086015160001a90506124c687828585612c0f565b945094505050506124db565b60006002915091505b9250929050565b6000600481111561251c577f4e487b7100000000000000000000000000000000000000000000000000000000600052602160045260246000fd5b816004811115612555577f4e487b7100000000000000000000000000000000000000000000000000000000600052602160045260246000fd5b14156125605761277d565b6001600481111561259a577f4e487b7100000000000000000000000000000000000000000000000000000000600052602160045260246000fd5b8160048111156125d3577f4e487b7100000000000000000000000000000000000000000000000000000000600052602160045260246000fd5b1415612614576040517f08c379a000000000000000000000000000000000000000000000000000000000815260040161260b90613db5565b60405180910390fd5b6002600481111561264e577f4e487b7100000000000000000000000000000000000000000000000000000000600052602160045260246000fd5b816004811115612687577f4e487b7100000000000000000000000000000000000000000000000000000000600052602160045260246000fd5b14156126c8576040517f08c379a00000000000000000000000000000000000000000000000000000000081526004016126bf90613df5565b60405180910390fd5b60036004811115612702577f4e487b7100000000000000000000000000000000000000000000000000000000600052602160045260246000fd5b81600481111561273b577f4e487b7100000000000000000000000000000000000000000000000000000000600052602160045260246000fd5b141561277c576040517f08c379a000000000000000000000000000000000000000000000000000000000815260040161277390613e55565b60405180910390fd5b5b50565b600061278b83610b01565b146127c2576040517f8121725b00000000000000000000000000000000000000000000000000000000815260040160405180910390fd5b60006008836040516020016127d79190613c5e565b6040516020818303038152906040528051906020012060001c901c905060008084815260200190815260200160002073__$0c6eb7207c37accf1552a1c47686411ac0$__631095fbb4909184846040518463ffffffff1660e01b815260040161284293929190613fbe565b60006040518083038186803b15801561285a57600080fd5b505af415801561286e573d6000803e3d6000fd5b50505050827f0d000126c26c1bbe400fd2332187f75d58b69306f9ec47b408686189d3a0083383836040516128a4929190614133565b60405180910390a2505050565b60006128bc83610b01565b14156128f4576040517f029f057900000000000000000000000000000000000000000000000000000000815260040160405180910390fd5b60008083815260200190815260200160002073__$0c6eb7207c37accf1552a1c47686411ac0$__63168703fa9091836040518363ffffffff1660e01b8152600401612940929190613f95565b60006040518083038186803b15801561295857600080fd5b505af415801561296c573d6000803e3d6000fd5b50505050600061297b83611c27565b90506000600161298a85610ae2565b6129949190614485565b9050837f19239b3f93cd10558aaf11423af70c77763bf54f52bcc75bfa74d4d13548cde98285856040516129ca939291906141a8565b60405180910390a250505050565b600080600090507a184f03e93ff9f4daa797ed6e38ed64bf6a1f0100000000000000008310612a5c577a184f03e93ff9f4daa797ed6e38ed64bf6a1f0100000000000000008381612a52577f4e487b7100000000000000000000000000000000000000000000000000000000600052601260045260246000fd5b0492506040810190505b6d04ee2d6d415b85acef81000000008310612abf576d04ee2d6d415b85acef81000000008381612ab5577f4e487b7100000000000000000000000000000000000000000000000000000000600052601260045260246000fd5b0492506020810190505b662386f26fc100008310612b1457662386f26fc100008381612b0a577f4e487b7100000000000000000000000000000000000000000000000000000000600052601260045260246000fd5b0492506010810190505b6305f5e1008310612b63576305f5e1008381612b59577f4e487b7100000000000000000000000000000000000000000000000000000000600052601260045260246000fd5b0492506008810190505b6127108310612bae576127108381612ba4577f4e487b7100000000000000000000000000000000000000000000000000000000600052601260045260246000fd5b0492506004810190505b60648310612bf75760648381612bed577f4e487b7100000000000000000000000000000000000000000000000000000000600052601260045260246000fd5b0492506002810190505b600a8310612c06576001810190505b80915050919050565b6000807f7fffffffffffffffffffffffffffffff5d576e7357a4501ddfe92f46681b20a08360001c1115612c4a576000600391509150612ce9565b600060018787878760405160008152602001604052604051612c6f9493929190613cfd565b6020604051602081039080840390855afa158015612c91573d6000803e3d6000fd5b505050602060405103519050600073ffffffffffffffffffffffffffffffffffffffff168173ffffffffffffffffffffffffffffffffffffffff161415612ce057600060019250925050612ce9565b80600092509250505b94509492505050565b828054612cfe906145d8565b90600052602060002090601f016020900481019282612d205760008555612d67565b82601f10612d3957805160ff1916838001178555612d67565b82800160010185558215612d67579182015b82811115612d66578251825591602001919060010190612d4b565b5b509050612d749190612d78565b5090565b5b80821115612d91576000816000905550600101612d79565b5090565b6000612da8612da3846142d6565b6142b1565b905082815260208101848484011115612dc057600080fd5b612dcb848285614596565b509392505050565b600081359050612de281614a8e565b92915050565b60008083601f840112612dfa57600080fd5b8235905067ffffffffffffffff811115612e1357600080fd5b602083019150836020820283011115612e2b57600080fd5b9250929050565b60008083601f840112612e4457600080fd5b8235905067ffffffffffffffff811115612e5d57600080fd5b602083019150836020820283011115612e7557600080fd5b9250929050565b600081905082602060080282011115612e9457600080fd5b92915050565b600081519050612ea981614aa5565b92915050565b600081359050612ebe81614abc565b92915050565b600081359050612ed381614ad3565b92915050565b60008083601f840112612eeb57600080fd5b8235905067ffffffffffffffff811115612f0457600080fd5b602083019150836001820283011115612f1c57600080fd5b9250929050565b600082601f830112612f3457600080fd5b8135612f44848260208601612d95565b91505092915050565b600081359050612f5c81614aea565b92915050565b600081519050612f7181614aea565b92915050565b600060208284031215612f8957600080fd5b6000612f9784828501612dd3565b91505092915050565b60008060008060408587031215612fb657600080fd5b600085013567ffffffffffffffff811115612fd057600080fd5b612fdc87828801612e32565b9450945050602085013567ffffffffffffffff811115612ffb57600080fd5b61300787828801612de8565b925092505092959194509250565b60006020828403121561302757600080fd5b600061303584828501612e9a565b91505092915050565b60008060006060848603121561305357600080fd5b600061306186828701612eaf565b935050602061307286828701612eaf565b925050604061308386828701612ec4565b9150509250925092565b60006020828403121561309f57600080fd5b60006130ad84828501612f4d565b91505092915050565b6000602082840312156130c857600080fd5b60006130d684828501612f62565b91505092915050565b600080604083850312156130f257600080fd5b600061310085828601612f4d565b925050602083013567ffffffffffffffff81111561311d57600080fd5b61312985828601612f23565b9150509250929050565b6000806000806060858703121561314957600080fd5b600061315787828801612f4d565b945050602085013567ffffffffffffffff81111561317457600080fd5b61318087828801612f23565b935050604085013567ffffffffffffffff81111561319d57600080fd5b6131a987828801612ed9565b925092505092959194509250565b600080600080600061018086880312156131d057600080fd5b60006131de88828901612f4d565b955050602086013567ffffffffffffffff8111156131fb57600080fd5b61320788828901612f23565b945050604061321888828901612f4d565b935050606061322988828901612f4d565b925050608061323a88828901612e7c565b9150509295509295909350565b6000806000806000806101a0878903121561326157600080fd5b600061326f89828a01612f4d565b965050602087013567ffffffffffffffff81111561328c57600080fd5b61329889828a01612f23565b95505060406132a989828a01612f4d565b94505060606132ba89828a01612f4d565b93505060806132cb89828a01612e7c565b9250506101806132dd89828a01612f4d565b9150509295509295509295565b60008060008060008060006101c0888a03121561330657600080fd5b60006133148a828b01612f4d565b975050602088013567ffffffffffffffff81111561333157600080fd5b61333d8a828b01612f23565b965050604061334e8a828b01612f4d565b955050606061335f8a828b01612f4d565b94505060806133708a828b01612f4d565b93505060a06133818a828b01612e7c565b9250506101a06133938a828b01612f4d565b91505092959891949750929550565b60008060008061016085870312156133b957600080fd5b60006133c787828801612f4d565b94505060206133d887828801612f4d565b93505060406133e987828801612e7c565b9250506101406133fb87828801612f4d565b91505092959194509250565b60008060006060848603121561341c57600080fd5b600061342a86828701612f4d565b935050602061343b86828701612f4d565b925050604084013567ffffffffffffffff81111561345857600080fd5b61346486828701612f23565b9150509250925092565b600080600080600060a0868803121561348657600080fd5b600061349488828901612f4d565b95505060206134a588828901612f4d565b945050604086013567ffffffffffffffff8111156134c257600080fd5b6134ce88828901612f23565b93505060606134df88828901612f4d565b92505060806134f088828901612f4d565b9150509295509295909350565b600061350983836135ab565b60408301905092915050565b60006135218383613b13565b60208301905092915050565b60006135398383613b40565b60208301905092915050565b61354e816144b9565b82525050565b61355d8161432b565b6135678184614389565b925061357282614307565b8060005b838110156135a357815161358a87826134fd565b965061359583614362565b925050600181019050613576565b505050505050565b6135b481614336565b6135be8184614394565b92506135c982614311565b8060005b838110156135fa5781516135e18782613515565b96506135ec8361436f565b9250506001810190506135cd565b505050505050565b61360b81614336565b613615818461439f565b925061362082614311565b8060005b838110156136515781516136388782613515565b96506136438361436f565b925050600181019050613624565b505050505050565b61366281614336565b61366c81846143aa565b925061367782614311565b8060005b838110156136a857815161368f878261352d565b965061369a8361436f565b92505060018101905061367b565b505050505050565b60006136bb82614341565b6136c581856143b5565b93506136d08361431b565b8060005b838110156137015781516136e88882613515565b97506136f38361437c565b9250506001810190506136d4565b5085935050505092915050565b613717816144d7565b82525050565b60006137288261434c565b61373281856143c6565b93506137428185602086016145a5565b61374b8161477b565b840191505092915050565b60006137618261434c565b61376b81856143d7565b935061377b8185602086016145a5565b80840191505092915050565b6137908161453c565b82525050565b61379f81614560565b82525050565b6137ae81614584565b82525050565b60006137bf82614357565b6137c981856143e2565b93506137d98185602086016145a5565b6137e28161477b565b840191505092915050565b60006137f882614357565b61380281856143f3565b93506138128185602086016145a5565b80840191505092915050565b600061382b6018836143e2565b91506138368261478c565b602082019050919050565b600061384e6011836143e2565b9150613859826147b5565b602082019050919050565b6000613871601f836143e2565b915061387c826147de565b602082019050919050565b60006138946026836143e2565b915061389f82614807565b604082019050919050565b60006138b7600e836143e2565b91506138c282614856565b602082019050919050565b7f2073627420696420000000000000000000000000000000000000000000000000815250565b60006139006022836143e2565b915061390b8261487f565b604082019050919050565b6000613923601e836143e2565b915061392e826148ce565b602082019050919050565b6000613946602e836143e2565b9150613951826148f7565b604082019050919050565b60006139696014836143e2565b915061397482614946565b602082019050919050565b7f2073627420617474726962757465200000000000000000000000000000000000815250565b60006139b26020836143e2565b91506139bd8261496f565b602082019050919050565b60006139d5601a836143f3565b91506139e082614998565b601a82019050919050565b60006139f8600b836143e2565b9150613a03826149c1565b602082019050919050565b7f207075626c696341646472657373200000000000000000000000000000000000815250565b6000613a416017836143e2565b9150613a4c826149ea565b602082019050919050565b7f207665726966792074696d657374616d70200000000000000000000000000000815250565b6000613a8a6013836143e2565b9150613a9582614a13565b602082019050919050565b7f207362742063617465676f727920000000000000000000000000000000000000815250565b6000613ad3600d836143e2565b9150613ade82614a3c565b602082019050919050565b6000613af66016836143e2565b9150613b0182614a65565b602082019050919050565b8082525050565b613b1c81614525565b82525050565b613b2b81614525565b82525050565b613b3a81614525565b82525050565b613b4981614525565b82525050565b613b60613b5b82614525565b614684565b82525050565b613b6f8161452f565b82525050565b6000613b818289613756565b9150613b8c82613a0e565b600f82019150613b9c8288613756565b9150613ba782613aa0565b600e82019150613bb78287613756565b9150613bc28261397f565b600f82019150613bd28286613756565b9150613bdd826138cd565b600882019150613bed8285613756565b9150613bf882613a57565b601282019150613c088284613756565b9150819050979650505050505050565b6000613c2482846137ed565b915081905092915050565b6000613c3a826139c8565b9150613c4682856137ed565b9150613c528284613756565b91508190509392505050565b6000613c6a8284613b4f565b60208201915081905092915050565b6000602082019050613c8e6000830184613545565b92915050565b6000604082019050613ca96000830184613659565b92915050565b600061012082019050613cc56000830187613602565b613cd26040830186613554565b613cdf60c0830185613602565b818103610100830152613cf281846136b0565b905095945050505050565b6000608082019050613d12600083018761370e565b613d1f6020830186613b66565b613d2c604083018561370e565b613d39606083018461370e565b95945050505050565b60006020820190508181036000830152613d5c818461371d565b905092915050565b6000602082019050613d796000830184613787565b92915050565b6000602082019050613d946000830184613796565b92915050565b6000602082019050613daf60008301846137a5565b92915050565b60006020820190508181036000830152613dce8161381e565b9050919050565b60006020820190508181036000830152613dee81613841565b9050919050565b60006020820190508181036000830152613e0e81613864565b9050919050565b60006020820190508181036000830152613e2e81613887565b9050919050565b60006020820190508181036000830152613e4e816138aa565b9050919050565b60006020820190508181036000830152613e6e816138f3565b9050919050565b60006020820190508181036000830152613e8e81613916565b9050919050565b60006020820190508181036000830152613eae81613939565b9050919050565b60006020820190508181036000830152613ece8161395c565b9050919050565b60006020820190508181036000830152613eee816139a5565b9050919050565b60006020820190508181036000830152613f0e816139eb565b9050919050565b60006020820190508181036000830152613f2e81613a34565b9050919050565b60006020820190508181036000830152613f4e81613a7d565b9050919050565b60006020820190508181036000830152613f6e81613ac6565b9050919050565b60006020820190508181036000830152613f8e81613ae9565b9050919050565b6000604082019050613faa6000830185613b0c565b613fb76020830184613b31565b9392505050565b6000606082019050613fd36000830186613b0c565b613fe06020830185613b31565b613fed6040830184613b31565b949350505050565b600060208201905061400a6000830184613b22565b92915050565b60006080820190506140256000830187613b22565b818103602083015261403781866137b4565b90506140466040830185613b22565b6140536060830184613b22565b95945050505050565b600060a0820190506140716000830188613b22565b818103602083015261408381876137b4565b90506140926040830186613b22565b61409f6060830185613b22565b6140ac6080830184613b22565b9695505050505050565b600060e0820190506140cb600083018a613b22565b81810360208301526140dd81896137b4565b90506140ec6040830188613b22565b6140f96060830187613b22565b6141066080830186613b22565b61411360a0830185613b22565b81810360c083015261412581846137b4565b905098975050505050505050565b60006040820190506141486000830185613b22565b6141556020830184613b22565b9392505050565b60006080820190506141716000830187613b22565b61417e6020830186613b22565b818103604083015261419081856137b4565b905061419f6060830184613b22565b95945050505050565b60006060820190506141bd6000830186613b22565b6141ca6020830185613b22565b6141d76040830184613b22565b949350505050565b600080833560016020038436030381126141f857600080fd5b80840192508235915067ffffffffffffffff82111561421657600080fd5b60208301925060018202360383131561422e57600080fd5b509250929050565b6000808335600160200384360303811261424f57600080fd5b80840192508235915067ffffffffffffffff82111561426d57600080fd5b60208301925060018202360383131561428557600080fd5b509250929050565b60008235600160a0038336030381126142a557600080fd5b80830191505092915050565b60006142bb6142cc565b90506142c7828261460a565b919050565b6000604051905090565b600067ffffffffffffffff8211156142f1576142f061474c565b5b6142fa8261477b565b9050602081019050919050565b6000819050919050565b6000819050919050565b6000819050602082019050919050565b600060029050919050565b600060029050919050565b600081519050919050565b600081519050919050565b600081519050919050565b6000602082019050919050565b6000602082019050919050565b6000602082019050919050565b600081905092915050565b600081905092915050565b600081905092915050565b600081905092915050565b600082825260208201905092915050565b600082825260208201905092915050565b600081905092915050565b600082825260208201905092915050565b600081905092915050565b600061440982614525565b915061441483614525565b9250827fffffffffffffffffffffffffffffffffffffffffffffffffffffffffffffffff03821115614449576144486146bf565b5b828201905092915050565b600061445f82614525565b915061446a83614525565b92508261447a576144796146ee565b5b828204905092915050565b600061449082614525565b915061449b83614525565b9250828210156144ae576144ad6146bf565b5b828203905092915050565b60006144c482614505565b9050919050565b60008115159050919050565b6000819050919050565b60006144ec826144b9565b9050919050565b60006144fe826144b9565b9050919050565b600073ffffffffffffffffffffffffffffffffffffffff82169050919050565b6000819050919050565b600060ff82169050919050565b60006145478261454e565b9050919050565b600061455982614505565b9050919050565b600061456b82614572565b9050919050565b600061457d82614505565b9050919050565b600061458f8261452f565b9050919050565b82818337600083830152505050565b60005b838110156145c35780820151818401526020810190506145a8565b838111156145d2576000848401525b50505050565b600060028204905060018216806145f057607f821691505b602082108114156146045761460361471d565b5b50919050565b6146138261477b565b810181811067ffffffffffffffff821117156146325761463161474c565b5b80604052505050565b600061464682614525565b91507fffffffffffffffffffffffffffffffffffffffffffffffffffffffffffffffff821415614679576146786146bf565b5b600182019050919050565b6000819050919050565b600061469982614525565b91506146a483614525565b9250826146b4576146b36146ee565b5b828206905092915050565b7f4e487b7100000000000000000000000000000000000000000000000000000000600052601160045260246000fd5b7f4e487b7100000000000000000000000000000000000000000000000000000000600052601260045260246000fd5b7f4e487b7100000000000000000000000000000000000000000000000000000000600052602260045260246000fd5b7f4e487b7100000000000000000000000000000000000000000000000000000000600052604160045260246000fd5b6000601f19601f8301169050919050565b7f45434453413a20696e76616c6964207369676e61747572650000000000000000600082015250565b7f73616d65207a6b73627420657869737421000000000000000000000000000000600082015250565b7f45434453413a20696e76616c6964207369676e6174757265206c656e67746800600082015250565b7f4f776e61626c653a206e6577206f776e657220697320746865207a65726f206160008201527f6464726573730000000000000000000000000000000000000000000000000000602082015250565b7f70726f6f6620696e76616c696421000000000000000000000000000000000000600082015250565b7f45434453413a20696e76616c6964207369676e6174757265202773272076616c60008201527f7565000000000000000000000000000000000000000000000000000000000000602082015250565b7f496e76616c6964204365727469666963617465205369676e6174757265210000600082015250565b7f496e697469616c697a61626c653a20636f6e747261637420697320616c72656160008201527f647920696e697469616c697a6564000000000000000000000000000000000000602082015250565b7f6661696c656420746f206d696e74207a6b534254000000000000000000000000600082015250565b7f4f776e61626c653a2063616c6c6572206973206e6f7420746865206f776e6572600082015250565b7f19457468657265756d205369676e6564204d6573736167653a0a000000000000600082015250565b7f696420746f6f2062696721000000000000000000000000000000000000000000600082015250565b7f73627420706f6f6c20616c726561647920657869737421000000000000000000600082015250565b7f73627420706f6f6c206e6f742065786973742100000000000000000000000000600082015250565b7f696420746f6f20736d616c6c2100000000000000000000000000000000000000600082015250565b7f7362742f736967206c656e206e6f74206d617463682100000000000000000000600082015250565b614a97816144b9565b8114614aa257600080fd5b50565b614aae816144cb565b8114614ab957600080fd5b50565b614ac5816144e1565b8114614ad057600080fd5b50565b614adc816144f3565b8114614ae757600080fd5b50565b614af381614525565b8114614afe57600080fd5b5056fe5369676e2074686973206d65657361676520746f20636c61696d207a6b534254203a20a26469706673582212208cda80b64a8b83cbdf8ed97f17fa456e777590a0f177213cd7e861bd062d323964736f6c63430008040033",
  "linkReferences": {
    "@zk-kit/incremental-merkle-tree.sol/Hashes.sol": {
      "PoseidonT3": [
        {
          "length": 20,
          "start": 8284
        },
        {
          "length": 20,
          "start": 8441
        }
      ]
    },
    "@zk-kit/incremental-merkle-tree.sol/IncrementalBinaryTree.sol": {
      "IncrementalBinaryTree": [
        {
          "length": 20,
          "start": 10280
        },
        {
          "length": 20,
          "start": 10536
        }
      ]
    }
  },
  "deployedLinkReferences": {
    "@zk-kit/incremental-merkle-tree.sol/Hashes.sol": {
      "PoseidonT3": [
        {
          "length": 20,
          "start": 8252
        },
        {
          "length": 20,
          "start": 8409
        }
      ]
    },
    "@zk-kit/incremental-merkle-tree.sol/IncrementalBinaryTree.sol": {
      "IncrementalBinaryTree": [
        {
          "length": 20,
          "start": 10248
        },
        {
          "length": 20,
          "start": 10504
        }
      ]
    }
  }
}