{
  "_format": "hh-sol-artifact-1",
  "contractName": "Zksbt",
  "sourceName": "contracts/zksbt.sol",
  "abi": [
    {
      "inputs": [],
      "name": "Semaphore__GroupAlreadyExists",
      "type": "error"
    },
    {
      "inputs": [],
      "name": "Semaphore__GroupDoesNotExist",
      "type": "error"
    },
    {
      "anonymous": false,
      "inputs": [
        {
          "indexed": true,
          "internalType": "uint256",
          "name": "groupId",
          "type": "uint256"
        },
        {
          "indexed": false,
          "internalType": "uint256",
          "name": "merkleTreeDepth",
          "type": "uint256"
        },
        {
          "indexed": false,
          "internalType": "uint256",
          "name": "zeroValue",
          "type": "uint256"
        }
      ],
      "name": "GroupCreated",
      "type": "event"
    },
    {
      "anonymous": false,
      "inputs": [
        {
          "indexed": false,
          "internalType": "uint8",
          "name": "version",
          "type": "uint8"
        }
      ],
      "name": "Initialized",
      "type": "event"
    },
    {
      "anonymous": false,
      "inputs": [
        {
          "indexed": true,
          "internalType": "uint256",
          "name": "groupId",
          "type": "uint256"
        },
        {
          "indexed": false,
          "internalType": "uint256",
          "name": "index",
          "type": "uint256"
        },
        {
          "indexed": false,
          "internalType": "uint256",
          "name": "identityCommitment",
          "type": "uint256"
        },
        {
          "indexed": false,
          "internalType": "uint256",
          "name": "merkleTreeRoot",
          "type": "uint256"
        }
      ],
      "name": "MemberAdded",
      "type": "event"
    },
    {
      "anonymous": false,
      "inputs": [
        {
          "indexed": true,
          "internalType": "uint256",
          "name": "groupId",
          "type": "uint256"
        },
        {
          "indexed": false,
          "internalType": "uint256",
          "name": "index",
          "type": "uint256"
        },
        {
          "indexed": false,
          "internalType": "uint256",
          "name": "identityCommitment",
          "type": "uint256"
        },
        {
          "indexed": false,
          "internalType": "uint256",
          "name": "merkleTreeRoot",
          "type": "uint256"
        }
      ],
      "name": "MemberRemoved",
      "type": "event"
    },
    {
      "anonymous": false,
      "inputs": [
        {
          "indexed": true,
          "internalType": "uint256",
          "name": "groupId",
          "type": "uint256"
        },
        {
          "indexed": false,
          "internalType": "uint256",
          "name": "index",
          "type": "uint256"
        },
        {
          "indexed": false,
          "internalType": "uint256",
          "name": "identityCommitment",
          "type": "uint256"
        },
        {
          "indexed": false,
          "internalType": "uint256",
          "name": "newIdentityCommitment",
          "type": "uint256"
        },
        {
          "indexed": false,
          "internalType": "uint256",
          "name": "merkleTreeRoot",
          "type": "uint256"
        }
      ],
      "name": "MemberUpdated",
      "type": "event"
    },
    {
      "anonymous": false,
      "inputs": [
        {
          "indexed": true,
          "internalType": "address",
          "name": "previousOwner",
          "type": "address"
        },
        {
          "indexed": true,
          "internalType": "address",
          "name": "newOwner",
          "type": "address"
        }
      ],
      "name": "OwnershipTransferred",
      "type": "event"
    },
    {
      "anonymous": false,
      "inputs": [
        {
          "indexed": true,
          "internalType": "uint256",
          "name": "identity",
          "type": "uint256"
        },
        {
          "indexed": false,
          "internalType": "uint256",
          "name": "category",
          "type": "uint256"
        },
        {
          "indexed": false,
          "internalType": "uint256",
          "name": "attribute",
          "type": "uint256"
        },
        {
          "indexed": false,
          "internalType": "uint256",
          "name": "id",
          "type": "uint256"
        }
      ],
      "name": "SbtMinted",
      "type": "event"
    },
    {
      "anonymous": false,
      "inputs": [
        {
          "indexed": true,
          "internalType": "address",
          "name": "oldAddress",
          "type": "address"
        },
        {
          "indexed": true,
          "internalType": "address",
          "name": "newAddress",
          "type": "address"
        }
      ],
      "name": "ZkSbtAddressChange",
      "type": "event"
    },
    {
      "inputs": [],
      "name": "VERSION",
      "outputs": [
        {
          "internalType": "bytes",
          "name": "",
          "type": "bytes"
        }
      ],
      "stateMutability": "view",
      "type": "function"
    },
    {
      "inputs": [
        {
          "internalType": "uint256",
          "name": "category",
          "type": "uint256"
        },
        {
          "internalType": "uint256",
          "name": "attribute",
          "type": "uint256"
        },
        {
          "internalType": "string",
          "name": "name",
          "type": "string"
        }
      ],
      "name": "addSbt",
      "outputs": [],
      "stateMutability": "nonpayable",
      "type": "function"
    },
    {
      "inputs": [
        {
          "internalType": "uint256",
          "name": "groupId",
          "type": "uint256"
        },
        {
          "internalType": "uint256",
          "name": "category",
          "type": "uint256"
        },
        {
          "internalType": "uint256",
          "name": "attribute",
          "type": "uint256"
        }
      ],
      "name": "checkGroupIdInSbtPool",
      "outputs": [],
      "stateMutability": "nonpayable",
      "type": "function"
    },
    {
      "inputs": [
        {
          "internalType": "uint256",
          "name": "category",
          "type": "uint256"
        },
        {
          "internalType": "uint256",
          "name": "attribute",
          "type": "uint256"
        },
        {
          "internalType": "string",
          "name": "name",
          "type": "string"
        },
        {
          "internalType": "uint256",
          "name": "groupDepth",
          "type": "uint256"
        }
      ],
      "name": "createSbtPool",
      "outputs": [],
      "stateMutability": "nonpayable",
      "type": "function"
    },
    {
      "inputs": [
        {
          "internalType": "uint256",
          "name": "groupId",
          "type": "uint256"
        }
      ],
      "name": "getMerkleTreeDepth",
      "outputs": [
        {
          "internalType": "uint256",
          "name": "",
          "type": "uint256"
        }
      ],
      "stateMutability": "view",
      "type": "function"
    },
    {
      "inputs": [
        {
          "internalType": "uint256",
          "name": "groupId",
          "type": "uint256"
        }
      ],
      "name": "getMerkleTreeRoot",
      "outputs": [
        {
          "internalType": "uint256",
          "name": "",
          "type": "uint256"
        }
      ],
      "stateMutability": "view",
      "type": "function"
    },
    {
      "inputs": [
        {
          "internalType": "uint256",
          "name": "groupId",
          "type": "uint256"
        }
      ],
      "name": "getNumberOfMerkleTreeLeaves",
      "outputs": [
        {
          "internalType": "uint256",
          "name": "",
          "type": "uint256"
        }
      ],
      "stateMutability": "view",
      "type": "function"
    },
    {
      "inputs": [
        {
          "internalType": "uint256",
          "name": "category",
          "type": "uint256"
        },
        {
          "internalType": "uint256",
          "name": "attribute",
          "type": "uint256"
        }
      ],
      "name": "getSbtPool",
      "outputs": [
        {
          "components": [
            {
              "internalType": "uint256",
              "name": "id",
              "type": "uint256"
            },
            {
              "internalType": "string",
              "name": "name",
              "type": "string"
            },
            {
              "internalType": "uint256",
              "name": "depth",
              "type": "uint256"
            },
            {
              "internalType": "uint256",
              "name": "salt",
              "type": "uint256"
            },
            {
              "internalType": "uint256",
              "name": "amount",
              "type": "uint256"
            }
          ],
          "internalType": "struct Pool",
          "name": "",
          "type": "tuple"
        }
      ],
      "stateMutability": "view",
      "type": "function"
    },
    {
      "inputs": [],
      "name": "groupIdOffset",
      "outputs": [
        {
          "internalType": "uint256",
          "name": "",
          "type": "uint256"
        }
      ],
      "stateMutability": "view",
      "type": "function"
    },
    {
      "inputs": [],
      "name": "iSbt",
      "outputs": [
        {
          "internalType": "contract SbtInterface",
          "name": "",
          "type": "address"
        }
      ],
      "stateMutability": "view",
      "type": "function"
    },
    {
      "inputs": [
        {
          "internalType": "contract IVerifier",
          "name": "_verifier",
          "type": "address"
        },
        {
          "internalType": "uint256",
          "name": "groupDepth",
          "type": "uint256"
        },
        {
          "internalType": "contract SbtInterface",
          "name": "_iSbt",
          "type": "address"
        }
      ],
      "name": "initialize",
      "outputs": [],
      "stateMutability": "nonpayable",
      "type": "function"
    },
    {
      "inputs": [],
      "name": "latestStartGroupId",
      "outputs": [
        {
          "internalType": "uint256",
          "name": "",
          "type": "uint256"
        }
      ],
      "stateMutability": "view",
      "type": "function"
    },
    {
      "inputs": [
        {
          "internalType": "uint256[]",
          "name": "identity",
          "type": "uint256[]"
        },
        {
          "internalType": "uint256[]",
          "name": "category",
          "type": "uint256[]"
        },
        {
          "internalType": "uint256[]",
          "name": "attribute",
          "type": "uint256[]"
        },
        {
          "internalType": "uint256[]",
          "name": "ids",
          "type": "uint256[]"
        },
        {
          "internalType": "bytes[]",
          "name": "certificate_signature",
          "type": "bytes[]"
        }
      ],
      "name": "mint",
      "outputs": [],
      "stateMutability": "nonpayable",
      "type": "function"
    },
    {
      "inputs": [],
      "name": "owner",
      "outputs": [
        {
          "internalType": "address",
          "name": "",
          "type": "address"
        }
      ],
      "stateMutability": "view",
      "type": "function"
    },
    {
      "inputs": [
        {
          "internalType": "uint256",
          "name": "",
          "type": "uint256"
        },
        {
          "internalType": "uint256",
          "name": "",
          "type": "uint256"
        }
      ],
      "name": "pools",
      "outputs": [
        {
          "internalType": "uint256",
          "name": "id",
          "type": "uint256"
        },
        {
          "internalType": "string",
          "name": "name",
          "type": "string"
        },
        {
          "internalType": "uint256",
          "name": "depth",
          "type": "uint256"
        },
        {
          "internalType": "uint256",
          "name": "salt",
          "type": "uint256"
        },
        {
          "internalType": "uint256",
          "name": "amount",
          "type": "uint256"
        }
      ],
      "stateMutability": "view",
      "type": "function"
    },
    {
      "inputs": [],
      "name": "renounceOwnership",
      "outputs": [],
      "stateMutability": "nonpayable",
      "type": "function"
    },
    {
      "inputs": [
        {
          "internalType": "uint256",
          "name": "identity",
          "type": "uint256"
        },
        {
          "internalType": "uint256",
          "name": "category",
          "type": "uint256"
        },
        {
          "internalType": "uint256",
          "name": "attribute",
          "type": "uint256"
        },
        {
          "internalType": "uint256",
          "name": "id",
          "type": "uint256"
        }
      ],
      "name": "sbt_claim_message",
      "outputs": [
        {
          "internalType": "bytes",
          "name": "",
          "type": "bytes"
        }
      ],
      "stateMutability": "pure",
      "type": "function"
    },
    {
      "inputs": [
        {
          "internalType": "uint256",
          "name": "",
          "type": "uint256"
        },
        {
          "internalType": "uint256",
          "name": "",
          "type": "uint256"
        },
        {
          "internalType": "uint256",
          "name": "",
          "type": "uint256"
        }
      ],
      "name": "sbt_group",
      "outputs": [
        {
          "internalType": "uint256",
          "name": "",
          "type": "uint256"
        }
      ],
      "stateMutability": "view",
      "type": "function"
    },
    {
      "inputs": [
        {
          "internalType": "uint256",
          "name": "",
          "type": "uint256"
        },
        {
          "internalType": "uint256",
          "name": "",
          "type": "uint256"
        },
        {
          "internalType": "uint256",
          "name": "",
          "type": "uint256"
        }
      ],
      "name": "sbt_minted",
      "outputs": [
        {
          "internalType": "uint256",
          "name": "",
          "type": "uint256"
        }
      ],
      "stateMutability": "view",
      "type": "function"
    },
    {
      "inputs": [
        {
          "internalType": "address",
          "name": "_newZkSbtAddress",
          "type": "address"
        }
      ],
      "name": "setZkSbtAddress",
      "outputs": [],
      "stateMutability": "nonpayable",
      "type": "function"
    },
    {
      "inputs": [
        {
          "internalType": "address",
          "name": "newOwner",
          "type": "address"
        }
      ],
      "name": "transferOwnership",
      "outputs": [],
      "stateMutability": "nonpayable",
      "type": "function"
    },
    {
      "inputs": [
        {
          "internalType": "uint256",
          "name": "",
          "type": "uint256"
        }
      ],
      "name": "verifiers",
      "outputs": [
        {
          "internalType": "contract IVerifier",
          "name": "",
          "type": "address"
        }
      ],
      "stateMutability": "view",
      "type": "function"
    },
    {
      "inputs": [
        {
          "internalType": "uint256",
          "name": "category",
          "type": "uint256"
        },
        {
          "internalType": "uint256",
          "name": "attribute",
          "type": "uint256"
        },
        {
          "internalType": "uint256",
          "name": "groupId",
          "type": "uint256"
        },
        {
          "internalType": "uint256",
          "name": "nullifierHash",
          "type": "uint256"
        },
        {
          "internalType": "uint256[8]",
          "name": "proof",
          "type": "uint256[8]"
        }
      ],
      "name": "verify",
      "outputs": [],
      "stateMutability": "nonpayable",
      "type": "function"
    },
    {
      "inputs": [
        {
          "internalType": "uint256",
          "name": "category",
          "type": "uint256"
        },
        {
          "internalType": "uint256",
          "name": "attribute",
          "type": "uint256"
        },
        {
          "internalType": "uint256",
          "name": "groupId",
          "type": "uint256"
        },
        {
          "internalType": "uint256",
          "name": "merkle_root",
          "type": "uint256"
        },
        {
          "internalType": "uint256",
          "name": "nullifierHash",
          "type": "uint256"
        },
        {
          "internalType": "uint256[8]",
          "name": "proof",
          "type": "uint256[8]"
        },
        {
          "internalType": "uint256",
          "name": "salt",
          "type": "uint256"
        }
      ],
      "name": "verifyWithRootAndSalt",
      "outputs": [],
      "stateMutability": "nonpayable",
      "type": "function"
    },
    {
      "inputs": [
        {
          "internalType": "uint256",
          "name": "category",
          "type": "uint256"
        },
        {
          "internalType": "uint256",
          "name": "attribute",
          "type": "uint256"
        },
        {
          "internalType": "uint256",
          "name": "groupId",
          "type": "uint256"
        },
        {
          "internalType": "uint256",
          "name": "nullifierHash",
          "type": "uint256"
        },
        {
          "internalType": "uint256[8]",
          "name": "proof",
          "type": "uint256[8]"
        },
        {
          "internalType": "uint256",
          "name": "salt",
          "type": "uint256"
        }
      ],
      "name": "verifyWithSalt",
      "outputs": [],
      "stateMutability": "nonpayable",
      "type": "function"
    }
  ],
  "bytecode": "0x608060405234801561001057600080fd5b50613f24806100206000396000f3fe608060405234801561001057600080fd5b50600436106101735760003560e01c80638ce6fb4c116100de578063bd86203411610097578063f058b95b11610071578063f058b95b14610472578063f2fde38b1461048e578063f9aa3561146104aa578063ffa1ad74146104c657610173565b8063bd86203414610408578063c350a1b514610426578063dabc4d511461044257610173565b80638ce6fb4c146103345780638da5cb5b1461035057806398557f6f1461036e578063aac79d721461039e578063ac1eff68146103bc578063bbb4b2a0146103ec57610173565b8063638480be11610130578063638480be146102365780636389e10714610266578063715018a6146102965780637450e2de146102a05780637f78b862146102d457806385774d021461030457610173565b806303e49393146101785780630b5bbccb14610194578063206dd17b146101b2578063417c4fa7146101e25780634cc6ba62146101fe5780635bcd1c201461021a575b600080fd5b610192600480360381019061018d91906128f5565b6104e4565b005b61019c610500565b6040516101a99190613644565b60405180910390f35b6101cc60048036038101906101c791906129e1565b610506565b6040516101d99190613644565b60405180910390f35b6101fc60048036038101906101f791906126ea565b610538565b005b61021860048036038101906102139190612a93565b610606565b005b610234600480360381019061022f9190612b0b565b610681565b005b610250600480360381019061024b9190612890565b6106b1565b60405161025d9190613644565b60405180910390f35b610280600480360381019061027b9190612890565b6106d0565b60405161028d9190613644565b60405180910390f35b61029e6106ef565b005b6102ba60048036038101906102b591906128b9565b610703565b6040516102cb95949392919061365f565b60405180910390f35b6102ee60048036038101906102e991906128b9565b6107ce565b6040516102fb9190613622565b60405180910390f35b61031e60048036038101906103199190612a30565b6108c7565b60405161032b91906133cf565b60405180910390f35b61034e60048036038101906103499190612713565b610933565b005b610358610d9d565b6040516103659190613321565b60405180910390f35b610388600480360381019061038391906129e1565b610dc7565b6040516103959190613644565b60405180910390f35b6103a6610df9565b6040516103b39190613644565b60405180910390f35b6103d660048036038101906103d19190612890565b610dff565b6040516103e391906133f1565b60405180910390f35b61040660048036038101906104019190612961565b610e32565b005b610410610e91565b60405161041d919061340c565b60405180910390f35b610440600480360381019061043b9190612841565b610eb7565b005b61045c60048036038101906104579190612890565b61112f565b6040516104699190613644565b60405180910390f35b61048c600480360381019061048791906129e1565b61114e565b005b6104a860048036038101906104a391906126ea565b6111f8565b005b6104c460048036038101906104bf9190612b96565b61127c565b005b6104ce611743565b6040516104db91906133cf565b60405180910390f35b6104ec61177c565b6104fa84848484600a610e32565b50505050565b60045481565b600760205282600052604060002060205281600052604060002060205280600052604060002060009250925050505481565b61054061177c565b6000600560009054906101000a900473ffffffffffffffffffffffffffffffffffffffff16905081600560006101000a81548173ffffffffffffffffffffffffffffffffffffffff021916908373ffffffffffffffffffffffffffffffffffffffff1602179055508173ffffffffffffffffffffffffffffffffffffffff168173ffffffffffffffffffffffffffffffffffffffff167f11a7c3b8107d993bc669b5867b58e002c54e379b04105f91481b7860c57e6b9760405160405180910390a35050565b61061183868661114e565b600061061c8461112f565b905061063a8686868487876106318d8d6107ce565b6060015161127c565b6001600660008881526020019081526020016000206000878152602001908152602001600020600301600082825461067291906138b2565b92505081905550505050505050565b61068c84878761114e565b60006106978561112f565b90506106a88787878488888861127c565b50505050505050565b6000806000838152602001908152602001600020600201549050919050565b6000806000838152602001908152602001600020600001549050919050565b6106f761177c565b61070160006117fa565b565b60066020528160005260406000206020528060005260406000206000915091505080600001549080600101805461073990613a7d565b80601f016020809104026020016040519081016040528092919081815260200182805461076590613a7d565b80156107b25780601f10610787576101008083540402835291602001916107b2565b820191906000526020600020905b81548152906001019060200180831161079557829003601f168201915b5050505050908060020154908060030154908060040154905085565b6107d66124b3565b6006600084815260200190815260200160002060008381526020019081526020016000206040518060a00160405290816000820154815260200160018201805461081f90613a7d565b80601f016020809104026020016040519081016040528092919081815260200182805461084b90613a7d565b80156108985780601f1061086d57610100808354040283529160200191610898565b820191906000526020600020905b81548152906001019060200180831161087b57829003601f168201915b505050505081526020016002820154815260200160038201548152602001600482015481525050905092915050565b6060604051806060016040528060238152602001613ecc602391396108eb866118c0565b6108f4866118c0565b6108fd866118c0565b610906866118c0565b60405160200161091a959493929190613250565b6040516020818303038152906040529050949350505050565b61093b61177c565b60005b8a8a9050811015610d905760008b8b83818110610984577f4e487b7100000000000000000000000000000000000000000000000000000000600052603260045260246000fd5b90506020020135905060008a8a848181106109c8577f4e487b7100000000000000000000000000000000000000000000000000000000600052603260045260246000fd5b9050602002013590506000898985818110610a0c577f4e487b7100000000000000000000000000000000000000000000000000000000600052603260045260246000fd5b9050602002013590506000888886818110610a50577f4e487b7100000000000000000000000000000000000000000000000000000000600052603260045260246000fd5b9050602002013590506000610a67858585856108c7565b90506000610a74826119e4565b90506000610b0f828b8b8b818110610ab5577f4e487b7100000000000000000000000000000000000000000000000000000000600052603260045260246000fd5b9050602002810190610ac7919061375e565b8080601f016020809104026020016040519081016040528093929190818152602001838380828437600081840152601f19601f82011690508083019250505050505050611a1f565b9050610b19610d9d565b73ffffffffffffffffffffffffffffffffffffffff168173ffffffffffffffffffffffffffffffffffffffff1614610b86576040517f08c379a0000000000000000000000000000000000000000000000000000000008152600401610b7d90613502565b60405180910390fd5b600060076000888152602001908152602001600020600087815260200190815260200160002060008981526020019081526020016000205414610bfe576040517f08c379a0000000000000000000000000000000000000000000000000000000008152600401610bf590613482565b60405180910390fd5b610c09868689611a46565b836007600088815260200190815260200160002060008781526020019081526020016000206000898152602001908152602001600020819055506000600560009054906101000a900473ffffffffffffffffffffffffffffffffffffffff1673ffffffffffffffffffffffffffffffffffffffff166245c88d898989896040518563ffffffff1660e01b8152600401610ca59493929190613719565b602060405180830381600087803b158015610cbf57600080fd5b505af1158015610cd3573d6000803e3d6000fd5b505050506040513d601f19601f82011682018060405250810190610cf79190612818565b905080610d39576040517f08c379a0000000000000000000000000000000000000000000000000000000008152600401610d3090613542565b60405180910390fd5b877fe67a5e82598f7f53d4b460514b6cd2b3ff2694703b59b3997c9762fa61853905888888604051610d6d939291906136e2565b60405180910390a250505050505050508080610d8890613aaf565b91505061093e565b5050505050505050505050565b6000600160009054906101000a900473ffffffffffffffffffffffffffffffffffffffff16905090565b600860205282600052604060002060205281600052604060002060205280600052604060002060009250925050505481565b60035481565b60026020528060005260406000206000915054906101000a900473ffffffffffffffffffffffffffffffffffffffff1681565b610e3a61177c565b610e8a858585858080601f016020809104026020016040519081016040528093929190818152602001838380828437600081840152601f19601f8201169050808301925050505050505084611b50565b5050505050565b600560009054906101000a900473ffffffffffffffffffffffffffffffffffffffff1681565b6000600160159054906101000a900460ff16159050808015610eea575060018060149054906101000a900460ff1660ff16105b80610f185750610ef930611c14565b158015610f17575060018060149054906101000a900460ff1660ff16145b5b610f57576040517f08c379a0000000000000000000000000000000000000000000000000000000008152600401610f4e90613522565b60405180910390fd5b60018060146101000a81548160ff021916908360ff1602179055508015610f935760018060156101000a81548160ff0219169083151502179055505b610f9b611c37565b826080610fa89190613939565b600481905550836002600085815260200190815260200160002060006101000a81548173ffffffffffffffffffffffffffffffffffffffff021916908373ffffffffffffffffffffffffffffffffffffffff160217905550600060038190555061104b600c60646040518060400160405280600b81526020017f706f6d704554482d31303000000000000000000000000000000000000000000081525086611b50565b61108e600d60646040518060400160405280600b81526020017f706f6d70424e422d31303000000000000000000000000000000000000000000081525086611b50565b81600560006101000a81548173ffffffffffffffffffffffffffffffffffffffff021916908373ffffffffffffffffffffffffffffffffffffffff1602179055508015611129576000600160156101000a81548160ff0219169083151502179055507f7f26b83ff96e1f2b6a682f133852f6798a09c465da95921460cefb384740249860016040516111209190613427565b60405180910390a15b50505050565b6000806000838152602001908152602001600020600101549050919050565b600061115a83836107ce565b600001519050808410156111a3576040517f08c379a000000000000000000000000000000000000000000000000000000000815260040161119a906135a2565b60405180910390fd5b600454816111b191906138b2565b84106111f2576040517f08c379a00000000000000000000000000000000000000000000000000000000081526004016111e990613582565b60405180910390fd5b50505050565b61120061177c565b600073ffffffffffffffffffffffffffffffffffffffff168173ffffffffffffffffffffffffffffffffffffffff161415611270576040517f08c379a0000000000000000000000000000000000000000000000000000000008152600401611267906134a2565b60405180910390fd5b611279816117fa565b50565b61128785888861114e565b6000611292866106d0565b90506000600367ffffffffffffffff8111156112d7577f4e487b7100000000000000000000000000000000000000000000000000000000600052604160045260246000fd5b6040519080825280602002602001820160405280156113055781602001602082028036833780820191505090505b5090508581600081518110611343577f4e487b7100000000000000000000000000000000000000000000000000000000600052603260045260246000fd5b602002602001018181525050848160018151811061138a577f4e487b7100000000000000000000000000000000000000000000000000000000600052603260045260246000fd5b60200260200101818152505082816002815181106113d1577f4e487b7100000000000000000000000000000000000000000000000000000000600052603260045260246000fd5b60200260200101818152505060006002600084815260200190815260200160002060009054906101000a900473ffffffffffffffffffffffffffffffffffffffff1673ffffffffffffffffffffffffffffffffffffffff1663c32e370e604051806040016040528088600060088110611473577f4e487b7100000000000000000000000000000000000000000000000000000000600052603260045260246000fd5b60200201358152602001886001600881106114b7577f4e487b7100000000000000000000000000000000000000000000000000000000600052603260045260246000fd5b6020020135815250604051806040016040528060405180604001604052808b60026008811061150f577f4e487b7100000000000000000000000000000000000000000000000000000000600052603260045260246000fd5b602002013581526020018b600360088110611553577f4e487b7100000000000000000000000000000000000000000000000000000000600052603260045260246000fd5b6020020135815250815260200160405180604001604052808b6004600881106115a5577f4e487b7100000000000000000000000000000000000000000000000000000000600052603260045260246000fd5b602002013581526020018b6005600881106115e9577f4e487b7100000000000000000000000000000000000000000000000000000000600052603260045260246000fd5b602002013581525081525060405180604001604052808a600660088110611639577f4e487b7100000000000000000000000000000000000000000000000000000000600052603260045260246000fd5b602002013581526020018a60076008811061167d577f4e487b7100000000000000000000000000000000000000000000000000000000600052603260045260246000fd5b6020020135815250866040518563ffffffff1660e01b81526004016116a5949392919061333c565b60206040518083038186803b1580156116bd57600080fd5b505afa1580156116d1573d6000803e3d6000fd5b505050506040513d601f19601f820116820180604052508101906116f59190612818565b905080611737576040517f08c379a000000000000000000000000000000000000000000000000000000000815260040161172e906134c2565b60405180910390fd5b50505050505050505050565b6040518060400160405280600381526020017f302e35000000000000000000000000000000000000000000000000000000000081525081565b611784611c49565b73ffffffffffffffffffffffffffffffffffffffff166117a2610d9d565b73ffffffffffffffffffffffffffffffffffffffff16146117f8576040517f08c379a00000000000000000000000000000000000000000000000000000000081526004016117ef90613562565b60405180910390fd5b565b6000600160009054906101000a900473ffffffffffffffffffffffffffffffffffffffff16905081600160006101000a81548173ffffffffffffffffffffffffffffffffffffffff021916908373ffffffffffffffffffffffffffffffffffffffff1602179055508173ffffffffffffffffffffffffffffffffffffffff168173ffffffffffffffffffffffffffffffffffffffff167f8be0079c531659141344cd1fd0a4f28419497f9722a3daafe3b4186f6b6457e060405160405180910390a35050565b6060600060016118cf84611c51565b01905060008167ffffffffffffffff811115611914577f4e487b7100000000000000000000000000000000000000000000000000000000600052604160045260246000fd5b6040519080825280601f01601f1916602001820160405280156119465781602001600182028036833780820191505090505b509050600082602001820190505b6001156119d9578080600190039150507f3031323334353637383961626364656600000000000000000000000000000000600a86061a8153600a85816119c3577f4e487b7100000000000000000000000000000000000000000000000000000000600052601260045260246000fd5b04945060008514156119d4576119d9565b611954565b819350505050919050565b60006119f082516118c0565b82604051602001611a029291906132d7565b604051602081830303815290604052805190602001209050919050565b6000806000611a2e8585611e88565b91509150611a3b81611eda565b819250505092915050565b60006006600085815260200190815260200160002060008481526020019081526020016000209050600081600001549050600082600201546002901b8360040154611a919190613908565b82611a9c91906138b2565b90506000836004015414158015611aca5750600083600201546002901b8460040154611ac89190613b02565b145b15611aea57611ae981611adc90613aaf565b9150818460020154612178565b5b611af481856122a9565b80600860008881526020019081526020016000206000878152602001908152602001600020600086815260200190815260200160002081905550826004016000815480929190611b4390613aaf565b9190505550505050505050565b611b5c60035482612178565b6040518060a001604052806003548152602001838152602001828152602001600081526020016000815250600660008681526020019081526020016000206000858152602001908152602001600020600082015181600001556020820151816001019080519060200190611bd19291906124e2565b5060408201518160020155606082015181600301556080820151816004015590505060045460036000828254611c0791906138b2565b9250508190555050505050565b6000808273ffffffffffffffffffffffffffffffffffffffff163b119050919050565b611c47611c42611c49565b6117fa565b565b600033905090565b600080600090507a184f03e93ff9f4daa797ed6e38ed64bf6a1f0100000000000000008310611cd5577a184f03e93ff9f4daa797ed6e38ed64bf6a1f0100000000000000008381611ccb577f4e487b7100000000000000000000000000000000000000000000000000000000600052601260045260246000fd5b0492506040810190505b6d04ee2d6d415b85acef81000000008310611d38576d04ee2d6d415b85acef81000000008381611d2e577f4e487b7100000000000000000000000000000000000000000000000000000000600052601260045260246000fd5b0492506020810190505b662386f26fc100008310611d8d57662386f26fc100008381611d83577f4e487b7100000000000000000000000000000000000000000000000000000000600052601260045260246000fd5b0492506010810190505b6305f5e1008310611ddc576305f5e1008381611dd2577f4e487b7100000000000000000000000000000000000000000000000000000000600052601260045260246000fd5b0492506008810190505b6127108310611e27576127108381611e1d577f4e487b7100000000000000000000000000000000000000000000000000000000600052601260045260246000fd5b0492506004810190505b60648310611e705760648381611e66577f4e487b7100000000000000000000000000000000000000000000000000000000600052601260045260246000fd5b0492506002810190505b600a8310611e7f576001810190505b80915050919050565b600080604183511415611eca5760008060006020860151925060408601519150606086015160001a9050611ebe878285856123d0565b94509450505050611ed3565b60006002915091505b9250929050565b60006004811115611f14577f4e487b7100000000000000000000000000000000000000000000000000000000600052602160045260246000fd5b816004811115611f4d577f4e487b7100000000000000000000000000000000000000000000000000000000600052602160045260246000fd5b1415611f5857612175565b60016004811115611f92577f4e487b7100000000000000000000000000000000000000000000000000000000600052602160045260246000fd5b816004811115611fcb577f4e487b7100000000000000000000000000000000000000000000000000000000600052602160045260246000fd5b141561200c576040517f08c379a000000000000000000000000000000000000000000000000000000000815260040161200390613442565b60405180910390fd5b60026004811115612046577f4e487b7100000000000000000000000000000000000000000000000000000000600052602160045260246000fd5b81600481111561207f577f4e487b7100000000000000000000000000000000000000000000000000000000600052602160045260246000fd5b14156120c0576040517f08c379a00000000000000000000000000000000000000000000000000000000081526004016120b790613462565b60405180910390fd5b600360048111156120fa577f4e487b7100000000000000000000000000000000000000000000000000000000600052602160045260246000fd5b816004811115612133577f4e487b7100000000000000000000000000000000000000000000000000000000600052602160045260246000fd5b1415612174576040517f08c379a000000000000000000000000000000000000000000000000000000000815260040161216b906134e2565b60405180910390fd5b5b50565b6000612183836106d0565b146121ba576040517f8121725b00000000000000000000000000000000000000000000000000000000815260040160405180910390fd5b60006008836040516020016121cf9190613306565b6040516020818303038152906040528051906020012060001c901c905060008084815260200190815260200160002073__$0c6eb7207c37accf1552a1c47686411ac0$__631095fbb4909184846040518463ffffffff1660e01b815260040161223a939291906135eb565b60006040518083038186803b15801561225257600080fd5b505af4158015612266573d6000803e3d6000fd5b50505050827f0d000126c26c1bbe400fd2332187f75d58b69306f9ec47b408686189d3a00833838360405161229c9291906136b9565b60405180910390a2505050565b60006122b4836106d0565b14156122ec576040517f029f057900000000000000000000000000000000000000000000000000000000815260040160405180910390fd5b60008083815260200190815260200160002073__$0c6eb7207c37accf1552a1c47686411ac0$__63168703fa9091836040518363ffffffff1660e01b81526004016123389291906135c2565b60006040518083038186803b15801561235057600080fd5b505af4158015612364573d6000803e3d6000fd5b5050505060006123738361112f565b905060006001612382856106b1565b61238c9190613939565b9050837f19239b3f93cd10558aaf11423af70c77763bf54f52bcc75bfa74d4d13548cde98285856040516123c2939291906136e2565b60405180910390a250505050565b6000807f7fffffffffffffffffffffffffffffff5d576e7357a4501ddfe92f46681b20a08360001c111561240b5760006003915091506124aa565b600060018787878760405160008152602001604052604051612430949392919061338a565b6020604051602081039080840390855afa158015612452573d6000803e3d6000fd5b505050602060405103519050600073ffffffffffffffffffffffffffffffffffffffff168173ffffffffffffffffffffffffffffffffffffffff1614156124a1576000600192509250506124aa565b80600092509250505b94509492505050565b6040518060a0016040528060008152602001606081526020016000815260200160008152602001600081525090565b8280546124ee90613a7d565b90600052602060002090601f0160209004810192826125105760008555612557565b82601f1061252957805160ff1916838001178555612557565b82800160010185558215612557579182015b8281111561255657825182559160200191906001019061253b565b5b5090506125649190612568565b5090565b5b80821115612581576000816000905550600101612569565b5090565b60008135905061259481613e58565b92915050565b60008083601f8401126125ac57600080fd5b8235905067ffffffffffffffff8111156125c557600080fd5b6020830191508360208202830111156125dd57600080fd5b9250929050565b6000819050826020600802820111156125fc57600080fd5b92915050565b60008083601f84011261261457600080fd5b8235905067ffffffffffffffff81111561262d57600080fd5b60208301915083602082028301111561264557600080fd5b9250929050565b60008151905061265b81613e6f565b92915050565b60008135905061267081613e86565b92915050565b60008135905061268581613e9d565b92915050565b60008083601f84011261269d57600080fd5b8235905067ffffffffffffffff8111156126b657600080fd5b6020830191508360018202830111156126ce57600080fd5b9250929050565b6000813590506126e481613eb4565b92915050565b6000602082840312156126fc57600080fd5b600061270a84828501612585565b91505092915050565b60008060008060008060008060008060a08b8d03121561273257600080fd5b60008b013567ffffffffffffffff81111561274c57600080fd5b6127588d828e01612602565b9a509a505060208b013567ffffffffffffffff81111561277757600080fd5b6127838d828e01612602565b985098505060408b013567ffffffffffffffff8111156127a257600080fd5b6127ae8d828e01612602565b965096505060608b013567ffffffffffffffff8111156127cd57600080fd5b6127d98d828e01612602565b945094505060808b013567ffffffffffffffff8111156127f857600080fd5b6128048d828e0161259a565b92509250509295989b9194979a5092959850565b60006020828403121561282a57600080fd5b60006128388482850161264c565b91505092915050565b60008060006060848603121561285657600080fd5b600061286486828701612661565b9350506020612875868287016126d5565b925050604061288686828701612676565b9150509250925092565b6000602082840312156128a257600080fd5b60006128b0848285016126d5565b91505092915050565b600080604083850312156128cc57600080fd5b60006128da858286016126d5565b92505060206128eb858286016126d5565b9150509250929050565b6000806000806060858703121561290b57600080fd5b6000612919878288016126d5565b945050602061292a878288016126d5565b935050604085013567ffffffffffffffff81111561294757600080fd5b6129538782880161268b565b925092505092959194509250565b60008060008060006080868803121561297957600080fd5b6000612987888289016126d5565b9550506020612998888289016126d5565b945050604086013567ffffffffffffffff8111156129b557600080fd5b6129c18882890161268b565b935093505060606129d4888289016126d5565b9150509295509295909350565b6000806000606084860312156129f657600080fd5b6000612a04868287016126d5565b9350506020612a15868287016126d5565b9250506040612a26868287016126d5565b9150509250925092565b60008060008060808587031215612a4657600080fd5b6000612a54878288016126d5565b9450506020612a65878288016126d5565b9350506040612a76878288016126d5565b9250506060612a87878288016126d5565b91505092959194509250565b60008060008060006101808688031215612aac57600080fd5b6000612aba888289016126d5565b9550506020612acb888289016126d5565b9450506040612adc888289016126d5565b9350506060612aed888289016126d5565b9250506080612afe888289016125e4565b9150509295509295909350565b6000806000806000806101a08789031215612b2557600080fd5b6000612b3389828a016126d5565b9650506020612b4489828a016126d5565b9550506040612b5589828a016126d5565b9450506060612b6689828a016126d5565b9350506080612b7789828a016125e4565b925050610180612b8989828a016126d5565b9150509295509295509295565b60008060008060008060006101c0888a031215612bb257600080fd5b6000612bc08a828b016126d5565b9750506020612bd18a828b016126d5565b9650506040612be28a828b016126d5565b9550506060612bf38a828b016126d5565b9450506080612c048a828b016126d5565b93505060a0612c158a828b016125e4565b9250506101a0612c278a828b016126d5565b91505092959891949750929550565b6000612c428383612ccc565b60408301905092915050565b6000612c5a83836131fd565b60208301905092915050565b612c6f8161396d565b82525050565b612c7e816137d9565b612c888184613837565b9250612c93826137b5565b8060005b83811015612cc4578151612cab8782612c36565b9650612cb683613810565b925050600181019050612c97565b505050505050565b612cd5816137e4565b612cdf8184613842565b9250612cea826137bf565b8060005b83811015612d1b578151612d028782612c4e565b9650612d0d8361381d565b925050600181019050612cee565b505050505050565b612d2c816137e4565b612d36818461384d565b9250612d41826137bf565b8060005b83811015612d72578151612d598782612c4e565b9650612d648361381d565b925050600181019050612d45565b505050505050565b6000612d85826137ef565b612d8f8185613858565b9350612d9a836137c9565b8060005b83811015612dcb578151612db28882612c4e565b9750612dbd8361382a565b925050600181019050612d9e565b5085935050505092915050565b612de18161398b565b82525050565b6000612df2826137fa565b612dfc8185613869565b9350612e0c818560208601613a4a565b612e1581613bc0565b840191505092915050565b6000612e2b826137fa565b612e35818561387a565b9350612e45818560208601613a4a565b80840191505092915050565b612e5a816139f0565b82525050565b612e6981613a14565b82525050565b612e7881613a38565b82525050565b6000612e8982613805565b612e938185613885565b9350612ea3818560208601613a4a565b612eac81613bc0565b840191505092915050565b6000612ec282613805565b612ecc8185613896565b9350612edc818560208601613a4a565b612ee581613bc0565b840191505092915050565b6000612efb82613805565b612f0581856138a7565b9350612f15818560208601613a4a565b80840191505092915050565b6000612f2e601883613896565b9150612f3982613bd1565b602082019050919050565b6000612f51601f83613896565b9150612f5c82613bfa565b602082019050919050565b6000612f74600c83613896565b9150612f7f82613c23565b602082019050919050565b6000612f97602683613896565b9150612fa282613c4c565b604082019050919050565b6000612fba600e83613896565b9150612fc582613c9b565b602082019050919050565b7f2073627420696420000000000000000000000000000000000000000000000000815250565b6000613003602283613896565b915061300e82613cc4565b604082019050919050565b6000613026601e83613896565b915061303182613d13565b602082019050919050565b7f206964656e746974792000000000000000000000000000000000000000000000815250565b600061306f602e83613896565b915061307a82613d3c565b604082019050919050565b6000613092601483613896565b915061309d82613d8b565b602082019050919050565b7f2073627420617474726962757465200000000000000000000000000000000000815250565b60006130db602083613896565b91506130e682613db4565b602082019050919050565b60006130fe601a836138a7565b915061310982613ddd565b601a82019050919050565b6000613121600b83613896565b915061312c82613e06565b602082019050919050565b7f207362742063617465676f727920000000000000000000000000000000000000815250565b600061316a600d83613896565b915061317582613e2f565b602082019050919050565b8082525050565b600060a08301600083015161319f60008601826131fd565b50602083015184820360208601526131b78282612e7e565b91505060408301516131cc60408601826131fd565b5060608301516131df60608601826131fd565b5060808301516131f260808601826131fd565b508091505092915050565b613206816139d9565b82525050565b613215816139d9565b82525050565b613224816139d9565b82525050565b61323b613236826139d9565b613af8565b82525050565b61324a816139e3565b82525050565b600061325c8288612e20565b91506132678261303c565b600a820191506132778287612e20565b915061328282613137565b600e820191506132928286612e20565b915061329d826130a8565b600f820191506132ad8285612e20565b91506132b882612fd0565b6008820191506132c88284612e20565b91508190509695505050505050565b60006132e2826130f1565b91506132ee8285612ef0565b91506132fa8284612e20565b91508190509392505050565b6000613312828461322a565b60208201915081905092915050565b60006020820190506133366000830184612c66565b92915050565b6000610120820190506133526000830187612d23565b61335f6040830186612c75565b61336c60c0830185612d23565b81810361010083015261337f8184612d7a565b905095945050505050565b600060808201905061339f6000830187612dd8565b6133ac6020830186613241565b6133b96040830185612dd8565b6133c66060830184612dd8565b95945050505050565b600060208201905081810360008301526133e98184612de7565b905092915050565b60006020820190506134066000830184612e51565b92915050565b60006020820190506134216000830184612e60565b92915050565b600060208201905061343c6000830184612e6f565b92915050565b6000602082019050818103600083015261345b81612f21565b9050919050565b6000602082019050818103600083015261347b81612f44565b9050919050565b6000602082019050818103600083015261349b81612f67565b9050919050565b600060208201905081810360008301526134bb81612f8a565b9050919050565b600060208201905081810360008301526134db81612fad565b9050919050565b600060208201905081810360008301526134fb81612ff6565b9050919050565b6000602082019050818103600083015261351b81613019565b9050919050565b6000602082019050818103600083015261353b81613062565b9050919050565b6000602082019050818103600083015261355b81613085565b9050919050565b6000602082019050818103600083015261357b816130ce565b9050919050565b6000602082019050818103600083015261359b81613114565b9050919050565b600060208201905081810360008301526135bb8161315d565b9050919050565b60006040820190506135d76000830185613180565b6135e4602083018461321b565b9392505050565b60006060820190506136006000830186613180565b61360d602083018561321b565b61361a604083018461321b565b949350505050565b6000602082019050818103600083015261363c8184613187565b905092915050565b6000602082019050613659600083018461320c565b92915050565b600060a082019050613674600083018861320c565b81810360208301526136868187612eb7565b9050613695604083018661320c565b6136a2606083018561320c565b6136af608083018461320c565b9695505050505050565b60006040820190506136ce600083018561320c565b6136db602083018461320c565b9392505050565b60006060820190506136f7600083018661320c565b613704602083018561320c565b613711604083018461320c565b949350505050565b600060808201905061372e600083018761320c565b61373b602083018661320c565b613748604083018561320c565b613755606083018461320c565b95945050505050565b6000808335600160200384360303811261377757600080fd5b80840192508235915067ffffffffffffffff82111561379557600080fd5b6020830192506001820236038313156137ad57600080fd5b509250929050565b6000819050919050565b6000819050919050565b6000819050602082019050919050565b600060029050919050565b600060029050919050565b600081519050919050565b600081519050919050565b600081519050919050565b6000602082019050919050565b6000602082019050919050565b6000602082019050919050565b600081905092915050565b600081905092915050565b600081905092915050565b600082825260208201905092915050565b600082825260208201905092915050565b600081905092915050565b600082825260208201905092915050565b600082825260208201905092915050565b600081905092915050565b60006138bd826139d9565b91506138c8836139d9565b9250827fffffffffffffffffffffffffffffffffffffffffffffffffffffffffffffffff038211156138fd576138fc613b33565b5b828201905092915050565b6000613913826139d9565b915061391e836139d9565b92508261392e5761392d613b62565b5b828204905092915050565b6000613944826139d9565b915061394f836139d9565b92508282101561396257613961613b33565b5b828203905092915050565b6000613978826139b9565b9050919050565b60008115159050919050565b6000819050919050565b60006139a08261396d565b9050919050565b60006139b28261396d565b9050919050565b600073ffffffffffffffffffffffffffffffffffffffff82169050919050565b6000819050919050565b600060ff82169050919050565b60006139fb82613a02565b9050919050565b6000613a0d826139b9565b9050919050565b6000613a1f82613a26565b9050919050565b6000613a31826139b9565b9050919050565b6000613a43826139e3565b9050919050565b60005b83811015613a68578082015181840152602081019050613a4d565b83811115613a77576000848401525b50505050565b60006002820490506001821680613a9557607f821691505b60208210811415613aa957613aa8613b91565b5b50919050565b6000613aba826139d9565b91507fffffffffffffffffffffffffffffffffffffffffffffffffffffffffffffffff821415613aed57613aec613b33565b5b600182019050919050565b6000819050919050565b6000613b0d826139d9565b9150613b18836139d9565b925082613b2857613b27613b62565b5b828206905092915050565b7f4e487b7100000000000000000000000000000000000000000000000000000000600052601160045260246000fd5b7f4e487b7100000000000000000000000000000000000000000000000000000000600052601260045260246000fd5b7f4e487b7100000000000000000000000000000000000000000000000000000000600052602260045260246000fd5b6000601f19601f8301169050919050565b7f45434453413a20696e76616c6964207369676e61747572650000000000000000600082015250565b7f45434453413a20696e76616c6964207369676e6174757265206c656e67746800600082015250565b7f7a6b736274206578697374210000000000000000000000000000000000000000600082015250565b7f4f776e61626c653a206e6577206f776e657220697320746865207a65726f206160008201527f6464726573730000000000000000000000000000000000000000000000000000602082015250565b7f70726f6f6620696e76616c696421000000000000000000000000000000000000600082015250565b7f45434453413a20696e76616c6964207369676e6174757265202773272076616c60008201527f7565000000000000000000000000000000000000000000000000000000000000602082015250565b7f496e76616c6964204365727469666963617465205369676e6174757265210000600082015250565b7f496e697469616c697a61626c653a20636f6e747261637420697320616c72656160008201527f647920696e697469616c697a6564000000000000000000000000000000000000602082015250565b7f6661696c656420746f206d696e74207a6b534254000000000000000000000000600082015250565b7f4f776e61626c653a2063616c6c6572206973206e6f7420746865206f776e6572600082015250565b7f19457468657265756d205369676e6564204d6573736167653a0a000000000000600082015250565b7f696420746f6f2062696721000000000000000000000000000000000000000000600082015250565b7f696420746f6f20736d616c6c2100000000000000000000000000000000000000600082015250565b613e618161396d565b8114613e6c57600080fd5b50565b613e788161397f565b8114613e8357600080fd5b50565b613e8f81613995565b8114613e9a57600080fd5b50565b613ea6816139a7565b8114613eb157600080fd5b50565b613ebd816139d9565b8114613ec857600080fd5b5056fe5369676e2074686973206d65657361676520746f20636c61696d207a6b534254203a20a2646970667358221220f297cc36226d9b25324d3bc5699d4f24c9567bfd49edfbb09a96de19c75f753064736f6c63430008040033",
  "linkReferences": {
    "@zk-kit/incremental-merkle-tree.sol/IncrementalBinaryTree.sol": {
      "IncrementalBinaryTree": [
        {
          "length": 20,
          "start": 8736
        },
        {
          "length": 20,
          "start": 8992
        }
      ]
    }
  },
  "deployedLinkReferences": {
    "@zk-kit/incremental-merkle-tree.sol/IncrementalBinaryTree.sol": {
      "IncrementalBinaryTree": [
        {
          "length": 20,
          "start": 8704
        },
        {
          "length": 20,
          "start": 8960
        }
      ]
    }
  }
}